{
  "contractName": "ClaimContract",
  "abi": [
    {
      "inputs": [
        {
          "internalType": "address payable",
          "name": "_lateClaimBeneficorAddressReinsertPot",
          "type": "address"
        },
        {
          "internalType": "address payable",
          "name": "_lateClaimBeneficorAddressDAO",
          "type": "address"
        },
        {
          "internalType": "bytes",
          "name": "_prefixStr",
          "type": "bytes"
        }
      ],
      "stateMutability": "nonpayable",
      "type": "constructor"
    },
    {
      "anonymous": false,
      "inputs": [
        {
          "indexed": true,
          "internalType": "bytes20",
          "name": "_from",
          "type": "bytes20"
        },
        {
          "indexed": false,
          "internalType": "address",
          "name": "_to",
          "type": "address"
        },
        {
          "indexed": false,
          "internalType": "uint256",
          "name": "amount",
          "type": "uint256"
        },
        {
          "indexed": false,
          "internalType": "uint256",
          "name": "_nominator",
          "type": "uint256"
        },
        {
          "indexed": false,
          "internalType": "uint256",
          "name": "_denominator",
          "type": "uint256"
        }
      ],
      "name": "Claim",
      "type": "event"
    },
    {
      "inputs": [
        {
          "internalType": "bytes20",
          "name": "",
          "type": "bytes20"
        }
      ],
      "name": "balances",
      "outputs": [
        {
          "internalType": "uint256",
          "name": "",
          "type": "uint256"
        }
      ],
      "stateMutability": "view",
      "type": "function"
    },
    {
      "inputs": [],
      "name": "deploymentTimestamp",
      "outputs": [
        {
          "internalType": "uint256",
          "name": "",
          "type": "uint256"
        }
      ],
      "stateMutability": "view",
      "type": "function"
    },
    {
      "inputs": [],
      "name": "dilution_s1_75_executed",
      "outputs": [
        {
          "internalType": "bool",
          "name": "",
          "type": "bool"
        }
      ],
      "stateMutability": "view",
      "type": "function"
    },
    {
      "inputs": [],
      "name": "dilution_s2_50_executed",
      "outputs": [
        {
          "internalType": "bool",
          "name": "",
          "type": "bool"
        }
      ],
      "stateMutability": "view",
      "type": "function"
    },
    {
      "inputs": [],
      "name": "dilution_s3_0_executed",
      "outputs": [
        {
          "internalType": "bool",
          "name": "",
          "type": "bool"
        }
      ],
      "stateMutability": "view",
      "type": "function"
    },
    {
      "inputs": [],
      "name": "lateClaimBeneficorAddressDAO",
      "outputs": [
        {
          "internalType": "address payable",
          "name": "",
          "type": "address"
        }
      ],
      "stateMutability": "view",
      "type": "function"
    },
    {
      "inputs": [],
      "name": "lateClaimBeneficorAddressReinsertPot",
      "outputs": [
        {
          "internalType": "address payable",
          "name": "",
          "type": "address"
        }
      ],
      "stateMutability": "view",
      "type": "function"
    },
    {
      "inputs": [],
      "name": "prefixStr",
      "outputs": [
        {
          "internalType": "bytes",
          "name": "",
          "type": "bytes"
        }
      ],
      "stateMutability": "view",
      "type": "function"
    },
    {
      "inputs": [
        {
          "internalType": "bytes32",
          "name": "hashValue",
          "type": "bytes32"
        },
        {
          "internalType": "bytes32",
          "name": "r",
          "type": "bytes32"
        },
        {
          "internalType": "bytes32",
          "name": "s",
          "type": "bytes32"
        },
        {
          "internalType": "uint8",
          "name": "v",
          "type": "uint8"
        }
      ],
      "name": "getPublicKeyFromBitcoinSignature",
      "outputs": [
        {
          "internalType": "address",
          "name": "",
          "type": "address"
        }
      ],
      "stateMutability": "pure",
      "type": "function"
    },
    {
      "inputs": [
        {
          "internalType": "bytes32",
          "name": "_publicKeyX",
          "type": "bytes32"
        },
        {
          "internalType": "bytes32",
          "name": "_publicKeyY",
          "type": "bytes32"
        },
        {
          "internalType": "enum ClaimContract.AddressType",
          "name": "_addressType",
          "type": "uint8"
        }
      ],
      "name": "publicKeyToBitcoinAddress",
      "outputs": [
        {
          "internalType": "bytes20",
          "name": "",
          "type": "bytes20"
        }
      ],
      "stateMutability": "pure",
      "type": "function"
    },
    {
      "inputs": [
        {
          "internalType": "bytes32",
          "name": "_publicKeyX",
          "type": "bytes32"
        },
        {
          "internalType": "bytes32",
          "name": "_publicKeyY",
          "type": "bytes32"
        }
      ],
      "name": "publicKeyToEthereumAddress",
      "outputs": [
        {
          "internalType": "address",
          "name": "",
          "type": "address"
        }
      ],
      "stateMutability": "pure",
      "type": "function"
    },
    {
      "inputs": [
        {
          "internalType": "bytes32",
          "name": "pubKeyX",
          "type": "bytes32"
        },
        {
          "internalType": "bytes32",
          "name": "pubKeyY",
          "type": "bytes32"
        }
      ],
      "name": "pubKeyToEthAddress",
      "outputs": [
        {
          "internalType": "address",
          "name": "",
          "type": "address"
        }
      ],
      "stateMutability": "pure",
      "type": "function"
    },
    {
      "inputs": [
        {
          "internalType": "bytes",
          "name": "data",
          "type": "bytes"
        }
      ],
      "name": "calcHash256",
      "outputs": [
        {
          "internalType": "bytes32",
          "name": "",
          "type": "bytes32"
        }
      ],
      "stateMutability": "pure",
      "type": "function"
    },
    {
      "inputs": [
        {
          "internalType": "address",
          "name": "_addr",
          "type": "address"
        },
        {
          "internalType": "bool",
          "name": "_includeAddrChecksum",
          "type": "bool"
        }
      ],
      "name": "calculateAddressString",
      "outputs": [
        {
          "internalType": "bytes",
          "name": "addrStr",
          "type": "bytes"
        }
      ],
      "stateMutability": "pure",
      "type": "function"
    },
    {
      "inputs": [
        {
          "internalType": "address",
          "name": "_claimToAddr",
          "type": "address"
        },
        {
          "internalType": "bool",
          "name": "_claimAddrChecksum",
          "type": "bool"
        },
        {
          "internalType": "bytes",
          "name": "_postfix",
          "type": "bytes"
        }
      ],
      "name": "createClaimMessage",
      "outputs": [
        {
          "internalType": "bytes",
          "name": "",
          "type": "bytes"
        }
      ],
      "stateMutability": "view",
      "type": "function"
    },
    {
      "inputs": [
        {
          "internalType": "address",
          "name": "_claimToAddr",
          "type": "address"
        },
        {
          "internalType": "bool",
          "name": "_claimAddrChecksum",
          "type": "bool"
        },
        {
          "internalType": "bytes",
          "name": "_postfix",
          "type": "bytes"
        }
      ],
      "name": "getHashForClaimMessage",
      "outputs": [
        {
          "internalType": "bytes32",
          "name": "",
          "type": "bytes32"
        }
      ],
      "stateMutability": "view",
      "type": "function"
    },
    {
      "inputs": [
        {
          "internalType": "address",
          "name": "_claimToAddr",
          "type": "address"
        },
        {
          "internalType": "bool",
          "name": "_claimAddrChecksum",
          "type": "bool"
        },
        {
          "internalType": "bytes",
          "name": "_postfix",
          "type": "bytes"
        },
        {
          "internalType": "uint8",
          "name": "_v",
          "type": "uint8"
        },
        {
          "internalType": "bytes32",
          "name": "_r",
          "type": "bytes32"
        },
        {
          "internalType": "bytes32",
          "name": "_s",
          "type": "bytes32"
        }
      ],
      "name": "getEthAddressFromSignature",
      "outputs": [
        {
          "internalType": "address",
          "name": "",
          "type": "address"
        }
      ],
      "stateMutability": "view",
      "type": "function"
    },
    {
      "inputs": [
        {
          "internalType": "address",
          "name": "_claimToAddr",
          "type": "address"
        },
        {
          "internalType": "bool",
          "name": "_claimAddrChecksum",
          "type": "bool"
        },
        {
          "internalType": "bytes",
          "name": "_postFix",
          "type": "bytes"
        },
        {
          "internalType": "bytes32",
          "name": "_pubKeyX",
          "type": "bytes32"
        },
        {
          "internalType": "bytes32",
          "name": "_pubKeyY",
          "type": "bytes32"
        },
        {
          "internalType": "uint8",
          "name": "_v",
          "type": "uint8"
        },
        {
          "internalType": "bytes32",
          "name": "_r",
          "type": "bytes32"
        },
        {
          "internalType": "bytes32",
          "name": "_s",
          "type": "bytes32"
        }
      ],
      "name": "claimMessageMatchesSignature",
      "outputs": [
        {
          "internalType": "bool",
          "name": "",
          "type": "bool"
        }
      ],
      "stateMutability": "view",
      "type": "function"
    },
    {
      "inputs": [],
      "name": "getDilutionTimestamp1",
      "outputs": [
        {
          "internalType": "uint256",
          "name": "",
          "type": "uint256"
        }
      ],
      "stateMutability": "view",
      "type": "function"
    },
    {
      "inputs": [],
      "name": "getDilutionTimestamp2",
      "outputs": [
        {
          "internalType": "uint256",
          "name": "",
          "type": "uint256"
        }
      ],
      "stateMutability": "view",
      "type": "function"
    },
    {
      "inputs": [],
      "name": "getDilutionTimestamp3",
      "outputs": [
        {
          "internalType": "uint256",
          "name": "",
          "type": "uint256"
        }
      ],
      "stateMutability": "view",
      "type": "function"
    },
    {
      "inputs": [],
      "name": "dilute1",
      "outputs": [
        {
          "internalType": "uint256",
          "name": "",
          "type": "uint256"
        }
      ],
      "stateMutability": "nonpayable",
      "type": "function"
    },
    {
      "inputs": [],
      "name": "dilute2",
      "outputs": [
        {
          "internalType": "uint256",
          "name": "",
          "type": "uint256"
        }
      ],
      "stateMutability": "nonpayable",
      "type": "function"
    },
    {
      "inputs": [],
      "name": "dilute3",
      "outputs": [
        {
          "internalType": "uint256",
          "name": "",
          "type": "uint256"
        }
      ],
      "stateMutability": "nonpayable",
      "type": "function"
    },
    {
      "inputs": [],
      "name": "getCurrentDilutedClaimFactor",
      "outputs": [
        {
          "internalType": "uint256",
          "name": "nominator",
          "type": "uint256"
        },
        {
          "internalType": "uint256",
          "name": "denominator",
          "type": "uint256"
        }
      ],
      "stateMutability": "view",
      "type": "function"
    },
    {
      "inputs": [
        {
          "internalType": "bytes20",
          "name": "oldAddress",
          "type": "bytes20"
        }
      ],
      "name": "addBalance",
      "outputs": [],
      "stateMutability": "payable",
      "type": "function"
    },
    {
      "inputs": [
        {
          "internalType": "address payable",
          "name": "_targetAdress",
          "type": "address"
        },
        {
          "internalType": "bool",
          "name": "_claimAddrChecksum",
          "type": "bool"
        },
        {
          "internalType": "bytes",
          "name": "_postfix",
          "type": "bytes"
        },
        {
          "internalType": "bytes32",
          "name": "_pubKeyX",
          "type": "bytes32"
        },
        {
          "internalType": "bytes32",
          "name": "_pubKeyY",
          "type": "bytes32"
        },
        {
          "internalType": "uint8",
          "name": "_v",
          "type": "uint8"
        },
        {
          "internalType": "bytes32",
          "name": "_r",
          "type": "bytes32"
        },
        {
          "internalType": "bytes32",
          "name": "_s",
          "type": "bytes32"
        }
      ],
      "name": "claim",
      "outputs": [],
      "stateMutability": "nonpayable",
      "type": "function"
    }
  ],
  "bytecode": "0x60806040523480156200001157600080fd5b506040516200255138038062002551833981810160405260608110156200003757600080fd5b815160208301516040808501805191519395929483019291846401000000008211156200006357600080fd5b9083019060208201858111156200007957600080fd5b82516401000000008111828201881017156200009457600080fd5b82525081516020918201929091019080838360005b83811015620000c3578181015183820152602001620000a9565b50505050905090810190601f168015620000f15780820380516001836020036101000a031916815260200191505b506040525050426002555060038054600160a060020a03808616600160a060020a03199283161790925560048054928516929091169190911790558051620001419060059060208401906200014b565b50505050620001f0565b828054600181600116156101000203166002900490600052602060002090601f016020900481019282601f106200018e57805160ff1916838001178555620001be565b82800160010185558215620001be579182015b82811115620001be578251825591602001919060010190620001a1565b50620001cc929150620001d0565b5090565b620001ed91905b80821115620001cc5760008155600101620001d7565b90565b61235180620002006000396000f3fe6080604052600436106101b9576000357c0100000000000000000000000000000000000000000000000000000000900480637138220911610109578063bbc07297116100a7578063e180dea911610081578063e180dea9146108b6578063e51f7d5b146108f1578063f2113dc9146109bb578063fa4ee75a146109f4576101b9565b8063bbc0729714610761578063bfc12c05146107bc578063c5e7570e146107d1576101b9565b80639365fe0b116100e35780639365fe0b1461057a578063a35cf28a1461058f578063aa0cbb3014610667578063b28297f81461074c576101b9565b806371382209146104735780637b99c36d146104b257806384f0145e14610565576101b9565b806330c1a785116101765780635b33bef3116101505780635b33bef31461041f5780635e3eabaa1461043457806364e7c23a146104495780636a01acad1461045e576101b9565b806330c1a785146102fd57806338b44e00146103ca5780634e2ac9bf146103f8576101b9565b806307611d1c146101be5780630b139fef146102fd5780630be89cc41461034957806318b46f581461035e5780631b17d9a8146103735780632e5b74581461039c575b600080fd5b3480156101ca57600080fd5b50610288600480360360608110156101e157600080fd5b600160a060020a0382351691602081013515159181019060608101604082013564010000000081111561021357600080fd5b82018360208201111561022557600080fd5b8035906020019184600183028401116401000000008311171561024757600080fd5b91908080601f016020809104026020016040519081016040528093929190818152602001838380828437600092019190915250929550610a09945050505050565b6040805160208082528351818301528351919283929083019185019080838360005b838110156102c25781810151838201526020016102aa565b50505050905090810190601f1680156102ef5780820380516001836020036101000a031916815260200191505b509250505060405180910390f35b34801561030957600080fd5b5061032d6004803603604081101561032057600080fd5b5080359060200135610bad565b60408051600160a060020a039092168252519081900360200190f35b34801561035557600080fd5b5061032d610bd9565b34801561036a57600080fd5b5061032d610be8565b34801561037f57600080fd5b50610388610bf7565b604080519115158252519081900360200190f35b3480156103a857600080fd5b506103b1610c00565b6040805192835260208301919091528051918290030190f35b6103f6600480360360208110156103e057600080fd5b50356bffffffffffffffffffffffff1916610c5d565b005b34801561040457600080fd5b5061040d610cdd565b60408051918252519081900360200190f35b34801561042b57600080fd5b5061040d610e23565b34801561044057600080fd5b50610288610ed8565b34801561045557600080fd5b50610388610f66565b34801561046a57600080fd5b5061040d610f74565b34801561047f57600080fd5b5061032d6004803603608081101561049657600080fd5b508035906020810135906040810135906060013560ff16610f7f565b3480156104be57600080fd5b5061040d600480360360208110156104d557600080fd5b8101906020810181356401000000008111156104f057600080fd5b82018360208201111561050257600080fd5b8035906020019184600183028401116401000000008311171561052457600080fd5b91908080601f016020809104026020016040519081016040528093929190818152602001838380828437600092019190915250929550611036945050505050565b34801561057157600080fd5b5061040d611167565b34801561058657600080fd5b5061040d611173565b34801561059b57600080fd5b5061032d600480360360c08110156105b257600080fd5b600160a060020a038235169160208101351515918101906060810160408201356401000000008111156105e457600080fd5b8201836020820111156105f657600080fd5b8035906020019184600183028401116401000000008311171561061857600080fd5b91908080601f0160208091040260200160405190810160405280939291908181526020018383808284376000920191909152509295505060ff833516935050506020810135906040013561126a565b34801561067357600080fd5b50610388600480360361010081101561068b57600080fd5b600160a060020a038235169160208101351515918101906060810160408201356401000000008111156106bd57600080fd5b8201836020820111156106cf57600080fd5b803590602001918460018302840111640100000000831117156106f157600080fd5b91908080601f0160208091040260200160405190810160405280939291908181526020018383808284376000920191909152509295505082359350505060208101359060ff60408201351690606081013590608001356112f6565b34801561075857600080fd5b5061040d61140c565b34801561076d57600080fd5b5061079a6004803603606081101561078457600080fd5b508035906020810135906040013560ff16611417565b604080516bffffffffffffffffffffffff199092168252519081900360200190f35b3480156107c857600080fd5b5061040d611926565b3480156107dd57600080fd5b506103f660048036036101008110156107f557600080fd5b600160a060020a0382351691602081013515159181019060608101604082013564010000000081111561082757600080fd5b82018360208201111561083957600080fd5b8035906020019184600183028401116401000000008311171561085b57600080fd5b91908080601f0160208091040260200160405190810160405280939291908181526020018383808284376000920191909152509295505082359350505060208101359060ff604082013516906060810135906080013561192c565b3480156108c257600080fd5b50610288600480360360408110156108d957600080fd5b50600160a060020a0381351690602001351515611b14565b3480156108fd57600080fd5b5061040d6004803603606081101561091457600080fd5b600160a060020a0382351691602081013515159181019060608101604082013564010000000081111561094657600080fd5b82018360208201111561095857600080fd5b8035906020019184600183028401116401000000008311171561097a57600080fd5b91908080601f016020809104026020016040519081016040528093929190818152602001838380828437600092019190915250929550611cde945050505050565b3480156109c757600080fd5b5061040d600480360360208110156109de57600080fd5b50356bffffffffffffffffffffffff1916611cf6565b348015610a0057600080fd5b50610388611d08565b606080610a168585611b14565b8351600580546040517f1800000000000000000000000000000000000000000000000000000000000000602082019081527f426974636f696e205369676e6564204d6573736167653a0a00000000000000006021830181905260ff60026000196101006001881615020190951694909404958601602a0193841660f860020a0260398401529596506018959492939287928a9291603a9091019085908015610af55780601f10610ad3576101008083540402835291820191610af5565b820191906000526020600020905b815481529060010190602001808311610ae1575b5050835160208501908083835b60208310610b215780518252601f199092019160209182019101610b02565b51815160209384036101000a600019018019909216911617905285519190930192850191508083835b60208310610b695780518252601f199092019160209182019101610b4a565b6001836020036101000a03801982511681845116808217855250505050505090500196505050505050506040516020818303038152906040529150505b9392505050565b604080516020808201949094528082019290925280518083038201815260609092019052805191012090565b600354600160a060020a031681565b600454600160a060020a031681565b60015460ff1681565b600154600090819060ff16610c1a57506001905080610c59565b600154610100900460ff16610c355750600390506004610c59565b60015462010000900460ff16610c515750600190506002610c59565b506000905060015b9091565b6bffffffffffffffffffffffff19811660009081526020819052604090205415610cbb5760405160e560020a62461bcd0281526004018080602001828103825260378152602001806122e56037913960400191505060405180910390fd5b6bffffffffffffffffffffffff19166000908152602081905260409020349055565b6000610ce7611167565b4211610d275760405160e560020a62461bcd0281526004018080602001828103825260458152602001806122a06045913960600191505060405180910390fd5b6001805460ff16151514610d6f5760405160e560020a62461bcd02815260040180806020018281038252604681526020018061225a6046913960600191505060405180910390fd5b60018054610100900460ff16151514610dbc5760405160e560020a62461bcd0281526004018080602001828103825260468152602001806120346046913960600191505060405180910390fd5b60015462010000900460ff1615610e075760405160e560020a62461bcd0281526004018080602001828103825260218152602001806120e86021913960400191505060405180910390fd5b6001805460ff1916811790553031610e1e81611d17565b905090565b6000610e2d61140c565b4211610e6d5760405160e560020a62461bcd0281526004018080602001828103825260458152602001806120a36045913960600191505060405180910390fd5b60015460ff1615610eb25760405160e560020a62461bcd0281526004018080602001828103825260218152602001806121096021913960400191505060405180910390fd5b6001805460ff191681179055303160006004825b049050610ed281611d17565b91505090565b6005805460408051602060026001851615610100026000190190941693909304601f81018490048402820184019092528181529291830182828015610f5e5780601f10610f3357610100808354040283529160200191610f5e565b820191906000526020600020905b815481529060010190602001808311610f4157829003601f168201915b505050505081565b600154610100900460ff1681565b60025462f142800190565b600060048260ff161015610fc75760405160e560020a62461bcd02815260040180806020018281038252604d8152602001806121d8604d913960600191505060405180910390fd5b6040805160008152602080820180845288905260ff600319860116828401526060820187905260808201869052915160019260a0808401939192601f1981019281900390910190855afa158015611022573d6000803e3d6000fd5b5050604051601f1901519695505050505050565b6000600280836040518082805190602001908083835b6020831061106b5780518252601f19909201916020918201910161104c565b51815160209384036101000a60001901801990921691161790526040519190930194509192505080830381855afa1580156110aa573d6000803e3d6000fd5b5050506040513d60208110156110bf57600080fd5b50516040805160208181019390935281518082038401815290820191829052805190928291908401908083835b6020831061110b5780518252601f1990920191602091820191016110ec565b51815160209384036101000a60001901801990921691161790526040519190930194509192505080830381855afa15801561114a573d6000803e3d6000fd5b5050506040513d602081101561115f57600080fd5b505192915050565b60025463096753000190565b600061117d610f74565b42116111bd5760405160e560020a62461bcd0281526004018080602001828103825260458152602001806121706045913960600191505060405180910390fd5b6001805460ff161515146112055760405160e560020a62461bcd02815260040180806020018281038252604681526020018061212a6046913960600191505060405180910390fd5b600154610100900460ff161561124f5760405160e560020a62461bcd0281526004018080602001828103825260218152602001806120136021913960400191505060405180910390fd5b6001805461ff00191661010017905530316000600382610ec6565b60008061128061127b898989610a09565b611036565b905060018186868660405160008152602001604052604051808581526020018460ff1660ff1681526020018381526020018281526020019450505050506020604051602081039080840390855afa1580156112df573d6000803e3d6000fd5b5050604051601f1901519998505050505050505050565b6000601b8460ff16101580156113105750601e8460ff1611155b611364576040805160e560020a62461bcd02815260206004820152600960248201527f7620696e76616c69640000000000000000000000000000000000000000000000604482015290519081900360640190fd5b60006113708787610bad565b9050600061137f8b8b8b611cde565b905081600160a060020a031660018288888860405160008152602001604052604051808581526020018460ff1660ff1681526020018381526020018281526020019450505050506020604051602081039080840390855afa1580156113e8573d6000803e3d6000fd5b50505060206040510351600160a060020a0316149250505098975050505050505050565b60025462794a000190565b60008080600184600381111561142957fe5b14806114405750600384600381111561143e57fe5b145b156115bd576001851615611455576003611458565b60025b9050600360028288604051602001808360ff1660ff1660f860020a028152600101828152602001925050506040516020818303038152906040526040518082805190602001908083835b602083106114c15780518252601f1990920191602091820191016114a2565b51815160209384036101000a60001901801990921691161790526040519190930194509192505080830381855afa158015611500573d6000803e3d6000fd5b5050506040513d602081101561151557600080fd5b50516040805160208181019390935281518082038401815290820191829052805190928291908401908083835b602083106115615780518252601f199092019160209182019101611542565b51815160209384036101000a60001901801990921691161790526040519190930194509192505080830381855afa1580156115a0573d6000803e3d6000fd5b505050604051516c0100000000000000000000000002915061173b565b50604080517f0400000000000000000000000000000000000000000000000000000000000000602080830191909152602182018890526041808301889052835180840390910181526061909201928390528151600493600393600293909282918401908083835b602083106116435780518252601f199092019160209182019101611624565b51815160209384036101000a60001901801990921691161790526040519190930194509192505080830381855afa158015611682573d6000803e3d6000fd5b5050506040513d602081101561169757600080fd5b50516040805160208181019390935281518082038401815290820191829052805190928291908401908083835b602083106116e35780518252601f1990920191602091820191016116c4565b51815160209384036101000a60001901801990921691161790526040519190930194509192505080830381855afa158015611722573d6000803e3d6000fd5b505050604051516c010000000000000000000000000291505b600084600381111561174957fe5b14806117605750600184600381111561175e57fe5b145b1561176d57509050610ba6565b600284600381111561177b57fe5b14806117925750600384600381111561179057fe5b145b1561191d57604080517e140000000000000000000000000000000000000000000000000000000000006020808301919091526bffffffffffffffffffffffff198516602283015282516016818403018152603690920192839052815160039360029392909182918401908083835b6020831061181f5780518252601f199092019160209182019101611800565b51815160209384036101000a60001901801990921691161790526040519190930194509192505080830381855afa15801561185e573d6000803e3d6000fd5b5050506040513d602081101561187357600080fd5b50516040805160208181019390935281518082038401815290820191829052805190928291908401908083835b602083106118bf5780518252601f1990920191602091820191016118a0565b51815160209384036101000a60001901801990921691161790526040519190930194509192505080830381855afa1580156118fe573d6000803e3d6000fd5b505050604051516c010000000000000000000000000292505050610ba6565b50509392505050565b60025481565b600061193a86866001611417565b6bffffffffffffffffffffffff1981166000908152602081905260409020549091508061199b5760405160e560020a62461bcd02815260040180806020018281038252602981526020018061207a6029913960400191505060405180910390fd5b6119ab8a8a8a8a8a8a8a8a6112f6565b6119e95760405160e560020a62461bcd0281526004018080602001828103825260358152602001806122256035913960400191505060405180910390fd5b6000806119f4610c00565b9150915060008211611a3a5760405160e560020a62461bcd0281526004018080602001828103825260238152602001806121b56023913960400191505060405180910390fd5b60008183850281611a4757fe5b6bffffffffffffffffffffffff19871660009081526020819052604080822082905551929091049250600160a060020a038f169183156108fc0291849190818181858888f19350505050158015611aa2573d6000803e3d6000fd5b5060408051600160a060020a038f168152602081018390528082018590526060810184905290516bffffffffffffffffffffffff198716917f87263350249c13bda2939c89dcb517d838e9f0c19d1e9546de822a2d75e2204b919081900360800190a250505050505050505050505050565b6040805160288082526060828101909352829190602082018180388339019050509050611b63816bffffffffffffffffffffffff196c0100000000000000000000000087021660006014611e7e565b8215611bd457805160208201206000805b6014811015611bd0576000838260208110611b8b57fe5b600185019460f860020a9290911a8202919091049150611bb3908690601060ff851604611f7a565b611bc7858480600101955083600f16611f7a565b50600101611b74565b5050505b60408051602a80825260608201909252906020820181803883390190505091507f300000000000000000000000000000000000000000000000000000000000000082600081518110611c2257fe5b6020010190600160f860020a031916908160001a9053507f780000000000000000000000000000000000000000000000000000000000000082600181518110611c6757fe5b6020010190600160f860020a031916908160001a90535060005b6028811015611cd657818181518110611c9657fe5b602001015160f860020a900460f860020a02838260020181518110611cb757fe5b6020010190600160f860020a031916908160001a905350600101611c81565b505092915050565b6000611cee61127b858585610a09565b949350505050565b60006020819052908152604090205481565b60015462010000900460ff1681565b600354604051600283049182840391600091600160a060020a03169084908381818185875af1925050503d8060008114611d6d576040519150601f19603f3d011682016040523d82523d6000602084013e611d72565b606091505b5050905080611dcb576040805160e560020a62461bcd02815260206004820152601c60248201527f5472616e7366657220746f207265696e73657274206661696c65642e00000000604482015290519081900360640190fd5b600454604051600160a060020a03909116908390600081818185875af1925050503d8060008114611e18576040519150601f19603f3d011682016040523d82523d6000602084013e611e1d565b606091505b50508091505080611e78576040805160e560020a62461bcd02815260206004820152601760248201527f5472616e7366657220746f2044414f206661696c65642e000000000000000000604482015290519081900360640190fd5b50505050565b8160005b82811015611f72576000858260208110611e9857fe5b60f860020a91901a81020490507f3031323334353637383961626364656600000000000000000000000000000000601060ff80841682900416908110611eda57fe5b1a60f860020a02878480600101955081518110611ef357fe5b6020010190600160f860020a031916908160001a9053507f3031323334353637383961626364656600000000000000000000000000000000600f821660108110611f3957fe5b1a60f860020a02878480600101955081518110611f5257fe5b6020010190600160f860020a031916908160001a90535050600101611e82565b505050505050565b6000838381518110611f8857fe5b602001015160f860020a900460f860020a0290507f610000000000000000000000000000000000000000000000000000000000000081600160f860020a03191610158015611fda575060088260ff1610155b15611e785780602060f860020a0218848481518110611ff557fe5b6020010190600160f860020a031916908160001a9053505050505056fe64696c75746532206576656e742064696420616c72656164792068617070656e2164696c757465332063616e2774206765742070726f63657373656420756e6c6573732064696c757465322068617320616c7265616479206265656e2070726f6365737365642e70726f7669646564206164647265737320646f6573206e6f74206861766520612062616c616e63652e64696c757465312063616e206f6e6c79206765742063616c6c6564206166746572207468652074726573686f6c642074696d657374616d7020676f7420726561636865642e64696c75746533206576656e742064696420616c72656164792068617070656e2164696c75746531206576656e742064696420616c72656164792068617070656e2164696c757465322063616e2774206765742070726f63657373656420756e6c6573732064696c757465312068617320616c7265616479206265656e2070726f6365737365642e64696c757465322063616e206f6e6c79206765742063616c6c6564206166746572207468652074726573686f6c642074696d657374616d7020676f7420726561636865642e636c61696d696e6720706572696f642068617320616c7265616479207061737365642e426974636f696e2061646473206120636f6e7374616e74203420746f2074686520762076616c75652e2074686973207369676e6174757265207365656d7320746f20626520696e76616c69642e5369676e617475726520646f6573206e6f74206d6174636820666f72207468697320636c61696d696e672070726f6365647572652e64696c757465332063616e2774206765742070726f63657373656420756e6c6573732064696c757465312068617320616c7265616479206265656e2070726f6365737365642e64696c757465332063616e206f6e6c79206765742063616c6c6564206166746572207468652074726573686f6c642074696d657374616d7020676f7420726561636865642e546865726520697320616c726561647920612062616c616e636520646566696e656420666f722074686973206f6c642061646472657373a2646970667358221220060db800eebd6b832df93798ca22abaac71ede493694ccf485c59a92a118143a64736f6c63430006020033",
  "source": "pragma solidity >=0.6.2 <0.7.0;\n\ncontract ClaimContract {\n\n  enum AddressType { LegacyUncompressed, LegacyCompressed, SegwitUncompressed, SegwitCompressed }\n\n  event Claim(bytes20 indexed _from, address _to, uint amount, uint _nominator, uint _denominator);\n\n  bytes16 internal constant HEX_DIGITS = \"0123456789abcdef\";\n\n  /* Constants for preparing the claim message text */\n  uint8 internal constant ETH_ADDRESS_BYTE_LEN = 20;\n  uint8 internal constant ETH_ADDRESS_HEX_LEN = ETH_ADDRESS_BYTE_LEN * 2;\n  uint8 internal constant CLAIM_PARAM_HASH_BYTE_LEN = 12;\n  uint8 internal constant CLAIM_PARAM_HASH_HEX_LEN = CLAIM_PARAM_HASH_BYTE_LEN * 2;\n\n  uint8 internal constant BITCOIN_SIG_PREFIX_LEN = 24;\n  bytes24 internal constant BITCOIN_SIG_PREFIX_STR = \"Bitcoin Signed Message:\\n\";\n\n  uint8 internal constant DIAMOND_SIG_PREFIX_LEN = 24;\n  bytes24 internal constant DIAMOND_SIG_PREFIX_STR = \"Diamond Signed Message:\\n\";\n  \n\n  uint constant YEAR_IN_SECONDS = 31536000;\n  uint constant LEAP_YEAR_IN_SECONDS = 31622400;\n  uint constant DAY_IN_SECONDS = 86400;\n\n\n  mapping (bytes20 => uint256)  public balances;\n\n  // tracks if dilution for 75% was executed\n  bool public dilution_s1_75_executed;\n\n  // tracks if dilution for 50% was executed\n  bool public dilution_s2_50_executed;\n\n  // tracks if dilution for 0% was executed\n  bool public dilution_s3_0_executed;\n\n  uint public deploymentTimestamp;\n\n  address payable public lateClaimBeneficorAddressReinsertPot;\n\n  address payable public lateClaimBeneficorAddressDAO;\n\n  /// @dev the prefix for the signing message.\n  /// A Prefix for the signing message can be used to separate different message between different contracts/networks\n  /// e.g.: \"claim to testnet\" for indicating that this is only a testnet message.\n  /// using another prefix makes old signatures invalid.\n  bytes public prefixStr;\n  \n\n  constructor(address payable _lateClaimBeneficorAddressReinsertPot, address payable _lateClaimBeneficorAddressDAO, bytes memory _prefixStr)\n  public \n  {\n    deploymentTimestamp = block.timestamp;\n    lateClaimBeneficorAddressReinsertPot = _lateClaimBeneficorAddressReinsertPot;\n    lateClaimBeneficorAddressDAO = _lateClaimBeneficorAddressDAO;\n    prefixStr = _prefixStr;\n  }\n\n  function _sendDilutedAmounts(uint amount)\n  internal\n  {\n    //diluted amounts are split 50/50 to DAO and ReinsertPot.\n    uint transferForResinsertPot = amount / 2;\n    uint transferForDAO = amount - transferForResinsertPot;\n\n    (bool success, ) =  lateClaimBeneficorAddressReinsertPot.call{value: transferForResinsertPot}(\"\");\n    require(success, 'Transfer to reinsert failed.');\n    (success, ) = lateClaimBeneficorAddressDAO.call{value: transferForDAO}(\"\");\n    require(success, 'Transfer to DAO failed.');\n  }\n\n  function getPublicKeyFromBitcoinSignature(bytes32 hashValue, bytes32 r, bytes32 s, uint8 v)\n  public\n  pure\n  returns(address)\n  {\n    require(v >= 4, 'Bitcoin adds a constant 4 to the v value. this signature seems to be invalid.');\n    //#1: decode bitcoin signature.\n    //# get R, S, V and Hash of Signature.\n    //# do ecrecover on it.\n    //return \"todo: implement this magic!\";\n\n    return ecrecover(\n        hashValue,\n        v - 4, //bitcoin signature use v that is +4 see reddit comment https://www.reddit.com/r/ethereum/comments/3gmbkx/how_do_i_verify_a_bitcoinsigned_message_in_an/ctzopoz\n        r,\n        s\n    );\n  }\n\n    /// @dev returns the essential part of a Bitcoin-style address associated with an ECDSA public key\n    /// @param _publicKeyX X coordinate of the ECDSA public key\n    /// @param _publicKeyY Y coordinate of the ECDSA public key\n    /// @param _addressType Whether DMD is Legacy or Segwit address and if it was compressed\n    /// @return Raw parts of the Bitcoin Style address\n    function publicKeyToBitcoinAddress(\n        bytes32 _publicKeyX,\n        bytes32 _publicKeyY,\n        AddressType _addressType\n    ) public pure returns (bytes20)\n    {\n        bytes20 publicKey;\n        uint8 initialByte;\n        if(_addressType == AddressType.LegacyCompressed || _addressType == AddressType.SegwitCompressed)\n        {\n            //Hash the compressed format\n            initialByte = (uint256(_publicKeyY) & 1) == 0 ? 0x02 : 0x03;\n            publicKey = ripemd160(abi.encodePacked(sha256(abi.encodePacked(initialByte, _publicKeyX))));\n        }\n        else\n        {\n            //Hash the uncompressed format\n            initialByte = 0x04;\n            publicKey = ripemd160(abi.encodePacked(sha256(abi.encodePacked(initialByte, _publicKeyX, _publicKeyY))));\n        }\n\n        if(_addressType == AddressType.LegacyUncompressed || _addressType == AddressType.LegacyCompressed)\n        {\n            return publicKey;\n        }\n        else if(_addressType == AddressType.SegwitUncompressed || _addressType == AddressType.SegwitCompressed)\n        {\n            return ripemd160(abi.encodePacked(sha256(abi.encodePacked(hex\"0014\", publicKey))));\n        }\n    }\n\n\n    /// @dev Convert an uncompressed ECDSA public key into an Ethereum address\n    /// @param _publicKeyX X parameter of uncompressed ECDSA public key\n    /// @param _publicKeyY Y parameter of uncompressed ECDSA public key\n    /// @return Ethereum address generated from the ECDSA public key\n    function publicKeyToEthereumAddress(\n        bytes32 _publicKeyX,\n        bytes32 _publicKeyY\n    ) public pure returns (address)\n    {\n        bytes32 hash = keccak256(abi.encodePacked(_publicKeyX, _publicKeyY));\n        return address(uint160(uint256((hash))));\n    }\n\n  /**\n    * @dev PUBLIC FACING: Derive an Ethereum address from an ECDSA public key\n    * @param pubKeyX First  half of uncompressed ECDSA public key\n    * @param pubKeyY Second half of uncompressed ECDSA public key\n    * @return Derived Eth address\n    */\n  function pubKeyToEthAddress(bytes32 pubKeyX, bytes32 pubKeyY)\n      public\n      pure\n      returns (address)\n  {\n      return address(uint160(uint256(keccak256(abi.encodePacked(pubKeyX, pubKeyY)))));\n  }\n\n  /**\n  * @dev sha256(sha256(data))\n  * @param data Data to be hashed\n  * @return 32-byte hash\n  */\n  function calcHash256(bytes memory data)\n      public\n      pure\n      returns (bytes32)\n  {\n      // NOTE: https://github.com/axic/ethereum-bsm/blob/master/bsm.sol\n      // maybe encodePacked is not required ?!\n      return sha256(abi.encodePacked(sha256(data)));\n  }\n\n  function _hexStringFromData(bytes memory hexStr, bytes32 data, uint256 startOffset, uint256 dataLen)\n    private\n    pure\n  {\n      uint256 offset = startOffset;\n\n\n\n      for (uint256 i = 0; i < dataLen; i++) {\n          uint8 b = uint8(data[i]);\n\n          hexStr[offset++] = HEX_DIGITS[b >> 4];\n          hexStr[offset++] = HEX_DIGITS[b & 0x0f];\n      }\n  }\n\n    function _addressStringChecksumChar(bytes memory addrStr, uint256 offset, uint8 hashNybble)\n    private\n    pure\n    {\n        bytes1 ch = addrStr[offset];\n\n        if (ch >= \"a\" && hashNybble >= 8) {\n            addrStr[offset] = ch ^ 0x20;\n        }\n    }\n\n  /**\n  * @dev calculates the address string representation of the signed address.\n  * @param _addr address\n  * @param _includeAddrChecksum bool. should the addressChecksum be used for this caluclation.\n  * @return addrStr ethereum address(24 byte)\n  */\n  function calculateAddressString(address _addr, bool _includeAddrChecksum)\n    public\n    pure\n    returns (bytes memory addrStr)\n  {\n      bytes memory tmp = new bytes(ETH_ADDRESS_HEX_LEN);\n      _hexStringFromData(tmp, bytes32(bytes20(_addr)), 0, ETH_ADDRESS_BYTE_LEN);\n\n      if (_includeAddrChecksum) {\n          bytes32 addrStrHash = keccak256(tmp);\n\n          uint256 offset = 0;\n\n          for (uint256 i = 0; i < ETH_ADDRESS_BYTE_LEN; i++) {\n              uint8 b = uint8(addrStrHash[i]);\n\n              _addressStringChecksumChar(tmp, offset++, b >> 4);\n              _addressStringChecksumChar(tmp, offset++, b & 0x0f);\n          }\n      }\n\n      // the correct checksum is now in the tmp variable.\n      // we extend this by the Ethereum usual prefix 0x\n\n      addrStr = new bytes(ETH_ADDRESS_HEX_LEN + 2);\n\n      addrStr[0] = '0';\n      addrStr[1] = 'x';\n\n      for (uint256 i = 0; i < ETH_ADDRESS_HEX_LEN; i++) {\n          addrStr[i+2] = tmp[i];\n      }\n\n      return addrStr;\n  }\n\n  /**\n  * @dev returns the hash for the provided claim target address.\n  * @param _claimToAddr address target address for the claim.\n  * @param _claimAddrChecksum bool target address was signed using the Ethereum checksum (EIP-55)\n  * @return bytes32 Bitcoin hash of the claim message.\n  */\n  function createClaimMessage(address _claimToAddr, bool _claimAddrChecksum, bytes memory _postfix)\n        public\n        view\n        returns (bytes memory)\n    {\n        //TODO: pass this as an argument. evaluate in JS before includeAddrChecksum is used or not.\n        //now for testing, we assume Yes.\n\n        bytes memory addrStr = calculateAddressString(_claimToAddr, _claimAddrChecksum);\n\n        return abi.encodePacked(\n                BITCOIN_SIG_PREFIX_LEN,\n                BITCOIN_SIG_PREFIX_STR,\n                uint8(prefixStr.length) + ETH_ADDRESS_HEX_LEN + 2 + uint8(_postfix.length),\n                prefixStr,\n                addrStr,\n                _postfix\n            );\n    }\n\n  /**\n  * @dev returns the hash for the provided claim target address.\n  * @param _claimToAddr address target address for the claim.\n  * @param _claimAddrChecksum bool target address was signed using the Ethereum checksum (EIP-55)\n  * @return bytes32 DMD style hash of the claim message.\n  */\n  function getHashForClaimMessage(\n    address _claimToAddr,\n    bool  _claimAddrChecksum,\n    bytes memory _postfix)\n    public\n    view\n    returns (bytes32)\n  {\n    return calcHash256(\n      createClaimMessage(_claimToAddr, _claimAddrChecksum, _postfix)\n    );\n  }\n\n  /**\n  * @dev returns the ethereum pseude address of a DMD signed message.\n  * @param _claimToAddr address target address for the claim.\n  * @param _claimAddrChecksum bool target address was signed using the Ethereum checksum (EIP-55)\n  * @param _v uint8 v component of the signature.\n  * @param _r bytes32 r component of the signature.\n  * @param _s bytes32 s component of the signautre.\n  * @return address DMD pseudo address of the signer. (what would be the address if the same Private Key would have been used on an DMDv3 than in DMDv4)\n  */\n  function getEthAddressFromSignature(\n    address _claimToAddr,\n    bool    _claimAddrChecksum,\n    bytes memory _postfix,\n    uint8 _v,\n    bytes32 _r,\n    bytes32 _s\n  )\n  public\n  view\n  returns (address)\n  {\n    //require(_v >= 27 && _v <= 30, \"v invalid\");\n\n    /* Create and hash the claim message text */\n    bytes32 messageHash = calcHash256(\n        createClaimMessage(_claimToAddr, _claimAddrChecksum, _postfix)\n    );\n\n    return ecrecover(messageHash, _v, _r, _s);\n  }\n\n  function claimMessageMatchesSignature(\n    address _claimToAddr,\n    bool    _claimAddrChecksum,\n    bytes memory _postFix,\n    bytes32 _pubKeyX,\n    bytes32 _pubKeyY,\n    uint8 _v,\n    bytes32 _r,\n    bytes32 _s\n  )\n    public\n    view\n    returns (bool)\n  {\n      require(_v >= 27 && _v <= 30, \"v invalid\");\n\n      /*\n          ecrecover() returns an Eth address rather than a public key, so\n          we must do the same to compare.\n      */\n      address pubKeyEthAddr = pubKeyToEthAddress(_pubKeyX, _pubKeyY);\n\n      //we need to check if X and Y corresponds to R and S.\n\n      /* Create and hash the claim message text */\n      bytes32 messageHash = getHashForClaimMessage(_claimToAddr, _claimAddrChecksum, _postFix);\n\n      /* Verify the public key */\n      return ecrecover(messageHash, _v, _r, _s) == pubKeyEthAddr;\n  }\n\n  function getDilutionTimestamp1()\n  public\n  view\n  returns (uint256)\n  {\n    return deploymentTimestamp + (DAY_IN_SECONDS * 2 * 31) + DAY_IN_SECONDS * 30;\n  }\n\n\n  function getDilutionTimestamp2()\n  public\n  view\n  returns (uint256)\n  {\n    return deploymentTimestamp + (DAY_IN_SECONDS * 3 * 31) + (DAY_IN_SECONDS * 3 * 30);\n  }\n\n\n  function getDilutionTimestamp3()\n  public\n  view\n  returns (uint256)\n  {\n    return deploymentTimestamp + (YEAR_IN_SECONDS * 4) + LEAP_YEAR_IN_SECONDS;\n  }\n\n\n\n\n   /**\n  * @dev dilutes the entitlement after a certain time passed away and sends it to the beneficor (reinsert pot)\n  * @return amount of DMD that got send to the beneficor.\n  */\n  function dilute1()\n  public\n  returns (uint)\n  {\n    require(block.timestamp > getDilutionTimestamp1(), \"dilute1 can only get called after the treshold timestamp got reached.\");\n    require(dilution_s1_75_executed == false, \"dilute1 event did already happen!\");\n\n    dilution_s1_75_executed = true;\n    // in dilute 1: after 3 months 25% of the total coins get diluted.\n\n    uint totalBalance = (payable(address(this))).balance;\n    uint dilutionBalance = totalBalance / 4;\n\n    _sendDilutedAmounts(dilutionBalance);\n\n    return dilutionBalance;\n  }\n\n  /**\n  * @dev dilutes the entitlement after a certain time passed away and sends it to the beneficor (reinsert pot)\n  * @return amount of DMD that got send to the beneficor.\n  */\n  function dilute2()\n  public\n  returns (uint)\n  {\n    require(block.timestamp > getDilutionTimestamp2(), \"dilute2 can only get called after the treshold timestamp got reached.\");\n    require(dilution_s1_75_executed == true, \"dilute2 can't get processed unless dilute1 has already been processed.\");\n    require(dilution_s2_50_executed == false, \"dilute2 event did already happen!\");\n\n    dilution_s2_50_executed = true;\n    // in dilute 1: after 3 months 25% of the total coins get diluted.\n\n    uint totalBalance = (payable(address(this))).balance;\n    \n    // during dilute2, \n    // 25% from dilute1 are already counted away from totalBalance.\n    // means 3/4 of the value is still there and we need to get it to 2/4.\n    // we can do this by dilluting another 1 / 3.\n\n    uint dilutionBalance = totalBalance / 3;\n\n    _sendDilutedAmounts(dilutionBalance);\n\n    return dilutionBalance;\n  }\n\n  /**\n  * @dev dilutes the entitlement after a certain time passed away and sends it to the beneficor (reinsert pot)\n  * @return amount of DMD that got send to the beneficor.\n  */\n  function dilute3()\n  public\n  returns (uint)\n  {\n    require(block.timestamp > getDilutionTimestamp3(), \"dilute3 can only get called after the treshold timestamp got reached.\");\n    require(dilution_s1_75_executed == true, \"dilute3 can't get processed unless dilute1 has already been processed.\");\n    require(dilution_s2_50_executed == true, \"dilute3 can't get processed unless dilute2 has already been processed.\");\n    require(dilution_s3_0_executed == false, \"dilute3 event did already happen!\");\n\n    dilution_s1_75_executed = true;\n    // in dilute 1: after 3 months 25% of the total coins get diluted.\n\n    uint totalBalance = (payable(address(this))).balance;\n    \n    // 50% got already diluted. this is the last phase, we dilute the rest.\n    _sendDilutedAmounts(totalBalance);\n\n    return totalBalance;\n  }\n\n  function getCurrentDilutedClaimFactor()\n  public\n  view\n  returns (uint256 nominator, uint256 denominator)\n  {\n      if (!dilution_s1_75_executed)\n      {\n        return (1, 1);\n      }\n      else if (!dilution_s2_50_executed)\n      {\n        return (3, 4);\n      }\n      else if (!dilution_s3_0_executed)\n      {\n        return (1, 2);\n      }\n      else\n      {\n        return (0, 1);\n      }\n  }\n  \n\n  function addBalance(bytes20 oldAddress)\n  payable\n  public\n  {\n    require(balances[oldAddress] == 0, \"There is already a balance defined for this old address\");\n    balances[oldAddress] = msg.value;\n    // allOldAdresses.push(oldAddress);\n  }\n\n  function claim(\n    address payable _targetAdress,\n    bool    _claimAddrChecksum,\n    bytes memory _postfix,\n    bytes32 _pubKeyX,\n    bytes32 _pubKeyY,\n    uint8 _v,\n    bytes32 _r,\n    bytes32 _s\n  )\n  public\n  {\n    //retrieve the oldAddress out of public and private key.\n    bytes20 oldAddress = publicKeyToBitcoinAddress(_pubKeyX, _pubKeyY, AddressType.LegacyCompressed);\n\n    //if already claimed, it just returns.\n    uint256 currentBalance = balances[oldAddress];\n    require(currentBalance > 0, 'provided address does not have a balance.');\n\n    // verify if the signature matches to the provided pubKey here.\n    require(claimMessageMatchesSignature(\n        _targetAdress,\n        _claimAddrChecksum,\n        _postfix,\n        _pubKeyX,\n        _pubKeyY,\n        _v,\n        _r,\n        _s),\n      'Signature does not match for this claiming procedure.');\n\n    (uint256 nominator, uint256 denominator) = getCurrentDilutedClaimFactor();\n\n    // the nominator is 0 if the claim period passed.\n    require(nominator > 0, 'claiming period has already passed.');\n\n    uint256 claimBalance = (currentBalance * nominator) / denominator;\n    \n    // remember that the funds are going to get claimed, hard protection about reentrancy attacks.\n    balances[oldAddress] = 0;\n    _targetAdress.transfer(claimBalance);\n\n    emit Claim(oldAddress, _targetAdress, claimBalance, nominator, denominator);\n  }\n\n}",
  "sourcePath": "/home/sn/dmd/dmd-meta/dmdv4migration/contracts/contracts/ClaimContract.sol",
  "compiler": {
    "name": "solc",
    "version": "0.6.2+commit.bacdbe57.Emscripten.clang"
  },
  "schemaVersion": "3.3.2",
  "updatedAt": "2020-12-13T17:39:51.985Z",
  "devdoc": {
    "methods": {
      "calcHash256(bytes)": {
        "details": "sha256(sha256(data))",
        "params": {
          "data": "Data to be hashed"
        },
        "returns": {
          "_0": "32-byte hash"
        }
      },
      "calculateAddressString(address,bool)": {
        "details": "calculates the address string representation of the signed address.",
        "params": {
          "_addr": "address",
          "_includeAddrChecksum": "bool. should the addressChecksum be used for this caluclation."
        },
        "returns": {
          "addrStr": "ethereum address(24 byte)"
        }
      },
      "createClaimMessage(address,bool,bytes)": {
        "details": "returns the hash for the provided claim target address.",
        "params": {
          "_claimAddrChecksum": "bool target address was signed using the Ethereum checksum (EIP-55)",
          "_claimToAddr": "address target address for the claim."
        },
        "returns": {
          "_0": "bytes32 Bitcoin hash of the claim message."
        }
      },
      "dilute1()": {
        "details": "dilutes the entitlement after a certain time passed away and sends it to the beneficor (reinsert pot)",
        "returns": {
          "_0": "amount of DMD that got send to the beneficor."
        }
      },
      "dilute2()": {
        "details": "dilutes the entitlement after a certain time passed away and sends it to the beneficor (reinsert pot)",
        "returns": {
          "_0": "amount of DMD that got send to the beneficor."
        }
      },
      "dilute3()": {
        "details": "dilutes the entitlement after a certain time passed away and sends it to the beneficor (reinsert pot)",
        "returns": {
          "_0": "amount of DMD that got send to the beneficor."
        }
      },
      "getEthAddressFromSignature(address,bool,bytes,uint8,bytes32,bytes32)": {
        "details": "returns the ethereum pseude address of a DMD signed message.",
        "params": {
          "_claimAddrChecksum": "bool target address was signed using the Ethereum checksum (EIP-55)",
          "_claimToAddr": "address target address for the claim.",
          "_r": "bytes32 r component of the signature.",
          "_s": "bytes32 s component of the signautre.",
          "_v": "uint8 v component of the signature."
        },
        "returns": {
          "_0": "address DMD pseudo address of the signer. (what would be the address if the same Private Key would have been used on an DMDv3 than in DMDv4)"
        }
      },
      "getHashForClaimMessage(address,bool,bytes)": {
        "details": "returns the hash for the provided claim target address.",
        "params": {
          "_claimAddrChecksum": "bool target address was signed using the Ethereum checksum (EIP-55)",
          "_claimToAddr": "address target address for the claim."
        },
        "returns": {
          "_0": "bytes32 DMD style hash of the claim message."
        }
      },
      "pubKeyToEthAddress(bytes32,bytes32)": {
        "details": "PUBLIC FACING: Derive an Ethereum address from an ECDSA public key",
        "params": {
          "pubKeyX": "First  half of uncompressed ECDSA public key",
          "pubKeyY": "Second half of uncompressed ECDSA public key"
        },
        "returns": {
          "_0": "Derived Eth address"
        }
      },
      "publicKeyToBitcoinAddress(bytes32,bytes32,uint8)": {
        "details": "returns the essential part of a Bitcoin-style address associated with an ECDSA public key",
        "params": {
          "_addressType": "Whether DMD is Legacy or Segwit address and if it was compressed",
          "_publicKeyX": "X coordinate of the ECDSA public key",
          "_publicKeyY": "Y coordinate of the ECDSA public key"
        },
        "returns": {
          "_0": "Raw parts of the Bitcoin Style address"
        }
      },
      "publicKeyToEthereumAddress(bytes32,bytes32)": {
        "details": "Convert an uncompressed ECDSA public key into an Ethereum address",
        "params": {
          "_publicKeyX": "X parameter of uncompressed ECDSA public key",
          "_publicKeyY": "Y parameter of uncompressed ECDSA public key"
        },
        "returns": {
          "_0": "Ethereum address generated from the ECDSA public key"
        }
      }
    }
  },
  "userdoc": {
    "methods": {}
  }
}