{
  "contractName": "ClaimContract",
  "abi": [
    {
      "inputs": [],
      "stateMutability": "nonpayable",
      "type": "constructor"
    },
    {
      "inputs": [
        {
          "internalType": "bytes20",
          "name": "",
          "type": "bytes20"
        }
      ],
      "name": "balances",
      "outputs": [
        {
          "internalType": "uint256",
          "name": "",
          "type": "uint256"
        }
      ],
      "stateMutability": "view",
      "type": "function"
    },
    {
      "inputs": [
        {
          "internalType": "bytes32",
          "name": "hashValue",
          "type": "bytes32"
        },
        {
          "internalType": "bytes32",
          "name": "r",
          "type": "bytes32"
        },
        {
          "internalType": "bytes32",
          "name": "s",
          "type": "bytes32"
        },
        {
          "internalType": "uint8",
          "name": "v",
          "type": "uint8"
        }
      ],
      "name": "getPublicKeyFromBitcoinSignature",
      "outputs": [
        {
          "internalType": "address",
          "name": "",
          "type": "address"
        }
      ],
      "stateMutability": "pure",
      "type": "function"
    },
    {
      "inputs": [
        {
          "internalType": "bytes32",
          "name": "a_publicKeyX",
          "type": "bytes32"
        },
        {
          "internalType": "bytes32",
          "name": "a_publicKeyY",
          "type": "bytes32"
        },
        {
          "internalType": "enum ClaimContract.AddressType",
          "name": "a_nAddressType",
          "type": "uint8"
        }
      ],
      "name": "PublicKeyToBitcoinAddress",
      "outputs": [
        {
          "internalType": "bytes20",
          "name": "",
          "type": "bytes20"
        }
      ],
      "stateMutability": "pure",
      "type": "function"
    },
    {
      "inputs": [
        {
          "internalType": "bytes32",
          "name": "a_publicKeyX",
          "type": "bytes32"
        },
        {
          "internalType": "bytes32",
          "name": "a_publicKeyY",
          "type": "bytes32"
        }
      ],
      "name": "PublicKeyToEthereumAddress",
      "outputs": [
        {
          "internalType": "address",
          "name": "",
          "type": "address"
        }
      ],
      "stateMutability": "pure",
      "type": "function"
    },
    {
      "inputs": [
        {
          "internalType": "bytes32",
          "name": "_hash",
          "type": "bytes32"
        },
        {
          "internalType": "uint8",
          "name": "_v",
          "type": "uint8"
        },
        {
          "internalType": "bytes32",
          "name": "_r",
          "type": "bytes32"
        },
        {
          "internalType": "bytes32",
          "name": "_s",
          "type": "bytes32"
        },
        {
          "internalType": "address",
          "name": "_address",
          "type": "address"
        }
      ],
      "name": "ValidateSignature",
      "outputs": [
        {
          "internalType": "bool",
          "name": "",
          "type": "bool"
        }
      ],
      "stateMutability": "pure",
      "type": "function"
    },
    {
      "inputs": [
        {
          "internalType": "address",
          "name": "_addressClaiming",
          "type": "address"
        },
        {
          "internalType": "bytes32",
          "name": "_publicKeyX",
          "type": "bytes32"
        },
        {
          "internalType": "bytes32",
          "name": "_publicKeyY",
          "type": "bytes32"
        },
        {
          "internalType": "uint8",
          "name": "_v",
          "type": "uint8"
        },
        {
          "internalType": "bytes32",
          "name": "_r",
          "type": "bytes32"
        },
        {
          "internalType": "bytes32",
          "name": "_s",
          "type": "bytes32"
        }
      ],
      "name": "ECDSAVerify",
      "outputs": [
        {
          "internalType": "bool",
          "name": "",
          "type": "bool"
        }
      ],
      "stateMutability": "pure",
      "type": "function"
    },
    {
      "inputs": [],
      "name": "isValid",
      "outputs": [
        {
          "internalType": "bool",
          "name": "",
          "type": "bool"
        }
      ],
      "stateMutability": "pure",
      "type": "function"
    },
    {
      "inputs": [],
      "name": "testECRecover",
      "outputs": [
        {
          "internalType": "address",
          "name": "",
          "type": "address"
        }
      ],
      "stateMutability": "pure",
      "type": "function"
    },
    {
      "inputs": [
        {
          "internalType": "bytes32",
          "name": "_hash",
          "type": "bytes32"
        },
        {
          "internalType": "bytes32",
          "name": "_r",
          "type": "bytes32"
        },
        {
          "internalType": "bytes32",
          "name": "_s",
          "type": "bytes32"
        },
        {
          "internalType": "uint8",
          "name": "_v",
          "type": "uint8"
        }
      ],
      "name": "checkSignature",
      "outputs": [
        {
          "internalType": "address",
          "name": "",
          "type": "address"
        }
      ],
      "stateMutability": "pure",
      "type": "function"
    },
    {
      "inputs": [
        {
          "internalType": "bytes32",
          "name": "pubKeyX",
          "type": "bytes32"
        },
        {
          "internalType": "bytes32",
          "name": "pubKeyY",
          "type": "bytes32"
        }
      ],
      "name": "pubKeyToEthAddress",
      "outputs": [
        {
          "internalType": "address",
          "name": "",
          "type": "address"
        }
      ],
      "stateMutability": "pure",
      "type": "function"
    },
    {
      "inputs": [
        {
          "internalType": "bytes",
          "name": "data",
          "type": "bytes"
        }
      ],
      "name": "calcHash256",
      "outputs": [
        {
          "internalType": "bytes32",
          "name": "",
          "type": "bytes32"
        }
      ],
      "stateMutability": "pure",
      "type": "function"
    },
    {
      "inputs": [
        {
          "internalType": "address",
          "name": "addr",
          "type": "address"
        },
        {
          "internalType": "bool",
          "name": "includeAddrChecksum",
          "type": "bool"
        }
      ],
      "name": "calculateAddressString",
      "outputs": [
        {
          "internalType": "bytes",
          "name": "addrStr",
          "type": "bytes"
        }
      ],
      "stateMutability": "pure",
      "type": "function"
    },
    {
      "inputs": [
        {
          "internalType": "address",
          "name": "claimToAddr",
          "type": "address"
        },
        {
          "internalType": "bool",
          "name": "claimToAddrChecksum",
          "type": "bool"
        }
      ],
      "name": "createClaimMessage",
      "outputs": [
        {
          "internalType": "bytes",
          "name": "",
          "type": "bytes"
        }
      ],
      "stateMutability": "pure",
      "type": "function"
    },
    {
      "inputs": [
        {
          "internalType": "address",
          "name": "_claimToAddr",
          "type": "address"
        },
        {
          "internalType": "bool",
          "name": "_claimAddrChecksum",
          "type": "bool"
        }
      ],
      "name": "getHashForClaimMessage",
      "outputs": [
        {
          "internalType": "bytes32",
          "name": "",
          "type": "bytes32"
        }
      ],
      "stateMutability": "pure",
      "type": "function"
    },
    {
      "inputs": [
        {
          "internalType": "address",
          "name": "_claimToAddr",
          "type": "address"
        },
        {
          "internalType": "bool",
          "name": "_claimAddrChecksum",
          "type": "bool"
        },
        {
          "internalType": "bytes32",
          "name": "_pubKeyX",
          "type": "bytes32"
        },
        {
          "internalType": "bytes32",
          "name": "_pubKeyY",
          "type": "bytes32"
        },
        {
          "internalType": "uint8",
          "name": "_v",
          "type": "uint8"
        },
        {
          "internalType": "bytes32",
          "name": "_r",
          "type": "bytes32"
        },
        {
          "internalType": "bytes32",
          "name": "_s",
          "type": "bytes32"
        }
      ],
      "name": "claimMessageMatchesSignature",
      "outputs": [
        {
          "internalType": "bool",
          "name": "",
          "type": "bool"
        }
      ],
      "stateMutability": "pure",
      "type": "function"
    }
  ],
  "bytecode": "0x608060405234801561001057600080fd5b5061169b806100206000396000f3fe608060405234801561001057600080fd5b5060043610610112576000357c0100000000000000000000000000000000000000000000000000000000900480637b99c36d116100b4578063c48a5ba511610083578063c48a5ba5146103ef578063e180dea91461043e578063e581528a1461046c578063f2113dc9146104ba57610112565b80637b99c36d1461025d57806392867f3814610303578063a9880f3214610344578063bb5d40eb146103e757610112565b806326b8ed32116100f057806326b8ed32146101b957806330c1a78514610117578063433cc269146101f9578063713822091461022b57610112565b806301f015e5146101175780630e6f41541461015657806322216884146101b1575b600080fd5b61013a6004803603604081101561012d57600080fd5b50803590602001356104e6565b60408051600160a060020a039092168252519081900360200190f35b61019d600480360360c081101561016c57600080fd5b50600160a060020a038135169060208101359060408101359060ff6060820135169060808101359060a00135610512565b604080519115158252519081900360200190f35b61013a6106d9565b6101e7600480360360408110156101cf57600080fd5b50600160a060020a0381351690602001351515610763565b60408051918252519081900360200190f35b61013a6004803603608081101561020f57600080fd5b508035906020810135906040810135906060013560ff1661077e565b61013a6004803603608081101561024157600080fd5b508035906020810135906040810135906060013560ff166107ea565b6101e76004803603602081101561027357600080fd5b81019060208101813564010000000081111561028e57600080fd5b8201836020820111156102a057600080fd5b803590602001918460018302840111640100000000831117156102c257600080fd5b91908080601f0160208091040260200160405190810160405280939291908181526020018383808284376000920191909152509295506108a4945050505050565b61019d600480360360a081101561031957600080fd5b50803590602081013560ff169060408101359060608101359060800135600160a060020a03166109d5565b6103726004803603604081101561035a57600080fd5b50600160a060020a0381351690602001351515610a5d565b6040805160208082528351818301528351919283929083019185019080838360005b838110156103ac578181015183820152602001610394565b50505050905090810190601f1680156103d95780820380516001836020036101000a031916815260200191505b509250505060405180910390f35b61019d610ba5565b61019d600480360360e081101561040557600080fd5b50600160a060020a0381351690602081013515159060408101359060608101359060ff6080820135169060a08101359060c00135610bcf565b6103726004803603604081101561045457600080fd5b50600160a060020a0381351690602001351515610cfd565b6104986004803603606081101561048257600080fd5b508035906020810135906040013560ff16610ec7565b604080516bffffffffffffffffffffffff199092168252519081900360200190f35b6101e7600480360360208110156104d057600080fd5b50356bffffffffffffffffffffffff19166113d6565b604080516020808201949094528082019290925280518083038201815260609092019052805191012090565b60006060610521886001610a5d565b90506000600280836040516020018082805190602001908083835b6020831061055b5780518252601f19909201916020918201910161053c565b6001836020036101000a0380198251168184511680821785525050505050509050019150506040516020818303038152906040526040518082805190602001908083835b602083106105be5780518252601f19909201916020918201910161059f565b51815160209384036101000a60001901801990921691161790526040519190930194509192505080830381855afa1580156105fd573d6000803e3d6000fd5b5050506040513d602081101561061257600080fd5b50516040805160208181019390935281518082038401815290820191829052805190928291908401908083835b6020831061065e5780518252601f19909201916020918201910161063f565b51815160209384036101000a60001901801990921691161790526040519190930194509192505080830381855afa15801561069d573d6000803e3d6000fd5b5050506040513d60208110156106b257600080fd5b505190506106cc818787876106c78d8d6104e6565b6109d5565b9998505050505050505050565b600060016106e56113e8565b6106ed61140c565b6106f561141e565b6106fd611442565b60405160008152602001604052604051808581526020018460ff1660ff1681526020018381526020018281526020019450505050506020604051602081039080840390855afa158015610754573d6000803e3d6000fd5b50505060206040510351905090565b60006107776107728484610a5d565b6108a4565b9392505050565b604080516000808252602080830180855288905260ff85168385015260608301879052608083018690529251909260019260a080820193601f1981019281900390910190855afa1580156107d6573d6000803e3d6000fd5b5050604051601f1901519695505050505050565b600060048260ff161015610849576040517f08c379a000000000000000000000000000000000000000000000000000000000815260040180806020018281038252604d815260200180611619604d913960600191505060405180910390fd5b6040805160008152602080820180845288905260ff600319860116828401526060820187905260808201869052915160019260a0808401939192601f1981019281900390910190855afa1580156107d6573d6000803e3d6000fd5b6000600280836040518082805190602001908083835b602083106108d95780518252601f1990920191602091820191016108ba565b51815160209384036101000a60001901801990921691161790526040519190930194509192505080830381855afa158015610918573d6000803e3d6000fd5b5050506040513d602081101561092d57600080fd5b50516040805160208181019390935281518082038401815290820191829052805190928291908401908083835b602083106109795780518252601f19909201916020918201910161095a565b51815160209384036101000a60001901801990921691161790526040519190930194509192505080830381855afa1580156109b8573d6000803e3d6000fd5b5050506040513d60208110156109cd57600080fd5b505192915050565b600081600160a060020a031660018787878760405160008152602001604052604051808581526020018460ff1660ff1681526020018381526020018281526020019450505050506020604051602081039080840390855afa158015610a3e573d6000803e3d6000fd5b50505060206040510351600160a060020a031614905095945050505050565b60408051602081019091526000815260609081610a7a8585610cfd565b905060187f426974636f696e205369676e6564204d6573736167653a0a000000000000000060146002028451018484604051602001808660ff1660ff1660f860020a0281526001018567ffffffffffffffff191667ffffffffffffffff191681526018018460ff1660ff1660f860020a02815260010183805190602001908083835b60208310610b1b5780518252601f199092019160209182019101610afc565b51815160209384036101000a600019018019909216911617905285519190930192850191508083835b60208310610b635780518252601f199092019160209182019101610b44565b6001836020036101000a038019825116818451168082178552505050505050905001955050505050506040516020818303038152906040529250505092915050565b6000610baf6106d9565b600160a060020a0316610bc0611466565b600160a060020a031614905090565b6000601b8460ff1610158015610be95750601e8460ff1611155b610c5457604080517f08c379a000000000000000000000000000000000000000000000000000000000815260206004820152600960248201527f7620696e76616c69640000000000000000000000000000000000000000000000604482015290519081900360640190fd5b6000610c6087876104e6565b90506000610c716107728b8b610a5d565b905081600160a060020a031660018288888860405160008152602001604052604051808581526020018460ff1660ff1681526020018381526020018281526020019450505050506020604051602081039080840390855afa158015610cda573d6000803e3d6000fd5b50505060206040510351600160a060020a03161492505050979650505050505050565b6040805160288082526060828101909352829190602082018180388339019050509050610d4c816bffffffffffffffffffffffff196c010000000000000000000000008702166000601461147e565b8215610dbd57805160208201206000805b6014811015610db9576000838260208110610d7457fe5b600185019460f860020a9290911a8202919091049150610d9c908690601060ff85160461157a565b610db0858480600101955083600f1661157a565b50600101610d5d565b5050505b60408051602a80825260608201909252906020820181803883390190505091507f300000000000000000000000000000000000000000000000000000000000000082600081518110610e0b57fe5b6020010190600160f860020a031916908160001a9053507f780000000000000000000000000000000000000000000000000000000000000082600181518110610e5057fe5b6020010190600160f860020a031916908160001a90535060005b6028811015610ebf57818181518110610e7f57fe5b602001015160f860020a900460f860020a02838260020181518110610ea057fe5b6020010190600160f860020a031916908160001a905350600101610e6a565b505092915050565b600080806001846003811115610ed957fe5b1480610ef057506003846003811115610eee57fe5b145b1561106d576001851615610f05576003610f08565b60025b9050600360028288604051602001808360ff1660ff1660f860020a028152600101828152602001925050506040516020818303038152906040526040518082805190602001908083835b60208310610f715780518252601f199092019160209182019101610f52565b51815160209384036101000a60001901801990921691161790526040519190930194509192505080830381855afa158015610fb0573d6000803e3d6000fd5b5050506040513d6020811015610fc557600080fd5b50516040805160208181019390935281518082038401815290820191829052805190928291908401908083835b602083106110115780518252601f199092019160209182019101610ff2565b51815160209384036101000a60001901801990921691161790526040519190930194509192505080830381855afa158015611050573d6000803e3d6000fd5b505050604051516c010000000000000000000000000291506111eb565b50604080517f0400000000000000000000000000000000000000000000000000000000000000602080830191909152602182018890526041808301889052835180840390910181526061909201928390528151600493600393600293909282918401908083835b602083106110f35780518252601f1990920191602091820191016110d4565b51815160209384036101000a60001901801990921691161790526040519190930194509192505080830381855afa158015611132573d6000803e3d6000fd5b5050506040513d602081101561114757600080fd5b50516040805160208181019390935281518082038401815290820191829052805190928291908401908083835b602083106111935780518252601f199092019160209182019101611174565b51815160209384036101000a60001901801990921691161790526040519190930194509192505080830381855afa1580156111d2573d6000803e3d6000fd5b505050604051516c010000000000000000000000000291505b60008460038111156111f957fe5b14806112105750600184600381111561120e57fe5b145b1561121d57509050610777565b600284600381111561122b57fe5b14806112425750600384600381111561124057fe5b145b156113cd57604080517e140000000000000000000000000000000000000000000000000000000000006020808301919091526bffffffffffffffffffffffff198516602283015282516016818403018152603690920192839052815160039360029392909182918401908083835b602083106112cf5780518252601f1990920191602091820191016112b0565b51815160209384036101000a60001901801990921691161790526040519190930194509192505080830381855afa15801561130e573d6000803e3d6000fd5b5050506040513d602081101561132357600080fd5b50516040805160208181019390935281518082038401815290820191829052805190928291908401908083835b6020831061136f5780518252601f199092019160209182019101611350565b51815160209384036101000a60001901801990921691161790526040519190930194509192505080830381855afa1580156113ae573d6000803e3d6000fd5b505050604051516c010000000000000000000000000292505050610777565b50509392505050565b60006020819052908152604090205481565b7f58e2f335bbd6f2b0da93eae19342e7309654fbfeed9a214a1e5d835ac09cc22690565b60006004611418611613565b03905090565b7f0b7effb7704f726bc64139753dc2d0a3929af2309dd2930ad7a722f5b214cf6e90565b7f73a461ce418e9e483f13a98c0cba5cddf07f647ea1d6ba2e88d494dfcd411c9c90565b7331031df1d95a84fc21e80922ccdf83971f3e755b90565b8160005b8281101561157257600085826020811061149857fe5b60f860020a91901a81020490507f3031323334353637383961626364656600000000000000000000000000000000601060ff808416829004169081106114da57fe5b1a60f860020a028784806001019550815181106114f357fe5b6020010190600160f860020a031916908160001a9053507f3031323334353637383961626364656600000000000000000000000000000000600f82166010811061153957fe5b1a60f860020a0287848060010195508151811061155257fe5b6020010190600160f860020a031916908160001a90535050600101611482565b505050505050565b600083838151811061158857fe5b602001015160f860020a900460f860020a0290507f610000000000000000000000000000000000000000000000000000000000000081600160f860020a031916101580156115da575060088260ff1610155b1561160d5780602060f860020a02188484815181106115f557fe5b6020010190600160f860020a031916908160001a9053505b50505050565b60209056fe426974636f696e2061646473206120636f6e7374616e74203420746f2074686520762076616c75652e2074686973207369676e6174757265207365656d7320746f20626520696e76616c69642ea2646970667358221220cc51655594f91557d72fbb74f608ff3b981a2965532479d9926feefbc1ef7bcc64736f6c63430006020033",
  "source": "pragma solidity >=0.6.2 <0.7.0;\n\n\nimport { EC } from  './EC.sol';\n\n\ncontract ClaimContract {\n\n  enum AddressType { LegacyUncompressed, LegacyCompressed, SegwitUncompressed, SegwitCompressed }\n\n  bytes16 internal constant HEX_DIGITS = \"0123456789abcdef\";\n\n  /* Constants for preparing the claim message text */\n  uint8 internal constant ETH_ADDRESS_BYTE_LEN = 20;\n  uint8 internal constant ETH_ADDRESS_HEX_LEN = ETH_ADDRESS_BYTE_LEN * 2;\n  uint8 internal constant CLAIM_PARAM_HASH_BYTE_LEN = 12;\n  uint8 internal constant CLAIM_PARAM_HASH_HEX_LEN = CLAIM_PARAM_HASH_BYTE_LEN * 2;\n  uint8 internal constant BITCOIN_SIG_PREFIX_LEN = 24;\n  bytes24 internal constant BITCOIN_SIG_PREFIX_STR = \"Bitcoin Signed Message:\\n\";\n\n  mapping (bytes20 => uint256)  public balances;\n\n  constructor() public {\n    //balances[\"\"] = 1000000000000;\n  }\n\n\n  function getPublicKeyFromBitcoinSignature(bytes32 hashValue, bytes32 r, bytes32 s, uint8 v)\n  public\n  pure\n  returns(address)\n  {\n\n\n    require(v >= 4, 'Bitcoin adds a constant 4 to the v value. this signature seems to be invalid.');\n    //#1: decode bitcoin signature.\n    //# get R, S, V and Hash of Signature.\n    //# do ecrecover on it.\n    //return \"todo: implement this magic!\";\n\n    return ecrecover(\n        hashValue,\n        v - 4, //bitcoin signature use v that is +4 see reddit comment https://www.reddit.com/r/ethereum/comments/3gmbkx/how_do_i_verify_a_bitcoinsigned_message_in_an/ctzopoz\n        r,\n        s\n    );\n  }\n\n\n//  function getPublicKeyFromSignature(bytes65 memory signatureBytes)\n//  public\n//  pure\n//  returns(string memory)\n//  {\n    //#1: decode bitcoin signature.\n    //# get R, S, V and Hash of Signature.\n    //# do ecrecover on it.\n    //return \"todo: implement this magic!\";\n//  }\n\n\n\n    /// @dev Calculate the Bitcoin-style address associated with an ECDSA public key\n    /// @param a_publicKeyX First half of ECDSA public key\n    /// @param a_publicKeyY Second half of ECDSA public key\n    /// @param a_nAddressType Whether DMD is Legacy or Segwit address and if it was compressed\n    /// @return Raw DMD address\n    function PublicKeyToBitcoinAddress(\n        bytes32 a_publicKeyX,\n        bytes32 a_publicKeyY,\n        AddressType a_nAddressType\n    ) public pure returns (bytes20)\n    {\n        bytes20 publicKey;\n        uint8 initialByte;\n        if(a_nAddressType == AddressType.LegacyCompressed || a_nAddressType == AddressType.SegwitCompressed)\n        {\n                //Hash the compressed format\n                initialByte = (uint256(a_publicKeyY) & 1) == 0 ? 0x02 : 0x03;\n                publicKey = ripemd160(abi.encodePacked(sha256(abi.encodePacked(initialByte, a_publicKeyX))));\n        }\n        else\n        {\n            //Hash the uncompressed format\n            initialByte = 0x04;\n            publicKey = ripemd160(abi.encodePacked(sha256(abi.encodePacked(initialByte, a_publicKeyX, a_publicKeyY))));\n        }\n\n        if(a_nAddressType == AddressType.LegacyUncompressed || a_nAddressType == AddressType.LegacyCompressed)\n        {\n            return publicKey;\n        }\n        else if(a_nAddressType == AddressType.SegwitUncompressed || a_nAddressType == AddressType.SegwitCompressed)\n        {\n            return ripemd160(abi.encodePacked(sha256(abi.encodePacked(hex\"0014\", publicKey))));\n        }\n    }\n\n\n    /// @dev Convert an uncompressed ECDSA public key into an Ethereum address\n    /// @param a_publicKeyX X parameter of uncompressed ECDSA public key\n    /// @param a_publicKeyY Y parameter of uncompressed ECDSA public key\n    /// @return Ethereum address generated from the ECDSA public key\n    function PublicKeyToEthereumAddress(\n        bytes32 a_publicKeyX,\n        bytes32 a_publicKeyY\n    ) public pure returns (address)\n    {\n        bytes32 hash = keccak256(abi.encodePacked(a_publicKeyX, a_publicKeyY));\n        return address(uint160(uint256((hash))));\n    }\n\n    /// @dev Validate ECSDA signature was signed by the specified address\n    /// @param _hash Hash of signed data\n    /// @param _v v parameter of ECDSA signature\n    /// @param _r r parameter of ECDSA signature\n    /// @param _s s parameter of ECDSA signature\n    /// @param _address Ethereum address matching the signature\n    /// @return Boolean on if the signature is valid\n    function ValidateSignature(\n        bytes32 _hash,\n        uint8 _v,\n        bytes32 _r,\n        bytes32 _s,\n        address _address\n    ) public pure returns (bool)\n    {\n        return ecrecover(\n            _hash,\n            _v,\n            _r,\n            _s\n        ) == _address;\n    }\n\n\n    /// @dev Validate the ECDSA parameters of signed message\n    /// ECDSA public key associated with the specified Ethereum address\n    /// @param _addressClaiming Address within signed message\n    /// @param _publicKeyX X parameter of uncompressed ECDSA public key\n    /// @param _publicKeyY Y parameter of uncompressed ECDSA public key\n    /// @param _v v parameter of ECDSA signature\n    /// @param _r r parameter of ECDSA signature\n    /// @param _s s parameter of ECDSA signature\n    /// @return Boolean on if the signature is valid\n    function ECDSAVerify(\n        address _addressClaiming,\n        bytes32 _publicKeyX,\n        bytes32 _publicKeyY,\n        uint8 _v,\n        bytes32 _r,\n        bytes32 _s\n    ) public pure returns (bool)\n    {\n        bytes memory addressAsHex = createClaimMessage(_addressClaiming, true);\n\n        bytes32 hHash = sha256(abi.encodePacked(sha256(abi.encodePacked(addressAsHex))));\n\n        return ValidateSignature(\n            hHash,\n            _v,\n            _r,\n            _s,\n            PublicKeyToEthereumAddress(_publicKeyX, _publicKeyY)\n        );\n    }\n\n\n  function r()\n  internal\n  pure\n  returns(bytes32)\n  {\n      return 0x0b7effb7704f726bc64139753dc2d0a3929af2309dd2930ad7a722f5b214cf6e;\n  }\n\n  function s()\n  internal\n  pure\n  returns(bytes32)\n  {\n      return 0x73a461ce418e9e483f13a98c0cba5cddf07f647ea1d6ba2e88d494dfcd411c9c;\n  }\n\n  function v()\n  internal\n  pure\n  returns(uint8) {\n      return 32;  //equal to 0x20\n  }\n\n  function v2()\n  internal\n  pure\n  returns(uint8)\n  {\n      return v()-4;   //bitcoin signature use v that is +4 see reddit comment https://www.reddit.com/r/ethereum/comments/3gmbkx/how_do_i_verify_a_bitcoinsigned_message_in_an/ctzopoz\n  }\n\n  function hashToSign()\n  internal\n  pure\n  returns(bytes32)\n  {\n      return 0x58e2f335bbd6f2b0da93eae19342e7309654fbfeed9a214a1e5d835ac09cc226;\n  }\n\n  function expectedAddress()\n  internal\n  pure\n  returns(address)\n  {\n      return 0x31031dF1d95a84fC21E80922CcdF83971F3e755b;\n  }\n\n  function isValid()\n  public\n  pure\n  returns(bool)\n  {   //this returns true!!!\n      return expectedAddress()==testECRecover();\n  }\n\n  function testECRecover()\n  public\n  pure\n  returns(address)\n  {\n    return ecrecover(\n        hashToSign(),\n        v2(),\n        r(),\n        s()\n        );\n  }\n\n//   function extract(bytes memory data, uint pos)\n//   public\n//   pure\n//   returns (bytes32)\n//   {\n//     bytes32 result;\n\n//     for (uint32 i = 0; i < 32; i++)\n//     {\n//         result[i] = data[i+pos];\n//     }\n\n//     return result;\n//   }\n\n  // function checkSignature(bytes32 h, uint8 v, bytes32 r, bytes32 s)\n  // public\n  // pure\n  // returns (address signer)\n  // {\n  //   bytes memory prefix = \"\\x19Ethereum Signed Message:\\n32\";\n  //   bytes32 prefixedHash = keccak256(abi.encodePacked(prefix,h));  \n  //   signer = ecrecover(prefixedHash, v, r, s); \n  // }\n\n  function checkSignature(bytes32 _hash, bytes32 _r, bytes32 _s, uint8 _v)\n  public\n  pure\n  returns(address)\n  {\n    //P2PKH\n    //the _btcAddress is incomming here, it is the hash of the public key.\n    //ecrecover returns the public key.\n    //to calculate the BTCAddress:\n    //The Public Key is duplicated and the RIPEMD is calculated out of it.\n\n    // 40 hex: 12ab8dc588ca9d5787dde7eb29569da63c3a238c\n    // 20 bytes\n    // public key size ?!\n\n    //\n\n    return ecrecover(\n      _hash,\n      _v,\n      _r,\n      _s\n      );\n  }\n\n\n  /**\n    * @dev PUBLIC FACING: Derive an Ethereum address from an ECDSA public key\n    * @param pubKeyX First  half of uncompressed ECDSA public key\n    * @param pubKeyY Second half of uncompressed ECDSA public key\n    * @return Derived Eth address\n    */\n  function pubKeyToEthAddress(bytes32 pubKeyX, bytes32 pubKeyY)\n      public\n      pure\n      returns (address)\n  {\n      return address(uint160(uint256(keccak256(abi.encodePacked(pubKeyX, pubKeyY)))));\n  }\n\n  /**\n  * @dev sha256(sha256(data))\n  * @param data Data to be hashed\n  * @return 32-byte hash\n  */\n  function calcHash256(bytes memory data)\n      public\n      pure\n      returns (bytes32)\n  {\n      // NOTE: https://github.com/axic/ethereum-bsm/blob/master/bsm.sol\n      // maybe encodePacked is not required ?!\n      return sha256(abi.encodePacked(sha256(data)));\n  }\n\n      function _hexStringFromData(bytes memory hexStr, bytes32 data, uint256 startOffset, uint256 dataLen)\n        private\n        pure\n    {\n        uint256 offset = startOffset;\n\n\n\n        for (uint256 i = 0; i < dataLen; i++) {\n            uint8 b = uint8(data[i]);\n\n            hexStr[offset++] = HEX_DIGITS[b >> 4];\n            hexStr[offset++] = HEX_DIGITS[b & 0x0f];\n        }\n    }\n\n    function _addressStringChecksumChar(bytes memory addrStr, uint256 offset, uint8 hashNybble)\n    private\n    pure\n    {\n        bytes1 ch = addrStr[offset];\n\n        if (ch >= \"a\" && hashNybble >= 8) {\n            addrStr[offset] = ch ^ 0x20;\n        }\n    }\n\n  /**\n  * @dev calculates the address string representation of the signed address.\n  * @param addr address\n  * @param includeAddrChecksum bool. should the addressChecksum be used for this caluclation.\n  * @return addrStr ethereum address(24 byte)\n  */\n  function calculateAddressString(address addr, bool includeAddrChecksum)\n    public\n    pure\n    returns (bytes memory addrStr)\n  {\n      bytes memory tmp = new bytes(ETH_ADDRESS_HEX_LEN);\n      _hexStringFromData(tmp, bytes32(bytes20(addr)), 0, ETH_ADDRESS_BYTE_LEN);\n\n      if (includeAddrChecksum) {\n          bytes32 addrStrHash = keccak256(tmp);\n\n          uint256 offset = 0;\n\n          for (uint256 i = 0; i < ETH_ADDRESS_BYTE_LEN; i++) {\n              uint8 b = uint8(addrStrHash[i]);\n\n              _addressStringChecksumChar(tmp, offset++, b >> 4);\n              _addressStringChecksumChar(tmp, offset++, b & 0x0f);\n          }\n      }\n\n      // the correct checksum is now in the tmp variable.\n      // we extend this by the Ethereum usual prefix 0x\n\n      addrStr = new bytes(ETH_ADDRESS_HEX_LEN + 2);\n\n      addrStr[0] = '0';\n      addrStr[1] = 'x';\n\n      for (uint256 i = 0; i < ETH_ADDRESS_HEX_LEN; i++) {\n          addrStr[i+2] = tmp[i];\n      }\n\n      return addrStr;\n  }\n\n\n  function createClaimMessage(address claimToAddr, bool claimToAddrChecksum)\n        public\n        pure\n        returns (bytes memory)\n    {\n        bytes memory prefixStr = \"\";\n\n        //TODO: pass this as an argument. evaluate in JS before includeAddrChecksum is used or not.\n        //now for testing, we assume Yes.\n\n        bytes memory addrStr = calculateAddressString(claimToAddr, claimToAddrChecksum);\n\n        return abi.encodePacked(\n                BITCOIN_SIG_PREFIX_LEN,\n                BITCOIN_SIG_PREFIX_STR,\n                uint8(prefixStr.length) + ETH_ADDRESS_HEX_LEN,\n                prefixStr,\n                addrStr\n            );\n    }\n  function getHashForClaimMessage(\n    address _claimToAddr,\n    bool  _claimAddrChecksum)\n    public\n    pure\n    returns (bytes32)\n  {\n    return calcHash256(\n          createClaimMessage(_claimToAddr, _claimAddrChecksum)\n      );\n  }\n\n  function claimMessageMatchesSignature(\n    address _claimToAddr,\n    bool    _claimAddrChecksum,\n    bytes32 _pubKeyX,\n    bytes32 _pubKeyY,\n    uint8 _v,\n    bytes32 _r,\n    bytes32 _s\n  )\n    public\n    pure\n    returns (bool)\n  {\n      require(_v >= 27 && _v <= 30, \"v invalid\");\n\n      /*\n          ecrecover() returns an Eth address rather than a public key, so\n          we must do the same to compare.\n      */\n      address pubKeyEthAddr = pubKeyToEthAddress(_pubKeyX, _pubKeyY);\n\n      //we need to check if X and Y corresponds to R and S.\n\n      /* Create and hash the claim message text */\n      bytes32 messageHash = calcHash256(\n          createClaimMessage(_claimToAddr, _claimAddrChecksum)\n      );\n\n      /* Verify the public key */\n      return ecrecover(messageHash, _v, _r, _s) == pubKeyEthAddr;\n  }\n}",
  "sourcePath": "/home/sn/github/dmdv4migration/contracts/contracts/ClaimContract.sol",
  "compiler": {
    "name": "solc",
    "version": "0.6.2+commit.bacdbe57.Emscripten.clang"
  },
  "schemaVersion": "3.0.23",
  "updatedAt": "2020-07-27T07:33:15.260Z",
  "devdoc": {
    "methods": {
      "ECDSAVerify(address,bytes32,bytes32,uint8,bytes32,bytes32)": {
        "details": "Validate the ECDSA parameters of signed message ECDSA public key associated with the specified Ethereum address",
        "params": {
          "_addressClaiming": "Address within signed message",
          "_publicKeyX": "X parameter of uncompressed ECDSA public key",
          "_publicKeyY": "Y parameter of uncompressed ECDSA public key",
          "_r": "r parameter of ECDSA signature",
          "_s": "s parameter of ECDSA signature",
          "_v": "v parameter of ECDSA signature"
        },
        "returns": {
          "_0": "Boolean on if the signature is valid"
        }
      },
      "PublicKeyToBitcoinAddress(bytes32,bytes32,uint8)": {
        "details": "Calculate the Bitcoin-style address associated with an ECDSA public key",
        "params": {
          "a_nAddressType": "Whether DMD is Legacy or Segwit address and if it was compressed",
          "a_publicKeyX": "First half of ECDSA public key",
          "a_publicKeyY": "Second half of ECDSA public key"
        },
        "returns": {
          "_0": "Raw DMD address"
        }
      },
      "PublicKeyToEthereumAddress(bytes32,bytes32)": {
        "details": "Convert an uncompressed ECDSA public key into an Ethereum address",
        "params": {
          "a_publicKeyX": "X parameter of uncompressed ECDSA public key",
          "a_publicKeyY": "Y parameter of uncompressed ECDSA public key"
        },
        "returns": {
          "_0": "Ethereum address generated from the ECDSA public key"
        }
      },
      "ValidateSignature(bytes32,uint8,bytes32,bytes32,address)": {
        "details": "Validate ECSDA signature was signed by the specified address",
        "params": {
          "_address": "Ethereum address matching the signature",
          "_hash": "Hash of signed data",
          "_r": "r parameter of ECDSA signature",
          "_s": "s parameter of ECDSA signature",
          "_v": "v parameter of ECDSA signature"
        },
        "returns": {
          "_0": "Boolean on if the signature is valid"
        }
      },
      "calcHash256(bytes)": {
        "details": "sha256(sha256(data))",
        "params": {
          "data": "Data to be hashed"
        },
        "returns": {
          "_0": "32-byte hash"
        }
      },
      "calculateAddressString(address,bool)": {
        "details": "calculates the address string representation of the signed address.",
        "params": {
          "addr": "address",
          "includeAddrChecksum": "bool. should the addressChecksum be used for this caluclation."
        },
        "returns": {
          "addrStr": "ethereum address(24 byte)"
        }
      },
      "pubKeyToEthAddress(bytes32,bytes32)": {
        "details": "PUBLIC FACING: Derive an Ethereum address from an ECDSA public key",
        "params": {
          "pubKeyX": "First  half of uncompressed ECDSA public key",
          "pubKeyY": "Second half of uncompressed ECDSA public key"
        },
        "returns": {
          "_0": "Derived Eth address"
        }
      }
    }
  },
  "userdoc": {
    "methods": {}
  }
}