{
  "contractName": "ClaimContract",
  "abi": [
    {
      "inputs": [],
      "stateMutability": "nonpayable",
      "type": "constructor"
    },
    {
      "inputs": [
        {
          "internalType": "string",
          "name": "",
          "type": "string"
        }
      ],
      "name": "balances",
      "outputs": [
        {
          "internalType": "uint256",
          "name": "",
          "type": "uint256"
        }
      ],
      "stateMutability": "view",
      "type": "function"
    },
    {
      "inputs": [
        {
          "internalType": "bytes32",
          "name": "hashValue",
          "type": "bytes32"
        },
        {
          "internalType": "bytes32",
          "name": "r",
          "type": "bytes32"
        },
        {
          "internalType": "bytes32",
          "name": "s",
          "type": "bytes32"
        },
        {
          "internalType": "uint8",
          "name": "v",
          "type": "uint8"
        }
      ],
      "name": "getPublicKeyFromBitcoinSignature",
      "outputs": [
        {
          "internalType": "address",
          "name": "",
          "type": "address"
        }
      ],
      "stateMutability": "pure",
      "type": "function"
    },
    {
      "inputs": [],
      "name": "isValid",
      "outputs": [
        {
          "internalType": "bool",
          "name": "",
          "type": "bool"
        }
      ],
      "stateMutability": "pure",
      "type": "function"
    },
    {
      "inputs": [],
      "name": "testECRecover",
      "outputs": [
        {
          "internalType": "address",
          "name": "",
          "type": "address"
        }
      ],
      "stateMutability": "pure",
      "type": "function"
    },
    {
      "inputs": [
        {
          "internalType": "bytes32",
          "name": "_hash",
          "type": "bytes32"
        },
        {
          "internalType": "bytes32",
          "name": "_r",
          "type": "bytes32"
        },
        {
          "internalType": "bytes32",
          "name": "_s",
          "type": "bytes32"
        },
        {
          "internalType": "uint8",
          "name": "_v",
          "type": "uint8"
        }
      ],
      "name": "checkSignature",
      "outputs": [
        {
          "internalType": "address",
          "name": "",
          "type": "address"
        }
      ],
      "stateMutability": "pure",
      "type": "function"
    },
    {
      "inputs": [
        {
          "internalType": "bytes32",
          "name": "pubKeyX",
          "type": "bytes32"
        },
        {
          "internalType": "bytes32",
          "name": "pubKeyY",
          "type": "bytes32"
        }
      ],
      "name": "pubKeyToEthAddress",
      "outputs": [
        {
          "internalType": "address",
          "name": "",
          "type": "address"
        }
      ],
      "stateMutability": "pure",
      "type": "function"
    },
    {
      "inputs": [
        {
          "internalType": "address",
          "name": "addr",
          "type": "address"
        },
        {
          "internalType": "bool",
          "name": "includeAddrChecksum",
          "type": "bool"
        }
      ],
      "name": "calculateAddressString",
      "outputs": [
        {
          "internalType": "bytes",
          "name": "addrStr",
          "type": "bytes"
        }
      ],
      "stateMutability": "pure",
      "type": "function"
    },
    {
      "inputs": [
        {
          "internalType": "address",
          "name": "_claimToAddr",
          "type": "address"
        },
        {
          "internalType": "bool",
          "name": "_claimAddrChecksum",
          "type": "bool"
        },
        {
          "internalType": "bytes32",
          "name": "_claimParamHash",
          "type": "bytes32"
        },
        {
          "internalType": "bytes32",
          "name": "_pubKeyX",
          "type": "bytes32"
        },
        {
          "internalType": "bytes32",
          "name": "_pubKeyY",
          "type": "bytes32"
        },
        {
          "internalType": "uint8",
          "name": "_v",
          "type": "uint8"
        },
        {
          "internalType": "bytes32",
          "name": "_r",
          "type": "bytes32"
        },
        {
          "internalType": "bytes32",
          "name": "_s",
          "type": "bytes32"
        }
      ],
      "name": "claimMessageMatchesSignature",
      "outputs": [
        {
          "internalType": "bool",
          "name": "",
          "type": "bool"
        }
      ],
      "stateMutability": "pure",
      "type": "function"
    }
  ],
  "bytecode": "0x608060405234801561001057600080fd5b50610e40806100206000396000f3fe608060405234801561001057600080fd5b50600436106100a5576000357c010000000000000000000000000000000000000000000000000000000090048063713822091161007857806371382209146101db578063bb5d40eb1461020d578063e180dea914610229578063f8ca3850146102cc576100a5565b806322216884146100aa5780632afd97a4146100ce57806330c1a78514610186578063433cc269146101a9575b600080fd5b6100b2610322565b60408051600160a060020a039092168252519081900360200190f35b610174600480360360208110156100e457600080fd5b8101906020810181356401000000008111156100ff57600080fd5b82018360208201111561011157600080fd5b8035906020019184600183028401116401000000008311171561013357600080fd5b91908080601f0160208091040260200160405190810160405280939291908181526020018383808284376000920191909152509295506103ac945050505050565b60408051918252519081900360200190f35b6100b26004803603604081101561019c57600080fd5b50803590602001356103c9565b6100b2600480360360808110156101bf57600080fd5b508035906020810135906040810135906060013560ff166103f5565b6100b2600480360360808110156101f157600080fd5b508035906020810135906040810135906060013560ff16610461565b61021561051b565b604080519115158252519081900360200190f35b6102576004803603604081101561023f57600080fd5b50600160a060020a0381351690602001351515610545565b6040805160208082528351818301528351919283929083019185019080838360005b83811015610291578181015183820152602001610279565b50505050905090810190601f1680156102be5780820380516001836020036101000a031916815260200191505b509250505060405180910390f35b61021560048036036101008110156102e357600080fd5b50600160a060020a0381351690602081013515159060408101359060608101359060808101359060ff60a0820135169060c08101359060e00135610606565b6000600161032e61073b565b61033661075f565b61033e610771565b610346610795565b60405160008152602001604052604051808581526020018460ff1660ff1681526020018381526020018281526020019450505050506020604051602081039080840390855afa15801561039d573d6000803e3d6000fd5b50505060206040510351905090565b805160208183018101805160008252928201919093012091525481565b604080516020808201949094528082019290925280518083038201815260609092019052805191012090565b604080516000808252602080830180855288905260ff85168385015260608301879052608083018690529251909260019260a080820193601f1981019281900390910190855afa15801561044d573d6000803e3d6000fd5b5050604051601f1901519695505050505050565b600060048260ff1610156104c0576040517f08c379a000000000000000000000000000000000000000000000000000000000815260040180806020018281038252604d815260200180610dbe604d913960600191505060405180910390fd5b6040805160008152602080820180845288905260ff600319860116828401526060820187905260808201869052915160019260a0808401939192601f1981019281900390910190855afa15801561044d573d6000803e3d6000fd5b6000610525610322565b600160a060020a03166105366107b9565b600160a060020a031614905090565b604080516028808252606082810190935260208201818038833901905050905061058f816bffffffffffffffffffffffff196c0100000000000000000000000086021660146107d1565b811561060057805160208201206000805b60148110156105fc5760008382602081106105b757fe5b600185019460f860020a9290911a82029190910491506105df908690601060ff8516046108cc565b6105f3858480600101955083600f166108cc565b506001016105a0565b5050505b92915050565b6000601b8460ff16101580156106205750601e8460ff1611155b61068b57604080517f08c379a000000000000000000000000000000000000000000000000000000000815260206004820152600960248201527f7620696e76616c69640000000000000000000000000000000000000000000000604482015290519081900360640190fd5b600061069787876103c9565b905060006106ae6106a98c8b8d610965565b610c87565b905081600160a060020a031660018288888860405160008152602001604052604051808581526020018460ff1660ff1681526020018381526020018281526020019450505050506020604051602081039080840390855afa158015610717573d6000803e3d6000fd5b50505060206040510351600160a060020a0316149250505098975050505050505050565b7f58e2f335bbd6f2b0da93eae19342e7309654fbfeed9a214a1e5d835ac09cc22690565b6000600461076b610db8565b03905090565b7f0b7effb7704f726bc64139753dc2d0a3929af2309dd2930ad7a722f5b214cf6e90565b7f73a461ce418e9e483f13a98c0cba5cddf07f647ea1d6ba2e88d494dfcd411c9c90565b7331031df1d95a84fc21e80922ccdf83971f3e755b90565b6000805b828110156108c55760008482602081106107eb57fe5b60f860020a91901a81020490507f3031323334353637383961626364656600000000000000000000000000000000601060ff8084168290041690811061082d57fe5b1a60f860020a0286848060010195508151811061084657fe5b6020010190600160f860020a031916908160001a9053507f3031323334353637383961626364656600000000000000000000000000000000600f82166010811061088c57fe5b1a60f860020a028684806001019550815181106108a557fe5b6020010190600160f860020a031916908160001a905350506001016107d5565b5050505050565b60008383815181106108da57fe5b602001015160f860020a900460f860020a0290507f610000000000000000000000000000000000000000000000000000000000000081600160f860020a0319161015801561092c575060088260ff1610155b1561095f5780602060f860020a021884848151811061094757fe5b6020010190600160f860020a031916908160001a9053505b50505050565b604080516020810190915260008152606090816109828685610545565b905084610ab15760187f426974636f696e205369676e6564204d6573736167653a0a000000000000000060146002028451018484604051602001808660ff1660ff1660f860020a0281526001018567ffffffffffffffff191667ffffffffffffffff191681526018018460ff1660ff1660f860020a02815260010183805190602001908083835b60208310610a285780518252601f199092019160209182019101610a09565b51815160209384036101000a600019018019909216911617905285519190930192850191508083835b60208310610a705780518252601f199092019160209182019101610a51565b6001836020036101000a0380198251168184511680821785525050505050509050019550505050505060405160208183030381529060405292505050610c80565b604080516018808252818301909252606091602082018180388339019050509050610ade8187600c6107d1565b82516040517f180000000000000000000000000000000000000000000000000000000000000060208083019182527f426974636f696e205369676e6564204d6573736167653a0a00000000000000006021840181905260ff604190950194851660f860020a026039850152875160189591949193899389938993603a909101918601908083835b60208310610b845780518252601f199092019160209182019101610b65565b51815160209384036101000a600019018019909216911617905286519190930192860191508083835b60208310610bcc5780518252601f199092019160209182019101610bad565b6001836020036101000a038019825116818451168082178552505050505050905001807f5f0000000000000000000000000000000000000000000000000000000000000081525060010182805190602001908083835b60208310610c415780518252601f199092019160209182019101610c22565b6001836020036101000a038019825116818451168082178552505050505050905001965050505050505060405160208183030381529060405293505050505b9392505050565b6000600280836040518082805190602001908083835b60208310610cbc5780518252601f199092019160209182019101610c9d565b51815160209384036101000a60001901801990921691161790526040519190930194509192505080830381855afa158015610cfb573d6000803e3d6000fd5b5050506040513d6020811015610d1057600080fd5b50516040805160208181019390935281518082038401815290820191829052805190928291908401908083835b60208310610d5c5780518252601f199092019160209182019101610d3d565b51815160209384036101000a60001901801990921691161790526040519190930194509192505080830381855afa158015610d9b573d6000803e3d6000fd5b5050506040513d6020811015610db057600080fd5b505192915050565b60209056fe426974636f696e2061646473206120636f6e7374616e74203420746f2074686520762076616c75652e2074686973207369676e6174757265207365656d7320746f20626520696e76616c69642ea26469706673582212201257dfbe3c3509cbbd23edcc1d5b29eea7580761fb0c6784bfcd5e775c7e180264736f6c63430006020033",
  "source": "pragma solidity >=0.6.2 <0.7.0;\n\n\n\nimport {EC} from  './EC.sol';\n\n\ncontract ClaimContract {\n\n  bytes16 internal constant HEX_DIGITS = \"0123456789abcdef\";\n\n  /* Constants for preparing the claim message text */\n  uint8 internal constant ETH_ADDRESS_BYTE_LEN = 20;\n  uint8 internal constant ETH_ADDRESS_HEX_LEN = ETH_ADDRESS_BYTE_LEN * 2;\n  uint8 internal constant CLAIM_PARAM_HASH_BYTE_LEN = 12;\n  uint8 internal constant CLAIM_PARAM_HASH_HEX_LEN = CLAIM_PARAM_HASH_BYTE_LEN * 2;\n  uint8 internal constant BITCOIN_SIG_PREFIX_LEN = 24;\n  bytes24 internal constant BITCOIN_SIG_PREFIX_STR = \"Bitcoin Signed Message:\\n\";\n\n  mapping (string => uint256)  public balances;\n\n  constructor() public {\n    //balances[\"\"] = 1000000000000;\n  }\n\n\n  function getPublicKeyFromBitcoinSignature(bytes32 hashValue, bytes32 r, bytes32 s, uint8 v)\n  public\n  pure\n  returns(address)\n  {\n\n\n    require(v >= 4, 'Bitcoin adds a constant 4 to the v value. this signature seems to be invalid.');\n    //#1: decode bitcoin signature.\n    //# get R, S, V and Hash of Signature.\n    //# do ecrecover on it.\n    //return \"todo: implement this magic!\";\n\n    return ecrecover(\n        hashValue,\n        v - 4, //bitcoin signature use v that is +4 see reddit comment https://www.reddit.com/r/ethereum/comments/3gmbkx/how_do_i_verify_a_bitcoinsigned_message_in_an/ctzopoz\n        r,\n        s\n    );\n  }\n\n\n//  function getPublicKeyFromSignature(bytes65 memory signatureBytes)\n//  public\n//  pure\n//  returns(string memory)\n//  {\n    //#1: decode bitcoin signature.\n    //# get R, S, V and Hash of Signature.\n    //# do ecrecover on it.\n    //return \"todo: implement this magic!\";\n//  }\n\n  function r()\n  internal\n  pure\n  returns(bytes32)\n  {\n      return 0x0b7effb7704f726bc64139753dc2d0a3929af2309dd2930ad7a722f5b214cf6e;\n  }\n\n  function s()\n  internal\n  pure\n  returns(bytes32)\n  {\n      return 0x73a461ce418e9e483f13a98c0cba5cddf07f647ea1d6ba2e88d494dfcd411c9c;\n  }\n\n  function v()\n  internal\n  pure\n  returns(uint8) {\n      return 32;  //equal to 0x20\n  }\n\n  function v2()\n  internal\n  pure\n  returns(uint8)\n  {\n      return v()-4;   //bitcoin signature use v that is +4 see reddit comment https://www.reddit.com/r/ethereum/comments/3gmbkx/how_do_i_verify_a_bitcoinsigned_message_in_an/ctzopoz\n  }\n\n  function hashToSign()\n  internal\n  pure\n  returns(bytes32)\n  {\n      return 0x58e2f335bbd6f2b0da93eae19342e7309654fbfeed9a214a1e5d835ac09cc226;\n  }\n\n  function expectedAddress()\n  internal\n  pure\n  returns(address)\n  {\n      return 0x31031dF1d95a84fC21E80922CcdF83971F3e755b;\n  }\n\n  function isValid()\n  public\n  pure\n  returns(bool)\n  {   //this returns true!!!\n      return expectedAddress()==testECRecover();\n  }\n\n  function testECRecover()\n  public\n  pure\n  returns(address)\n  {\n    return ecrecover(\n        hashToSign(),\n        v2(),\n        r(),\n        s()\n        );\n  }\n\n//   function extract(bytes memory data, uint pos)\n//   public\n//   pure\n//   returns (bytes32)\n//   {\n//     bytes32 result;\n\n//     for (uint32 i = 0; i < 32; i++)\n//     {\n//         result[i] = data[i+pos];\n//     }\n\n//     return result;\n//   }\n\n  // function checkSignature(bytes32 h, uint8 v, bytes32 r, bytes32 s)\n  // public\n  // pure\n  // returns (address signer)\n  // {\n  //   bytes memory prefix = \"\\x19Ethereum Signed Message:\\n32\";\n  //   bytes32 prefixedHash = keccak256(abi.encodePacked(prefix,h));  \n  //   signer = ecrecover(prefixedHash, v, r, s); \n  // }\n\n  function checkSignature(bytes32 _hash, bytes32 _r, bytes32 _s, uint8 _v)\n  public\n  pure\n  returns(address)\n  {\n    //P2PKH\n    //the _btcAddress is incomming here, it is the hash of the public key.\n    //ecrecover returns the public key.\n    //to calculate the BTCAddress:\n    //The Public Key is duplicated and the RIPEMD is calculated out of it.\n\n    // 40 hex: 12ab8dc588ca9d5787dde7eb29569da63c3a238c\n    // 20 bytes\n    // public key size ?!\n\n    //\n\n    return ecrecover(\n      _hash,\n      _v,\n      _r,\n      _s\n      );\n  }\n\n\n  /**\n    * @dev PUBLIC FACING: Derive an Ethereum address from an ECDSA public key\n    * @param pubKeyX First  half of uncompressed ECDSA public key\n    * @param pubKeyY Second half of uncompressed ECDSA public key\n    * @return Derived Eth address\n    */\n  function pubKeyToEthAddress(bytes32 pubKeyX, bytes32 pubKeyY)\n      public\n      pure\n      returns (address)\n  {\n      return address(uint160(uint256(keccak256(abi.encodePacked(pubKeyX, pubKeyY)))));\n  }\n\n  /**\n  * @dev sha256(sha256(data))\n  * @param data Data to be hashed\n  * @return 32-byte hash\n  */\n  function _hash256(bytes memory data)\n      private\n      pure\n      returns (bytes32)\n  {\n      return sha256(abi.encodePacked(sha256(data)));\n  }\n\n      function _hexStringFromData(bytes memory hexStr, bytes32 data, uint256 dataLen)\n        private\n        pure\n    {\n        uint256 offset = 0;\n\n        for (uint256 i = 0; i < dataLen; i++) {\n            uint8 b = uint8(data[i]);\n\n            hexStr[offset++] = HEX_DIGITS[b >> 4];\n            hexStr[offset++] = HEX_DIGITS[b & 0x0f];\n        }\n    }\n\n    function _addressStringChecksumChar(bytes memory addrStr, uint256 offset, uint8 hashNybble)\n    private\n    pure\n    {\n        bytes1 ch = addrStr[offset];\n\n        if (ch >= \"a\" && hashNybble >= 8) {\n            addrStr[offset] = ch ^ 0x20;\n        }\n    }\n\n  /**\n  * @dev calculates the address string representation of the signed address.\n  * @param addr address\n  * @param includeAddrChecksum bool. should the addressChecksum be used for this caluclation.\n  * @return addrStr ethereum address(24 byte)\n  */\n  function calculateAddressString(address addr, bool includeAddrChecksum)\n    public\n    pure\n    returns (bytes memory addrStr)\n  {\n      addrStr = new bytes(ETH_ADDRESS_HEX_LEN);\n      _hexStringFromData(addrStr, bytes32(bytes20(addr)), ETH_ADDRESS_BYTE_LEN);\n\n      if (includeAddrChecksum) {\n          bytes32 addrStrHash = keccak256(addrStr);\n\n          uint256 offset = 0;\n\n          for (uint256 i = 0; i < ETH_ADDRESS_BYTE_LEN; i++) {\n              uint8 b = uint8(addrStrHash[i]);\n\n              _addressStringChecksumChar(addrStr, offset++, b >> 4);\n              _addressStringChecksumChar(addrStr, offset++, b & 0x0f);\n          }\n      }\n\n      return addrStr;\n  }\n\n\n    function _claimMessageCreate(address claimToAddr, bytes32 claimParamHash, bool claimToAddrChecksum)\n        private\n        pure\n        returns (bytes memory)\n    {\n        bytes memory prefixStr = \"\";\n\n        //TODO: pass this as an argument. evaluate in JS before includeAddrChecksum is used or not.\n        //now for testing, we assume Yes.\n\n        bytes memory addrStr = calculateAddressString(claimToAddr, claimToAddrChecksum);\n\n        if (claimParamHash == 0) {\n            return abi.encodePacked(\n                BITCOIN_SIG_PREFIX_LEN,\n                BITCOIN_SIG_PREFIX_STR,\n                uint8(prefixStr.length) + ETH_ADDRESS_HEX_LEN,\n                prefixStr,\n                addrStr\n            );\n        }\n\n        bytes memory claimParamHashStr = new bytes(CLAIM_PARAM_HASH_HEX_LEN);\n\n        _hexStringFromData(claimParamHashStr, claimParamHash, CLAIM_PARAM_HASH_BYTE_LEN);\n\n        return abi.encodePacked(\n            BITCOIN_SIG_PREFIX_LEN,\n            BITCOIN_SIG_PREFIX_STR,\n            uint8(prefixStr.length) + ETH_ADDRESS_HEX_LEN + 1 + CLAIM_PARAM_HASH_HEX_LEN,\n            prefixStr,\n            addrStr,\n            \"_\",\n            claimParamHashStr\n        );\n    }\n\n\n\n  function claimMessageMatchesSignature(\n    address _claimToAddr,\n    bool    _claimAddrChecksum,\n    bytes32 _claimParamHash,\n    bytes32 _pubKeyX,\n    bytes32 _pubKeyY,\n    uint8 _v,\n    bytes32 _r,\n    bytes32 _s\n  )\n    public\n    pure\n    returns (bool)\n  {\n      require(_v >= 27 && _v <= 30, \"v invalid\");\n\n      /*\n          ecrecover() returns an Eth address rather than a public key, so\n          we must do the same to compare.\n      */\n      address pubKeyEthAddr = pubKeyToEthAddress(_pubKeyX, _pubKeyY);\n\n      /* Create and hash the claim message text */\n      bytes32 messageHash = _hash256(\n          _claimMessageCreate(_claimToAddr, _claimParamHash, _claimAddrChecksum)\n      );\n\n      /* Verify the public key */\n      return ecrecover(messageHash, _v, _r, _s) == pubKeyEthAddr;\n  }\n}\n",
  "sourcePath": "/home/sn/github/dmdv4migration/contracts/contracts/ClaimContract.sol",
  "compiler": {
    "name": "solc",
    "version": "0.6.2+commit.bacdbe57.Emscripten.clang"
  },
  "schemaVersion": "3.0.23",
  "updatedAt": "2020-06-25T10:15:00.584Z",
  "devdoc": {
    "methods": {
      "calculateAddressString(address,bool)": {
        "details": "calculates the address string representation of the signed address.",
        "params": {
          "addr": "address",
          "includeAddrChecksum": "bool. should the addressChecksum be used for this caluclation."
        },
        "returns": {
          "addrStr": "ethereum address(24 byte)"
        }
      },
      "pubKeyToEthAddress(bytes32,bytes32)": {
        "details": "PUBLIC FACING: Derive an Ethereum address from an ECDSA public key",
        "params": {
          "pubKeyX": "First  half of uncompressed ECDSA public key",
          "pubKeyY": "Second half of uncompressed ECDSA public key"
        },
        "returns": {
          "_0": "Derived Eth address"
        }
      }
    }
  },
  "userdoc": {
    "methods": {}
  }
}