{
  "contractName": "ClaimContract",
  "abi": [
    {
      "inputs": [
        {
          "internalType": "address payable",
          "name": "_lateClaimBeneficorAddressReinsertPot",
          "type": "address"
        },
        {
          "internalType": "address payable",
          "name": "_lateClaimBeneficorAddressDAO",
          "type": "address"
        },
        {
          "internalType": "bytes",
          "name": "_prefixStr",
          "type": "bytes"
        }
      ],
      "stateMutability": "nonpayable",
      "type": "constructor"
    },
    {
      "anonymous": false,
      "inputs": [
        {
          "indexed": true,
          "internalType": "bytes20",
          "name": "_from",
          "type": "bytes20"
        },
        {
          "indexed": false,
          "internalType": "address",
          "name": "_to",
          "type": "address"
        },
        {
          "indexed": false,
          "internalType": "uint256",
          "name": "amount",
          "type": "uint256"
        },
        {
          "indexed": false,
          "internalType": "uint256",
          "name": "_nominator",
          "type": "uint256"
        },
        {
          "indexed": false,
          "internalType": "uint256",
          "name": "_denominator",
          "type": "uint256"
        }
      ],
      "name": "Claim",
      "type": "event"
    },
    {
      "inputs": [
        {
          "internalType": "bytes20",
          "name": "",
          "type": "bytes20"
        }
      ],
      "name": "balances",
      "outputs": [
        {
          "internalType": "uint256",
          "name": "",
          "type": "uint256"
        }
      ],
      "stateMutability": "view",
      "type": "function"
    },
    {
      "inputs": [],
      "name": "deploymentTimestamp",
      "outputs": [
        {
          "internalType": "uint256",
          "name": "",
          "type": "uint256"
        }
      ],
      "stateMutability": "view",
      "type": "function"
    },
    {
      "inputs": [],
      "name": "dilution_s1_75_executed",
      "outputs": [
        {
          "internalType": "bool",
          "name": "",
          "type": "bool"
        }
      ],
      "stateMutability": "view",
      "type": "function"
    },
    {
      "inputs": [],
      "name": "dilution_s2_50_executed",
      "outputs": [
        {
          "internalType": "bool",
          "name": "",
          "type": "bool"
        }
      ],
      "stateMutability": "view",
      "type": "function"
    },
    {
      "inputs": [],
      "name": "dilution_s3_0_executed",
      "outputs": [
        {
          "internalType": "bool",
          "name": "",
          "type": "bool"
        }
      ],
      "stateMutability": "view",
      "type": "function"
    },
    {
      "inputs": [],
      "name": "lateClaimBeneficorAddressDAO",
      "outputs": [
        {
          "internalType": "address payable",
          "name": "",
          "type": "address"
        }
      ],
      "stateMutability": "view",
      "type": "function"
    },
    {
      "inputs": [],
      "name": "lateClaimBeneficorAddressReinsertPot",
      "outputs": [
        {
          "internalType": "address payable",
          "name": "",
          "type": "address"
        }
      ],
      "stateMutability": "view",
      "type": "function"
    },
    {
      "inputs": [
        {
          "internalType": "bytes32",
          "name": "hashValue",
          "type": "bytes32"
        },
        {
          "internalType": "bytes32",
          "name": "r",
          "type": "bytes32"
        },
        {
          "internalType": "bytes32",
          "name": "s",
          "type": "bytes32"
        },
        {
          "internalType": "uint8",
          "name": "v",
          "type": "uint8"
        }
      ],
      "name": "getPublicKeyFromBitcoinSignature",
      "outputs": [
        {
          "internalType": "address",
          "name": "",
          "type": "address"
        }
      ],
      "stateMutability": "pure",
      "type": "function"
    },
    {
      "inputs": [
        {
          "internalType": "bytes32",
          "name": "_publicKeyX",
          "type": "bytes32"
        },
        {
          "internalType": "bytes32",
          "name": "_publicKeyY",
          "type": "bytes32"
        },
        {
          "internalType": "enum ClaimContract.AddressType",
          "name": "_addressType",
          "type": "uint8"
        }
      ],
      "name": "publicKeyToBitcoinAddress",
      "outputs": [
        {
          "internalType": "bytes20",
          "name": "",
          "type": "bytes20"
        }
      ],
      "stateMutability": "pure",
      "type": "function"
    },
    {
      "inputs": [
        {
          "internalType": "bytes32",
          "name": "_publicKeyX",
          "type": "bytes32"
        },
        {
          "internalType": "bytes32",
          "name": "_publicKeyY",
          "type": "bytes32"
        }
      ],
      "name": "publicKeyToEthereumAddress",
      "outputs": [
        {
          "internalType": "address",
          "name": "",
          "type": "address"
        }
      ],
      "stateMutability": "pure",
      "type": "function"
    },
    {
      "inputs": [
        {
          "internalType": "bytes32",
          "name": "_hash",
          "type": "bytes32"
        },
        {
          "internalType": "uint8",
          "name": "_v",
          "type": "uint8"
        },
        {
          "internalType": "bytes32",
          "name": "_r",
          "type": "bytes32"
        },
        {
          "internalType": "bytes32",
          "name": "_s",
          "type": "bytes32"
        },
        {
          "internalType": "address",
          "name": "_address",
          "type": "address"
        }
      ],
      "name": "ValidateSignature",
      "outputs": [
        {
          "internalType": "bool",
          "name": "",
          "type": "bool"
        }
      ],
      "stateMutability": "pure",
      "type": "function"
    },
    {
      "inputs": [
        {
          "internalType": "address",
          "name": "_addressClaiming",
          "type": "address"
        },
        {
          "internalType": "bytes32",
          "name": "_publicKeyX",
          "type": "bytes32"
        },
        {
          "internalType": "bytes32",
          "name": "_publicKeyY",
          "type": "bytes32"
        },
        {
          "internalType": "uint8",
          "name": "_v",
          "type": "uint8"
        },
        {
          "internalType": "bytes32",
          "name": "_r",
          "type": "bytes32"
        },
        {
          "internalType": "bytes32",
          "name": "_s",
          "type": "bytes32"
        }
      ],
      "name": "ECDSAVerify",
      "outputs": [
        {
          "internalType": "bool",
          "name": "",
          "type": "bool"
        }
      ],
      "stateMutability": "view",
      "type": "function"
    },
    {
      "inputs": [
        {
          "internalType": "bytes32",
          "name": "_hash",
          "type": "bytes32"
        },
        {
          "internalType": "bytes32",
          "name": "_r",
          "type": "bytes32"
        },
        {
          "internalType": "bytes32",
          "name": "_s",
          "type": "bytes32"
        },
        {
          "internalType": "uint8",
          "name": "_v",
          "type": "uint8"
        }
      ],
      "name": "checkSignature",
      "outputs": [
        {
          "internalType": "address",
          "name": "",
          "type": "address"
        }
      ],
      "stateMutability": "pure",
      "type": "function"
    },
    {
      "inputs": [
        {
          "internalType": "bytes32",
          "name": "pubKeyX",
          "type": "bytes32"
        },
        {
          "internalType": "bytes32",
          "name": "pubKeyY",
          "type": "bytes32"
        }
      ],
      "name": "pubKeyToEthAddress",
      "outputs": [
        {
          "internalType": "address",
          "name": "",
          "type": "address"
        }
      ],
      "stateMutability": "pure",
      "type": "function"
    },
    {
      "inputs": [
        {
          "internalType": "bytes",
          "name": "data",
          "type": "bytes"
        }
      ],
      "name": "calcHash256",
      "outputs": [
        {
          "internalType": "bytes32",
          "name": "",
          "type": "bytes32"
        }
      ],
      "stateMutability": "pure",
      "type": "function"
    },
    {
      "inputs": [
        {
          "internalType": "address",
          "name": "_addr",
          "type": "address"
        },
        {
          "internalType": "bool",
          "name": "_includeAddrChecksum",
          "type": "bool"
        }
      ],
      "name": "calculateAddressString",
      "outputs": [
        {
          "internalType": "bytes",
          "name": "addrStr",
          "type": "bytes"
        }
      ],
      "stateMutability": "pure",
      "type": "function"
    },
    {
      "inputs": [
        {
          "internalType": "address",
          "name": "_claimToAddr",
          "type": "address"
        },
        {
          "internalType": "bool",
          "name": "_claimAddrChecksum",
          "type": "bool"
        }
      ],
      "name": "createClaimMessage",
      "outputs": [
        {
          "internalType": "bytes",
          "name": "",
          "type": "bytes"
        }
      ],
      "stateMutability": "view",
      "type": "function"
    },
    {
      "inputs": [
        {
          "internalType": "address",
          "name": "_claimToAddr",
          "type": "address"
        },
        {
          "internalType": "bool",
          "name": "_claimAddrChecksum",
          "type": "bool"
        }
      ],
      "name": "createClaimMessageDMD",
      "outputs": [
        {
          "internalType": "bytes",
          "name": "",
          "type": "bytes"
        }
      ],
      "stateMutability": "view",
      "type": "function"
    },
    {
      "inputs": [
        {
          "internalType": "address",
          "name": "_claimToAddr",
          "type": "address"
        },
        {
          "internalType": "bool",
          "name": "_claimAddrChecksum",
          "type": "bool"
        }
      ],
      "name": "getHashForClaimMessage",
      "outputs": [
        {
          "internalType": "bytes32",
          "name": "",
          "type": "bytes32"
        }
      ],
      "stateMutability": "view",
      "type": "function"
    },
    {
      "inputs": [
        {
          "internalType": "address",
          "name": "_claimToAddr",
          "type": "address"
        },
        {
          "internalType": "bool",
          "name": "_claimAddrChecksum",
          "type": "bool"
        },
        {
          "internalType": "uint8",
          "name": "_v",
          "type": "uint8"
        },
        {
          "internalType": "bytes32",
          "name": "_r",
          "type": "bytes32"
        },
        {
          "internalType": "bytes32",
          "name": "_s",
          "type": "bytes32"
        }
      ],
      "name": "getEthAddressFromSignature",
      "outputs": [
        {
          "internalType": "address",
          "name": "",
          "type": "address"
        }
      ],
      "stateMutability": "view",
      "type": "function"
    },
    {
      "inputs": [
        {
          "internalType": "address",
          "name": "_claimToAddr",
          "type": "address"
        },
        {
          "internalType": "bool",
          "name": "_claimAddrChecksum",
          "type": "bool"
        },
        {
          "internalType": "bytes32",
          "name": "_pubKeyX",
          "type": "bytes32"
        },
        {
          "internalType": "bytes32",
          "name": "_pubKeyY",
          "type": "bytes32"
        },
        {
          "internalType": "uint8",
          "name": "_v",
          "type": "uint8"
        },
        {
          "internalType": "bytes32",
          "name": "_r",
          "type": "bytes32"
        },
        {
          "internalType": "bytes32",
          "name": "_s",
          "type": "bytes32"
        }
      ],
      "name": "claimMessageMatchesSignature",
      "outputs": [
        {
          "internalType": "bool",
          "name": "",
          "type": "bool"
        }
      ],
      "stateMutability": "view",
      "type": "function"
    },
    {
      "inputs": [],
      "name": "getDilutionTimestamp1",
      "outputs": [
        {
          "internalType": "uint256",
          "name": "",
          "type": "uint256"
        }
      ],
      "stateMutability": "view",
      "type": "function"
    },
    {
      "inputs": [],
      "name": "getDilutionTimestamp2",
      "outputs": [
        {
          "internalType": "uint256",
          "name": "",
          "type": "uint256"
        }
      ],
      "stateMutability": "view",
      "type": "function"
    },
    {
      "inputs": [],
      "name": "getDilutionTimestamp3",
      "outputs": [
        {
          "internalType": "uint256",
          "name": "",
          "type": "uint256"
        }
      ],
      "stateMutability": "view",
      "type": "function"
    },
    {
      "inputs": [],
      "name": "dilute1",
      "outputs": [
        {
          "internalType": "uint256",
          "name": "",
          "type": "uint256"
        }
      ],
      "stateMutability": "nonpayable",
      "type": "function"
    },
    {
      "inputs": [],
      "name": "dilute2",
      "outputs": [
        {
          "internalType": "uint256",
          "name": "",
          "type": "uint256"
        }
      ],
      "stateMutability": "nonpayable",
      "type": "function"
    },
    {
      "inputs": [],
      "name": "dilute3",
      "outputs": [
        {
          "internalType": "uint256",
          "name": "",
          "type": "uint256"
        }
      ],
      "stateMutability": "nonpayable",
      "type": "function"
    },
    {
      "inputs": [],
      "name": "getCurrentDilutedClaimFactor",
      "outputs": [
        {
          "internalType": "uint256",
          "name": "nominator",
          "type": "uint256"
        },
        {
          "internalType": "uint256",
          "name": "denominator",
          "type": "uint256"
        }
      ],
      "stateMutability": "view",
      "type": "function"
    },
    {
      "inputs": [
        {
          "internalType": "bytes20",
          "name": "oldAddress",
          "type": "bytes20"
        }
      ],
      "name": "addBalance",
      "outputs": [],
      "stateMutability": "payable",
      "type": "function"
    },
    {
      "inputs": [
        {
          "internalType": "address payable",
          "name": "_targetAdress",
          "type": "address"
        },
        {
          "internalType": "bool",
          "name": "_claimAddrChecksum",
          "type": "bool"
        },
        {
          "internalType": "bytes32",
          "name": "_pubKeyX",
          "type": "bytes32"
        },
        {
          "internalType": "bytes32",
          "name": "_pubKeyY",
          "type": "bytes32"
        },
        {
          "internalType": "uint8",
          "name": "_v",
          "type": "uint8"
        },
        {
          "internalType": "bytes32",
          "name": "_r",
          "type": "bytes32"
        },
        {
          "internalType": "bytes32",
          "name": "_s",
          "type": "bytes32"
        }
      ],
      "name": "claim",
      "outputs": [],
      "stateMutability": "nonpayable",
      "type": "function"
    }
  ],
  "bytecode": "0x60806040523480156200001157600080fd5b50604051620026bf380380620026bf833981810160405260608110156200003757600080fd5b815160208301516040808501805191519395929483019291846401000000008211156200006357600080fd5b9083019060208201858111156200007957600080fd5b82516401000000008111828201881017156200009457600080fd5b82525081516020918201929091019080838360005b83811015620000c3578181015183820152602001620000a9565b50505050905090810190601f168015620000f15780820380516001836020036101000a031916815260200191505b506040525050426002555060038054600160a060020a03808616600160a060020a03199283161790925560048054928516929091169190911790558051620001419060059060208401906200014b565b50505050620001f0565b828054600181600116156101000203166002900490600052602060002090601f016020900481019282601f106200018e57805160ff1916838001178555620001be565b82800160010185558215620001be579182015b82811115620001be578251825591602001919060010190620001a1565b50620001cc929150620001d0565b5090565b620001ed91905b80821115620001cc5760008155600101620001d7565b90565b6124bf80620002006000396000f3fe6080604052600436106101ea576000357c0100000000000000000000000000000000000000000000000000000000900480637138220911610114578063bbc07297116100b2578063e180dea911610081578063e180dea9146107b0578063eaa2b1cd146107eb578063f2113dc91461083b578063fa4ee75a14610874576101ea565b8063bbc0729714610688578063bfc12c05146106e3578063c48a5ba5146106f8578063d8de854914610754576101ea565b806392867f38116100ee57806392867f38146105d55780639365fe0b14610623578063a9880f3214610638578063b28297f814610673576101ea565b806371382209146104ce5780637b99c36d1461050d57806384f0145e146105c0576101ea565b80632e5b74581161018c5780634e2ac9bf1161015b5780634e2ac9bf1461047a5780635b33bef31461048f57806364e7c23a146104a45780636a01acad146104b9576101ea565b80632e5b7458146103df57806330c1a785146101ef57806338b44e001461040d578063433cc2691461043b576101ea565b806318b46f58116101c857806318b46f58146102b857806319e93d07146102cd5780631b17d9a81461037d57806326b8ed3214610392576101ea565b80630b139fef146101ef5780630be89cc41461023b5780630e6f415414610250575b600080fd5b3480156101fb57600080fd5b5061021f6004803603604081101561021257600080fd5b5080359060200135610889565b60408051600160a060020a039092168252519081900360200190f35b34801561024757600080fd5b5061021f6108b5565b34801561025c57600080fd5b506102a4600480360360c081101561027357600080fd5b50600160a060020a038135169060208101359060408101359060ff6060820135169060808101359060a001356108c4565b604080519115158252519081900360200190f35b3480156102c457600080fd5b5061021f610a8b565b3480156102d957600080fd5b50610308600480360360408110156102f057600080fd5b50600160a060020a0381351690602001351515610a9a565b6040805160208082528351818301528351919283929083019185019080838360005b8381101561034257818101518382015260200161032a565b50505050905090810190601f16801561036f5780820380516001836020036101000a031916815260200191505b509250505060405180910390f35b34801561038957600080fd5b506102a4610bc7565b34801561039e57600080fd5b506103cd600480360360408110156103b557600080fd5b50600160a060020a0381351690602001351515610bd0565b60408051918252519081900360200190f35b3480156103eb57600080fd5b506103f4610beb565b6040805192835260208301919091528051918290030190f35b6104396004803603602081101561042357600080fd5b50356bffffffffffffffffffffffff1916610c48565b005b34801561044757600080fd5b5061021f6004803603608081101561045e57600080fd5b508035906020810135906040810135906060013560ff16610cc8565b34801561048657600080fd5b506103cd610d34565b34801561049b57600080fd5b506103cd610e7a565b3480156104b057600080fd5b506102a4610f2f565b3480156104c557600080fd5b506103cd610f3d565b3480156104da57600080fd5b5061021f600480360360808110156104f157600080fd5b508035906020810135906040810135906060013560ff16610f48565b34801561051957600080fd5b506103cd6004803603602081101561053057600080fd5b81019060208101813564010000000081111561054b57600080fd5b82018360208201111561055d57600080fd5b8035906020019184600183028401116401000000008311171561057f57600080fd5b91908080601f016020809104026020016040519081016040528093929190818152602001838380828437600092019190915250929550610feb945050505050565b3480156105cc57600080fd5b506103cd61111c565b3480156105e157600080fd5b506102a4600480360360a08110156105f857600080fd5b50803590602081013560ff169060408101359060608101359060800135600160a060020a0316611128565b34801561062f57600080fd5b506103cd6111b0565b34801561064457600080fd5b506103086004803603604081101561065b57600080fd5b50600160a060020a03813516906020013515156112a7565b34801561067f57600080fd5b506103cd6113fb565b34801561069457600080fd5b506106c1600480360360608110156106ab57600080fd5b508035906020810135906040013560ff16611406565b604080516bffffffffffffffffffffffff199092168252519081900360200190f35b3480156106ef57600080fd5b506103cd611915565b34801561070457600080fd5b506102a4600480360360e081101561071b57600080fd5b50600160a060020a0381351690602081013515159060408101359060608101359060ff6080820135169060a08101359060c0013561191b565b34801561076057600080fd5b50610439600480360360e081101561077757600080fd5b50600160a060020a0381351690602081013515159060408101359060608101359060ff6080820135169060a08101359060c00135611a2f565b3480156107bc57600080fd5b50610308600480360360408110156107d357600080fd5b50600160a060020a0381351690602001351515611c15565b3480156107f757600080fd5b5061021f600480360360a081101561080e57600080fd5b50600160a060020a0381351690602081013515159060ff6040820135169060608101359060800135611ddf565b34801561084757600080fd5b506103cd6004803603602081101561085e57600080fd5b50356bffffffffffffffffffffffff1916611e64565b34801561088057600080fd5b506102a4611e76565b604080516020808201949094528082019290925280518083038201815260609092019052805191012090565b600354600160a060020a031681565b600060606108d38860016112a7565b90506000600280836040516020018082805190602001908083835b6020831061090d5780518252601f1990920191602091820191016108ee565b6001836020036101000a0380198251168184511680821785525050505050509050019150506040516020818303038152906040526040518082805190602001908083835b602083106109705780518252601f199092019160209182019101610951565b51815160209384036101000a60001901801990921691161790526040519190930194509192505080830381855afa1580156109af573d6000803e3d6000fd5b5050506040513d60208110156109c457600080fd5b50516040805160208181019390935281518082038401815290820191829052805190928291908401908083835b60208310610a105780518252601f1990920191602091820191016109f1565b51815160209384036101000a60001901801990921691161790526040519190930194509192505080830381855afa158015610a4f573d6000803e3d6000fd5b5050506040513d6020811015610a6457600080fd5b50519050610a7e81878787610a798d8d610889565b611128565b9998505050505050505050565b600454600160a060020a031681565b606080610aa78484611c15565b905060187f4469616d6f6e64205369676e6564204d6573736167653a0a0000000000000000600583604051602001808560ff1660ff1660f860020a0281526001018467ffffffffffffffff191667ffffffffffffffff1916815260180183805460018160011615610100020316600290048015610b5b5780601f10610b39576101008083540402835291820191610b5b565b820191906000526020600020905b815481529060010190602001808311610b47575b5050825160208401908083835b60208310610b875780518252601f199092019160209182019101610b68565b6001836020036101000a03801982511681845116808217855250505050505090500194505050505060405160208183030381529060405291505092915050565b60015460ff1681565b6000610be4610bdf84846112a7565b610feb565b9392505050565b600154600090819060ff16610c0557506001905080610c44565b600154610100900460ff16610c205750600390506004610c44565b60015462010000900460ff16610c3c5750600190506002610c44565b506000905060015b9091565b6bffffffffffffffffffffffff19811660009081526020819052604090205415610ca65760405160e560020a62461bcd0281526004018080602001828103825260378152602001806124536037913960400191505060405180910390fd5b6bffffffffffffffffffffffff19166000908152602081905260409020349055565b604080516000808252602080830180855288905260ff85168385015260608301879052608083018690529251909260019260a080820193601f1981019281900390910190855afa158015610d20573d6000803e3d6000fd5b5050604051601f1901519695505050505050565b6000610d3e61111c565b4211610d7e5760405160e560020a62461bcd02815260040180806020018281038252604581526020018061240e6045913960600191505060405180910390fd5b6001805460ff16151514610dc65760405160e560020a62461bcd0281526004018080602001828103825260468152602001806123c86046913960600191505060405180910390fd5b60018054610100900460ff16151514610e135760405160e560020a62461bcd0281526004018080602001828103825260468152602001806121a26046913960600191505060405180910390fd5b60015462010000900460ff1615610e5e5760405160e560020a62461bcd0281526004018080602001828103825260218152602001806122566021913960400191505060405180910390fd5b6001805460ff1916811790553031610e7581611e85565b905090565b6000610e846113fb565b4211610ec45760405160e560020a62461bcd0281526004018080602001828103825260458152602001806122116045913960600191505060405180910390fd5b60015460ff1615610f095760405160e560020a62461bcd0281526004018080602001828103825260218152602001806122776021913960400191505060405180910390fd5b6001805460ff191681179055303160006004825b049050610f2981611e85565b91505090565b600154610100900460ff1681565b60025462f142800190565b600060048260ff161015610f905760405160e560020a62461bcd02815260040180806020018281038252604d815260200180612346604d913960600191505060405180910390fd5b6040805160008152602080820180845288905260ff600319860116828401526060820187905260808201869052915160019260a0808401939192601f1981019281900390910190855afa158015610d20573d6000803e3d6000fd5b6000600280836040518082805190602001908083835b602083106110205780518252601f199092019160209182019101611001565b51815160209384036101000a60001901801990921691161790526040519190930194509192505080830381855afa15801561105f573d6000803e3d6000fd5b5050506040513d602081101561107457600080fd5b50516040805160208181019390935281518082038401815290820191829052805190928291908401908083835b602083106110c05780518252601f1990920191602091820191016110a1565b51815160209384036101000a60001901801990921691161790526040519190930194509192505080830381855afa1580156110ff573d6000803e3d6000fd5b5050506040513d602081101561111457600080fd5b505192915050565b60025463096753000190565b600081600160a060020a031660018787878760405160008152602001604052604051808581526020018460ff1660ff1681526020018381526020018281526020019450505050506020604051602081039080840390855afa158015611191573d6000803e3d6000fd5b50505060206040510351600160a060020a031614905095945050505050565b60006111ba610f3d565b42116111fa5760405160e560020a62461bcd0281526004018080602001828103825260458152602001806122de6045913960600191505060405180910390fd5b6001805460ff161515146112425760405160e560020a62461bcd0281526004018080602001828103825260468152602001806122986046913960600191505060405180910390fd5b600154610100900460ff161561128c5760405160e560020a62461bcd0281526004018080602001828103825260218152602001806121816021913960400191505060405180910390fd5b6001805461ff00191661010017905530316000600382610f1d565b6060806112b48484611c15565b600580546040517f1800000000000000000000000000000000000000000000000000000000000000602082019081527f426974636f696e205369676e6564204d6573736167653a0a00000000000000006021830181905260f860020a60026001861615610100026000190190951694909404602a810160ff8116959095026039850152959650601895909492879291603a909101908490801561138e5780601f1061136c57610100808354040283529182019161138e565b820191906000526020600020905b81548152906001019060200180831161137a575b5050825160208401908083835b602083106113ba5780518252601f19909201916020918201910161139b565b6001836020036101000a0380198251168184511680821785525050505050509050019550505050505060405160208183030381529060405291505092915050565b60025462794a000190565b60008080600184600381111561141857fe5b148061142f5750600384600381111561142d57fe5b145b156115ac576001851615611444576003611447565b60025b9050600360028288604051602001808360ff1660ff1660f860020a028152600101828152602001925050506040516020818303038152906040526040518082805190602001908083835b602083106114b05780518252601f199092019160209182019101611491565b51815160209384036101000a60001901801990921691161790526040519190930194509192505080830381855afa1580156114ef573d6000803e3d6000fd5b5050506040513d602081101561150457600080fd5b50516040805160208181019390935281518082038401815290820191829052805190928291908401908083835b602083106115505780518252601f199092019160209182019101611531565b51815160209384036101000a60001901801990921691161790526040519190930194509192505080830381855afa15801561158f573d6000803e3d6000fd5b505050604051516c0100000000000000000000000002915061172a565b50604080517f0400000000000000000000000000000000000000000000000000000000000000602080830191909152602182018890526041808301889052835180840390910181526061909201928390528151600493600393600293909282918401908083835b602083106116325780518252601f199092019160209182019101611613565b51815160209384036101000a60001901801990921691161790526040519190930194509192505080830381855afa158015611671573d6000803e3d6000fd5b5050506040513d602081101561168657600080fd5b50516040805160208181019390935281518082038401815290820191829052805190928291908401908083835b602083106116d25780518252601f1990920191602091820191016116b3565b51815160209384036101000a60001901801990921691161790526040519190930194509192505080830381855afa158015611711573d6000803e3d6000fd5b505050604051516c010000000000000000000000000291505b600084600381111561173857fe5b148061174f5750600184600381111561174d57fe5b145b1561175c57509050610be4565b600284600381111561176a57fe5b14806117815750600384600381111561177f57fe5b145b1561190c57604080517e140000000000000000000000000000000000000000000000000000000000006020808301919091526bffffffffffffffffffffffff198516602283015282516016818403018152603690920192839052815160039360029392909182918401908083835b6020831061180e5780518252601f1990920191602091820191016117ef565b51815160209384036101000a60001901801990921691161790526040519190930194509192505080830381855afa15801561184d573d6000803e3d6000fd5b5050506040513d602081101561186257600080fd5b50516040805160208181019390935281518082038401815290820191829052805190928291908401908083835b602083106118ae5780518252601f19909201916020918201910161188f565b51815160209384036101000a60001901801990921691161790526040519190930194509192505080830381855afa1580156118ed573d6000803e3d6000fd5b505050604051516c010000000000000000000000000292505050610be4565b50509392505050565b60025481565b6000601b8460ff16101580156119355750601e8460ff1611155b611989576040805160e560020a62461bcd02815260206004820152600960248201527f7620696e76616c69640000000000000000000000000000000000000000000000604482015290519081900360640190fd5b60006119958787610889565b905060006119a38a8a610bd0565b905081600160a060020a031660018288888860405160008152602001604052604051808581526020018460ff1660ff1681526020018381526020018281526020019450505050506020604051602081039080840390855afa158015611a0c573d6000803e3d6000fd5b50505060206040510351600160a060020a03161492505050979650505050505050565b6000611a3d86866001611406565b6bffffffffffffffffffffffff19811660009081526020819052604090205490915080611a9e5760405160e560020a62461bcd0281526004018080602001828103825260298152602001806121e86029913960400191505060405180910390fd5b611aad8989898989898961191b565b611aeb5760405160e560020a62461bcd0281526004018080602001828103825260358152602001806123936035913960400191505060405180910390fd5b600080611af6610beb565b9150915060008211611b3c5760405160e560020a62461bcd0281526004018080602001828103825260238152602001806123236023913960400191505060405180910390fd5b60008183850281611b4957fe5b6bffffffffffffffffffffffff19871660009081526020819052604080822082905551929091049250600160a060020a038e169183156108fc0291849190818181858888f19350505050158015611ba4573d6000803e3d6000fd5b5060408051600160a060020a038e168152602081018390528082018590526060810184905290516bffffffffffffffffffffffff198716917f87263350249c13bda2939c89dcb517d838e9f0c19d1e9546de822a2d75e2204b919081900360800190a2505050505050505050505050565b6040805160288082526060828101909352829190602082018180388339019050509050611c64816bffffffffffffffffffffffff196c0100000000000000000000000087021660006014611fec565b8215611cd557805160208201206000805b6014811015611cd1576000838260208110611c8c57fe5b600185019460f860020a9290911a8202919091049150611cb4908690601060ff8516046120e8565b611cc8858480600101955083600f166120e8565b50600101611c75565b5050505b60408051602a80825260608201909252906020820181803883390190505091507f300000000000000000000000000000000000000000000000000000000000000082600081518110611d2357fe5b6020010190600160f860020a031916908160001a9053507f780000000000000000000000000000000000000000000000000000000000000082600181518110611d6857fe5b6020010190600160f860020a031916908160001a90535060005b6028811015611dd757818181518110611d9757fe5b602001015160f860020a900460f860020a02838260020181518110611db857fe5b6020010190600160f860020a031916908160001a905350600101611d82565b505092915050565b600080611def610bdf88886112a7565b905060018186868660405160008152602001604052604051808581526020018460ff1660ff1681526020018381526020018281526020019450505050506020604051602081039080840390855afa158015611e4e573d6000803e3d6000fd5b5050604051601f19015198975050505050505050565b60006020819052908152604090205481565b60015462010000900460ff1681565b600354604051600283049182840391600091600160a060020a03169084908381818185875af1925050503d8060008114611edb576040519150601f19603f3d011682016040523d82523d6000602084013e611ee0565b606091505b5050905080611f39576040805160e560020a62461bcd02815260206004820152601c60248201527f5472616e7366657220746f207265696e73657274206661696c65642e00000000604482015290519081900360640190fd5b600454604051600160a060020a03909116908390600081818185875af1925050503d8060008114611f86576040519150601f19603f3d011682016040523d82523d6000602084013e611f8b565b606091505b50508091505080611fe6576040805160e560020a62461bcd02815260206004820152601760248201527f5472616e7366657220746f2044414f206661696c65642e000000000000000000604482015290519081900360640190fd5b50505050565b8160005b828110156120e057600085826020811061200657fe5b60f860020a91901a81020490507f3031323334353637383961626364656600000000000000000000000000000000601060ff8084168290041690811061204857fe5b1a60f860020a0287848060010195508151811061206157fe5b6020010190600160f860020a031916908160001a9053507f3031323334353637383961626364656600000000000000000000000000000000600f8216601081106120a757fe5b1a60f860020a028784806001019550815181106120c057fe5b6020010190600160f860020a031916908160001a90535050600101611ff0565b505050505050565b60008383815181106120f657fe5b602001015160f860020a900460f860020a0290507f610000000000000000000000000000000000000000000000000000000000000081600160f860020a03191610158015612148575060088260ff1610155b15611fe65780602060f860020a021884848151811061216357fe5b6020010190600160f860020a031916908160001a9053505050505056fe64696c75746532206576656e742064696420616c72656164792068617070656e2164696c757465332063616e2774206765742070726f63657373656420756e6c6573732064696c757465322068617320616c7265616479206265656e2070726f6365737365642e70726f7669646564206164647265737320646f6573206e6f74206861766520612062616c616e63652e64696c757465312063616e206f6e6c79206765742063616c6c6564206166746572207468652074726573686f6c642074696d657374616d7020676f7420726561636865642e64696c75746533206576656e742064696420616c72656164792068617070656e2164696c75746531206576656e742064696420616c72656164792068617070656e2164696c757465322063616e2774206765742070726f63657373656420756e6c6573732064696c757465312068617320616c7265616479206265656e2070726f6365737365642e64696c757465322063616e206f6e6c79206765742063616c6c6564206166746572207468652074726573686f6c642074696d657374616d7020676f7420726561636865642e636c61696d696e6720706572696f642068617320616c7265616479207061737365642e426974636f696e2061646473206120636f6e7374616e74203420746f2074686520762076616c75652e2074686973207369676e6174757265207365656d7320746f20626520696e76616c69642e5369676e617475726520646f6573206e6f74206d6174636820666f72207468697320636c61696d696e672070726f6365647572652e64696c757465332063616e2774206765742070726f63657373656420756e6c6573732064696c757465312068617320616c7265616479206265656e2070726f6365737365642e64696c757465332063616e206f6e6c79206765742063616c6c6564206166746572207468652074726573686f6c642074696d657374616d7020676f7420726561636865642e546865726520697320616c726561647920612062616c616e636520646566696e656420666f722074686973206f6c642061646472657373a2646970667358221220da7c20ee39122c9e7ca5fda4cd37bb7928c82be4ed61941032d09dd952ae236b64736f6c63430006020033",
  "source": "pragma solidity >=0.6.2 <0.7.0;\n\ncontract ClaimContract {\n\n  enum AddressType { LegacyUncompressed, LegacyCompressed, SegwitUncompressed, SegwitCompressed }\n\n  event Claim(bytes20 indexed _from, address _to, uint amount, uint _nominator, uint _denominator);\n\n  bytes16 internal constant HEX_DIGITS = \"0123456789abcdef\";\n\n  /* Constants for preparing the claim message text */\n  uint8 internal constant ETH_ADDRESS_BYTE_LEN = 20;\n  uint8 internal constant ETH_ADDRESS_HEX_LEN = ETH_ADDRESS_BYTE_LEN * 2;\n  uint8 internal constant CLAIM_PARAM_HASH_BYTE_LEN = 12;\n  uint8 internal constant CLAIM_PARAM_HASH_HEX_LEN = CLAIM_PARAM_HASH_BYTE_LEN * 2;\n\n  uint8 internal constant BITCOIN_SIG_PREFIX_LEN = 24;\n  bytes24 internal constant BITCOIN_SIG_PREFIX_STR = \"Bitcoin Signed Message:\\n\";\n\n  uint8 internal constant DIAMOND_SIG_PREFIX_LEN = 24;\n  bytes24 internal constant DIAMOND_SIG_PREFIX_STR = \"Diamond Signed Message:\\n\";\n  \n\n  uint constant YEAR_IN_SECONDS = 31536000;\n  uint constant LEAP_YEAR_IN_SECONDS = 31622400;\n  uint constant DAY_IN_SECONDS = 86400;\n\n\n  mapping (bytes20 => uint256)  public balances;\n\n  // tracks if dilution for 75% was executed\n  bool public dilution_s1_75_executed;\n\n  // tracks if dilution for 50% was executed\n  bool public dilution_s2_50_executed;\n\n  // tracks if dilution for 0% was executed\n  bool public dilution_s3_0_executed;\n\n  uint public deploymentTimestamp;\n\n  address payable public lateClaimBeneficorAddressReinsertPot;\n  address payable public lateClaimBeneficorAddressDAO;\n\n  \n  bytes prefixStr;\n  //address owner;\n\n  constructor(address payable _lateClaimBeneficorAddressReinsertPot, address payable _lateClaimBeneficorAddressDAO, bytes memory _prefixStr)\n  public \n  {\n    deploymentTimestamp = block.timestamp;\n    lateClaimBeneficorAddressReinsertPot = _lateClaimBeneficorAddressReinsertPot;\n    lateClaimBeneficorAddressDAO = _lateClaimBeneficorAddressDAO;\n    prefixStr = _prefixStr;\n  }\n\n  function _sendDilutedAmounts(uint amount)\n  internal\n  {\n    //diluted amounts are split 50/50 to DAO and ReinsertPot.\n    uint transferForResinsertPot = amount / 2;\n    uint transferForDAO = amount - transferForResinsertPot;\n\n    (bool success, ) =  lateClaimBeneficorAddressReinsertPot.call{value: transferForResinsertPot}(\"\");\n    require(success, 'Transfer to reinsert failed.');\n    (success, ) = lateClaimBeneficorAddressDAO.call{value: transferForDAO}(\"\");\n    require(success, 'Transfer to DAO failed.');\n  }\n\n  function getPublicKeyFromBitcoinSignature(bytes32 hashValue, bytes32 r, bytes32 s, uint8 v)\n  public\n  pure\n  returns(address)\n  {\n    require(v >= 4, 'Bitcoin adds a constant 4 to the v value. this signature seems to be invalid.');\n    //#1: decode bitcoin signature.\n    //# get R, S, V and Hash of Signature.\n    //# do ecrecover on it.\n    //return \"todo: implement this magic!\";\n\n    return ecrecover(\n        hashValue,\n        v - 4, //bitcoin signature use v that is +4 see reddit comment https://www.reddit.com/r/ethereum/comments/3gmbkx/how_do_i_verify_a_bitcoinsigned_message_in_an/ctzopoz\n        r,\n        s\n    );\n  }\n\n    /// @dev returns the essential part of a Bitcoin-style address associated with an ECDSA public key\n    /// @param _publicKeyX X coordinate of the ECDSA public key\n    /// @param _publicKeyY Y coordinate of the ECDSA public key\n    /// @param _addressType Whether DMD is Legacy or Segwit address and if it was compressed\n    /// @return Raw parts of the Bitcoin Style address\n    function publicKeyToBitcoinAddress(\n        bytes32 _publicKeyX,\n        bytes32 _publicKeyY,\n        AddressType _addressType\n    ) public pure returns (bytes20)\n    {\n        bytes20 publicKey;\n        uint8 initialByte;\n        if(_addressType == AddressType.LegacyCompressed || _addressType == AddressType.SegwitCompressed)\n        {\n            //Hash the compressed format\n            initialByte = (uint256(_publicKeyY) & 1) == 0 ? 0x02 : 0x03;\n            publicKey = ripemd160(abi.encodePacked(sha256(abi.encodePacked(initialByte, _publicKeyX))));\n        }\n        else\n        {\n            //Hash the uncompressed format\n            initialByte = 0x04;\n            publicKey = ripemd160(abi.encodePacked(sha256(abi.encodePacked(initialByte, _publicKeyX, _publicKeyY))));\n        }\n\n        if(_addressType == AddressType.LegacyUncompressed || _addressType == AddressType.LegacyCompressed)\n        {\n            return publicKey;\n        }\n        else if(_addressType == AddressType.SegwitUncompressed || _addressType == AddressType.SegwitCompressed)\n        {\n            return ripemd160(abi.encodePacked(sha256(abi.encodePacked(hex\"0014\", publicKey))));\n        }\n    }\n\n\n    /// @dev Convert an uncompressed ECDSA public key into an Ethereum address\n    /// @param _publicKeyX X parameter of uncompressed ECDSA public key\n    /// @param _publicKeyY Y parameter of uncompressed ECDSA public key\n    /// @return Ethereum address generated from the ECDSA public key\n    function publicKeyToEthereumAddress(\n        bytes32 _publicKeyX,\n        bytes32 _publicKeyY\n    ) public pure returns (address)\n    {\n        bytes32 hash = keccak256(abi.encodePacked(_publicKeyX, _publicKeyY));\n        return address(uint160(uint256((hash))));\n    }\n\n    /// @dev Validate ECSDA signature was signed by the specified address\n    /// @param _hash Hash of signed data\n    /// @param _v v parameter of ECDSA signature\n    /// @param _r r parameter of ECDSA signature\n    /// @param _s s parameter of ECDSA signature\n    /// @param _address Ethereum address matching the signature\n    /// @return Boolean on if the signature is valid\n    function ValidateSignature(\n        bytes32 _hash,\n        uint8 _v,\n        bytes32 _r,\n        bytes32 _s,\n        address _address\n    ) public pure returns (bool)\n    {\n        return ecrecover(\n            _hash,\n            _v,\n            _r,\n            _s\n        ) == _address;\n    }\n\n\n    /// @dev Validate the ECDSA parameters of signed message\n    /// ECDSA public key associated with the specified Ethereum address\n    /// @param _addressClaiming Address within signed message\n    /// @param _publicKeyX X parameter of uncompressed ECDSA public key\n    /// @param _publicKeyY Y parameter of uncompressed ECDSA public key\n    /// @param _v v parameter of ECDSA signature\n    /// @param _r r parameter of ECDSA signature\n    /// @param _s s parameter of ECDSA signature\n    /// @return Boolean on if the signature is valid\n    function ECDSAVerify(\n        address _addressClaiming,\n        bytes32 _publicKeyX,\n        bytes32 _publicKeyY,\n        uint8 _v,\n        bytes32 _r,\n        bytes32 _s\n    ) public view returns (bool)\n    {\n        bytes memory addressAsHex = createClaimMessage(_addressClaiming, true);\n\n        bytes32 hHash = sha256(abi.encodePacked(sha256(abi.encodePacked(addressAsHex))));\n\n        return ValidateSignature(\n            hHash,\n            _v,\n            _r,\n            _s,\n            publicKeyToEthereumAddress(_publicKeyX, _publicKeyY)\n        );\n    }\n\n  function checkSignature(bytes32 _hash, bytes32 _r, bytes32 _s, uint8 _v)\n  public\n  pure\n  returns(address)\n  {\n    return ecrecover(\n      _hash,\n      _v,\n      _r,\n      _s\n      );\n  }\n\n  /**\n    * @dev PUBLIC FACING: Derive an Ethereum address from an ECDSA public key\n    * @param pubKeyX First  half of uncompressed ECDSA public key\n    * @param pubKeyY Second half of uncompressed ECDSA public key\n    * @return Derived Eth address\n    */\n  function pubKeyToEthAddress(bytes32 pubKeyX, bytes32 pubKeyY)\n      public\n      pure\n      returns (address)\n  {\n      return address(uint160(uint256(keccak256(abi.encodePacked(pubKeyX, pubKeyY)))));\n  }\n\n  /**\n  * @dev sha256(sha256(data))\n  * @param data Data to be hashed\n  * @return 32-byte hash\n  */\n  function calcHash256(bytes memory data)\n      public\n      pure\n      returns (bytes32)\n  {\n      // NOTE: https://github.com/axic/ethereum-bsm/blob/master/bsm.sol\n      // maybe encodePacked is not required ?!\n      return sha256(abi.encodePacked(sha256(data)));\n  }\n\n  function _hexStringFromData(bytes memory hexStr, bytes32 data, uint256 startOffset, uint256 dataLen)\n    private\n    pure\n  {\n      uint256 offset = startOffset;\n\n\n\n      for (uint256 i = 0; i < dataLen; i++) {\n          uint8 b = uint8(data[i]);\n\n          hexStr[offset++] = HEX_DIGITS[b >> 4];\n          hexStr[offset++] = HEX_DIGITS[b & 0x0f];\n      }\n  }\n\n    function _addressStringChecksumChar(bytes memory addrStr, uint256 offset, uint8 hashNybble)\n    private\n    pure\n    {\n        bytes1 ch = addrStr[offset];\n\n        if (ch >= \"a\" && hashNybble >= 8) {\n            addrStr[offset] = ch ^ 0x20;\n        }\n    }\n\n  /**\n  * @dev calculates the address string representation of the signed address.\n  * @param _addr address\n  * @param _includeAddrChecksum bool. should the addressChecksum be used for this caluclation.\n  * @return addrStr ethereum address(24 byte)\n  */\n  function calculateAddressString(address _addr, bool _includeAddrChecksum)\n    public\n    pure\n    returns (bytes memory addrStr)\n  {\n      bytes memory tmp = new bytes(ETH_ADDRESS_HEX_LEN);\n      _hexStringFromData(tmp, bytes32(bytes20(_addr)), 0, ETH_ADDRESS_BYTE_LEN);\n\n      if (_includeAddrChecksum) {\n          bytes32 addrStrHash = keccak256(tmp);\n\n          uint256 offset = 0;\n\n          for (uint256 i = 0; i < ETH_ADDRESS_BYTE_LEN; i++) {\n              uint8 b = uint8(addrStrHash[i]);\n\n              _addressStringChecksumChar(tmp, offset++, b >> 4);\n              _addressStringChecksumChar(tmp, offset++, b & 0x0f);\n          }\n      }\n\n      // the correct checksum is now in the tmp variable.\n      // we extend this by the Ethereum usual prefix 0x\n\n      addrStr = new bytes(ETH_ADDRESS_HEX_LEN + 2);\n\n      addrStr[0] = '0';\n      addrStr[1] = 'x';\n\n      for (uint256 i = 0; i < ETH_ADDRESS_HEX_LEN; i++) {\n          addrStr[i+2] = tmp[i];\n      }\n\n      return addrStr;\n  }\n\n  /**\n  * @dev returns the hash for the provided claim target address.\n  * @param _claimToAddr address target address for the claim.\n  * @param _claimAddrChecksum bool target address was signed using the Ethereum checksum (EIP-55)\n  * @return bytes32 Bitcoin hash of the claim message.\n  */\n  function createClaimMessage(address _claimToAddr, bool _claimAddrChecksum)\n        public\n        view\n        returns (bytes memory)\n    {\n        //TODO: pass this as an argument. evaluate in JS before includeAddrChecksum is used or not.\n        //now for testing, we assume Yes.\n\n        bytes memory addrStr = calculateAddressString(_claimToAddr, _claimAddrChecksum);\n\n        return abi.encodePacked(\n                BITCOIN_SIG_PREFIX_LEN,\n                BITCOIN_SIG_PREFIX_STR,\n                uint8(prefixStr.length) + ETH_ADDRESS_HEX_LEN + 2,\n                prefixStr,\n                addrStr\n            );\n    }\n\n      /**\n  * @dev returns the hash for the provided claim target address.\n  * @param _claimToAddr address target address for the claim.\n  * @param _claimAddrChecksum bool target address was signed using the Ethereum checksum (EIP-55)\n  * @return bytes32 Diamond hash of the claim message.\n  */\n  function createClaimMessageDMD(address _claimToAddr, bool _claimAddrChecksum)\n        public\n        view\n        returns (bytes memory)\n    {\n        //TODO: pass this as an argument. evaluate in JS before includeAddrChecksum is used or not.\n        //now for testing, we assume Yes.\n\n        bytes memory addrStr = calculateAddressString(_claimToAddr, _claimAddrChecksum);\n\n        return abi.encodePacked(\n                DIAMOND_SIG_PREFIX_LEN,\n                DIAMOND_SIG_PREFIX_STR,\n                prefixStr,\n                addrStr\n            );\n    }\n\n  /**\n  * @dev returns the hash for the provided claim target address.\n  * @param _claimToAddr address target address for the claim.\n  * @param _claimAddrChecksum bool target address was signed using the Ethereum checksum (EIP-55)\n  * @return bytes32 DMD style hash of the claim message.\n  */\n  function getHashForClaimMessage(\n    address _claimToAddr,\n    bool  _claimAddrChecksum)\n    public\n    view\n    returns (bytes32)\n  {\n    return calcHash256(\n      createClaimMessage(_claimToAddr, _claimAddrChecksum)\n    );\n  }\n\n  /**\n  * @dev returns the ethereum pseude address of a DMD signed message.\n  * @param _claimToAddr address target address for the claim.\n  * @param _claimAddrChecksum bool target address was signed using the Ethereum checksum (EIP-55)\n  * @param _v uint8 v component of the signature.\n  * @param _r bytes32 r component of the signature.\n  * @param _s bytes32 s component of the signautre.\n  * @return address DMD pseudo address of the signer. (what would be the address if the same Private Key would have been used on an DMDv3 than in DMDv4)\n  */\n  function getEthAddressFromSignature(\n    address _claimToAddr,\n    bool    _claimAddrChecksum,\n    uint8 _v,\n    bytes32 _r,\n    bytes32 _s\n  )\n  public\n  view\n  returns (address)\n  {\n    //require(_v >= 27 && _v <= 30, \"v invalid\");\n\n     /* Create and hash the claim message text */\n      bytes32 messageHash = calcHash256(\n          createClaimMessage(_claimToAddr, _claimAddrChecksum)\n      );\n\n    return ecrecover(messageHash, _v, _r, _s);\n  }\n\n  function claimMessageMatchesSignature(\n    address _claimToAddr,\n    bool    _claimAddrChecksum,\n    bytes32 _pubKeyX,\n    bytes32 _pubKeyY,\n    uint8 _v,\n    bytes32 _r,\n    bytes32 _s\n  )\n    public\n    view\n    returns (bool)\n  {\n      require(_v >= 27 && _v <= 30, \"v invalid\");\n\n      /*\n          ecrecover() returns an Eth address rather than a public key, so\n          we must do the same to compare.\n      */\n      address pubKeyEthAddr = pubKeyToEthAddress(_pubKeyX, _pubKeyY);\n\n      //we need to check if X and Y corresponds to R and S.\n\n      /* Create and hash the claim message text */\n      bytes32 messageHash = getHashForClaimMessage(_claimToAddr, _claimAddrChecksum);\n\n      /* Verify the public key */\n      return ecrecover(messageHash, _v, _r, _s) == pubKeyEthAddr;\n  }\n\n  function getDilutionTimestamp1()\n  public\n  view\n  returns (uint256)\n  {\n    return deploymentTimestamp + (DAY_IN_SECONDS * 2 * 31) + DAY_IN_SECONDS * 30;\n  }\n\n\n  function getDilutionTimestamp2()\n  public\n  view\n  returns (uint256)\n  {\n    return deploymentTimestamp + (DAY_IN_SECONDS * 3 * 31) + (DAY_IN_SECONDS * 3 * 30);\n  }\n\n\n  function getDilutionTimestamp3()\n  public\n  view\n  returns (uint256)\n  {\n    return deploymentTimestamp + (YEAR_IN_SECONDS * 4) + LEAP_YEAR_IN_SECONDS;\n  }\n\n\n\n\n   /**\n  * @dev dilutes the entitlement after a certain time passed away and sends it to the beneficor (reinsert pot)\n  * @return amount of DMD that got send to the beneficor.\n  */\n  function dilute1()\n  public\n  returns (uint)\n  {\n    require(block.timestamp > getDilutionTimestamp1(), \"dilute1 can only get called after the treshold timestamp got reached.\");\n    require(dilution_s1_75_executed == false, \"dilute1 event did already happen!\");\n\n    dilution_s1_75_executed = true;\n    // in dilute 1: after 3 months 25% of the total coins get diluted.\n\n    uint totalBalance = (payable(address(this))).balance;\n    uint dilutionBalance = totalBalance / 4;\n\n    _sendDilutedAmounts(dilutionBalance);\n\n    return dilutionBalance;\n  }\n\n  /**\n  * @dev dilutes the entitlement after a certain time passed away and sends it to the beneficor (reinsert pot)\n  * @return amount of DMD that got send to the beneficor.\n  */\n  function dilute2()\n  public\n  returns (uint)\n  {\n    require(block.timestamp > getDilutionTimestamp2(), \"dilute2 can only get called after the treshold timestamp got reached.\");\n    require(dilution_s1_75_executed == true, \"dilute2 can't get processed unless dilute1 has already been processed.\");\n    require(dilution_s2_50_executed == false, \"dilute2 event did already happen!\");\n\n    dilution_s2_50_executed = true;\n    // in dilute 1: after 3 months 25% of the total coins get diluted.\n\n    uint totalBalance = (payable(address(this))).balance;\n    \n    // during dilute2, \n    // 25% from dilute1 are already counted away from totalBalance.\n    // means 3/4 of the value is still there and we need to get it to 2/4.\n    // we can do this by dilluting another 1 / 3.\n\n    uint dilutionBalance = totalBalance / 3;\n\n    _sendDilutedAmounts(dilutionBalance);\n\n    return dilutionBalance;\n  }\n\n  /**\n  * @dev dilutes the entitlement after a certain time passed away and sends it to the beneficor (reinsert pot)\n  * @return amount of DMD that got send to the beneficor.\n  */\n  function dilute3()\n  public\n  returns (uint)\n  {\n    require(block.timestamp > getDilutionTimestamp3(), \"dilute3 can only get called after the treshold timestamp got reached.\");\n    require(dilution_s1_75_executed == true, \"dilute3 can't get processed unless dilute1 has already been processed.\");\n    require(dilution_s2_50_executed == true, \"dilute3 can't get processed unless dilute2 has already been processed.\");\n    require(dilution_s3_0_executed == false, \"dilute3 event did already happen!\");\n\n    dilution_s1_75_executed = true;\n    // in dilute 1: after 3 months 25% of the total coins get diluted.\n\n    uint totalBalance = (payable(address(this))).balance;\n    \n    // 50% got already diluted. this is the last phase, we dilute the rest.\n    _sendDilutedAmounts(totalBalance);\n\n    return totalBalance;\n  }\n\n  function getCurrentDilutedClaimFactor()\n  public\n  view\n  returns (uint256 nominator, uint256 denominator)\n  {\n      if (!dilution_s1_75_executed)\n      {\n        return (1, 1);\n      }\n      else if (!dilution_s2_50_executed)\n      {\n        return (3, 4);\n      }\n      else if (!dilution_s3_0_executed)\n      {\n        return (1, 2);\n      }\n      else\n      {\n        return (0, 1);\n      }\n  }\n  \n\n  function addBalance(bytes20 oldAddress)\n  payable\n  public\n  {\n    require(balances[oldAddress] == 0, \"There is already a balance defined for this old address\");\n    balances[oldAddress] = msg.value;\n    // allOldAdresses.push(oldAddress);\n  }\n\n  function claim(\n    address payable _targetAdress,\n    bool    _claimAddrChecksum,\n    bytes32 _pubKeyX,\n    bytes32 _pubKeyY,\n    uint8 _v,\n    bytes32 _r,\n    bytes32 _s\n  )\n  public\n  {\n    //retrieve the oldAddress out of public and private key.\n    bytes20 oldAddress = publicKeyToBitcoinAddress(_pubKeyX, _pubKeyY, AddressType.LegacyCompressed);\n\n    //if already claimed, it just returns.\n    uint256 currentBalance = balances[oldAddress];\n    require(currentBalance > 0, 'provided address does not have a balance.');\n\n    // verify if the signature matches to the provided pubKey here.\n    require(claimMessageMatchesSignature(\n        _targetAdress,\n        _claimAddrChecksum,\n        _pubKeyX,\n        _pubKeyY,\n        _v,\n        _r,\n        _s),\n      'Signature does not match for this claiming procedure.');\n\n    (uint256 nominator, uint256 denominator) = getCurrentDilutedClaimFactor();\n\n    // the nominator is 0 if the claim period passed.\n    require(nominator > 0, 'claiming period has already passed.');\n\n    uint256 claimBalance = (currentBalance * nominator) / denominator;\n    \n    // remember that the funds are going to get claimed, hard protection about reentrancy attacks.\n    balances[oldAddress] = 0;\n    _targetAdress.transfer(claimBalance);\n\n    emit Claim(oldAddress, _targetAdress, claimBalance, nominator, denominator);\n  }\n\n}",
  "sourcePath": "/home/sn/dmd/dmd-meta/dmdv4migration/contracts/contracts/ClaimContract.sol",
  "compiler": {
    "name": "solc",
    "version": "0.6.2+commit.bacdbe57.Emscripten.clang"
  },
  "schemaVersion": "3.3.2",
  "updatedAt": "2020-12-12T18:53:33.357Z",
  "devdoc": {
    "methods": {
      "ECDSAVerify(address,bytes32,bytes32,uint8,bytes32,bytes32)": {
        "details": "Validate the ECDSA parameters of signed message ECDSA public key associated with the specified Ethereum address",
        "params": {
          "_addressClaiming": "Address within signed message",
          "_publicKeyX": "X parameter of uncompressed ECDSA public key",
          "_publicKeyY": "Y parameter of uncompressed ECDSA public key",
          "_r": "r parameter of ECDSA signature",
          "_s": "s parameter of ECDSA signature",
          "_v": "v parameter of ECDSA signature"
        },
        "returns": {
          "_0": "Boolean on if the signature is valid"
        }
      },
      "ValidateSignature(bytes32,uint8,bytes32,bytes32,address)": {
        "details": "Validate ECSDA signature was signed by the specified address",
        "params": {
          "_address": "Ethereum address matching the signature",
          "_hash": "Hash of signed data",
          "_r": "r parameter of ECDSA signature",
          "_s": "s parameter of ECDSA signature",
          "_v": "v parameter of ECDSA signature"
        },
        "returns": {
          "_0": "Boolean on if the signature is valid"
        }
      },
      "calcHash256(bytes)": {
        "details": "sha256(sha256(data))",
        "params": {
          "data": "Data to be hashed"
        },
        "returns": {
          "_0": "32-byte hash"
        }
      },
      "calculateAddressString(address,bool)": {
        "details": "calculates the address string representation of the signed address.",
        "params": {
          "_addr": "address",
          "_includeAddrChecksum": "bool. should the addressChecksum be used for this caluclation."
        },
        "returns": {
          "addrStr": "ethereum address(24 byte)"
        }
      },
      "createClaimMessage(address,bool)": {
        "details": "returns the hash for the provided claim target address.",
        "params": {
          "_claimAddrChecksum": "bool target address was signed using the Ethereum checksum (EIP-55)",
          "_claimToAddr": "address target address for the claim."
        },
        "returns": {
          "_0": "bytes32 Bitcoin hash of the claim message."
        }
      },
      "createClaimMessageDMD(address,bool)": {
        "details": "returns the hash for the provided claim target address.",
        "params": {
          "_claimAddrChecksum": "bool target address was signed using the Ethereum checksum (EIP-55)",
          "_claimToAddr": "address target address for the claim."
        },
        "returns": {
          "_0": "bytes32 Diamond hash of the claim message."
        }
      },
      "dilute1()": {
        "details": "dilutes the entitlement after a certain time passed away and sends it to the beneficor (reinsert pot)",
        "returns": {
          "_0": "amount of DMD that got send to the beneficor."
        }
      },
      "dilute2()": {
        "details": "dilutes the entitlement after a certain time passed away and sends it to the beneficor (reinsert pot)",
        "returns": {
          "_0": "amount of DMD that got send to the beneficor."
        }
      },
      "dilute3()": {
        "details": "dilutes the entitlement after a certain time passed away and sends it to the beneficor (reinsert pot)",
        "returns": {
          "_0": "amount of DMD that got send to the beneficor."
        }
      },
      "getEthAddressFromSignature(address,bool,uint8,bytes32,bytes32)": {
        "details": "returns the ethereum pseude address of a DMD signed message.",
        "params": {
          "_claimAddrChecksum": "bool target address was signed using the Ethereum checksum (EIP-55)",
          "_claimToAddr": "address target address for the claim.",
          "_r": "bytes32 r component of the signature.",
          "_s": "bytes32 s component of the signautre.",
          "_v": "uint8 v component of the signature."
        },
        "returns": {
          "_0": "address DMD pseudo address of the signer. (what would be the address if the same Private Key would have been used on an DMDv3 than in DMDv4)"
        }
      },
      "getHashForClaimMessage(address,bool)": {
        "details": "returns the hash for the provided claim target address.",
        "params": {
          "_claimAddrChecksum": "bool target address was signed using the Ethereum checksum (EIP-55)",
          "_claimToAddr": "address target address for the claim."
        },
        "returns": {
          "_0": "bytes32 DMD style hash of the claim message."
        }
      },
      "pubKeyToEthAddress(bytes32,bytes32)": {
        "details": "PUBLIC FACING: Derive an Ethereum address from an ECDSA public key",
        "params": {
          "pubKeyX": "First  half of uncompressed ECDSA public key",
          "pubKeyY": "Second half of uncompressed ECDSA public key"
        },
        "returns": {
          "_0": "Derived Eth address"
        }
      },
      "publicKeyToBitcoinAddress(bytes32,bytes32,uint8)": {
        "details": "returns the essential part of a Bitcoin-style address associated with an ECDSA public key",
        "params": {
          "_addressType": "Whether DMD is Legacy or Segwit address and if it was compressed",
          "_publicKeyX": "X coordinate of the ECDSA public key",
          "_publicKeyY": "Y coordinate of the ECDSA public key"
        },
        "returns": {
          "_0": "Raw parts of the Bitcoin Style address"
        }
      },
      "publicKeyToEthereumAddress(bytes32,bytes32)": {
        "details": "Convert an uncompressed ECDSA public key into an Ethereum address",
        "params": {
          "_publicKeyX": "X parameter of uncompressed ECDSA public key",
          "_publicKeyY": "Y parameter of uncompressed ECDSA public key"
        },
        "returns": {
          "_0": "Ethereum address generated from the ECDSA public key"
        }
      }
    }
  },
  "userdoc": {
    "methods": {}
  }
}