{
  "contractName": "ClaimContract",
  "abi": [
    {
      "inputs": [],
      "stateMutability": "nonpayable",
      "type": "constructor"
    },
    {
      "inputs": [
        {
          "internalType": "bytes20",
          "name": "",
          "type": "bytes20"
        }
      ],
      "name": "balances",
      "outputs": [
        {
          "internalType": "uint256",
          "name": "",
          "type": "uint256"
        }
      ],
      "stateMutability": "view",
      "type": "function"
    },
    {
      "inputs": [],
      "name": "deploymentTimestamp",
      "outputs": [
        {
          "internalType": "uint256",
          "name": "",
          "type": "uint256"
        }
      ],
      "stateMutability": "view",
      "type": "function"
    },
    {
      "inputs": [
        {
          "internalType": "bytes32",
          "name": "hashValue",
          "type": "bytes32"
        },
        {
          "internalType": "bytes32",
          "name": "r",
          "type": "bytes32"
        },
        {
          "internalType": "bytes32",
          "name": "s",
          "type": "bytes32"
        },
        {
          "internalType": "uint8",
          "name": "v",
          "type": "uint8"
        }
      ],
      "name": "getPublicKeyFromBitcoinSignature",
      "outputs": [
        {
          "internalType": "address",
          "name": "",
          "type": "address"
        }
      ],
      "stateMutability": "pure",
      "type": "function"
    },
    {
      "inputs": [
        {
          "internalType": "bytes32",
          "name": "a_publicKeyX",
          "type": "bytes32"
        },
        {
          "internalType": "bytes32",
          "name": "a_publicKeyY",
          "type": "bytes32"
        },
        {
          "internalType": "enum ClaimContract.AddressType",
          "name": "a_nAddressType",
          "type": "uint8"
        }
      ],
      "name": "PublicKeyToBitcoinAddress",
      "outputs": [
        {
          "internalType": "bytes20",
          "name": "",
          "type": "bytes20"
        }
      ],
      "stateMutability": "pure",
      "type": "function"
    },
    {
      "inputs": [
        {
          "internalType": "bytes32",
          "name": "a_publicKeyX",
          "type": "bytes32"
        },
        {
          "internalType": "bytes32",
          "name": "a_publicKeyY",
          "type": "bytes32"
        }
      ],
      "name": "PublicKeyToEthereumAddress",
      "outputs": [
        {
          "internalType": "address",
          "name": "",
          "type": "address"
        }
      ],
      "stateMutability": "pure",
      "type": "function"
    },
    {
      "inputs": [
        {
          "internalType": "bytes32",
          "name": "_hash",
          "type": "bytes32"
        },
        {
          "internalType": "uint8",
          "name": "_v",
          "type": "uint8"
        },
        {
          "internalType": "bytes32",
          "name": "_r",
          "type": "bytes32"
        },
        {
          "internalType": "bytes32",
          "name": "_s",
          "type": "bytes32"
        },
        {
          "internalType": "address",
          "name": "_address",
          "type": "address"
        }
      ],
      "name": "ValidateSignature",
      "outputs": [
        {
          "internalType": "bool",
          "name": "",
          "type": "bool"
        }
      ],
      "stateMutability": "pure",
      "type": "function"
    },
    {
      "inputs": [
        {
          "internalType": "address",
          "name": "_addressClaiming",
          "type": "address"
        },
        {
          "internalType": "bytes32",
          "name": "_publicKeyX",
          "type": "bytes32"
        },
        {
          "internalType": "bytes32",
          "name": "_publicKeyY",
          "type": "bytes32"
        },
        {
          "internalType": "uint8",
          "name": "_v",
          "type": "uint8"
        },
        {
          "internalType": "bytes32",
          "name": "_r",
          "type": "bytes32"
        },
        {
          "internalType": "bytes32",
          "name": "_s",
          "type": "bytes32"
        }
      ],
      "name": "ECDSAVerify",
      "outputs": [
        {
          "internalType": "bool",
          "name": "",
          "type": "bool"
        }
      ],
      "stateMutability": "pure",
      "type": "function"
    },
    {
      "inputs": [
        {
          "internalType": "bytes32",
          "name": "_hash",
          "type": "bytes32"
        },
        {
          "internalType": "bytes32",
          "name": "_r",
          "type": "bytes32"
        },
        {
          "internalType": "bytes32",
          "name": "_s",
          "type": "bytes32"
        },
        {
          "internalType": "uint8",
          "name": "_v",
          "type": "uint8"
        }
      ],
      "name": "checkSignature",
      "outputs": [
        {
          "internalType": "address",
          "name": "",
          "type": "address"
        }
      ],
      "stateMutability": "pure",
      "type": "function"
    },
    {
      "inputs": [
        {
          "internalType": "bytes32",
          "name": "pubKeyX",
          "type": "bytes32"
        },
        {
          "internalType": "bytes32",
          "name": "pubKeyY",
          "type": "bytes32"
        }
      ],
      "name": "pubKeyToEthAddress",
      "outputs": [
        {
          "internalType": "address",
          "name": "",
          "type": "address"
        }
      ],
      "stateMutability": "pure",
      "type": "function"
    },
    {
      "inputs": [
        {
          "internalType": "bytes",
          "name": "data",
          "type": "bytes"
        }
      ],
      "name": "calcHash256",
      "outputs": [
        {
          "internalType": "bytes32",
          "name": "",
          "type": "bytes32"
        }
      ],
      "stateMutability": "pure",
      "type": "function"
    },
    {
      "inputs": [
        {
          "internalType": "address",
          "name": "_addr",
          "type": "address"
        },
        {
          "internalType": "bool",
          "name": "_includeAddrChecksum",
          "type": "bool"
        }
      ],
      "name": "calculateAddressString",
      "outputs": [
        {
          "internalType": "bytes",
          "name": "addrStr",
          "type": "bytes"
        }
      ],
      "stateMutability": "pure",
      "type": "function"
    },
    {
      "inputs": [
        {
          "internalType": "address",
          "name": "_claimToAddr",
          "type": "address"
        },
        {
          "internalType": "bool",
          "name": "_claimAddrChecksum",
          "type": "bool"
        }
      ],
      "name": "createClaimMessage",
      "outputs": [
        {
          "internalType": "bytes",
          "name": "",
          "type": "bytes"
        }
      ],
      "stateMutability": "pure",
      "type": "function"
    },
    {
      "inputs": [
        {
          "internalType": "address",
          "name": "_claimToAddr",
          "type": "address"
        },
        {
          "internalType": "bool",
          "name": "_claimAddrChecksum",
          "type": "bool"
        }
      ],
      "name": "getHashForClaimMessage",
      "outputs": [
        {
          "internalType": "bytes32",
          "name": "",
          "type": "bytes32"
        }
      ],
      "stateMutability": "pure",
      "type": "function"
    },
    {
      "inputs": [
        {
          "internalType": "address",
          "name": "_claimToAddr",
          "type": "address"
        },
        {
          "internalType": "bool",
          "name": "_claimAddrChecksum",
          "type": "bool"
        },
        {
          "internalType": "uint8",
          "name": "_v",
          "type": "uint8"
        },
        {
          "internalType": "bytes32",
          "name": "_r",
          "type": "bytes32"
        },
        {
          "internalType": "bytes32",
          "name": "_s",
          "type": "bytes32"
        }
      ],
      "name": "getEthAddressFromSignature",
      "outputs": [
        {
          "internalType": "address",
          "name": "",
          "type": "address"
        }
      ],
      "stateMutability": "pure",
      "type": "function"
    },
    {
      "inputs": [
        {
          "internalType": "address",
          "name": "_claimToAddr",
          "type": "address"
        },
        {
          "internalType": "bool",
          "name": "_claimAddrChecksum",
          "type": "bool"
        },
        {
          "internalType": "bytes32",
          "name": "_pubKeyX",
          "type": "bytes32"
        },
        {
          "internalType": "bytes32",
          "name": "_pubKeyY",
          "type": "bytes32"
        },
        {
          "internalType": "uint8",
          "name": "_v",
          "type": "uint8"
        },
        {
          "internalType": "bytes32",
          "name": "_r",
          "type": "bytes32"
        },
        {
          "internalType": "bytes32",
          "name": "_s",
          "type": "bytes32"
        }
      ],
      "name": "claimMessageMatchesSignature",
      "outputs": [
        {
          "internalType": "bool",
          "name": "",
          "type": "bool"
        }
      ],
      "stateMutability": "pure",
      "type": "function"
    },
    {
      "inputs": [],
      "name": "getCurrentDilutedClaimFactor",
      "outputs": [
        {
          "internalType": "uint256",
          "name": "nominator",
          "type": "uint256"
        },
        {
          "internalType": "uint256",
          "name": "denominator",
          "type": "uint256"
        }
      ],
      "stateMutability": "view",
      "type": "function"
    }
  ],
  "bytecode": "0x608060405234801561001057600080fd5b50426001556116a5806100246000396000f3fe608060405234801561001057600080fd5b506004361061011d576000357c01000000000000000000000000000000000000000000000000000000009004806392867f38116100b4578063e180dea911610083578063e180dea914610462578063e581528a14610490578063eaa2b1cd146104de578063f2113dc9146105215761011d565b806392867f3814610327578063a9880f3214610368578063bfc12c051461040b578063c48a5ba5146104135761011d565b806330c1a785116100f057806330c1a78514610122578063433cc2691461021d578063713822091461024f5780637b99c36d146102815761011d565b806301f015e5146101225780630e6f41541461016157806326b8ed32146101bc5780632e5b7458146101fc575b600080fd5b6101456004803603604081101561013857600080fd5b508035906020013561054d565b60408051600160a060020a039092168252519081900360200190f35b6101a8600480360360c081101561017757600080fd5b50600160a060020a038135169060208101359060408101359060ff6060820135169060808101359060a00135610579565b604080519115158252519081900360200190f35b6101ea600480360360408110156101d257600080fd5b50600160a060020a0381351690602001351515610740565b60408051918252519081900360200190f35b61020461075b565b6040805192835260208301919091528051918290030190f35b6101456004803603608081101561023357600080fd5b508035906020810135906040810135906060013560ff166107ba565b6101456004803603608081101561026557600080fd5b508035906020810135906040810135906060013560ff16610826565b6101ea6004803603602081101561029757600080fd5b8101906020810181356401000000008111156102b257600080fd5b8201836020820111156102c457600080fd5b803590602001918460018302840111640100000000831117156102e657600080fd5b91908080601f0160208091040260200160405190810160405280939291908181526020018383808284376000920191909152509295506108e0945050505050565b6101a8600480360360a081101561033d57600080fd5b50803590602081013560ff169060408101359060608101359060800135600160a060020a0316610a11565b6103966004803603604081101561037e57600080fd5b50600160a060020a0381351690602001351515610a99565b6040805160208082528351818301528351919283929083019185019080838360005b838110156103d05781810151838201526020016103b8565b50505050905090810190601f1680156103fd5780820380516001836020036101000a031916815260200191505b509250505060405180910390f35b6101ea610be9565b6101a8600480360360e081101561042957600080fd5b50600160a060020a0381351690602081013515159060408101359060608101359060ff6080820135169060a08101359060c00135610bef565b6103966004803603604081101561047857600080fd5b50600160a060020a0381351690602001351515610d1d565b6104bc600480360360608110156104a657600080fd5b508035906020810135906040013560ff16610ee7565b604080516bffffffffffffffffffffffff199092168252519081900360200190f35b610145600480360360a08110156104f457600080fd5b50600160a060020a0381351690602081013515159060ff60408201351690606081013590608001356113f6565b6101ea6004803603602081101561053757600080fd5b50356bffffffffffffffffffffffff191661147b565b604080516020808201949094528082019290925280518083038201815260609092019052805191012090565b60006060610588886001610a99565b90506000600280836040516020018082805190602001908083835b602083106105c25780518252601f1990920191602091820191016105a3565b6001836020036101000a0380198251168184511680821785525050505050509050019150506040516020818303038152906040526040518082805190602001908083835b602083106106255780518252601f199092019160209182019101610606565b51815160209384036101000a60001901801990921691161790526040519190930194509192505080830381855afa158015610664573d6000803e3d6000fd5b5050506040513d602081101561067957600080fd5b50516040805160208181019390935281518082038401815290820191829052805190928291908401908083835b602083106106c55780518252601f1990920191602091820191016106a6565b51815160209384036101000a60001901801990921691161790526040519190930194509192505080830381855afa158015610704573d6000803e3d6000fd5b5050506040513d602081101561071957600080fd5b505190506107338187878761072e8d8d61054d565b610a11565b9998505050505050505050565b600061075461074f8484610a99565b6108e0565b9392505050565b600154600090819062794a00014211610779575060019050806107b6565b60015462f1428001421161079357506003905060046107b6565b60015463096753000142116107ae57506001905060026107b6565b506000905060015b9091565b604080516000808252602080830180855288905260ff85168385015260608301879052608083018690529251909260019260a080820193601f1981019281900390910190855afa158015610812573d6000803e3d6000fd5b5050604051601f1901519695505050505050565b600060048260ff161015610885576040517f08c379a000000000000000000000000000000000000000000000000000000000815260040180806020018281038252604d815260200180611623604d913960600191505060405180910390fd5b6040805160008152602080820180845288905260ff600319860116828401526060820187905260808201869052915160019260a0808401939192601f1981019281900390910190855afa158015610812573d6000803e3d6000fd5b6000600280836040518082805190602001908083835b602083106109155780518252601f1990920191602091820191016108f6565b51815160209384036101000a60001901801990921691161790526040519190930194509192505080830381855afa158015610954573d6000803e3d6000fd5b5050506040513d602081101561096957600080fd5b50516040805160208181019390935281518082038401815290820191829052805190928291908401908083835b602083106109b55780518252601f199092019160209182019101610996565b51815160209384036101000a60001901801990921691161790526040519190930194509192505080830381855afa1580156109f4573d6000803e3d6000fd5b5050506040513d6020811015610a0957600080fd5b505192915050565b600081600160a060020a031660018787878760405160008152602001604052604051808581526020018460ff1660ff1681526020018381526020018281526020019450505050506020604051602081039080840390855afa158015610a7a573d6000803e3d6000fd5b50505060206040510351600160a060020a031614905095945050505050565b60408051602081019091526000815260609081610ab68585610d1d565b82516040517f180000000000000000000000000000000000000000000000000000000000000060208083019182527f426974636f696e205369676e6564204d6573736167653a0a00000000000000006021840181905260ff602a90950194851660f860020a0260398501528751959650601895909493889388939092603a90920191908501908083835b60208310610b5f5780518252601f199092019160209182019101610b40565b51815160209384036101000a600019018019909216911617905285519190930192850191508083835b60208310610ba75780518252601f199092019160209182019101610b88565b6001836020036101000a038019825116818451168082178552505050505050905001955050505050506040516020818303038152906040529250505092915050565b60015481565b6000601b8460ff1610158015610c095750601e8460ff1611155b610c7457604080517f08c379a000000000000000000000000000000000000000000000000000000000815260206004820152600960248201527f7620696e76616c69640000000000000000000000000000000000000000000000604482015290519081900360640190fd5b6000610c80878761054d565b90506000610c9161074f8b8b610a99565b905081600160a060020a031660018288888860405160008152602001604052604051808581526020018460ff1660ff1681526020018381526020018281526020019450505050506020604051602081039080840390855afa158015610cfa573d6000803e3d6000fd5b50505060206040510351600160a060020a03161492505050979650505050505050565b6040805160288082526060828101909352829190602082018180388339019050509050610d6c816bffffffffffffffffffffffff196c010000000000000000000000008702166000601461148d565b8215610ddd57805160208201206000805b6014811015610dd9576000838260208110610d9457fe5b600185019460f860020a9290911a8202919091049150610dbc908690601060ff851604611589565b610dd0858480600101955083600f16611589565b50600101610d7d565b5050505b60408051602a80825260608201909252906020820181803883390190505091507f300000000000000000000000000000000000000000000000000000000000000082600081518110610e2b57fe5b6020010190600160f860020a031916908160001a9053507f780000000000000000000000000000000000000000000000000000000000000082600181518110610e7057fe5b6020010190600160f860020a031916908160001a90535060005b6028811015610edf57818181518110610e9f57fe5b602001015160f860020a900460f860020a02838260020181518110610ec057fe5b6020010190600160f860020a031916908160001a905350600101610e8a565b505092915050565b600080806001846003811115610ef957fe5b1480610f1057506003846003811115610f0e57fe5b145b1561108d576001851615610f25576003610f28565b60025b9050600360028288604051602001808360ff1660ff1660f860020a028152600101828152602001925050506040516020818303038152906040526040518082805190602001908083835b60208310610f915780518252601f199092019160209182019101610f72565b51815160209384036101000a60001901801990921691161790526040519190930194509192505080830381855afa158015610fd0573d6000803e3d6000fd5b5050506040513d6020811015610fe557600080fd5b50516040805160208181019390935281518082038401815290820191829052805190928291908401908083835b602083106110315780518252601f199092019160209182019101611012565b51815160209384036101000a60001901801990921691161790526040519190930194509192505080830381855afa158015611070573d6000803e3d6000fd5b505050604051516c0100000000000000000000000002915061120b565b50604080517f0400000000000000000000000000000000000000000000000000000000000000602080830191909152602182018890526041808301889052835180840390910181526061909201928390528151600493600393600293909282918401908083835b602083106111135780518252601f1990920191602091820191016110f4565b51815160209384036101000a60001901801990921691161790526040519190930194509192505080830381855afa158015611152573d6000803e3d6000fd5b5050506040513d602081101561116757600080fd5b50516040805160208181019390935281518082038401815290820191829052805190928291908401908083835b602083106111b35780518252601f199092019160209182019101611194565b51815160209384036101000a60001901801990921691161790526040519190930194509192505080830381855afa1580156111f2573d6000803e3d6000fd5b505050604051516c010000000000000000000000000291505b600084600381111561121957fe5b14806112305750600184600381111561122e57fe5b145b1561123d57509050610754565b600284600381111561124b57fe5b14806112625750600384600381111561126057fe5b145b156113ed57604080517e140000000000000000000000000000000000000000000000000000000000006020808301919091526bffffffffffffffffffffffff198516602283015282516016818403018152603690920192839052815160039360029392909182918401908083835b602083106112ef5780518252601f1990920191602091820191016112d0565b51815160209384036101000a60001901801990921691161790526040519190930194509192505080830381855afa15801561132e573d6000803e3d6000fd5b5050506040513d602081101561134357600080fd5b50516040805160208181019390935281518082038401815290820191829052805190928291908401908083835b6020831061138f5780518252601f199092019160209182019101611370565b51815160209384036101000a60001901801990921691161790526040519190930194509192505080830381855afa1580156113ce573d6000803e3d6000fd5b505050604051516c010000000000000000000000000292505050610754565b50509392505050565b60008061140661074f8888610a99565b905060018186868660405160008152602001604052604051808581526020018460ff1660ff1681526020018381526020018281526020019450505050506020604051602081039080840390855afa158015611465573d6000803e3d6000fd5b5050604051601f19015198975050505050505050565b60006020819052908152604090205481565b8160005b828110156115815760008582602081106114a757fe5b60f860020a91901a81020490507f3031323334353637383961626364656600000000000000000000000000000000601060ff808416829004169081106114e957fe5b1a60f860020a0287848060010195508151811061150257fe5b6020010190600160f860020a031916908160001a9053507f3031323334353637383961626364656600000000000000000000000000000000600f82166010811061154857fe5b1a60f860020a0287848060010195508151811061156157fe5b6020010190600160f860020a031916908160001a90535050600101611491565b505050505050565b600083838151811061159757fe5b602001015160f860020a900460f860020a0290507f610000000000000000000000000000000000000000000000000000000000000081600160f860020a031916101580156115e9575060088260ff1610155b1561161c5780602060f860020a021884848151811061160457fe5b6020010190600160f860020a031916908160001a9053505b5050505056fe426974636f696e2061646473206120636f6e7374616e74203420746f2074686520762076616c75652e2074686973207369676e6174757265207365656d7320746f20626520696e76616c69642ea26469706673582212203b47659015ffdd58e07a156e0ef30897a351f74d495056e7835a4cab438829b864736f6c63430006020033",
  "source": "pragma solidity >=0.6.2 <0.7.0;\n\ncontract ClaimContract {\n\n  enum AddressType { LegacyUncompressed, LegacyCompressed, SegwitUncompressed, SegwitCompressed }\n\n  bytes16 internal constant HEX_DIGITS = \"0123456789abcdef\";\n\n  /* Constants for preparing the claim message text */\n  uint8 internal constant ETH_ADDRESS_BYTE_LEN = 20;\n  uint8 internal constant ETH_ADDRESS_HEX_LEN = ETH_ADDRESS_BYTE_LEN * 2;\n  uint8 internal constant CLAIM_PARAM_HASH_BYTE_LEN = 12;\n  uint8 internal constant CLAIM_PARAM_HASH_HEX_LEN = CLAIM_PARAM_HASH_BYTE_LEN * 2;\n  uint8 internal constant BITCOIN_SIG_PREFIX_LEN = 24;\n  bytes24 internal constant BITCOIN_SIG_PREFIX_STR = \"Bitcoin Signed Message:\\n\";\n\n  uint constant YEAR_IN_SECONDS = 31536000;\n  uint constant LEAP_YEAR_IN_SECONDS = 31622400;\n  uint constant DAY_IN_SECONDS = 86400;\n\n\n  mapping (bytes20 => uint256)  public balances;\n\n  uint public deploymentTimestamp;\n\n  constructor() public {\n    //balances[\"\"] = 1000000000000;\n    deploymentTimestamp = block.timestamp;\n  }\n\n\n  function getPublicKeyFromBitcoinSignature(bytes32 hashValue, bytes32 r, bytes32 s, uint8 v)\n  public\n  pure\n  returns(address)\n  {\n    require(v >= 4, 'Bitcoin adds a constant 4 to the v value. this signature seems to be invalid.');\n    //#1: decode bitcoin signature.\n    //# get R, S, V and Hash of Signature.\n    //# do ecrecover on it.\n    //return \"todo: implement this magic!\";\n\n    return ecrecover(\n        hashValue,\n        v - 4, //bitcoin signature use v that is +4 see reddit comment https://www.reddit.com/r/ethereum/comments/3gmbkx/how_do_i_verify_a_bitcoinsigned_message_in_an/ctzopoz\n        r,\n        s\n    );\n  }\n\n    /// @dev returns the essential part of a Bitcoin-style address associated with an ECDSA public key\n    /// @param a_publicKeyX X coordinate of the ECDSA public key\n    /// @param a_publicKeyY Y coordinate of the ECDSA public key\n    /// @param a_nAddressType Whether DMD is Legacy or Segwit address and if it was compressed\n    /// @return Raw parts of the Bitcoin Style address\n    function PublicKeyToBitcoinAddress(\n        bytes32 a_publicKeyX,\n        bytes32 a_publicKeyY,\n        AddressType a_nAddressType\n    ) public pure returns (bytes20)\n    {\n        bytes20 publicKey;\n        uint8 initialByte;\n        if(a_nAddressType == AddressType.LegacyCompressed || a_nAddressType == AddressType.SegwitCompressed)\n        {\n            //Hash the compressed format\n            initialByte = (uint256(a_publicKeyY) & 1) == 0 ? 0x02 : 0x03;\n            publicKey = ripemd160(abi.encodePacked(sha256(abi.encodePacked(initialByte, a_publicKeyX))));\n        }\n        else\n        {\n            //Hash the uncompressed format\n            initialByte = 0x04;\n            publicKey = ripemd160(abi.encodePacked(sha256(abi.encodePacked(initialByte, a_publicKeyX, a_publicKeyY))));\n        }\n\n        if(a_nAddressType == AddressType.LegacyUncompressed || a_nAddressType == AddressType.LegacyCompressed)\n        {\n            return publicKey;\n        }\n        else if(a_nAddressType == AddressType.SegwitUncompressed || a_nAddressType == AddressType.SegwitCompressed)\n        {\n            return ripemd160(abi.encodePacked(sha256(abi.encodePacked(hex\"0014\", publicKey))));\n        }\n    }\n\n\n    /// @dev Convert an uncompressed ECDSA public key into an Ethereum address\n    /// @param a_publicKeyX X parameter of uncompressed ECDSA public key\n    /// @param a_publicKeyY Y parameter of uncompressed ECDSA public key\n    /// @return Ethereum address generated from the ECDSA public key\n    function PublicKeyToEthereumAddress(\n        bytes32 a_publicKeyX,\n        bytes32 a_publicKeyY\n    ) public pure returns (address)\n    {\n        bytes32 hash = keccak256(abi.encodePacked(a_publicKeyX, a_publicKeyY));\n        return address(uint160(uint256((hash))));\n    }\n\n    /// @dev Validate ECSDA signature was signed by the specified address\n    /// @param _hash Hash of signed data\n    /// @param _v v parameter of ECDSA signature\n    /// @param _r r parameter of ECDSA signature\n    /// @param _s s parameter of ECDSA signature\n    /// @param _address Ethereum address matching the signature\n    /// @return Boolean on if the signature is valid\n    function ValidateSignature(\n        bytes32 _hash,\n        uint8 _v,\n        bytes32 _r,\n        bytes32 _s,\n        address _address\n    ) public pure returns (bool)\n    {\n        return ecrecover(\n            _hash,\n            _v,\n            _r,\n            _s\n        ) == _address;\n    }\n\n\n    /// @dev Validate the ECDSA parameters of signed message\n    /// ECDSA public key associated with the specified Ethereum address\n    /// @param _addressClaiming Address within signed message\n    /// @param _publicKeyX X parameter of uncompressed ECDSA public key\n    /// @param _publicKeyY Y parameter of uncompressed ECDSA public key\n    /// @param _v v parameter of ECDSA signature\n    /// @param _r r parameter of ECDSA signature\n    /// @param _s s parameter of ECDSA signature\n    /// @return Boolean on if the signature is valid\n    function ECDSAVerify(\n        address _addressClaiming,\n        bytes32 _publicKeyX,\n        bytes32 _publicKeyY,\n        uint8 _v,\n        bytes32 _r,\n        bytes32 _s\n    ) public pure returns (bool)\n    {\n        bytes memory addressAsHex = createClaimMessage(_addressClaiming, true);\n\n        bytes32 hHash = sha256(abi.encodePacked(sha256(abi.encodePacked(addressAsHex))));\n\n        return ValidateSignature(\n            hHash,\n            _v,\n            _r,\n            _s,\n            PublicKeyToEthereumAddress(_publicKeyX, _publicKeyY)\n        );\n    }\n\n  function checkSignature(bytes32 _hash, bytes32 _r, bytes32 _s, uint8 _v)\n  public\n  pure\n  returns(address)\n  {\n    return ecrecover(\n      _hash,\n      _v,\n      _r,\n      _s\n      );\n  }\n\n  /**\n    * @dev PUBLIC FACING: Derive an Ethereum address from an ECDSA public key\n    * @param pubKeyX First  half of uncompressed ECDSA public key\n    * @param pubKeyY Second half of uncompressed ECDSA public key\n    * @return Derived Eth address\n    */\n  function pubKeyToEthAddress(bytes32 pubKeyX, bytes32 pubKeyY)\n      public\n      pure\n      returns (address)\n  {\n      return address(uint160(uint256(keccak256(abi.encodePacked(pubKeyX, pubKeyY)))));\n  }\n\n  /**\n  * @dev sha256(sha256(data))\n  * @param data Data to be hashed\n  * @return 32-byte hash\n  */\n  function calcHash256(bytes memory data)\n      public\n      pure\n      returns (bytes32)\n  {\n      // NOTE: https://github.com/axic/ethereum-bsm/blob/master/bsm.sol\n      // maybe encodePacked is not required ?!\n      return sha256(abi.encodePacked(sha256(data)));\n  }\n\n      function _hexStringFromData(bytes memory hexStr, bytes32 data, uint256 startOffset, uint256 dataLen)\n        private\n        pure\n    {\n        uint256 offset = startOffset;\n\n\n\n        for (uint256 i = 0; i < dataLen; i++) {\n            uint8 b = uint8(data[i]);\n\n            hexStr[offset++] = HEX_DIGITS[b >> 4];\n            hexStr[offset++] = HEX_DIGITS[b & 0x0f];\n        }\n    }\n\n    function _addressStringChecksumChar(bytes memory addrStr, uint256 offset, uint8 hashNybble)\n    private\n    pure\n    {\n        bytes1 ch = addrStr[offset];\n\n        if (ch >= \"a\" && hashNybble >= 8) {\n            addrStr[offset] = ch ^ 0x20;\n        }\n    }\n\n  /**\n  * @dev calculates the address string representation of the signed address.\n  * @param _addr address\n  * @param _includeAddrChecksum bool. should the addressChecksum be used for this caluclation.\n  * @return addrStr ethereum address(24 byte)\n  */\n  function calculateAddressString(address _addr, bool _includeAddrChecksum)\n    public\n    pure\n    returns (bytes memory addrStr)\n  {\n      bytes memory tmp = new bytes(ETH_ADDRESS_HEX_LEN);\n      _hexStringFromData(tmp, bytes32(bytes20(_addr)), 0, ETH_ADDRESS_BYTE_LEN);\n\n      if (_includeAddrChecksum) {\n          bytes32 addrStrHash = keccak256(tmp);\n\n          uint256 offset = 0;\n\n          for (uint256 i = 0; i < ETH_ADDRESS_BYTE_LEN; i++) {\n              uint8 b = uint8(addrStrHash[i]);\n\n              _addressStringChecksumChar(tmp, offset++, b >> 4);\n              _addressStringChecksumChar(tmp, offset++, b & 0x0f);\n          }\n      }\n\n      // the correct checksum is now in the tmp variable.\n      // we extend this by the Ethereum usual prefix 0x\n\n      addrStr = new bytes(ETH_ADDRESS_HEX_LEN + 2);\n\n      addrStr[0] = '0';\n      addrStr[1] = 'x';\n\n      for (uint256 i = 0; i < ETH_ADDRESS_HEX_LEN; i++) {\n          addrStr[i+2] = tmp[i];\n      }\n\n      return addrStr;\n  }\n\n  /**\n  * @dev returns the hash for the provided claim target address.\n  * @param _claimToAddr address target address for the claim.\n  * @param _claimAddrChecksum bool target address was signed using the Ethereum checksum (EIP-55)\n  * @return bytes32 DMD style hash of the claim message.\n  */\n  function createClaimMessage(address _claimToAddr, bool _claimAddrChecksum)\n        public\n        pure\n        returns (bytes memory)\n    {\n        bytes memory prefixStr = \"\";\n\n        //TODO: pass this as an argument. evaluate in JS before includeAddrChecksum is used or not.\n        //now for testing, we assume Yes.\n\n        bytes memory addrStr = calculateAddressString(_claimToAddr, _claimAddrChecksum);\n\n        return abi.encodePacked(\n                BITCOIN_SIG_PREFIX_LEN,\n                BITCOIN_SIG_PREFIX_STR,\n                uint8(prefixStr.length) + ETH_ADDRESS_HEX_LEN + 2,\n                prefixStr,\n                addrStr\n            );\n    }\n\n  /**\n  * @dev returns the hash for the provided claim target address.\n  * @param _claimToAddr address target address for the claim.\n  * @param _claimAddrChecksum bool target address was signed using the Ethereum checksum (EIP-55)\n  * @return bytes32 DMD style hash of the claim message.\n  */\n  function getHashForClaimMessage(\n    address _claimToAddr,\n    bool  _claimAddrChecksum)\n    public\n    pure\n    returns (bytes32)\n  {\n    return calcHash256(\n          createClaimMessage(_claimToAddr, _claimAddrChecksum)\n      );\n  }\n\n  /**\n  * @dev returns the ethereum pseude address of a DMD signed message.\n  * @param _claimToAddr address target address for the claim.\n  * @param _claimAddrChecksum bool target address was signed using the Ethereum checksum (EIP-55)\n  * @param _v uint8 v component of the signature.\n  * @param _r bytes32 r component of the signature.\n  * @param _s bytes32 s component of the signautre.\n  * @return address DMD pseudo address of the signer. (what would be the address if the same Private Key would have been used on an DMDv3 than in DMDv4)\n  */\n  function getEthAddressFromSignature(\n    address _claimToAddr,\n    bool    _claimAddrChecksum,\n    uint8 _v,\n    bytes32 _r,\n    bytes32 _s\n  )\n  public\n  pure\n  returns (address)\n  {\n    //require(_v >= 27 && _v <= 30, \"v invalid\");\n\n     /* Create and hash the claim message text */\n      bytes32 messageHash = calcHash256(\n          createClaimMessage(_claimToAddr, _claimAddrChecksum)\n      );\n\n    return ecrecover(messageHash, _v, _r, _s);\n  }\n\n  function claimMessageMatchesSignature(\n    address _claimToAddr,\n    bool    _claimAddrChecksum,\n    bytes32 _pubKeyX,\n    bytes32 _pubKeyY,\n    uint8 _v,\n    bytes32 _r,\n    bytes32 _s\n  )\n    public\n    pure\n    returns (bool)\n  {\n      require(_v >= 27 && _v <= 30, \"v invalid\");\n\n      /*\n          ecrecover() returns an Eth address rather than a public key, so\n          we must do the same to compare.\n      */\n      address pubKeyEthAddr = pubKeyToEthAddress(_pubKeyX, _pubKeyY);\n\n      //we need to check if X and Y corresponds to R and S.\n\n      /* Create and hash the claim message text */\n      bytes32 messageHash = calcHash256(\n          createClaimMessage(_claimToAddr, _claimAddrChecksum)\n      );\n\n      /* Verify the public key */\n      return ecrecover(messageHash, _v, _r, _s) == pubKeyEthAddr;\n  }\n\n  function getCurrentDilutedClaimFactor()\n  public\n  view\n  returns (uint256 nominator, uint256 denominator)\n  {\n      if (block.timestamp <= deploymentTimestamp + (DAY_IN_SECONDS * 2 * 31) + DAY_IN_SECONDS * 30) \n      {\n        return (1, 1);\n      }\n      else if (block.timestamp <= deploymentTimestamp + (DAY_IN_SECONDS * 3 * 31) + (DAY_IN_SECONDS * 3 * 30))\n      {\n        return (3, 4);\n      }\n      else if (block.timestamp <= deploymentTimestamp + (YEAR_IN_SECONDS * 4) + LEAP_YEAR_IN_SECONDS)\n      {\n        return (1, 2);\n      }\n      else\n      {\n        return (0, 1);\n      }\n  }\n\n}",
  "sourcePath": "/home/sn/dmd/dmd-meta/dmdv4migration/contracts/contracts/ClaimContract.sol",
  "compiler": {
    "name": "solc",
    "version": "0.6.2+commit.bacdbe57.Emscripten.clang"
  },
  "schemaVersion": "3.3.1",
  "updatedAt": "2020-11-22T20:18:56.217Z",
  "devdoc": {
    "methods": {
      "ECDSAVerify(address,bytes32,bytes32,uint8,bytes32,bytes32)": {
        "details": "Validate the ECDSA parameters of signed message ECDSA public key associated with the specified Ethereum address",
        "params": {
          "_addressClaiming": "Address within signed message",
          "_publicKeyX": "X parameter of uncompressed ECDSA public key",
          "_publicKeyY": "Y parameter of uncompressed ECDSA public key",
          "_r": "r parameter of ECDSA signature",
          "_s": "s parameter of ECDSA signature",
          "_v": "v parameter of ECDSA signature"
        },
        "returns": {
          "_0": "Boolean on if the signature is valid"
        }
      },
      "PublicKeyToBitcoinAddress(bytes32,bytes32,uint8)": {
        "details": "returns the essential part of a Bitcoin-style address associated with an ECDSA public key",
        "params": {
          "a_nAddressType": "Whether DMD is Legacy or Segwit address and if it was compressed",
          "a_publicKeyX": "X coordinate of the ECDSA public key",
          "a_publicKeyY": "Y coordinate of the ECDSA public key"
        },
        "returns": {
          "_0": "Raw parts of the Bitcoin Style address"
        }
      },
      "PublicKeyToEthereumAddress(bytes32,bytes32)": {
        "details": "Convert an uncompressed ECDSA public key into an Ethereum address",
        "params": {
          "a_publicKeyX": "X parameter of uncompressed ECDSA public key",
          "a_publicKeyY": "Y parameter of uncompressed ECDSA public key"
        },
        "returns": {
          "_0": "Ethereum address generated from the ECDSA public key"
        }
      },
      "ValidateSignature(bytes32,uint8,bytes32,bytes32,address)": {
        "details": "Validate ECSDA signature was signed by the specified address",
        "params": {
          "_address": "Ethereum address matching the signature",
          "_hash": "Hash of signed data",
          "_r": "r parameter of ECDSA signature",
          "_s": "s parameter of ECDSA signature",
          "_v": "v parameter of ECDSA signature"
        },
        "returns": {
          "_0": "Boolean on if the signature is valid"
        }
      },
      "calcHash256(bytes)": {
        "details": "sha256(sha256(data))",
        "params": {
          "data": "Data to be hashed"
        },
        "returns": {
          "_0": "32-byte hash"
        }
      },
      "calculateAddressString(address,bool)": {
        "details": "calculates the address string representation of the signed address.",
        "params": {
          "_addr": "address",
          "_includeAddrChecksum": "bool. should the addressChecksum be used for this caluclation."
        },
        "returns": {
          "addrStr": "ethereum address(24 byte)"
        }
      },
      "createClaimMessage(address,bool)": {
        "details": "returns the hash for the provided claim target address.",
        "params": {
          "_claimAddrChecksum": "bool target address was signed using the Ethereum checksum (EIP-55)",
          "_claimToAddr": "address target address for the claim."
        },
        "returns": {
          "_0": "bytes32 DMD style hash of the claim message."
        }
      },
      "getEthAddressFromSignature(address,bool,uint8,bytes32,bytes32)": {
        "details": "returns the ethereum pseude address of a DMD signed message.",
        "params": {
          "_claimAddrChecksum": "bool target address was signed using the Ethereum checksum (EIP-55)",
          "_claimToAddr": "address target address for the claim.",
          "_r": "bytes32 r component of the signature.",
          "_s": "bytes32 s component of the signautre.",
          "_v": "uint8 v component of the signature."
        },
        "returns": {
          "_0": "address DMD pseudo address of the signer. (what would be the address if the same Private Key would have been used on an DMDv3 than in DMDv4)"
        }
      },
      "getHashForClaimMessage(address,bool)": {
        "details": "returns the hash for the provided claim target address.",
        "params": {
          "_claimAddrChecksum": "bool target address was signed using the Ethereum checksum (EIP-55)",
          "_claimToAddr": "address target address for the claim."
        },
        "returns": {
          "_0": "bytes32 DMD style hash of the claim message."
        }
      },
      "pubKeyToEthAddress(bytes32,bytes32)": {
        "details": "PUBLIC FACING: Derive an Ethereum address from an ECDSA public key",
        "params": {
          "pubKeyX": "First  half of uncompressed ECDSA public key",
          "pubKeyY": "Second half of uncompressed ECDSA public key"
        },
        "returns": {
          "_0": "Derived Eth address"
        }
      }
    }
  },
  "userdoc": {
    "methods": {}
  }
}