{
  "contractName": "ClaimContract",
  "abi": [
    {
      "inputs": [
        {
          "internalType": "address payable",
          "name": "_lateClaimBeneficorAddress",
          "type": "address"
        },
        {
          "internalType": "bytes",
          "name": "_prefixStr",
          "type": "bytes"
        }
      ],
      "stateMutability": "nonpayable",
      "type": "constructor"
    },
    {
      "anonymous": false,
      "inputs": [
        {
          "indexed": true,
          "internalType": "bytes20",
          "name": "_from",
          "type": "bytes20"
        },
        {
          "indexed": false,
          "internalType": "address",
          "name": "_to",
          "type": "address"
        },
        {
          "indexed": false,
          "internalType": "uint256",
          "name": "amount",
          "type": "uint256"
        },
        {
          "indexed": false,
          "internalType": "uint256",
          "name": "_nominator",
          "type": "uint256"
        },
        {
          "indexed": false,
          "internalType": "uint256",
          "name": "_denominator",
          "type": "uint256"
        }
      ],
      "name": "Claim",
      "type": "event"
    },
    {
      "inputs": [
        {
          "internalType": "bytes20",
          "name": "",
          "type": "bytes20"
        }
      ],
      "name": "balances",
      "outputs": [
        {
          "internalType": "uint256",
          "name": "",
          "type": "uint256"
        }
      ],
      "stateMutability": "view",
      "type": "function"
    },
    {
      "inputs": [],
      "name": "deploymentTimestamp",
      "outputs": [
        {
          "internalType": "uint256",
          "name": "",
          "type": "uint256"
        }
      ],
      "stateMutability": "view",
      "type": "function"
    },
    {
      "inputs": [
        {
          "internalType": "bytes20",
          "name": "",
          "type": "bytes20"
        }
      ],
      "name": "diluted",
      "outputs": [
        {
          "internalType": "uint256",
          "name": "",
          "type": "uint256"
        }
      ],
      "stateMutability": "view",
      "type": "function"
    },
    {
      "inputs": [],
      "name": "dilution_s1_75_executed",
      "outputs": [
        {
          "internalType": "bool",
          "name": "",
          "type": "bool"
        }
      ],
      "stateMutability": "view",
      "type": "function"
    },
    {
      "inputs": [],
      "name": "dilution_s2_50_executed",
      "outputs": [
        {
          "internalType": "bool",
          "name": "",
          "type": "bool"
        }
      ],
      "stateMutability": "view",
      "type": "function"
    },
    {
      "inputs": [],
      "name": "dilution_s3_0_executed",
      "outputs": [
        {
          "internalType": "bool",
          "name": "",
          "type": "bool"
        }
      ],
      "stateMutability": "view",
      "type": "function"
    },
    {
      "inputs": [],
      "name": "lateClaimBeneficorAddress",
      "outputs": [
        {
          "internalType": "address payable",
          "name": "",
          "type": "address"
        }
      ],
      "stateMutability": "view",
      "type": "function"
    },
    {
      "inputs": [
        {
          "internalType": "bytes32",
          "name": "hashValue",
          "type": "bytes32"
        },
        {
          "internalType": "bytes32",
          "name": "r",
          "type": "bytes32"
        },
        {
          "internalType": "bytes32",
          "name": "s",
          "type": "bytes32"
        },
        {
          "internalType": "uint8",
          "name": "v",
          "type": "uint8"
        }
      ],
      "name": "getPublicKeyFromBitcoinSignature",
      "outputs": [
        {
          "internalType": "address",
          "name": "",
          "type": "address"
        }
      ],
      "stateMutability": "pure",
      "type": "function"
    },
    {
      "inputs": [
        {
          "internalType": "bytes32",
          "name": "_publicKeyX",
          "type": "bytes32"
        },
        {
          "internalType": "bytes32",
          "name": "_publicKeyY",
          "type": "bytes32"
        },
        {
          "internalType": "enum ClaimContract.AddressType",
          "name": "_addressType",
          "type": "uint8"
        }
      ],
      "name": "publicKeyToBitcoinAddress",
      "outputs": [
        {
          "internalType": "bytes20",
          "name": "",
          "type": "bytes20"
        }
      ],
      "stateMutability": "pure",
      "type": "function"
    },
    {
      "inputs": [
        {
          "internalType": "bytes32",
          "name": "_publicKeyX",
          "type": "bytes32"
        },
        {
          "internalType": "bytes32",
          "name": "_publicKeyY",
          "type": "bytes32"
        }
      ],
      "name": "publicKeyToEthereumAddress",
      "outputs": [
        {
          "internalType": "address",
          "name": "",
          "type": "address"
        }
      ],
      "stateMutability": "pure",
      "type": "function"
    },
    {
      "inputs": [
        {
          "internalType": "bytes32",
          "name": "_hash",
          "type": "bytes32"
        },
        {
          "internalType": "uint8",
          "name": "_v",
          "type": "uint8"
        },
        {
          "internalType": "bytes32",
          "name": "_r",
          "type": "bytes32"
        },
        {
          "internalType": "bytes32",
          "name": "_s",
          "type": "bytes32"
        },
        {
          "internalType": "address",
          "name": "_address",
          "type": "address"
        }
      ],
      "name": "ValidateSignature",
      "outputs": [
        {
          "internalType": "bool",
          "name": "",
          "type": "bool"
        }
      ],
      "stateMutability": "pure",
      "type": "function"
    },
    {
      "inputs": [
        {
          "internalType": "address",
          "name": "_addressClaiming",
          "type": "address"
        },
        {
          "internalType": "bytes32",
          "name": "_publicKeyX",
          "type": "bytes32"
        },
        {
          "internalType": "bytes32",
          "name": "_publicKeyY",
          "type": "bytes32"
        },
        {
          "internalType": "uint8",
          "name": "_v",
          "type": "uint8"
        },
        {
          "internalType": "bytes32",
          "name": "_r",
          "type": "bytes32"
        },
        {
          "internalType": "bytes32",
          "name": "_s",
          "type": "bytes32"
        }
      ],
      "name": "ECDSAVerify",
      "outputs": [
        {
          "internalType": "bool",
          "name": "",
          "type": "bool"
        }
      ],
      "stateMutability": "view",
      "type": "function"
    },
    {
      "inputs": [
        {
          "internalType": "bytes32",
          "name": "_hash",
          "type": "bytes32"
        },
        {
          "internalType": "bytes32",
          "name": "_r",
          "type": "bytes32"
        },
        {
          "internalType": "bytes32",
          "name": "_s",
          "type": "bytes32"
        },
        {
          "internalType": "uint8",
          "name": "_v",
          "type": "uint8"
        }
      ],
      "name": "checkSignature",
      "outputs": [
        {
          "internalType": "address",
          "name": "",
          "type": "address"
        }
      ],
      "stateMutability": "pure",
      "type": "function"
    },
    {
      "inputs": [
        {
          "internalType": "bytes32",
          "name": "pubKeyX",
          "type": "bytes32"
        },
        {
          "internalType": "bytes32",
          "name": "pubKeyY",
          "type": "bytes32"
        }
      ],
      "name": "pubKeyToEthAddress",
      "outputs": [
        {
          "internalType": "address",
          "name": "",
          "type": "address"
        }
      ],
      "stateMutability": "pure",
      "type": "function"
    },
    {
      "inputs": [
        {
          "internalType": "bytes",
          "name": "data",
          "type": "bytes"
        }
      ],
      "name": "calcHash256",
      "outputs": [
        {
          "internalType": "bytes32",
          "name": "",
          "type": "bytes32"
        }
      ],
      "stateMutability": "pure",
      "type": "function"
    },
    {
      "inputs": [
        {
          "internalType": "address",
          "name": "_addr",
          "type": "address"
        },
        {
          "internalType": "bool",
          "name": "_includeAddrChecksum",
          "type": "bool"
        }
      ],
      "name": "calculateAddressString",
      "outputs": [
        {
          "internalType": "bytes",
          "name": "addrStr",
          "type": "bytes"
        }
      ],
      "stateMutability": "pure",
      "type": "function"
    },
    {
      "inputs": [
        {
          "internalType": "address",
          "name": "_claimToAddr",
          "type": "address"
        },
        {
          "internalType": "bool",
          "name": "_claimAddrChecksum",
          "type": "bool"
        }
      ],
      "name": "createClaimMessage",
      "outputs": [
        {
          "internalType": "bytes",
          "name": "",
          "type": "bytes"
        }
      ],
      "stateMutability": "view",
      "type": "function"
    },
    {
      "inputs": [
        {
          "internalType": "address",
          "name": "_claimToAddr",
          "type": "address"
        },
        {
          "internalType": "bool",
          "name": "_claimAddrChecksum",
          "type": "bool"
        }
      ],
      "name": "createClaimMessageDMD",
      "outputs": [
        {
          "internalType": "bytes",
          "name": "",
          "type": "bytes"
        }
      ],
      "stateMutability": "view",
      "type": "function"
    },
    {
      "inputs": [
        {
          "internalType": "address",
          "name": "_claimToAddr",
          "type": "address"
        },
        {
          "internalType": "bool",
          "name": "_claimAddrChecksum",
          "type": "bool"
        }
      ],
      "name": "getHashForClaimMessage",
      "outputs": [
        {
          "internalType": "bytes32",
          "name": "",
          "type": "bytes32"
        }
      ],
      "stateMutability": "view",
      "type": "function"
    },
    {
      "inputs": [
        {
          "internalType": "address",
          "name": "_claimToAddr",
          "type": "address"
        },
        {
          "internalType": "bool",
          "name": "_claimAddrChecksum",
          "type": "bool"
        },
        {
          "internalType": "uint8",
          "name": "_v",
          "type": "uint8"
        },
        {
          "internalType": "bytes32",
          "name": "_r",
          "type": "bytes32"
        },
        {
          "internalType": "bytes32",
          "name": "_s",
          "type": "bytes32"
        }
      ],
      "name": "getEthAddressFromSignature",
      "outputs": [
        {
          "internalType": "address",
          "name": "",
          "type": "address"
        }
      ],
      "stateMutability": "view",
      "type": "function"
    },
    {
      "inputs": [
        {
          "internalType": "address",
          "name": "_claimToAddr",
          "type": "address"
        },
        {
          "internalType": "bool",
          "name": "_claimAddrChecksum",
          "type": "bool"
        },
        {
          "internalType": "bytes32",
          "name": "_pubKeyX",
          "type": "bytes32"
        },
        {
          "internalType": "bytes32",
          "name": "_pubKeyY",
          "type": "bytes32"
        },
        {
          "internalType": "uint8",
          "name": "_v",
          "type": "uint8"
        },
        {
          "internalType": "bytes32",
          "name": "_r",
          "type": "bytes32"
        },
        {
          "internalType": "bytes32",
          "name": "_s",
          "type": "bytes32"
        }
      ],
      "name": "claimMessageMatchesSignature",
      "outputs": [
        {
          "internalType": "bool",
          "name": "",
          "type": "bool"
        }
      ],
      "stateMutability": "view",
      "type": "function"
    },
    {
      "inputs": [],
      "name": "getDilutionTimestamp1",
      "outputs": [
        {
          "internalType": "uint256",
          "name": "",
          "type": "uint256"
        }
      ],
      "stateMutability": "view",
      "type": "function"
    },
    {
      "inputs": [],
      "name": "getDilutionTimestamp2",
      "outputs": [
        {
          "internalType": "uint256",
          "name": "",
          "type": "uint256"
        }
      ],
      "stateMutability": "view",
      "type": "function"
    },
    {
      "inputs": [],
      "name": "getDilutionTimestamp3",
      "outputs": [
        {
          "internalType": "uint256",
          "name": "",
          "type": "uint256"
        }
      ],
      "stateMutability": "view",
      "type": "function"
    },
    {
      "inputs": [],
      "name": "dilute1",
      "outputs": [
        {
          "internalType": "uint256",
          "name": "",
          "type": "uint256"
        }
      ],
      "stateMutability": "nonpayable",
      "type": "function"
    },
    {
      "inputs": [],
      "name": "dilute2",
      "outputs": [
        {
          "internalType": "uint256",
          "name": "",
          "type": "uint256"
        }
      ],
      "stateMutability": "nonpayable",
      "type": "function"
    },
    {
      "inputs": [],
      "name": "dilute3",
      "outputs": [
        {
          "internalType": "uint256",
          "name": "",
          "type": "uint256"
        }
      ],
      "stateMutability": "nonpayable",
      "type": "function"
    },
    {
      "inputs": [],
      "name": "getCurrentDilutedClaimFactor",
      "outputs": [
        {
          "internalType": "uint256",
          "name": "nominator",
          "type": "uint256"
        },
        {
          "internalType": "uint256",
          "name": "denominator",
          "type": "uint256"
        }
      ],
      "stateMutability": "view",
      "type": "function"
    },
    {
      "inputs": [
        {
          "internalType": "bytes20",
          "name": "oldAddress",
          "type": "bytes20"
        }
      ],
      "name": "addBalance",
      "outputs": [],
      "stateMutability": "payable",
      "type": "function"
    },
    {
      "inputs": [
        {
          "internalType": "address payable",
          "name": "_targetAdress",
          "type": "address"
        },
        {
          "internalType": "bool",
          "name": "_claimAddrChecksum",
          "type": "bool"
        },
        {
          "internalType": "bytes32",
          "name": "_pubKeyX",
          "type": "bytes32"
        },
        {
          "internalType": "bytes32",
          "name": "_pubKeyY",
          "type": "bytes32"
        },
        {
          "internalType": "uint8",
          "name": "_v",
          "type": "uint8"
        },
        {
          "internalType": "bytes32",
          "name": "_r",
          "type": "bytes32"
        },
        {
          "internalType": "bytes32",
          "name": "_s",
          "type": "bytes32"
        }
      ],
      "name": "claim",
      "outputs": [],
      "stateMutability": "nonpayable",
      "type": "function"
    }
  ],
  "bytecode": "0x60806040523480156200001157600080fd5b506040516200266638038062002666833981810160405260408110156200003757600080fd5b8151602083018051604051929492938301929190846401000000008211156200005f57600080fd5b9083019060208201858111156200007557600080fd5b82516401000000008111828201881017156200009057600080fd5b82525081516020918201929091019080838360005b83811015620000bf578181015183820152602001620000a5565b50505050905090810190601f168015620000ed5780820380516001836020036101000a031916815260200191505b506040525050426003555060048054600160a060020a031916600160a060020a03841617905580516200012890600590602084019062000131565b505050620001d6565b828054600181600116156101000203166002900490600052602060002090601f016020900481019282601f106200017457805160ff1916838001178555620001a4565b82800160010185558215620001a4579182015b82811115620001a457825182559160200191906001019062000187565b50620001b2929150620001b6565b5090565b620001d391905b80821115620001b25760008155600101620001bd565b90565b61248080620001e66000396000f3fe6080604052600436106101ea576000357c0100000000000000000000000000000000000000000000000000000000900480637b99c36d11610114578063bfc12c05116100b2578063eaa2b1cd11610081578063eaa2b1cd146107fa578063eda0121f1461084a578063f2113dc91461085f578063fa4ee75a14610898576101ea565b8063bfc12c05146106f2578063c48a5ba514610707578063d8de854914610763578063e180dea9146107bf576101ea565b80639365fe0b116100ee5780639365fe0b14610632578063a9880f3214610647578063b28297f814610682578063bbc0729714610697576101ea565b80637b99c36d1461051c57806384f0145e146105cf57806392867f38146105e4576101ea565b806338b44e001161018c5780635b33bef31161015b5780635b33bef31461049e57806364e7c23a146104b35780636a01acad146104c857806371382209146104dd576101ea565b806338b44e00146103e3578063433cc26914610411578063463bf9b0146104505780634e2ac9bf14610489576101ea565b80631b17d9a8116101c85780631b17d9a81461035357806326b8ed32146103685780632e5b7458146103b557806330c1a785146101ef576101ea565b80630b139fef146101ef5780630e6f41541461023b57806319e93d07146102a3575b600080fd5b3480156101fb57600080fd5b5061021f6004803603604081101561021257600080fd5b50803590602001356108ad565b60408051600160a060020a039092168252519081900360200190f35b34801561024757600080fd5b5061028f600480360360c081101561025e57600080fd5b50600160a060020a038135169060208101359060408101359060ff6060820135169060808101359060a001356108d9565b604080519115158252519081900360200190f35b3480156102af57600080fd5b506102de600480360360408110156102c657600080fd5b50600160a060020a0381351690602001351515610aa0565b6040805160208082528351818301528351919283929083019185019080838360005b83811015610318578181015183820152602001610300565b50505050905090810190601f1680156103455780820380516001836020036101000a031916815260200191505b509250505060405180910390f35b34801561035f57600080fd5b5061028f610bcd565b34801561037457600080fd5b506103a36004803603604081101561038b57600080fd5b50600160a060020a0381351690602001351515610bd6565b60408051918252519081900360200190f35b3480156103c157600080fd5b506103ca610bf1565b6040805192835260208301919091528051918290030190f35b61040f600480360360208110156103f957600080fd5b50356bffffffffffffffffffffffff1916610c4e565b005b34801561041d57600080fd5b5061021f6004803603608081101561043457600080fd5b508035906020810135906040810135906060013560ff16610d2c565b34801561045c57600080fd5b506103a36004803603602081101561047357600080fd5b50356bffffffffffffffffffffffff1916610d98565b34801561049557600080fd5b506103a3610daa565b3480156104aa57600080fd5b506103a3610f25565b3480156104bf57600080fd5b5061028f61100e565b3480156104d457600080fd5b506103a361101c565b3480156104e957600080fd5b5061021f6004803603608081101561050057600080fd5b508035906020810135906040810135906060013560ff16611027565b34801561052857600080fd5b506103a36004803603602081101561053f57600080fd5b81019060208101813564010000000081111561055a57600080fd5b82018360208201111561056c57600080fd5b8035906020019184600183028401116401000000008311171561058e57600080fd5b91908080601f0160208091040260200160405190810160405280939291908181526020018383808284376000920191909152509295506110ca945050505050565b3480156105db57600080fd5b506103a36111fb565b3480156105f057600080fd5b5061028f600480360360a081101561060757600080fd5b50803590602081013560ff169060408101359060608101359060800135600160a060020a0316611207565b34801561063e57600080fd5b506103a361128f565b34801561065357600080fd5b506102de6004803603604081101561066a57600080fd5b50600160a060020a0381351690602001351515611387565b34801561068e57600080fd5b506103a36114db565b3480156106a357600080fd5b506106d0600480360360608110156106ba57600080fd5b508035906020810135906040013560ff166114e6565b604080516bffffffffffffffffffffffff199092168252519081900360200190f35b3480156106fe57600080fd5b506103a36119f5565b34801561071357600080fd5b5061028f600480360360e081101561072a57600080fd5b50600160a060020a0381351690602081013515159060408101359060608101359060ff6080820135169060a08101359060c001356119fb565b34801561076f57600080fd5b5061040f600480360360e081101561078657600080fd5b50600160a060020a0381351690602081013515159060408101359060608101359060ff6080820135169060a08101359060c00135611b0f565b3480156107cb57600080fd5b506102de600480360360408110156107e257600080fd5b50600160a060020a0381351690602001351515611cf5565b34801561080657600080fd5b5061021f600480360360a081101561081d57600080fd5b50600160a060020a0381351690602081013515159060ff6040820135169060608101359060800135611ebf565b34801561085657600080fd5b5061021f611f44565b34801561086b57600080fd5b506103a36004803603602081101561088257600080fd5b50356bffffffffffffffffffffffff1916611f53565b3480156108a457600080fd5b5061028f611f65565b604080516020808201949094528082019290925280518083038201815260609092019052805191012090565b600060606108e8886001611387565b90506000600280836040516020018082805190602001908083835b602083106109225780518252601f199092019160209182019101610903565b6001836020036101000a0380198251168184511680821785525050505050509050019150506040516020818303038152906040526040518082805190602001908083835b602083106109855780518252601f199092019160209182019101610966565b51815160209384036101000a60001901801990921691161790526040519190930194509192505080830381855afa1580156109c4573d6000803e3d6000fd5b5050506040513d60208110156109d957600080fd5b50516040805160208181019390935281518082038401815290820191829052805190928291908401908083835b60208310610a255780518252601f199092019160209182019101610a06565b51815160209384036101000a60001901801990921691161790526040519190930194509192505080830381855afa158015610a64573d6000803e3d6000fd5b5050506040513d6020811015610a7957600080fd5b50519050610a9381878787610a8e8d8d6108ad565b611207565b9998505050505050505050565b606080610aad8484611cf5565b905060187f4469616d6f6e64205369676e6564204d6573736167653a0a0000000000000000600583604051602001808560ff1660ff1660f860020a0281526001018467ffffffffffffffff191667ffffffffffffffff1916815260180183805460018160011615610100020316600290048015610b615780601f10610b3f576101008083540402835291820191610b61565b820191906000526020600020905b815481529060010190602001808311610b4d575b5050825160208401908083835b60208310610b8d5780518252601f199092019160209182019101610b6e565b6001836020036101000a03801982511681845116808217855250505050505090500194505050505060405160208183030381529060405291505092915050565b60025460ff1681565b6000610bea610be58484611387565b6110ca565b9392505050565b600254600090819060ff16610c0b57506001905080610c4a565b600254610100900460ff16610c265750600390506004610c4a565b60025462010000900460ff16610c425750600190506002610c4a565b506000905060015b9091565b6bffffffffffffffffffffffff19811660009081526020819052604090205415610cac5760405160e560020a62461bcd0281526004018080602001828103825260378152602001806124146037913960400191505060405180910390fd5b6bffffffffffffffffffffffff19811660009081526001602052604090205415610d0a5760405160e560020a62461bcd0281526004018080602001828103825260388152602001806122676038913960400191505060405180910390fd5b6bffffffffffffffffffffffff19166000908152602081905260409020349055565b604080516000808252602080830180855288905260ff85168385015260608301879052608083018690529251909260019260a080820193601f1981019281900390910190855afa158015610d84573d6000803e3d6000fd5b5050604051601f1901519695505050505050565b60016020526000908152604090205481565b6000610db46111fb565b4211610df45760405160e560020a62461bcd0281526004018080602001828103825260458152602001806123cf6045913960600191505060405180910390fd5b60025460ff161515600114610e3d5760405160e560020a62461bcd0281526004018080602001828103825260468152602001806123896046913960600191505060405180910390fd5b60025460ff610100909104161515600114610e8c5760405160e560020a62461bcd02815260040180806020018281038252604681526020018061212b6046913960600191505060405180910390fd5b60025462010000900460ff1615610ed75760405160e560020a62461bcd0281526004018080602001828103825260218152602001806121df6021913960400191505060405180910390fd5b6002805460ff19166001179055600454604051303191600160a060020a03169082156108fc029083906000818181858888f19350505050158015610f1f573d6000803e3d6000fd5b50905090565b6000610f2f6114db565b4211610f6f5760405160e560020a62461bcd02815260040180806020018281038252604581526020018061219a6045913960600191505060405180910390fd5b60025460ff1615610fb45760405160e560020a62461bcd0281526004018080602001828103825260218152602001806122006021913960400191505060405180910390fd5b6002805460ff19166001179055303160006004825b600454604051929091049250600160a060020a03169082156108fc029083906000818181858888f19350505050158015611007573d6000803e3d6000fd5b5091505090565b600254610100900460ff1681565b60035462f142800190565b600060048260ff16101561106f5760405160e560020a62461bcd02815260040180806020018281038252604d815260200180612307604d913960600191505060405180910390fd5b6040805160008152602080820180845288905260ff600319860116828401526060820187905260808201869052915160019260a0808401939192601f1981019281900390910190855afa158015610d84573d6000803e3d6000fd5b6000600280836040518082805190602001908083835b602083106110ff5780518252601f1990920191602091820191016110e0565b51815160209384036101000a60001901801990921691161790526040519190930194509192505080830381855afa15801561113e573d6000803e3d6000fd5b5050506040513d602081101561115357600080fd5b50516040805160208181019390935281518082038401815290820191829052805190928291908401908083835b6020831061119f5780518252601f199092019160209182019101611180565b51815160209384036101000a60001901801990921691161790526040519190930194509192505080830381855afa1580156111de573d6000803e3d6000fd5b5050506040513d60208110156111f357600080fd5b505192915050565b60035463096753000190565b600081600160a060020a031660018787878760405160008152602001604052604051808581526020018460ff1660ff1681526020018381526020018281526020019450505050506020604051602081039080840390855afa158015611270573d6000803e3d6000fd5b50505060206040510351600160a060020a031614905095945050505050565b600061129961101c565b42116112d95760405160e560020a62461bcd02815260040180806020018281038252604581526020018061229f6045913960600191505060405180910390fd5b60025460ff1615156001146113225760405160e560020a62461bcd0281526004018080602001828103825260468152602001806122216046913960600191505060405180910390fd5b600254610100900460ff161561136c5760405160e560020a62461bcd02815260040180806020018281038252602181526020018061210a6021913960400191505060405180910390fd5b6002805461ff00191661010017905530316000600382610fc9565b6060806113948484611cf5565b600580546040517f1800000000000000000000000000000000000000000000000000000000000000602082019081527f426974636f696e205369676e6564204d6573736167653a0a00000000000000006021830181905260f860020a60026001861615610100026000190190951694909404602a810160ff8116959095026039850152959650601895909492879291603a909101908490801561146e5780601f1061144c57610100808354040283529182019161146e565b820191906000526020600020905b81548152906001019060200180831161145a575b5050825160208401908083835b6020831061149a5780518252601f19909201916020918201910161147b565b6001836020036101000a0380198251168184511680821785525050505050509050019550505050505060405160208183030381529060405291505092915050565b60035462794a000190565b6000808060018460038111156114f857fe5b148061150f5750600384600381111561150d57fe5b145b1561168c576001851615611524576003611527565b60025b9050600360028288604051602001808360ff1660ff1660f860020a028152600101828152602001925050506040516020818303038152906040526040518082805190602001908083835b602083106115905780518252601f199092019160209182019101611571565b51815160209384036101000a60001901801990921691161790526040519190930194509192505080830381855afa1580156115cf573d6000803e3d6000fd5b5050506040513d60208110156115e457600080fd5b50516040805160208181019390935281518082038401815290820191829052805190928291908401908083835b602083106116305780518252601f199092019160209182019101611611565b51815160209384036101000a60001901801990921691161790526040519190930194509192505080830381855afa15801561166f573d6000803e3d6000fd5b505050604051516c0100000000000000000000000002915061180a565b50604080517f0400000000000000000000000000000000000000000000000000000000000000602080830191909152602182018890526041808301889052835180840390910181526061909201928390528151600493600393600293909282918401908083835b602083106117125780518252601f1990920191602091820191016116f3565b51815160209384036101000a60001901801990921691161790526040519190930194509192505080830381855afa158015611751573d6000803e3d6000fd5b5050506040513d602081101561176657600080fd5b50516040805160208181019390935281518082038401815290820191829052805190928291908401908083835b602083106117b25780518252601f199092019160209182019101611793565b51815160209384036101000a60001901801990921691161790526040519190930194509192505080830381855afa1580156117f1573d6000803e3d6000fd5b505050604051516c010000000000000000000000000291505b600084600381111561181857fe5b148061182f5750600184600381111561182d57fe5b145b1561183c57509050610bea565b600284600381111561184a57fe5b14806118615750600384600381111561185f57fe5b145b156119ec57604080517e140000000000000000000000000000000000000000000000000000000000006020808301919091526bffffffffffffffffffffffff198516602283015282516016818403018152603690920192839052815160039360029392909182918401908083835b602083106118ee5780518252601f1990920191602091820191016118cf565b51815160209384036101000a60001901801990921691161790526040519190930194509192505080830381855afa15801561192d573d6000803e3d6000fd5b5050506040513d602081101561194257600080fd5b50516040805160208181019390935281518082038401815290820191829052805190928291908401908083835b6020831061198e5780518252601f19909201916020918201910161196f565b51815160209384036101000a60001901801990921691161790526040519190930194509192505080830381855afa1580156119cd573d6000803e3d6000fd5b505050604051516c010000000000000000000000000292505050610bea565b50509392505050565b60035481565b6000601b8460ff1610158015611a155750601e8460ff1611155b611a69576040805160e560020a62461bcd02815260206004820152600960248201527f7620696e76616c69640000000000000000000000000000000000000000000000604482015290519081900360640190fd5b6000611a7587876108ad565b90506000611a838a8a610bd6565b905081600160a060020a031660018288888860405160008152602001604052604051808581526020018460ff1660ff1681526020018381526020018281526020019450505050506020604051602081039080840390855afa158015611aec573d6000803e3d6000fd5b50505060206040510351600160a060020a03161492505050979650505050505050565b6000611b1d868660016114e6565b6bffffffffffffffffffffffff19811660009081526020819052604090205490915080611b7e5760405160e560020a62461bcd0281526004018080602001828103825260298152602001806121716029913960400191505060405180910390fd5b611b8d898989898989896119fb565b611bcb5760405160e560020a62461bcd0281526004018080602001828103825260358152602001806123546035913960400191505060405180910390fd5b600080611bd6610bf1565b9150915060008211611c1c5760405160e560020a62461bcd0281526004018080602001828103825260238152602001806122e46023913960400191505060405180910390fd5b60008183850281611c2957fe5b6bffffffffffffffffffffffff19871660009081526020819052604080822082905551929091049250600160a060020a038e169183156108fc0291849190818181858888f19350505050158015611c84573d6000803e3d6000fd5b5060408051600160a060020a038e168152602081018390528082018590526060810184905290516bffffffffffffffffffffffff198716917f87263350249c13bda2939c89dcb517d838e9f0c19d1e9546de822a2d75e2204b919081900360800190a2505050505050505050505050565b6040805160288082526060828101909352829190602082018180388339019050509050611d44816bffffffffffffffffffffffff196c0100000000000000000000000087021660006014611f74565b8215611db557805160208201206000805b6014811015611db1576000838260208110611d6c57fe5b600185019460f860020a9290911a8202919091049150611d94908690601060ff851604612070565b611da8858480600101955083600f16612070565b50600101611d55565b5050505b60408051602a80825260608201909252906020820181803883390190505091507f300000000000000000000000000000000000000000000000000000000000000082600081518110611e0357fe5b6020010190600160f860020a031916908160001a9053507f780000000000000000000000000000000000000000000000000000000000000082600181518110611e4857fe5b6020010190600160f860020a031916908160001a90535060005b6028811015611eb757818181518110611e7757fe5b602001015160f860020a900460f860020a02838260020181518110611e9857fe5b6020010190600160f860020a031916908160001a905350600101611e62565b505092915050565b600080611ecf610be58888611387565b905060018186868660405160008152602001604052604051808581526020018460ff1660ff1681526020018381526020018281526020019450505050506020604051602081039080840390855afa158015611f2e573d6000803e3d6000fd5b5050604051601f19015198975050505050505050565b600454600160a060020a031681565b60006020819052908152604090205481565b60025462010000900460ff1681565b8160005b82811015612068576000858260208110611f8e57fe5b60f860020a91901a81020490507f3031323334353637383961626364656600000000000000000000000000000000601060ff80841682900416908110611fd057fe5b1a60f860020a02878480600101955081518110611fe957fe5b6020010190600160f860020a031916908160001a9053507f3031323334353637383961626364656600000000000000000000000000000000600f82166010811061202f57fe5b1a60f860020a0287848060010195508151811061204857fe5b6020010190600160f860020a031916908160001a90535050600101611f78565b505050505050565b600083838151811061207e57fe5b602001015160f860020a900460f860020a0290507f610000000000000000000000000000000000000000000000000000000000000081600160f860020a031916101580156120d0575060088260ff1610155b156121035780602060f860020a02188484815181106120eb57fe5b6020010190600160f860020a031916908160001a9053505b5050505056fe64696c75746532206576656e742064696420616c72656164792068617070656e2164696c757465332063616e2774206765742070726f63657373656420756e6c6573732064696c757465322068617320616c7265616479206265656e2070726f6365737365642e70726f7669646564206164647265737320646f6573206e6f74206861766520612062616c616e63652e64696c757465312063616e206f6e6c79206765742063616c6c6564206166746572207468652074726573686f6c642074696d657374616d7020676f7420726561636865642e64696c75746533206576656e742064696420616c72656164792068617070656e2164696c75746531206576656e742064696420616c72656164792068617070656e2164696c757465322063616e2774206765742070726f63657373656420756e6c6573732064696c757465312068617320616c7265616479206265656e2070726f6365737365642e54686572652077617320616c726561647920612062616c616e636520646566696e656420666f722074686973206f6c64206164647265737364696c757465322063616e206f6e6c79206765742063616c6c6564206166746572207468652074726573686f6c642074696d657374616d7020676f7420726561636865642e636c61696d696e6720706572696f642068617320616c7265616479207061737365642e426974636f696e2061646473206120636f6e7374616e74203420746f2074686520762076616c75652e2074686973207369676e6174757265207365656d7320746f20626520696e76616c69642e5369676e617475726520646f6573206e6f74206d6174636820666f72207468697320636c61696d696e672070726f6365647572652e64696c757465332063616e2774206765742070726f63657373656420756e6c6573732064696c757465312068617320616c7265616479206265656e2070726f6365737365642e64696c757465332063616e206f6e6c79206765742063616c6c6564206166746572207468652074726573686f6c642074696d657374616d7020676f7420726561636865642e546865726520697320616c726561647920612062616c616e636520646566696e656420666f722074686973206f6c642061646472657373a26469706673582212205552e6740ce1a5b8fcd010fca234c1536f53896bd669f4e11e8238e75bfdeb4e64736f6c63430006020033",
  "source": "pragma solidity >=0.6.2 <0.7.0;\n\ncontract ClaimContract {\n\n  enum AddressType { LegacyUncompressed, LegacyCompressed, SegwitUncompressed, SegwitCompressed }\n\n  event Claim(bytes20 indexed _from, address _to, uint amount, uint _nominator, uint _denominator);\n\n  bytes16 internal constant HEX_DIGITS = \"0123456789abcdef\";\n\n  /* Constants for preparing the claim message text */\n  uint8 internal constant ETH_ADDRESS_BYTE_LEN = 20;\n  uint8 internal constant ETH_ADDRESS_HEX_LEN = ETH_ADDRESS_BYTE_LEN * 2;\n  uint8 internal constant CLAIM_PARAM_HASH_BYTE_LEN = 12;\n  uint8 internal constant CLAIM_PARAM_HASH_HEX_LEN = CLAIM_PARAM_HASH_BYTE_LEN * 2;\n\n  uint8 internal constant BITCOIN_SIG_PREFIX_LEN = 24;\n  bytes24 internal constant BITCOIN_SIG_PREFIX_STR = \"Bitcoin Signed Message:\\n\";\n\n  uint8 internal constant DIAMOND_SIG_PREFIX_LEN = 24;\n  bytes24 internal constant DIAMOND_SIG_PREFIX_STR = \"Diamond Signed Message:\\n\";\n  \n\n  uint constant YEAR_IN_SECONDS = 31536000;\n  uint constant LEAP_YEAR_IN_SECONDS = 31622400;\n  uint constant DAY_IN_SECONDS = 86400;\n\n\n  mapping (bytes20 => uint256)  public balances;\n  mapping (bytes20 => uint256)  public diluted;\n\n  // tracks if dilution for 75% was executed\n  bool public dilution_s1_75_executed;\n\n  // tracks if dilution for 50% was executed\n  bool public dilution_s2_50_executed;\n\n  // tracks if dilution for 0% was executed\n  bool public dilution_s3_0_executed;\n\n  uint public deploymentTimestamp;\n\n  address payable public lateClaimBeneficorAddress;\n  \n  bytes prefixStr;\n  //address owner;\n\n  constructor(address payable _lateClaimBeneficorAddress, bytes memory _prefixStr)\n  public \n  {\n    //balances[\"\"] = 1000000000000;\n    deploymentTimestamp = block.timestamp;\n    lateClaimBeneficorAddress = _lateClaimBeneficorAddress;\n    prefixStr = _prefixStr;\n  }\n\n\n  function getPublicKeyFromBitcoinSignature(bytes32 hashValue, bytes32 r, bytes32 s, uint8 v)\n  public\n  pure\n  returns(address)\n  {\n    require(v >= 4, 'Bitcoin adds a constant 4 to the v value. this signature seems to be invalid.');\n    //#1: decode bitcoin signature.\n    //# get R, S, V and Hash of Signature.\n    //# do ecrecover on it.\n    //return \"todo: implement this magic!\";\n\n    return ecrecover(\n        hashValue,\n        v - 4, //bitcoin signature use v that is +4 see reddit comment https://www.reddit.com/r/ethereum/comments/3gmbkx/how_do_i_verify_a_bitcoinsigned_message_in_an/ctzopoz\n        r,\n        s\n    );\n  }\n\n    /// @dev returns the essential part of a Bitcoin-style address associated with an ECDSA public key\n    /// @param _publicKeyX X coordinate of the ECDSA public key\n    /// @param _publicKeyY Y coordinate of the ECDSA public key\n    /// @param _addressType Whether DMD is Legacy or Segwit address and if it was compressed\n    /// @return Raw parts of the Bitcoin Style address\n    function publicKeyToBitcoinAddress(\n        bytes32 _publicKeyX,\n        bytes32 _publicKeyY,\n        AddressType _addressType\n    ) public pure returns (bytes20)\n    {\n        bytes20 publicKey;\n        uint8 initialByte;\n        if(_addressType == AddressType.LegacyCompressed || _addressType == AddressType.SegwitCompressed)\n        {\n            //Hash the compressed format\n            initialByte = (uint256(_publicKeyY) & 1) == 0 ? 0x02 : 0x03;\n            publicKey = ripemd160(abi.encodePacked(sha256(abi.encodePacked(initialByte, _publicKeyX))));\n        }\n        else\n        {\n            //Hash the uncompressed format\n            initialByte = 0x04;\n            publicKey = ripemd160(abi.encodePacked(sha256(abi.encodePacked(initialByte, _publicKeyX, _publicKeyY))));\n        }\n\n        if(_addressType == AddressType.LegacyUncompressed || _addressType == AddressType.LegacyCompressed)\n        {\n            return publicKey;\n        }\n        else if(_addressType == AddressType.SegwitUncompressed || _addressType == AddressType.SegwitCompressed)\n        {\n            return ripemd160(abi.encodePacked(sha256(abi.encodePacked(hex\"0014\", publicKey))));\n        }\n    }\n\n\n    /// @dev Convert an uncompressed ECDSA public key into an Ethereum address\n    /// @param _publicKeyX X parameter of uncompressed ECDSA public key\n    /// @param _publicKeyY Y parameter of uncompressed ECDSA public key\n    /// @return Ethereum address generated from the ECDSA public key\n    function publicKeyToEthereumAddress(\n        bytes32 _publicKeyX,\n        bytes32 _publicKeyY\n    ) public pure returns (address)\n    {\n        bytes32 hash = keccak256(abi.encodePacked(_publicKeyX, _publicKeyY));\n        return address(uint160(uint256((hash))));\n    }\n\n    /// @dev Validate ECSDA signature was signed by the specified address\n    /// @param _hash Hash of signed data\n    /// @param _v v parameter of ECDSA signature\n    /// @param _r r parameter of ECDSA signature\n    /// @param _s s parameter of ECDSA signature\n    /// @param _address Ethereum address matching the signature\n    /// @return Boolean on if the signature is valid\n    function ValidateSignature(\n        bytes32 _hash,\n        uint8 _v,\n        bytes32 _r,\n        bytes32 _s,\n        address _address\n    ) public pure returns (bool)\n    {\n        return ecrecover(\n            _hash,\n            _v,\n            _r,\n            _s\n        ) == _address;\n    }\n\n\n    /// @dev Validate the ECDSA parameters of signed message\n    /// ECDSA public key associated with the specified Ethereum address\n    /// @param _addressClaiming Address within signed message\n    /// @param _publicKeyX X parameter of uncompressed ECDSA public key\n    /// @param _publicKeyY Y parameter of uncompressed ECDSA public key\n    /// @param _v v parameter of ECDSA signature\n    /// @param _r r parameter of ECDSA signature\n    /// @param _s s parameter of ECDSA signature\n    /// @return Boolean on if the signature is valid\n    function ECDSAVerify(\n        address _addressClaiming,\n        bytes32 _publicKeyX,\n        bytes32 _publicKeyY,\n        uint8 _v,\n        bytes32 _r,\n        bytes32 _s\n    ) public view returns (bool)\n    {\n        bytes memory addressAsHex = createClaimMessage(_addressClaiming, true);\n\n        bytes32 hHash = sha256(abi.encodePacked(sha256(abi.encodePacked(addressAsHex))));\n\n        return ValidateSignature(\n            hHash,\n            _v,\n            _r,\n            _s,\n            publicKeyToEthereumAddress(_publicKeyX, _publicKeyY)\n        );\n    }\n\n  function checkSignature(bytes32 _hash, bytes32 _r, bytes32 _s, uint8 _v)\n  public\n  pure\n  returns(address)\n  {\n    return ecrecover(\n      _hash,\n      _v,\n      _r,\n      _s\n      );\n  }\n\n  /**\n    * @dev PUBLIC FACING: Derive an Ethereum address from an ECDSA public key\n    * @param pubKeyX First  half of uncompressed ECDSA public key\n    * @param pubKeyY Second half of uncompressed ECDSA public key\n    * @return Derived Eth address\n    */\n  function pubKeyToEthAddress(bytes32 pubKeyX, bytes32 pubKeyY)\n      public\n      pure\n      returns (address)\n  {\n      return address(uint160(uint256(keccak256(abi.encodePacked(pubKeyX, pubKeyY)))));\n  }\n\n  /**\n  * @dev sha256(sha256(data))\n  * @param data Data to be hashed\n  * @return 32-byte hash\n  */\n  function calcHash256(bytes memory data)\n      public\n      pure\n      returns (bytes32)\n  {\n      // NOTE: https://github.com/axic/ethereum-bsm/blob/master/bsm.sol\n      // maybe encodePacked is not required ?!\n      return sha256(abi.encodePacked(sha256(data)));\n  }\n\n  function _hexStringFromData(bytes memory hexStr, bytes32 data, uint256 startOffset, uint256 dataLen)\n    private\n    pure\n  {\n      uint256 offset = startOffset;\n\n\n\n      for (uint256 i = 0; i < dataLen; i++) {\n          uint8 b = uint8(data[i]);\n\n          hexStr[offset++] = HEX_DIGITS[b >> 4];\n          hexStr[offset++] = HEX_DIGITS[b & 0x0f];\n      }\n  }\n\n    function _addressStringChecksumChar(bytes memory addrStr, uint256 offset, uint8 hashNybble)\n    private\n    pure\n    {\n        bytes1 ch = addrStr[offset];\n\n        if (ch >= \"a\" && hashNybble >= 8) {\n            addrStr[offset] = ch ^ 0x20;\n        }\n    }\n\n  /**\n  * @dev calculates the address string representation of the signed address.\n  * @param _addr address\n  * @param _includeAddrChecksum bool. should the addressChecksum be used for this caluclation.\n  * @return addrStr ethereum address(24 byte)\n  */\n  function calculateAddressString(address _addr, bool _includeAddrChecksum)\n    public\n    pure\n    returns (bytes memory addrStr)\n  {\n      bytes memory tmp = new bytes(ETH_ADDRESS_HEX_LEN);\n      _hexStringFromData(tmp, bytes32(bytes20(_addr)), 0, ETH_ADDRESS_BYTE_LEN);\n\n      if (_includeAddrChecksum) {\n          bytes32 addrStrHash = keccak256(tmp);\n\n          uint256 offset = 0;\n\n          for (uint256 i = 0; i < ETH_ADDRESS_BYTE_LEN; i++) {\n              uint8 b = uint8(addrStrHash[i]);\n\n              _addressStringChecksumChar(tmp, offset++, b >> 4);\n              _addressStringChecksumChar(tmp, offset++, b & 0x0f);\n          }\n      }\n\n      // the correct checksum is now in the tmp variable.\n      // we extend this by the Ethereum usual prefix 0x\n\n      addrStr = new bytes(ETH_ADDRESS_HEX_LEN + 2);\n\n      addrStr[0] = '0';\n      addrStr[1] = 'x';\n\n      for (uint256 i = 0; i < ETH_ADDRESS_HEX_LEN; i++) {\n          addrStr[i+2] = tmp[i];\n      }\n\n      return addrStr;\n  }\n\n  /**\n  * @dev returns the hash for the provided claim target address.\n  * @param _claimToAddr address target address for the claim.\n  * @param _claimAddrChecksum bool target address was signed using the Ethereum checksum (EIP-55)\n  * @return bytes32 Bitcoin hash of the claim message.\n  */\n  function createClaimMessage(address _claimToAddr, bool _claimAddrChecksum)\n        public\n        view\n        returns (bytes memory)\n    {\n        //TODO: pass this as an argument. evaluate in JS before includeAddrChecksum is used or not.\n        //now for testing, we assume Yes.\n\n        bytes memory addrStr = calculateAddressString(_claimToAddr, _claimAddrChecksum);\n\n        return abi.encodePacked(\n                BITCOIN_SIG_PREFIX_LEN,\n                BITCOIN_SIG_PREFIX_STR,\n                uint8(prefixStr.length) + ETH_ADDRESS_HEX_LEN + 2,\n                prefixStr,\n                addrStr\n            );\n    }\n\n      /**\n  * @dev returns the hash for the provided claim target address.\n  * @param _claimToAddr address target address for the claim.\n  * @param _claimAddrChecksum bool target address was signed using the Ethereum checksum (EIP-55)\n  * @return bytes32 Diamond hash of the claim message.\n  */\n  function createClaimMessageDMD(address _claimToAddr, bool _claimAddrChecksum)\n        public\n        view\n        returns (bytes memory)\n    {\n        //TODO: pass this as an argument. evaluate in JS before includeAddrChecksum is used or not.\n        //now for testing, we assume Yes.\n\n        bytes memory addrStr = calculateAddressString(_claimToAddr, _claimAddrChecksum);\n\n        return abi.encodePacked(\n                DIAMOND_SIG_PREFIX_LEN,\n                DIAMOND_SIG_PREFIX_STR,\n                prefixStr,\n                addrStr\n            );\n    }\n\n  /**\n  * @dev returns the hash for the provided claim target address.\n  * @param _claimToAddr address target address for the claim.\n  * @param _claimAddrChecksum bool target address was signed using the Ethereum checksum (EIP-55)\n  * @return bytes32 DMD style hash of the claim message.\n  */\n  function getHashForClaimMessage(\n    address _claimToAddr,\n    bool  _claimAddrChecksum)\n    public\n    view\n    returns (bytes32)\n  {\n    return calcHash256(\n      createClaimMessage(_claimToAddr, _claimAddrChecksum)\n    );\n  }\n\n  /**\n  * @dev returns the ethereum pseude address of a DMD signed message.\n  * @param _claimToAddr address target address for the claim.\n  * @param _claimAddrChecksum bool target address was signed using the Ethereum checksum (EIP-55)\n  * @param _v uint8 v component of the signature.\n  * @param _r bytes32 r component of the signature.\n  * @param _s bytes32 s component of the signautre.\n  * @return address DMD pseudo address of the signer. (what would be the address if the same Private Key would have been used on an DMDv3 than in DMDv4)\n  */\n  function getEthAddressFromSignature(\n    address _claimToAddr,\n    bool    _claimAddrChecksum,\n    uint8 _v,\n    bytes32 _r,\n    bytes32 _s\n  )\n  public\n  view\n  returns (address)\n  {\n    //require(_v >= 27 && _v <= 30, \"v invalid\");\n\n     /* Create and hash the claim message text */\n      bytes32 messageHash = calcHash256(\n          createClaimMessage(_claimToAddr, _claimAddrChecksum)\n      );\n\n    return ecrecover(messageHash, _v, _r, _s);\n  }\n\n  function claimMessageMatchesSignature(\n    address _claimToAddr,\n    bool    _claimAddrChecksum,\n    bytes32 _pubKeyX,\n    bytes32 _pubKeyY,\n    uint8 _v,\n    bytes32 _r,\n    bytes32 _s\n  )\n    public\n    view\n    returns (bool)\n  {\n      require(_v >= 27 && _v <= 30, \"v invalid\");\n\n      /*\n          ecrecover() returns an Eth address rather than a public key, so\n          we must do the same to compare.\n      */\n      address pubKeyEthAddr = pubKeyToEthAddress(_pubKeyX, _pubKeyY);\n\n      //we need to check if X and Y corresponds to R and S.\n\n      /* Create and hash the claim message text */\n      bytes32 messageHash = getHashForClaimMessage(_claimToAddr, _claimAddrChecksum);\n\n      /* Verify the public key */\n      return ecrecover(messageHash, _v, _r, _s) == pubKeyEthAddr;\n  }\n\n  function getDilutionTimestamp1()\n  public\n  view\n  returns (uint256)\n  {\n    return deploymentTimestamp + (DAY_IN_SECONDS * 2 * 31) + DAY_IN_SECONDS * 30;\n  }\n\n\n  function getDilutionTimestamp2()\n  public\n  view\n  returns (uint256)\n  {\n    return deploymentTimestamp + (DAY_IN_SECONDS * 3 * 31) + (DAY_IN_SECONDS * 3 * 30);\n  }\n\n\n  function getDilutionTimestamp3()\n  public\n  view\n  returns (uint256)\n  {\n    return deploymentTimestamp + (YEAR_IN_SECONDS * 4) + LEAP_YEAR_IN_SECONDS;\n  }\n\n   /**\n  * @dev dilutes the entitlement after a certain time passed away and sends it to the beneficor (reinsert pot)\n  * @return amount of DMD that got send to the beneficor.\n  */\n  function dilute1()\n  public\n  returns (uint)\n  {\n    require(block.timestamp > getDilutionTimestamp1(), \"dilute1 can only get called after the treshold timestamp got reached.\");\n    require(dilution_s1_75_executed == false, \"dilute1 event did already happen!\");\n\n    dilution_s1_75_executed = true;\n    // in dilute 1: after 3 months 25% of the total coins get diluted.\n\n    uint totalBalance = (payable(address(this))).balance;\n    uint dilutionBalance = totalBalance / 4;\n    lateClaimBeneficorAddress.transfer(dilutionBalance);\n    return dilutionBalance;\n  }\n\n  /**\n  * @dev dilutes the entitlement after a certain time passed away and sends it to the beneficor (reinsert pot)\n  * @return amount of DMD that got send to the beneficor.\n  */\n  function dilute2()\n  public\n  returns (uint)\n  {\n    require(block.timestamp > getDilutionTimestamp2(), \"dilute2 can only get called after the treshold timestamp got reached.\");\n    require(dilution_s1_75_executed == true, \"dilute2 can't get processed unless dilute1 has already been processed.\");\n    require(dilution_s2_50_executed == false, \"dilute2 event did already happen!\");\n\n    dilution_s2_50_executed = true;\n    // in dilute 1: after 3 months 25% of the total coins get diluted.\n\n    uint totalBalance = (payable(address(this))).balance;\n    \n    // during dilute2, \n    // 25% from dilute1 are already counted away from totalBalance.\n    // means 3/4 of the value is still there and we need to get it to 2/4.\n    // we can do this by dilluting another 1 / 3.\n\n    uint dilutionBalance = totalBalance / 3;\n    lateClaimBeneficorAddress.transfer(dilutionBalance);\n    return dilutionBalance;\n  }\n\n   /**\n  * @dev dilutes the entitlement after a certain time passed away and sends it to the beneficor (reinsert pot)\n  * @return amount of DMD that got send to the beneficor.\n  */\n  function dilute3()\n  public\n  returns (uint)\n  {\n    require(block.timestamp > getDilutionTimestamp3(), \"dilute3 can only get called after the treshold timestamp got reached.\");\n    require(dilution_s1_75_executed == true, \"dilute3 can't get processed unless dilute1 has already been processed.\");\n    require(dilution_s2_50_executed == true, \"dilute3 can't get processed unless dilute2 has already been processed.\");\n    require(dilution_s3_0_executed == false, \"dilute3 event did already happen!\");\n\n    dilution_s1_75_executed = true;\n    // in dilute 1: after 3 months 25% of the total coins get diluted.\n\n    uint totalBalance = (payable(address(this))).balance;\n    \n    // 50% got already diluted. this is the last phase, we dilute the rest.\n    lateClaimBeneficorAddress.transfer(totalBalance);\n    return totalBalance;\n  }\n\n  function getCurrentDilutedClaimFactor()\n  public\n  view\n  returns (uint256 nominator, uint256 denominator)\n  {\n      if (!dilution_s1_75_executed)\n      {\n        return (1, 1);\n      }\n      else if (!dilution_s2_50_executed)\n      {\n        return (3, 4);\n      }\n      else if (!dilution_s3_0_executed)\n      {\n        return (1, 2);\n      }\n      else\n      {\n        return (0, 1);\n      }\n  }\n\n//   function transferDilutedFundsToBeneficor()\n//   public\n//   {\n//   }\n\n  \n\n  function addBalance(bytes20 oldAddress)\n  payable\n  public\n  {\n    require(balances[oldAddress] == 0, \"There is already a balance defined for this old address\");\n    require(diluted[oldAddress] == 0, \"There was already a balance defined for this old address\");\n    balances[oldAddress] = msg.value;\n    // allOldAdresses.push(oldAddress);\n  }\n\n  function claim(\n    address payable _targetAdress,\n    bool    _claimAddrChecksum,\n    bytes32 _pubKeyX,\n    bytes32 _pubKeyY,\n    uint8 _v,\n    bytes32 _r,\n    bytes32 _s\n  )\n  public\n  {\n    //retrieve the oldAddress out of public and private key.\n    bytes20 oldAddress = publicKeyToBitcoinAddress(_pubKeyX, _pubKeyY, AddressType.LegacyCompressed);\n\n    //if already claimed, it just returns.\n    uint256 currentBalance = balances[oldAddress];\n    require(currentBalance > 0, 'provided address does not have a balance.');\n\n    // verify if the signature matches to the provided pubKey here.\n    require(claimMessageMatchesSignature(\n        _targetAdress,\n        _claimAddrChecksum,\n        _pubKeyX,\n        _pubKeyY,\n        _v,\n        _r,\n        _s),\n      'Signature does not match for this claiming procedure.');\n\n    (uint256 nominator, uint256 denominator) = getCurrentDilutedClaimFactor();\n\n    // the nominator is 0 if the claim period passed.\n    require(nominator > 0, 'claiming period has already passed.');\n\n    uint256 claimBalance = (currentBalance * nominator) / denominator;\n    \n    // remember that the funds are going to get claimed, hard protection about reentrancy attacks.\n    balances[oldAddress] = 0;\n    _targetAdress.transfer(claimBalance);\n\n    emit Claim(oldAddress, _targetAdress, claimBalance, nominator, denominator);\n  }\n\n}",
  "sourcePath": "/home/sn/dmd/dmd-meta/dmdv4migration/contracts/contracts/ClaimContract.sol",
  "compiler": {
    "name": "solc",
    "version": "0.6.2+commit.bacdbe57.Emscripten.clang"
  },
  "schemaVersion": "3.3.2",
  "updatedAt": "2020-12-11T21:04:54.048Z",
  "devdoc": {
    "methods": {
      "ECDSAVerify(address,bytes32,bytes32,uint8,bytes32,bytes32)": {
        "details": "Validate the ECDSA parameters of signed message ECDSA public key associated with the specified Ethereum address",
        "params": {
          "_addressClaiming": "Address within signed message",
          "_publicKeyX": "X parameter of uncompressed ECDSA public key",
          "_publicKeyY": "Y parameter of uncompressed ECDSA public key",
          "_r": "r parameter of ECDSA signature",
          "_s": "s parameter of ECDSA signature",
          "_v": "v parameter of ECDSA signature"
        },
        "returns": {
          "_0": "Boolean on if the signature is valid"
        }
      },
      "ValidateSignature(bytes32,uint8,bytes32,bytes32,address)": {
        "details": "Validate ECSDA signature was signed by the specified address",
        "params": {
          "_address": "Ethereum address matching the signature",
          "_hash": "Hash of signed data",
          "_r": "r parameter of ECDSA signature",
          "_s": "s parameter of ECDSA signature",
          "_v": "v parameter of ECDSA signature"
        },
        "returns": {
          "_0": "Boolean on if the signature is valid"
        }
      },
      "calcHash256(bytes)": {
        "details": "sha256(sha256(data))",
        "params": {
          "data": "Data to be hashed"
        },
        "returns": {
          "_0": "32-byte hash"
        }
      },
      "calculateAddressString(address,bool)": {
        "details": "calculates the address string representation of the signed address.",
        "params": {
          "_addr": "address",
          "_includeAddrChecksum": "bool. should the addressChecksum be used for this caluclation."
        },
        "returns": {
          "addrStr": "ethereum address(24 byte)"
        }
      },
      "createClaimMessage(address,bool)": {
        "details": "returns the hash for the provided claim target address.",
        "params": {
          "_claimAddrChecksum": "bool target address was signed using the Ethereum checksum (EIP-55)",
          "_claimToAddr": "address target address for the claim."
        },
        "returns": {
          "_0": "bytes32 Bitcoin hash of the claim message."
        }
      },
      "createClaimMessageDMD(address,bool)": {
        "details": "returns the hash for the provided claim target address.",
        "params": {
          "_claimAddrChecksum": "bool target address was signed using the Ethereum checksum (EIP-55)",
          "_claimToAddr": "address target address for the claim."
        },
        "returns": {
          "_0": "bytes32 Diamond hash of the claim message."
        }
      },
      "dilute1()": {
        "details": "dilutes the entitlement after a certain time passed away and sends it to the beneficor (reinsert pot)",
        "returns": {
          "_0": "amount of DMD that got send to the beneficor."
        }
      },
      "dilute2()": {
        "details": "dilutes the entitlement after a certain time passed away and sends it to the beneficor (reinsert pot)",
        "returns": {
          "_0": "amount of DMD that got send to the beneficor."
        }
      },
      "dilute3()": {
        "details": "dilutes the entitlement after a certain time passed away and sends it to the beneficor (reinsert pot)",
        "returns": {
          "_0": "amount of DMD that got send to the beneficor."
        }
      },
      "getEthAddressFromSignature(address,bool,uint8,bytes32,bytes32)": {
        "details": "returns the ethereum pseude address of a DMD signed message.",
        "params": {
          "_claimAddrChecksum": "bool target address was signed using the Ethereum checksum (EIP-55)",
          "_claimToAddr": "address target address for the claim.",
          "_r": "bytes32 r component of the signature.",
          "_s": "bytes32 s component of the signautre.",
          "_v": "uint8 v component of the signature."
        },
        "returns": {
          "_0": "address DMD pseudo address of the signer. (what would be the address if the same Private Key would have been used on an DMDv3 than in DMDv4)"
        }
      },
      "getHashForClaimMessage(address,bool)": {
        "details": "returns the hash for the provided claim target address.",
        "params": {
          "_claimAddrChecksum": "bool target address was signed using the Ethereum checksum (EIP-55)",
          "_claimToAddr": "address target address for the claim."
        },
        "returns": {
          "_0": "bytes32 DMD style hash of the claim message."
        }
      },
      "pubKeyToEthAddress(bytes32,bytes32)": {
        "details": "PUBLIC FACING: Derive an Ethereum address from an ECDSA public key",
        "params": {
          "pubKeyX": "First  half of uncompressed ECDSA public key",
          "pubKeyY": "Second half of uncompressed ECDSA public key"
        },
        "returns": {
          "_0": "Derived Eth address"
        }
      },
      "publicKeyToBitcoinAddress(bytes32,bytes32,uint8)": {
        "details": "returns the essential part of a Bitcoin-style address associated with an ECDSA public key",
        "params": {
          "_addressType": "Whether DMD is Legacy or Segwit address and if it was compressed",
          "_publicKeyX": "X coordinate of the ECDSA public key",
          "_publicKeyY": "Y coordinate of the ECDSA public key"
        },
        "returns": {
          "_0": "Raw parts of the Bitcoin Style address"
        }
      },
      "publicKeyToEthereumAddress(bytes32,bytes32)": {
        "details": "Convert an uncompressed ECDSA public key into an Ethereum address",
        "params": {
          "_publicKeyX": "X parameter of uncompressed ECDSA public key",
          "_publicKeyY": "Y parameter of uncompressed ECDSA public key"
        },
        "returns": {
          "_0": "Ethereum address generated from the ECDSA public key"
        }
      }
    }
  },
  "userdoc": {
    "methods": {}
  }
}