{
  "contractName": "ClaimContract",
  "abi": [
    {
      "inputs": [],
      "stateMutability": "nonpayable",
      "type": "constructor"
    },
    {
      "inputs": [
        {
          "internalType": "string",
          "name": "",
          "type": "string"
        }
      ],
      "name": "balances",
      "outputs": [
        {
          "internalType": "uint256",
          "name": "",
          "type": "uint256"
        }
      ],
      "stateMutability": "view",
      "type": "function",
      "constant": true
    },
    {
      "inputs": [],
      "name": "isValid",
      "outputs": [
        {
          "internalType": "bool",
          "name": "",
          "type": "bool"
        }
      ],
      "stateMutability": "pure",
      "type": "function",
      "constant": true
    },
    {
      "inputs": [],
      "name": "testECRecover",
      "outputs": [
        {
          "internalType": "address",
          "name": "",
          "type": "address"
        }
      ],
      "stateMutability": "pure",
      "type": "function",
      "constant": true
    }
  ],
  "bytecode": "0x608060405234801561001057600080fd5b50610323806100206000396000f3fe608060405234801561001057600080fd5b506004361061005d577c010000000000000000000000000000000000000000000000000000000060003504632221688481146100625780632afd97a414610093578063bb5d40eb1461014b575b600080fd5b61006a610167565b6040805173ffffffffffffffffffffffffffffffffffffffff9092168252519081900360200190f35b610139600480360360208110156100a957600080fd5b8101906020810181356401000000008111156100c457600080fd5b8201836020820111156100d657600080fd5b803590602001918460018302840111640100000000831117156100f857600080fd5b91908080601f0160208091040260200160405190810160405280939291908181526020018383808284376000920191909152509295506101f1945050505050565b60408051918252519081900360200190f35b61015361020e565b604080519115158252519081900360200190f35b60006001610173610252565b61017b610276565b610183610288565b61018b6102ac565b60405160008152602001604052604051808581526020018460ff1660ff1681526020018381526020018281526020019450505050506020604051602081039080840390855afa1580156101e2573d6000803e3d6000fd5b50505060206040510351905090565b805160208183018101805160008252928201919093012091525481565b6000610218610167565b73ffffffffffffffffffffffffffffffffffffffff166102366102d0565b73ffffffffffffffffffffffffffffffffffffffff1614905090565b7f58e2f335bbd6f2b0da93eae19342e7309654fbfeed9a214a1e5d835ac09cc22690565b600060046102826102e8565b03905090565b7f0b7effb7704f726bc64139753dc2d0a3929af2309dd2930ad7a722f5b214cf6e90565b7f73a461ce418e9e483f13a98c0cba5cddf07f647ea1d6ba2e88d494dfcd411c9c90565b7331031df1d95a84fc21e80922ccdf83971f3e755b90565b60209056fea2646970667358221220bfc6f462615316de5561247d74d8eddbe021974bc7063f02829ebfc6a798935b64736f6c63430006020033",
  "source": "pragma solidity >=0.6.2 <0.7.0;\n\ncontract ClaimContract {\n\n  mapping (string => uint256)  public balances;\n\n  constructor() public {\n    //balances[\"\"] = 1000000000000;\n  }\n\n\n  // function priv() returns(bytes32) {\n  //     return 0xeab5f6141b4c66877f178f8b87c804d380af6d5404edc249d2c388dbcc542977;\n  // }\n\n  // Verify Signature implementation: \n  // https://github.com/bertani/poolicy/commits/master/verifysignature.sol\n\n  function r()\n  internal\n  pure\n  returns(bytes32)\n  {\n      return 0x0b7effb7704f726bc64139753dc2d0a3929af2309dd2930ad7a722f5b214cf6e;\n  }\n\n  function s()\n  internal\n  pure\n  returns(bytes32)\n  {\n      return 0x73a461ce418e9e483f13a98c0cba5cddf07f647ea1d6ba2e88d494dfcd411c9c;\n  }\n\n  function v()\n  internal\n  pure\n  returns(uint8) {\n      return 32;  //equal to 0x20\n  }\n\n  function v2()\n  internal\n  pure\n  returns(uint8)\n  {\n      return v()-4;   //bitcoin signature use v that is +4 see reddit comment https://www.reddit.com/r/ethereum/comments/3gmbkx/how_do_i_verify_a_bitcoinsigned_message_in_an/ctzopoz\n  }\n\n  function hashToSign()\n  internal\n  pure\n  returns(bytes32)\n  {\n      return 0x58e2f335bbd6f2b0da93eae19342e7309654fbfeed9a214a1e5d835ac09cc226;\n  }\n\n  function expectedAddress()\n  internal\n  pure\n  returns(address)\n  {\n      return 0x31031dF1d95a84fC21E80922CcdF83971F3e755b;\n  }\n\n  function isValid()\n  public\n  pure\n  returns(bool) {   //this returns true!!!\n      return expectedAddress()==testECRecover();\n  }\n\n  function testECRecover()\n  public\n  pure\n  returns(address) {\n      return ecrecover(\n          hashToSign(),\n          v2(),\n          r(),\n          s()\n          );\n  }\n\n}\n",
  "sourcePath": "/home/sn/github/dmdv4migration/contracts/contracts/ClaimContract.sol",
  "compiler": {
    "name": "solc",
    "version": "0.6.2+commit.bacdbe57.Emscripten.clang"
  },
  "schemaVersion": "3.0.23",
  "updatedAt": "2020-02-12T17:15:24.013Z",
  "networkType": "ethereum",
  "devdoc": {
    "methods": {}
  },
  "userdoc": {
    "methods": {}
  }
}