{
  "contractName": "ClaimContract",
  "abi": [
    {
      "inputs": [
        {
          "internalType": "address payable",
          "name": "_lateClaimBeneficorAddress",
          "type": "address"
        },
        {
          "internalType": "bytes",
          "name": "_prefixStr",
          "type": "bytes"
        }
      ],
      "stateMutability": "nonpayable",
      "type": "constructor"
    },
    {
      "inputs": [
        {
          "internalType": "bytes20",
          "name": "",
          "type": "bytes20"
        }
      ],
      "name": "balances",
      "outputs": [
        {
          "internalType": "uint256",
          "name": "",
          "type": "uint256"
        }
      ],
      "stateMutability": "view",
      "type": "function"
    },
    {
      "inputs": [],
      "name": "deploymentTimestamp",
      "outputs": [
        {
          "internalType": "uint256",
          "name": "",
          "type": "uint256"
        }
      ],
      "stateMutability": "view",
      "type": "function"
    },
    {
      "inputs": [
        {
          "internalType": "bytes20",
          "name": "",
          "type": "bytes20"
        }
      ],
      "name": "diluted",
      "outputs": [
        {
          "internalType": "uint256",
          "name": "",
          "type": "uint256"
        }
      ],
      "stateMutability": "view",
      "type": "function"
    },
    {
      "inputs": [],
      "name": "dilution_s1_75_executed",
      "outputs": [
        {
          "internalType": "bool",
          "name": "",
          "type": "bool"
        }
      ],
      "stateMutability": "view",
      "type": "function"
    },
    {
      "inputs": [],
      "name": "dilution_s2_50_executed",
      "outputs": [
        {
          "internalType": "bool",
          "name": "",
          "type": "bool"
        }
      ],
      "stateMutability": "view",
      "type": "function"
    },
    {
      "inputs": [],
      "name": "dilution_s3_0_executed",
      "outputs": [
        {
          "internalType": "bool",
          "name": "",
          "type": "bool"
        }
      ],
      "stateMutability": "view",
      "type": "function"
    },
    {
      "inputs": [],
      "name": "lateClaimBeneficorAddress",
      "outputs": [
        {
          "internalType": "address payable",
          "name": "",
          "type": "address"
        }
      ],
      "stateMutability": "view",
      "type": "function"
    },
    {
      "inputs": [
        {
          "internalType": "bytes32",
          "name": "hashValue",
          "type": "bytes32"
        },
        {
          "internalType": "bytes32",
          "name": "r",
          "type": "bytes32"
        },
        {
          "internalType": "bytes32",
          "name": "s",
          "type": "bytes32"
        },
        {
          "internalType": "uint8",
          "name": "v",
          "type": "uint8"
        }
      ],
      "name": "getPublicKeyFromBitcoinSignature",
      "outputs": [
        {
          "internalType": "address",
          "name": "",
          "type": "address"
        }
      ],
      "stateMutability": "pure",
      "type": "function"
    },
    {
      "inputs": [
        {
          "internalType": "bytes32",
          "name": "a_publicKeyX",
          "type": "bytes32"
        },
        {
          "internalType": "bytes32",
          "name": "a_publicKeyY",
          "type": "bytes32"
        },
        {
          "internalType": "enum ClaimContract.AddressType",
          "name": "a_nAddressType",
          "type": "uint8"
        }
      ],
      "name": "PublicKeyToBitcoinAddress",
      "outputs": [
        {
          "internalType": "bytes20",
          "name": "",
          "type": "bytes20"
        }
      ],
      "stateMutability": "pure",
      "type": "function"
    },
    {
      "inputs": [
        {
          "internalType": "bytes32",
          "name": "a_publicKeyX",
          "type": "bytes32"
        },
        {
          "internalType": "bytes32",
          "name": "a_publicKeyY",
          "type": "bytes32"
        }
      ],
      "name": "PublicKeyToEthereumAddress",
      "outputs": [
        {
          "internalType": "address",
          "name": "",
          "type": "address"
        }
      ],
      "stateMutability": "pure",
      "type": "function"
    },
    {
      "inputs": [
        {
          "internalType": "bytes32",
          "name": "_hash",
          "type": "bytes32"
        },
        {
          "internalType": "uint8",
          "name": "_v",
          "type": "uint8"
        },
        {
          "internalType": "bytes32",
          "name": "_r",
          "type": "bytes32"
        },
        {
          "internalType": "bytes32",
          "name": "_s",
          "type": "bytes32"
        },
        {
          "internalType": "address",
          "name": "_address",
          "type": "address"
        }
      ],
      "name": "ValidateSignature",
      "outputs": [
        {
          "internalType": "bool",
          "name": "",
          "type": "bool"
        }
      ],
      "stateMutability": "pure",
      "type": "function"
    },
    {
      "inputs": [
        {
          "internalType": "address",
          "name": "_addressClaiming",
          "type": "address"
        },
        {
          "internalType": "bytes32",
          "name": "_publicKeyX",
          "type": "bytes32"
        },
        {
          "internalType": "bytes32",
          "name": "_publicKeyY",
          "type": "bytes32"
        },
        {
          "internalType": "uint8",
          "name": "_v",
          "type": "uint8"
        },
        {
          "internalType": "bytes32",
          "name": "_r",
          "type": "bytes32"
        },
        {
          "internalType": "bytes32",
          "name": "_s",
          "type": "bytes32"
        }
      ],
      "name": "ECDSAVerify",
      "outputs": [
        {
          "internalType": "bool",
          "name": "",
          "type": "bool"
        }
      ],
      "stateMutability": "view",
      "type": "function"
    },
    {
      "inputs": [
        {
          "internalType": "bytes32",
          "name": "_hash",
          "type": "bytes32"
        },
        {
          "internalType": "bytes32",
          "name": "_r",
          "type": "bytes32"
        },
        {
          "internalType": "bytes32",
          "name": "_s",
          "type": "bytes32"
        },
        {
          "internalType": "uint8",
          "name": "_v",
          "type": "uint8"
        }
      ],
      "name": "checkSignature",
      "outputs": [
        {
          "internalType": "address",
          "name": "",
          "type": "address"
        }
      ],
      "stateMutability": "pure",
      "type": "function"
    },
    {
      "inputs": [
        {
          "internalType": "bytes32",
          "name": "pubKeyX",
          "type": "bytes32"
        },
        {
          "internalType": "bytes32",
          "name": "pubKeyY",
          "type": "bytes32"
        }
      ],
      "name": "pubKeyToEthAddress",
      "outputs": [
        {
          "internalType": "address",
          "name": "",
          "type": "address"
        }
      ],
      "stateMutability": "pure",
      "type": "function"
    },
    {
      "inputs": [
        {
          "internalType": "bytes",
          "name": "data",
          "type": "bytes"
        }
      ],
      "name": "calcHash256",
      "outputs": [
        {
          "internalType": "bytes32",
          "name": "",
          "type": "bytes32"
        }
      ],
      "stateMutability": "pure",
      "type": "function"
    },
    {
      "inputs": [
        {
          "internalType": "address",
          "name": "_addr",
          "type": "address"
        },
        {
          "internalType": "bool",
          "name": "_includeAddrChecksum",
          "type": "bool"
        }
      ],
      "name": "calculateAddressString",
      "outputs": [
        {
          "internalType": "bytes",
          "name": "addrStr",
          "type": "bytes"
        }
      ],
      "stateMutability": "pure",
      "type": "function"
    },
    {
      "inputs": [
        {
          "internalType": "address",
          "name": "_claimToAddr",
          "type": "address"
        },
        {
          "internalType": "bool",
          "name": "_claimAddrChecksum",
          "type": "bool"
        }
      ],
      "name": "createClaimMessage",
      "outputs": [
        {
          "internalType": "bytes",
          "name": "",
          "type": "bytes"
        }
      ],
      "stateMutability": "view",
      "type": "function"
    },
    {
      "inputs": [
        {
          "internalType": "address",
          "name": "_claimToAddr",
          "type": "address"
        },
        {
          "internalType": "bool",
          "name": "_claimAddrChecksum",
          "type": "bool"
        }
      ],
      "name": "createClaimMessageDMD",
      "outputs": [
        {
          "internalType": "bytes",
          "name": "",
          "type": "bytes"
        }
      ],
      "stateMutability": "view",
      "type": "function"
    },
    {
      "inputs": [
        {
          "internalType": "address",
          "name": "_claimToAddr",
          "type": "address"
        },
        {
          "internalType": "bool",
          "name": "_claimAddrChecksum",
          "type": "bool"
        },
        {
          "internalType": "bool",
          "name": "_bitcoinCompatibility",
          "type": "bool"
        }
      ],
      "name": "getHashForClaimMessage",
      "outputs": [
        {
          "internalType": "bytes32",
          "name": "",
          "type": "bytes32"
        }
      ],
      "stateMutability": "view",
      "type": "function"
    },
    {
      "inputs": [
        {
          "internalType": "address",
          "name": "_claimToAddr",
          "type": "address"
        },
        {
          "internalType": "bool",
          "name": "_claimAddrChecksum",
          "type": "bool"
        },
        {
          "internalType": "uint8",
          "name": "_v",
          "type": "uint8"
        },
        {
          "internalType": "bytes32",
          "name": "_r",
          "type": "bytes32"
        },
        {
          "internalType": "bytes32",
          "name": "_s",
          "type": "bytes32"
        }
      ],
      "name": "getEthAddressFromSignature",
      "outputs": [
        {
          "internalType": "address",
          "name": "",
          "type": "address"
        }
      ],
      "stateMutability": "view",
      "type": "function"
    },
    {
      "inputs": [
        {
          "internalType": "address",
          "name": "_claimToAddr",
          "type": "address"
        },
        {
          "internalType": "bool",
          "name": "_claimAddrChecksum",
          "type": "bool"
        },
        {
          "internalType": "bytes32",
          "name": "_pubKeyX",
          "type": "bytes32"
        },
        {
          "internalType": "bytes32",
          "name": "_pubKeyY",
          "type": "bytes32"
        },
        {
          "internalType": "uint8",
          "name": "_v",
          "type": "uint8"
        },
        {
          "internalType": "bytes32",
          "name": "_r",
          "type": "bytes32"
        },
        {
          "internalType": "bytes32",
          "name": "_s",
          "type": "bytes32"
        },
        {
          "internalType": "bool",
          "name": "_bitcoinCompatibilityMode",
          "type": "bool"
        }
      ],
      "name": "claimMessageMatchesSignature",
      "outputs": [
        {
          "internalType": "bool",
          "name": "",
          "type": "bool"
        }
      ],
      "stateMutability": "view",
      "type": "function"
    },
    {
      "inputs": [],
      "name": "getDilutionTimestamp1",
      "outputs": [
        {
          "internalType": "uint256",
          "name": "",
          "type": "uint256"
        }
      ],
      "stateMutability": "view",
      "type": "function"
    },
    {
      "inputs": [],
      "name": "getDilutionTimestamp2",
      "outputs": [
        {
          "internalType": "uint256",
          "name": "",
          "type": "uint256"
        }
      ],
      "stateMutability": "view",
      "type": "function"
    },
    {
      "inputs": [],
      "name": "getDilutionTimestamp3",
      "outputs": [
        {
          "internalType": "uint256",
          "name": "",
          "type": "uint256"
        }
      ],
      "stateMutability": "view",
      "type": "function"
    },
    {
      "inputs": [],
      "name": "dilute1",
      "outputs": [
        {
          "internalType": "uint256",
          "name": "",
          "type": "uint256"
        }
      ],
      "stateMutability": "nonpayable",
      "type": "function"
    },
    {
      "inputs": [],
      "name": "dilute2",
      "outputs": [
        {
          "internalType": "uint256",
          "name": "",
          "type": "uint256"
        }
      ],
      "stateMutability": "nonpayable",
      "type": "function"
    },
    {
      "inputs": [],
      "name": "dilute3",
      "outputs": [
        {
          "internalType": "uint256",
          "name": "",
          "type": "uint256"
        }
      ],
      "stateMutability": "nonpayable",
      "type": "function"
    },
    {
      "inputs": [],
      "name": "getCurrentDilutedClaimFactor",
      "outputs": [
        {
          "internalType": "uint256",
          "name": "nominator",
          "type": "uint256"
        },
        {
          "internalType": "uint256",
          "name": "denominator",
          "type": "uint256"
        }
      ],
      "stateMutability": "view",
      "type": "function"
    },
    {
      "inputs": [
        {
          "internalType": "bytes20",
          "name": "oldAddress",
          "type": "bytes20"
        }
      ],
      "name": "addBalance",
      "outputs": [],
      "stateMutability": "payable",
      "type": "function"
    },
    {
      "inputs": [
        {
          "internalType": "bytes20",
          "name": "_oldAddress",
          "type": "bytes20"
        },
        {
          "internalType": "address payable",
          "name": "_targetAdress",
          "type": "address"
        },
        {
          "internalType": "bool",
          "name": "_claimAddrChecksum",
          "type": "bool"
        },
        {
          "internalType": "bytes32",
          "name": "_pubKeyX",
          "type": "bytes32"
        },
        {
          "internalType": "bytes32",
          "name": "_pubKeyY",
          "type": "bytes32"
        },
        {
          "internalType": "uint8",
          "name": "_v",
          "type": "uint8"
        },
        {
          "internalType": "bytes32",
          "name": "_r",
          "type": "bytes32"
        },
        {
          "internalType": "bytes32",
          "name": "_s",
          "type": "bytes32"
        },
        {
          "internalType": "bool",
          "name": "_bitcoinCompatibilityMode",
          "type": "bool"
        }
      ],
      "name": "claim",
      "outputs": [],
      "stateMutability": "nonpayable",
      "type": "function"
    }
  ],
  "bytecode": "0x60806040523480156200001157600080fd5b506040516200259138038062002591833981810160405260408110156200003757600080fd5b8151602083018051604051929492938301929190846401000000008211156200005f57600080fd5b9083019060208201858111156200007557600080fd5b82516401000000008111828201881017156200009057600080fd5b82525081516020918201929091019080838360005b83811015620000bf578181015183820152602001620000a5565b50505050905090810190601f168015620000ed5780820380516001836020036101000a031916815260200191505b506040525050426003555060048054600160a060020a031916600160a060020a03841617905580516200012890600590602084019062000131565b505050620001d6565b828054600181600116156101000203166002900490600052602060002090601f016020900481019282601f106200017457805160ff1916838001178555620001a4565b82800160010185558215620001a4579182015b82811115620001a457825182559160200191906001019062000187565b50620001b2929150620001b6565b5090565b620001d391905b80821115620001b25760008155600101620001bd565b90565b6123ab80620001e66000396000f3fe6080604052600436106101ea576000357c0100000000000000000000000000000000000000000000000000000000900480637138220911610114578063b28297f8116100b2578063eaa2b1cd11610081578063eaa2b1cd1461082a578063eda0121f1461087a578063f2113dc91461088f578063fa4ee75a146108c8576101ea565b8063b28297f81461076a578063bfc12c051461077f578063e180dea914610794578063e581528a146107cf576101ea565b806384f0145e116100ee57806384f0145e146106b757806392867f38146106cc5780639365fe0b1461071a578063a9880f321461072f576101ea565b8063713822091461054a5780637b83755e146105895780637b99c36d14610604576101ea565b8063363d743c1161018c5780634e2ac9bf1161015b5780634e2ac9bf146104f65780635b33bef31461050b57806364e7c23a146105205780636a01acad14610535576101ea565b8063363d743c146103eb57806338b44e0014610450578063433cc2691461047e578063463bf9b0146104bd576101ea565b80631b17d9a8116101c85780631b17d9a8146103535780632e5b74581461036857806330c1a785146101ef57806335d7d84014610396576101ea565b806301f015e5146101ef5780630e6f41541461023b57806319e93d07146102a3575b600080fd5b3480156101fb57600080fd5b5061021f6004803603604081101561021257600080fd5b50803590602001356108dd565b60408051600160a060020a039092168252519081900360200190f35b34801561024757600080fd5b5061028f600480360360c081101561025e57600080fd5b50600160a060020a038135169060208101359060408101359060ff6060820135169060808101359060a00135610909565b604080519115158252519081900360200190f35b3480156102af57600080fd5b506102de600480360360408110156102c657600080fd5b50600160a060020a0381351690602001351515610ad0565b6040805160208082528351818301528351919283929083019185019080838360005b83811015610318578181015183820152602001610300565b50505050905090810190601f1680156103455780820380516001836020036101000a031916815260200191505b509250505060405180910390f35b34801561035f57600080fd5b5061028f610bfd565b34801561037457600080fd5b5061037d610c06565b6040805192835260208301919091528051918290030190f35b3480156103a257600080fd5b506103d9600480360360608110156103b957600080fd5b50600160a060020a03813516906020810135151590604001351515610c63565b60408051918252519081900360200190f35b3480156103f757600080fd5b5061028f600480360361010081101561040f57600080fd5b50600160a060020a0381351690602081013515159060408101359060608101359060ff6080820135169060a08101359060c08101359060e001351515610c98565b61047c6004803603602081101561046657600080fd5b50356bffffffffffffffffffffffff1916610dae565b005b34801561048a57600080fd5b5061021f600480360360808110156104a157600080fd5b508035906020810135906040810135906060013560ff16610e8c565b3480156104c957600080fd5b506103d9600480360360208110156104e057600080fd5b50356bffffffffffffffffffffffff1916610ef8565b34801561050257600080fd5b506103d9610f0a565b34801561051757600080fd5b506103d9611085565b34801561052c57600080fd5b5061028f61116e565b34801561054157600080fd5b506103d961117c565b34801561055657600080fd5b5061021f6004803603608081101561056d57600080fd5b508035906020810135906040810135906060013560ff16611187565b34801561059557600080fd5b5061047c60048036036101208110156105ad57600080fd5b506bffffffffffffffffffffffff1981351690600160a060020a0360208201351690604081013515159060608101359060808101359060ff60a0820135169060c08101359060e0810135906101000135151561122a565b34801561061057600080fd5b506103d96004803603602081101561062757600080fd5b81019060208101813564010000000081111561064257600080fd5b82018360208201111561065457600080fd5b8035906020019184600183028401116401000000008311171561067657600080fd5b91908080601f01602080910402602001604051908101604052809392919081815260200183838082843760009201919091525092955061133b945050505050565b3480156106c357600080fd5b506103d961146c565b3480156106d857600080fd5b5061028f600480360360a08110156106ef57600080fd5b50803590602081013560ff169060408101359060608101359060800135600160a060020a0316611478565b34801561072657600080fd5b506103d9611500565b34801561073b57600080fd5b506102de6004803603604081101561075257600080fd5b50600160a060020a03813516906020013515156115f8565b34801561077657600080fd5b506103d961174c565b34801561078b57600080fd5b506103d9611757565b3480156107a057600080fd5b506102de600480360360408110156107b757600080fd5b50600160a060020a038135169060200135151561175d565b3480156107db57600080fd5b50610808600480360360608110156107f257600080fd5b508035906020810135906040013560ff16611927565b604080516bffffffffffffffffffffffff199092168252519081900360200190f35b34801561083657600080fd5b5061021f600480360360a081101561084d57600080fd5b50600160a060020a0381351690602081013515159060ff6040820135169060608101359060800135611e36565b34801561088657600080fd5b5061021f611ebb565b34801561089b57600080fd5b506103d9600480360360208110156108b257600080fd5b50356bffffffffffffffffffffffff1916611eca565b3480156108d457600080fd5b5061028f611edc565b604080516020808201949094528082019290925280518083038201815260609092019052805191012090565b600060606109188860016115f8565b90506000600280836040516020018082805190602001908083835b602083106109525780518252601f199092019160209182019101610933565b6001836020036101000a0380198251168184511680821785525050505050509050019150506040516020818303038152906040526040518082805190602001908083835b602083106109b55780518252601f199092019160209182019101610996565b51815160209384036101000a60001901801990921691161790526040519190930194509192505080830381855afa1580156109f4573d6000803e3d6000fd5b5050506040513d6020811015610a0957600080fd5b50516040805160208181019390935281518082038401815290820191829052805190928291908401908083835b60208310610a555780518252601f199092019160209182019101610a36565b51815160209384036101000a60001901801990921691161790526040519190930194509192505080830381855afa158015610a94573d6000803e3d6000fd5b5050506040513d6020811015610aa957600080fd5b50519050610ac381878787610abe8d8d6108dd565b611478565b9998505050505050505050565b606080610add848461175d565b905060187f4469616d6f6e64205369676e6564204d6573736167653a0a0000000000000000600583604051602001808560ff1660ff1660f860020a0281526001018467ffffffffffffffff191667ffffffffffffffff1916815260180183805460018160011615610100020316600290048015610b915780601f10610b6f576101008083540402835291820191610b91565b820191906000526020600020905b815481529060010190602001808311610b7d575b5050825160208401908083835b60208310610bbd5780518252601f199092019160209182019101610b9e565b6001836020036101000a03801982511681845116808217855250505050505090500194505050505060405160208183030381529060405291505092915050565b60025460ff1681565b600254600090819060ff16610c2057506001905080610c5f565b600254610100900460ff16610c3b5750600390506004610c5f565b60025462010000900460ff16610c575750600190506002610c5f565b506000905060015b9091565b60008115610c8457610c7d610c7885856115f8565b61133b565b9050610c91565b610c7d610c788585610ad0565b9392505050565b6000601b8560ff1610158015610cb25750601e8560ff1611155b610d06576040805160e560020a62461bcd02815260206004820152600960248201527f7620696e76616c69640000000000000000000000000000000000000000000000604482015290519081900360640190fd5b6000610d1288886108dd565b90506000610d218b8b86610c63565b905081600160a060020a031660018289898960405160008152602001604052604051808581526020018460ff1660ff1681526020018381526020018281526020019450505050506020604051602081039080840390855afa158015610d8a573d6000803e3d6000fd5b50505060206040510351600160a060020a0316149250505098975050505050505050565b6bffffffffffffffffffffffff19811660009081526020819052604090205415610e0c5760405160e560020a62461bcd02815260040180806020018281038252603781526020018061233f6037913960400191505060405180910390fd5b6bffffffffffffffffffffffff19811660009081526001602052604090205415610e6a5760405160e560020a62461bcd0281526004018080602001828103825260388152602001806121b56038913960400191505060405180910390fd5b6bffffffffffffffffffffffff19166000908152602081905260409020349055565b604080516000808252602080830180855288905260ff85168385015260608301879052608083018690529251909260019260a080820193601f1981019281900390910190855afa158015610ee4573d6000803e3d6000fd5b5050604051601f1901519695505050505050565b60016020526000908152604090205481565b6000610f1461146c565b4211610f545760405160e560020a62461bcd0281526004018080602001828103825260458152602001806122fa6045913960600191505060405180910390fd5b60025460ff161515600114610f9d5760405160e560020a62461bcd0281526004018080602001828103825260468152602001806122b46046913960600191505060405180910390fd5b60025460ff610100909104161515600114610fec5760405160e560020a62461bcd0281526004018080602001828103825260468152602001806120a26046913960600191505060405180910390fd5b60025462010000900460ff16156110375760405160e560020a62461bcd02815260040180806020018281038252602181526020018061212d6021913960400191505060405180910390fd5b6002805460ff19166001179055600454604051303191600160a060020a03169082156108fc029083906000818181858888f1935050505015801561107f573d6000803e3d6000fd5b50905090565b600061108f61174c565b42116110cf5760405160e560020a62461bcd0281526004018080602001828103825260458152602001806120e86045913960600191505060405180910390fd5b60025460ff16156111145760405160e560020a62461bcd02815260040180806020018281038252602181526020018061214e6021913960400191505060405180910390fd5b6002805460ff19166001179055303160006004825b600454604051929091049250600160a060020a03169082156108fc029083906000818181858888f19350505050158015611167573d6000803e3d6000fd5b5091505090565b600254610100900460ff1681565b60035462f142800190565b600060048260ff1610156111cf5760405160e560020a62461bcd02815260040180806020018281038252604d815260200180612232604d913960600191505060405180910390fd5b6040805160008152602080820180845288905260ff600319860116828401526060820187905260808201869052915160019260a0808401939192601f1981019281900390910190855afa158015610ee4573d6000803e3d6000fd5b6bffffffffffffffffffffffff198916600090815260208190526040902054806112545750611330565b6112648989898989898989610c98565b6112a25760405160e560020a62461bcd02815260040180806020018281038252603581526020018061227f6035913960400191505060405180910390fd5b6000806112ad610c06565b9150915081600014156112c257505050611330565b600081838502816112cf57fe5b6bffffffffffffffffffffffff198f1660009081526020819052604080822082905551929091049250600160a060020a038e169183156108fc0291849190818181858888f1935050505015801561132a573d6000803e3d6000fd5b50505050505b505050505050505050565b6000600280836040518082805190602001908083835b602083106113705780518252601f199092019160209182019101611351565b51815160209384036101000a60001901801990921691161790526040519190930194509192505080830381855afa1580156113af573d6000803e3d6000fd5b5050506040513d60208110156113c457600080fd5b50516040805160208181019390935281518082038401815290820191829052805190928291908401908083835b602083106114105780518252601f1990920191602091820191016113f1565b51815160209384036101000a60001901801990921691161790526040519190930194509192505080830381855afa15801561144f573d6000803e3d6000fd5b5050506040513d602081101561146457600080fd5b505192915050565b60035463096753000190565b600081600160a060020a031660018787878760405160008152602001604052604051808581526020018460ff1660ff1681526020018381526020018281526020019450505050506020604051602081039080840390855afa1580156114e1573d6000803e3d6000fd5b50505060206040510351600160a060020a031614905095945050505050565b600061150a61117c565b421161154a5760405160e560020a62461bcd0281526004018080602001828103825260458152602001806121ed6045913960600191505060405180910390fd5b60025460ff1615156001146115935760405160e560020a62461bcd02815260040180806020018281038252604681526020018061216f6046913960600191505060405180910390fd5b600254610100900460ff16156115dd5760405160e560020a62461bcd0281526004018080602001828103825260218152602001806120816021913960400191505060405180910390fd5b6002805461ff00191661010017905530316000600382611129565b606080611605848461175d565b600580546040517f1800000000000000000000000000000000000000000000000000000000000000602082019081527f426974636f696e205369676e6564204d6573736167653a0a00000000000000006021830181905260f860020a60026001861615610100026000190190951694909404602a810160ff8116959095026039850152959650601895909492879291603a90910190849080156116df5780601f106116bd5761010080835404028352918201916116df565b820191906000526020600020905b8154815290600101906020018083116116cb575b5050825160208401908083835b6020831061170b5780518252601f1990920191602091820191016116ec565b6001836020036101000a0380198251168184511680821785525050505050509050019550505050505060405160208183030381529060405291505092915050565b60035462794a000190565b60035481565b60408051602880825260608281019093528291906020820181803883390190505090506117ac816bffffffffffffffffffffffff196c0100000000000000000000000087021660006014611eeb565b821561181d57805160208201206000805b60148110156118195760008382602081106117d457fe5b600185019460f860020a9290911a82029190910491506117fc908690601060ff851604611fe7565b611810858480600101955083600f16611fe7565b506001016117bd565b5050505b60408051602a80825260608201909252906020820181803883390190505091507f30000000000000000000000000000000000000000000000000000000000000008260008151811061186b57fe5b6020010190600160f860020a031916908160001a9053507f7800000000000000000000000000000000000000000000000000000000000000826001815181106118b057fe5b6020010190600160f860020a031916908160001a90535060005b602881101561191f578181815181106118df57fe5b602001015160f860020a900460f860020a0283826002018151811061190057fe5b6020010190600160f860020a031916908160001a9053506001016118ca565b505092915050565b60008080600184600381111561193957fe5b14806119505750600384600381111561194e57fe5b145b15611acd576001851615611965576003611968565b60025b9050600360028288604051602001808360ff1660ff1660f860020a028152600101828152602001925050506040516020818303038152906040526040518082805190602001908083835b602083106119d15780518252601f1990920191602091820191016119b2565b51815160209384036101000a60001901801990921691161790526040519190930194509192505080830381855afa158015611a10573d6000803e3d6000fd5b5050506040513d6020811015611a2557600080fd5b50516040805160208181019390935281518082038401815290820191829052805190928291908401908083835b60208310611a715780518252601f199092019160209182019101611a52565b51815160209384036101000a60001901801990921691161790526040519190930194509192505080830381855afa158015611ab0573d6000803e3d6000fd5b505050604051516c01000000000000000000000000029150611c4b565b50604080517f0400000000000000000000000000000000000000000000000000000000000000602080830191909152602182018890526041808301889052835180840390910181526061909201928390528151600493600393600293909282918401908083835b60208310611b535780518252601f199092019160209182019101611b34565b51815160209384036101000a60001901801990921691161790526040519190930194509192505080830381855afa158015611b92573d6000803e3d6000fd5b5050506040513d6020811015611ba757600080fd5b50516040805160208181019390935281518082038401815290820191829052805190928291908401908083835b60208310611bf35780518252601f199092019160209182019101611bd4565b51815160209384036101000a60001901801990921691161790526040519190930194509192505080830381855afa158015611c32573d6000803e3d6000fd5b505050604051516c010000000000000000000000000291505b6000846003811115611c5957fe5b1480611c7057506001846003811115611c6e57fe5b145b15611c7d57509050610c91565b6002846003811115611c8b57fe5b1480611ca257506003846003811115611ca057fe5b145b15611e2d57604080517e140000000000000000000000000000000000000000000000000000000000006020808301919091526bffffffffffffffffffffffff198516602283015282516016818403018152603690920192839052815160039360029392909182918401908083835b60208310611d2f5780518252601f199092019160209182019101611d10565b51815160209384036101000a60001901801990921691161790526040519190930194509192505080830381855afa158015611d6e573d6000803e3d6000fd5b5050506040513d6020811015611d8357600080fd5b50516040805160208181019390935281518082038401815290820191829052805190928291908401908083835b60208310611dcf5780518252601f199092019160209182019101611db0565b51815160209384036101000a60001901801990921691161790526040519190930194509192505080830381855afa158015611e0e573d6000803e3d6000fd5b505050604051516c010000000000000000000000000292505050610c91565b50509392505050565b600080611e46610c7888886115f8565b905060018186868660405160008152602001604052604051808581526020018460ff1660ff1681526020018381526020018281526020019450505050506020604051602081039080840390855afa158015611ea5573d6000803e3d6000fd5b5050604051601f19015198975050505050505050565b600454600160a060020a031681565b60006020819052908152604090205481565b60025462010000900460ff1681565b8160005b82811015611fdf576000858260208110611f0557fe5b60f860020a91901a81020490507f3031323334353637383961626364656600000000000000000000000000000000601060ff80841682900416908110611f4757fe5b1a60f860020a02878480600101955081518110611f6057fe5b6020010190600160f860020a031916908160001a9053507f3031323334353637383961626364656600000000000000000000000000000000600f821660108110611fa657fe5b1a60f860020a02878480600101955081518110611fbf57fe5b6020010190600160f860020a031916908160001a90535050600101611eef565b505050505050565b6000838381518110611ff557fe5b602001015160f860020a900460f860020a0290507f610000000000000000000000000000000000000000000000000000000000000081600160f860020a03191610158015612047575060088260ff1610155b1561207a5780602060f860020a021884848151811061206257fe5b6020010190600160f860020a031916908160001a9053505b5050505056fe64696c75746532206576656e742064696420616c72656164792068617070656e2164696c757465332063616e2774206765742070726f63657373656420756e6c6573732064696c757465322068617320616c7265616479206265656e2070726f6365737365642e64696c757465312063616e206f6e6c79206765742063616c6c6564206166746572207468652074726573686f6c642074696d657374616d7020676f7420726561636865642e64696c75746533206576656e742064696420616c72656164792068617070656e2164696c75746531206576656e742064696420616c72656164792068617070656e2164696c757465322063616e2774206765742070726f63657373656420756e6c6573732064696c757465312068617320616c7265616479206265656e2070726f6365737365642e54686572652077617320616c726561647920612062616c616e636520646566696e656420666f722074686973206f6c64206164647265737364696c757465322063616e206f6e6c79206765742063616c6c6564206166746572207468652074726573686f6c642074696d657374616d7020676f7420726561636865642e426974636f696e2061646473206120636f6e7374616e74203420746f2074686520762076616c75652e2074686973207369676e6174757265207365656d7320746f20626520696e76616c69642e5369676e617475726520646f6573206e6f74206d6174636820666f72207468697320636c61696d696e672070726f6365647572652e64696c757465332063616e2774206765742070726f63657373656420756e6c6573732064696c757465312068617320616c7265616479206265656e2070726f6365737365642e64696c757465332063616e206f6e6c79206765742063616c6c6564206166746572207468652074726573686f6c642074696d657374616d7020676f7420726561636865642e546865726520697320616c726561647920612062616c616e636520646566696e656420666f722074686973206f6c642061646472657373a26469706673582212202063c9e52d26345bf71e2fdb8652f4d3de1121bffcb686983bc04e110455f84564736f6c63430006020033",
  "source": "pragma solidity >=0.6.2 <0.7.0;\n\ncontract ClaimContract {\n\n  enum AddressType { LegacyUncompressed, LegacyCompressed, SegwitUncompressed, SegwitCompressed }\n\n  bytes16 internal constant HEX_DIGITS = \"0123456789abcdef\";\n\n  /* Constants for preparing the claim message text */\n  uint8 internal constant ETH_ADDRESS_BYTE_LEN = 20;\n  uint8 internal constant ETH_ADDRESS_HEX_LEN = ETH_ADDRESS_BYTE_LEN * 2;\n  uint8 internal constant CLAIM_PARAM_HASH_BYTE_LEN = 12;\n  uint8 internal constant CLAIM_PARAM_HASH_HEX_LEN = CLAIM_PARAM_HASH_BYTE_LEN * 2;\n\n  uint8 internal constant BITCOIN_SIG_PREFIX_LEN = 24;\n  bytes24 internal constant BITCOIN_SIG_PREFIX_STR = \"Bitcoin Signed Message:\\n\";\n\n  uint8 internal constant DIAMOND_SIG_PREFIX_LEN = 24;\n  bytes24 internal constant DIAMOND_SIG_PREFIX_STR = \"Diamond Signed Message:\\n\";\n  \n\n  uint constant YEAR_IN_SECONDS = 31536000;\n  uint constant LEAP_YEAR_IN_SECONDS = 31622400;\n  uint constant DAY_IN_SECONDS = 86400;\n\n\n  mapping (bytes20 => uint256)  public balances;\n  mapping (bytes20 => uint256)  public diluted;\n\n  // tracks if dilution for 75% was executed\n  bool public dilution_s1_75_executed;\n\n  // tracks if dilution for 50% was executed\n  bool public dilution_s2_50_executed;\n\n  // tracks if dilution for 0% was executed\n  bool public dilution_s3_0_executed;\n\n  uint public deploymentTimestamp;\n\n  address payable public lateClaimBeneficorAddress;\n  \n  bytes prefixStr;\n  //address owner;\n\n  constructor(address payable _lateClaimBeneficorAddress, bytes memory _prefixStr)\n  public \n  {\n    //balances[\"\"] = 1000000000000;\n    deploymentTimestamp = block.timestamp;\n    lateClaimBeneficorAddress = _lateClaimBeneficorAddress;\n    prefixStr = _prefixStr;\n  }\n\n\n  function getPublicKeyFromBitcoinSignature(bytes32 hashValue, bytes32 r, bytes32 s, uint8 v)\n  public\n  pure\n  returns(address)\n  {\n    require(v >= 4, 'Bitcoin adds a constant 4 to the v value. this signature seems to be invalid.');\n    //#1: decode bitcoin signature.\n    //# get R, S, V and Hash of Signature.\n    //# do ecrecover on it.\n    //return \"todo: implement this magic!\";\n\n    return ecrecover(\n        hashValue,\n        v - 4, //bitcoin signature use v that is +4 see reddit comment https://www.reddit.com/r/ethereum/comments/3gmbkx/how_do_i_verify_a_bitcoinsigned_message_in_an/ctzopoz\n        r,\n        s\n    );\n  }\n\n    /// @dev returns the essential part of a Bitcoin-style address associated with an ECDSA public key\n    /// @param a_publicKeyX X coordinate of the ECDSA public key\n    /// @param a_publicKeyY Y coordinate of the ECDSA public key\n    /// @param a_nAddressType Whether DMD is Legacy or Segwit address and if it was compressed\n    /// @return Raw parts of the Bitcoin Style address\n    function PublicKeyToBitcoinAddress(\n        bytes32 a_publicKeyX,\n        bytes32 a_publicKeyY,\n        AddressType a_nAddressType\n    ) public pure returns (bytes20)\n    {\n        bytes20 publicKey;\n        uint8 initialByte;\n        if(a_nAddressType == AddressType.LegacyCompressed || a_nAddressType == AddressType.SegwitCompressed)\n        {\n            //Hash the compressed format\n            initialByte = (uint256(a_publicKeyY) & 1) == 0 ? 0x02 : 0x03;\n            publicKey = ripemd160(abi.encodePacked(sha256(abi.encodePacked(initialByte, a_publicKeyX))));\n        }\n        else\n        {\n            //Hash the uncompressed format\n            initialByte = 0x04;\n            publicKey = ripemd160(abi.encodePacked(sha256(abi.encodePacked(initialByte, a_publicKeyX, a_publicKeyY))));\n        }\n\n        if(a_nAddressType == AddressType.LegacyUncompressed || a_nAddressType == AddressType.LegacyCompressed)\n        {\n            return publicKey;\n        }\n        else if(a_nAddressType == AddressType.SegwitUncompressed || a_nAddressType == AddressType.SegwitCompressed)\n        {\n            return ripemd160(abi.encodePacked(sha256(abi.encodePacked(hex\"0014\", publicKey))));\n        }\n    }\n\n\n    /// @dev Convert an uncompressed ECDSA public key into an Ethereum address\n    /// @param a_publicKeyX X parameter of uncompressed ECDSA public key\n    /// @param a_publicKeyY Y parameter of uncompressed ECDSA public key\n    /// @return Ethereum address generated from the ECDSA public key\n    function PublicKeyToEthereumAddress(\n        bytes32 a_publicKeyX,\n        bytes32 a_publicKeyY\n    ) public pure returns (address)\n    {\n        bytes32 hash = keccak256(abi.encodePacked(a_publicKeyX, a_publicKeyY));\n        return address(uint160(uint256((hash))));\n    }\n\n    /// @dev Validate ECSDA signature was signed by the specified address\n    /// @param _hash Hash of signed data\n    /// @param _v v parameter of ECDSA signature\n    /// @param _r r parameter of ECDSA signature\n    /// @param _s s parameter of ECDSA signature\n    /// @param _address Ethereum address matching the signature\n    /// @return Boolean on if the signature is valid\n    function ValidateSignature(\n        bytes32 _hash,\n        uint8 _v,\n        bytes32 _r,\n        bytes32 _s,\n        address _address\n    ) public pure returns (bool)\n    {\n        return ecrecover(\n            _hash,\n            _v,\n            _r,\n            _s\n        ) == _address;\n    }\n\n\n    /// @dev Validate the ECDSA parameters of signed message\n    /// ECDSA public key associated with the specified Ethereum address\n    /// @param _addressClaiming Address within signed message\n    /// @param _publicKeyX X parameter of uncompressed ECDSA public key\n    /// @param _publicKeyY Y parameter of uncompressed ECDSA public key\n    /// @param _v v parameter of ECDSA signature\n    /// @param _r r parameter of ECDSA signature\n    /// @param _s s parameter of ECDSA signature\n    /// @return Boolean on if the signature is valid\n    function ECDSAVerify(\n        address _addressClaiming,\n        bytes32 _publicKeyX,\n        bytes32 _publicKeyY,\n        uint8 _v,\n        bytes32 _r,\n        bytes32 _s\n    ) public view returns (bool)\n    {\n        bytes memory addressAsHex = createClaimMessage(_addressClaiming, true);\n\n        bytes32 hHash = sha256(abi.encodePacked(sha256(abi.encodePacked(addressAsHex))));\n\n        return ValidateSignature(\n            hHash,\n            _v,\n            _r,\n            _s,\n            PublicKeyToEthereumAddress(_publicKeyX, _publicKeyY)\n        );\n    }\n\n  function checkSignature(bytes32 _hash, bytes32 _r, bytes32 _s, uint8 _v)\n  public\n  pure\n  returns(address)\n  {\n    return ecrecover(\n      _hash,\n      _v,\n      _r,\n      _s\n      );\n  }\n\n  /**\n    * @dev PUBLIC FACING: Derive an Ethereum address from an ECDSA public key\n    * @param pubKeyX First  half of uncompressed ECDSA public key\n    * @param pubKeyY Second half of uncompressed ECDSA public key\n    * @return Derived Eth address\n    */\n  function pubKeyToEthAddress(bytes32 pubKeyX, bytes32 pubKeyY)\n      public\n      pure\n      returns (address)\n  {\n      return address(uint160(uint256(keccak256(abi.encodePacked(pubKeyX, pubKeyY)))));\n  }\n\n  /**\n  * @dev sha256(sha256(data))\n  * @param data Data to be hashed\n  * @return 32-byte hash\n  */\n  function calcHash256(bytes memory data)\n      public\n      pure\n      returns (bytes32)\n  {\n      // NOTE: https://github.com/axic/ethereum-bsm/blob/master/bsm.sol\n      // maybe encodePacked is not required ?!\n      return sha256(abi.encodePacked(sha256(data)));\n  }\n\n  function _hexStringFromData(bytes memory hexStr, bytes32 data, uint256 startOffset, uint256 dataLen)\n    private\n    pure\n  {\n      uint256 offset = startOffset;\n\n\n\n      for (uint256 i = 0; i < dataLen; i++) {\n          uint8 b = uint8(data[i]);\n\n          hexStr[offset++] = HEX_DIGITS[b >> 4];\n          hexStr[offset++] = HEX_DIGITS[b & 0x0f];\n      }\n  }\n\n    function _addressStringChecksumChar(bytes memory addrStr, uint256 offset, uint8 hashNybble)\n    private\n    pure\n    {\n        bytes1 ch = addrStr[offset];\n\n        if (ch >= \"a\" && hashNybble >= 8) {\n            addrStr[offset] = ch ^ 0x20;\n        }\n    }\n\n  /**\n  * @dev calculates the address string representation of the signed address.\n  * @param _addr address\n  * @param _includeAddrChecksum bool. should the addressChecksum be used for this caluclation.\n  * @return addrStr ethereum address(24 byte)\n  */\n  function calculateAddressString(address _addr, bool _includeAddrChecksum)\n    public\n    pure\n    returns (bytes memory addrStr)\n  {\n      bytes memory tmp = new bytes(ETH_ADDRESS_HEX_LEN);\n      _hexStringFromData(tmp, bytes32(bytes20(_addr)), 0, ETH_ADDRESS_BYTE_LEN);\n\n      if (_includeAddrChecksum) {\n          bytes32 addrStrHash = keccak256(tmp);\n\n          uint256 offset = 0;\n\n          for (uint256 i = 0; i < ETH_ADDRESS_BYTE_LEN; i++) {\n              uint8 b = uint8(addrStrHash[i]);\n\n              _addressStringChecksumChar(tmp, offset++, b >> 4);\n              _addressStringChecksumChar(tmp, offset++, b & 0x0f);\n          }\n      }\n\n      // the correct checksum is now in the tmp variable.\n      // we extend this by the Ethereum usual prefix 0x\n\n      addrStr = new bytes(ETH_ADDRESS_HEX_LEN + 2);\n\n      addrStr[0] = '0';\n      addrStr[1] = 'x';\n\n      for (uint256 i = 0; i < ETH_ADDRESS_HEX_LEN; i++) {\n          addrStr[i+2] = tmp[i];\n      }\n\n      return addrStr;\n  }\n\n  /**\n  * @dev returns the hash for the provided claim target address.\n  * @param _claimToAddr address target address for the claim.\n  * @param _claimAddrChecksum bool target address was signed using the Ethereum checksum (EIP-55)\n  * @return bytes32 Bitcoin hash of the claim message.\n  */\n  function createClaimMessage(address _claimToAddr, bool _claimAddrChecksum)\n        public\n        view\n        returns (bytes memory)\n    {\n        //TODO: pass this as an argument. evaluate in JS before includeAddrChecksum is used or not.\n        //now for testing, we assume Yes.\n\n        bytes memory addrStr = calculateAddressString(_claimToAddr, _claimAddrChecksum);\n\n        return abi.encodePacked(\n                BITCOIN_SIG_PREFIX_LEN,\n                BITCOIN_SIG_PREFIX_STR,\n                uint8(prefixStr.length) + ETH_ADDRESS_HEX_LEN + 2,\n                prefixStr,\n                addrStr\n            );\n    }\n\n      /**\n  * @dev returns the hash for the provided claim target address.\n  * @param _claimToAddr address target address for the claim.\n  * @param _claimAddrChecksum bool target address was signed using the Ethereum checksum (EIP-55)\n  * @return bytes32 Diamond hash of the claim message.\n  */\n  function createClaimMessageDMD(address _claimToAddr, bool _claimAddrChecksum)\n        public\n        view\n        returns (bytes memory)\n    {\n        //TODO: pass this as an argument. evaluate in JS before includeAddrChecksum is used or not.\n        //now for testing, we assume Yes.\n\n        bytes memory addrStr = calculateAddressString(_claimToAddr, _claimAddrChecksum);\n\n        return abi.encodePacked(\n                DIAMOND_SIG_PREFIX_LEN,\n                DIAMOND_SIG_PREFIX_STR,\n                prefixStr,\n                addrStr\n            );\n    }\n\n  /**\n  * @dev returns the hash for the provided claim target address.\n  * @param _claimToAddr address target address for the claim.\n  * @param _claimAddrChecksum bool target address was signed using the Ethereum checksum (EIP-55)\n  * @param _bitcoinCompatibility bool define if bitcoin compatibility hash function of diamond hash functions has to be used.\n  * @return bytes32 DMD style hash of the claim message.\n  */\n  function getHashForClaimMessage(\n    address _claimToAddr,\n    bool  _claimAddrChecksum,\n    bool _bitcoinCompatibility)\n    public\n    view\n    returns (bytes32)\n  {\n    if (_bitcoinCompatibility) {\n      return calcHash256(\n          createClaimMessage(_claimToAddr, _claimAddrChecksum)\n      );\n    } else {\n      return calcHash256(\n          createClaimMessageDMD(_claimToAddr, _claimAddrChecksum)\n      );\n    }\n  }\n\n  /**\n  * @dev returns the ethereum pseude address of a DMD signed message.\n  * @param _claimToAddr address target address for the claim.\n  * @param _claimAddrChecksum bool target address was signed using the Ethereum checksum (EIP-55)\n  * @param _v uint8 v component of the signature.\n  * @param _r bytes32 r component of the signature.\n  * @param _s bytes32 s component of the signautre.\n  * @return address DMD pseudo address of the signer. (what would be the address if the same Private Key would have been used on an DMDv3 than in DMDv4)\n  */\n  function getEthAddressFromSignature(\n    address _claimToAddr,\n    bool    _claimAddrChecksum,\n    uint8 _v,\n    bytes32 _r,\n    bytes32 _s\n  )\n  public\n  view\n  returns (address)\n  {\n    //require(_v >= 27 && _v <= 30, \"v invalid\");\n\n     /* Create and hash the claim message text */\n      bytes32 messageHash = calcHash256(\n          createClaimMessage(_claimToAddr, _claimAddrChecksum)\n      );\n\n    return ecrecover(messageHash, _v, _r, _s);\n  }\n\n  function claimMessageMatchesSignature(\n    address _claimToAddr,\n    bool    _claimAddrChecksum,\n    bytes32 _pubKeyX,\n    bytes32 _pubKeyY,\n    uint8 _v,\n    bytes32 _r,\n    bytes32 _s,\n    bool _bitcoinCompatibilityMode\n  )\n    public\n    view\n    returns (bool)\n  {\n      require(_v >= 27 && _v <= 30, \"v invalid\");\n\n      /*\n          ecrecover() returns an Eth address rather than a public key, so\n          we must do the same to compare.\n      */\n      address pubKeyEthAddr = pubKeyToEthAddress(_pubKeyX, _pubKeyY);\n\n      //we need to check if X and Y corresponds to R and S.\n\n      /* Create and hash the claim message text */\n      bytes32 messageHash = getHashForClaimMessage(_claimToAddr, _claimAddrChecksum, _bitcoinCompatibilityMode);\n\n      /* Verify the public key */\n      return ecrecover(messageHash, _v, _r, _s) == pubKeyEthAddr;\n  }\n\n  function getDilutionTimestamp1()\n  public\n  view\n  returns (uint256)\n  {\n    return deploymentTimestamp + (DAY_IN_SECONDS * 2 * 31) + DAY_IN_SECONDS * 30;\n  }\n\n\n  function getDilutionTimestamp2()\n  public\n  view\n  returns (uint256)\n  {\n    return deploymentTimestamp + (DAY_IN_SECONDS * 3 * 31) + (DAY_IN_SECONDS * 3 * 30);\n  }\n\n\n  function getDilutionTimestamp3()\n  public\n  view\n  returns (uint256)\n  {\n    return deploymentTimestamp + (YEAR_IN_SECONDS * 4) + LEAP_YEAR_IN_SECONDS;\n  }\n\n   /**\n  * @dev dilutes the entitlement after a certain time passed away and sends it to the beneficor (reinsert pot)\n  * @return amount of DMD that got send to the beneficor.\n  */\n  function dilute1()\n  public\n  returns (uint)\n  {\n    require(block.timestamp > getDilutionTimestamp1(), \"dilute1 can only get called after the treshold timestamp got reached.\");\n    require(dilution_s1_75_executed == false, \"dilute1 event did already happen!\");\n\n    dilution_s1_75_executed = true;\n    // in dilute 1: after 3 months 25% of the total coins get diluted.\n\n    uint totalBalance = (payable(address(this))).balance;\n    uint dilutionBalance = totalBalance / 4;\n    lateClaimBeneficorAddress.transfer(dilutionBalance);\n    return dilutionBalance;\n  }\n\n  /**\n  * @dev dilutes the entitlement after a certain time passed away and sends it to the beneficor (reinsert pot)\n  * @return amount of DMD that got send to the beneficor.\n  */\n  function dilute2()\n  public\n  returns (uint)\n  {\n    require(block.timestamp > getDilutionTimestamp2(), \"dilute2 can only get called after the treshold timestamp got reached.\");\n    require(dilution_s1_75_executed == true, \"dilute2 can't get processed unless dilute1 has already been processed.\");\n    require(dilution_s2_50_executed == false, \"dilute2 event did already happen!\");\n\n    dilution_s2_50_executed = true;\n    // in dilute 1: after 3 months 25% of the total coins get diluted.\n\n    uint totalBalance = (payable(address(this))).balance;\n    \n    // during dilute2, \n    // 25% from dilute1 are already counted away from totalBalance.\n    // means 3/4 of the value is still there and we need to get it to 2/4.\n    // we can do this by dilluting another 1 / 3.\n\n    uint dilutionBalance = totalBalance / 3;\n    lateClaimBeneficorAddress.transfer(dilutionBalance);\n    return dilutionBalance;\n  }\n\n   /**\n  * @dev dilutes the entitlement after a certain time passed away and sends it to the beneficor (reinsert pot)\n  * @return amount of DMD that got send to the beneficor.\n  */\n  function dilute3()\n  public\n  returns (uint)\n  {\n    require(block.timestamp > getDilutionTimestamp3(), \"dilute3 can only get called after the treshold timestamp got reached.\");\n    require(dilution_s1_75_executed == true, \"dilute3 can't get processed unless dilute1 has already been processed.\");\n    require(dilution_s2_50_executed == true, \"dilute3 can't get processed unless dilute2 has already been processed.\");\n    require(dilution_s3_0_executed == false, \"dilute3 event did already happen!\");\n\n    dilution_s1_75_executed = true;\n    // in dilute 1: after 3 months 25% of the total coins get diluted.\n\n    uint totalBalance = (payable(address(this))).balance;\n    \n    // 50% got already diluted. this is the last phase, we dilute the rest.\n    lateClaimBeneficorAddress.transfer(totalBalance);\n    return totalBalance;\n  }\n\n  function getCurrentDilutedClaimFactor()\n  public\n  view\n  returns (uint256 nominator, uint256 denominator)\n  {\n      if (!dilution_s1_75_executed)\n      {\n        return (1, 1);\n      }\n      else if (!dilution_s2_50_executed)\n      {\n        return (3, 4);\n      }\n      else if (!dilution_s3_0_executed)\n      {\n        return (1, 2);\n      }\n      else\n      {\n        return (0, 1);\n      }\n  }\n\n//   function transferDilutedFundsToBeneficor()\n//   public\n//   {\n//   }\n\n  \n\n  function addBalance(bytes20 oldAddress)\n  payable\n  public\n  {\n    require(balances[oldAddress] == 0, \"There is already a balance defined for this old address\");\n    require(diluted[oldAddress] == 0, \"There was already a balance defined for this old address\");\n    balances[oldAddress] = msg.value;\n    // allOldAdresses.push(oldAddress);\n  }\n\n  function claim(\n    bytes20 _oldAddress, \n    address payable _targetAdress,\n    bool    _claimAddrChecksum,\n    bytes32 _pubKeyX,\n    bytes32 _pubKeyY,\n    uint8 _v,\n    bytes32 _r,\n    bytes32 _s,\n    bool _bitcoinCompatibilityMode\n  )\n  public\n  {\n    //if already claimed, it just returns.\n    uint256 currentBalance = balances[_oldAddress];\n    if ( currentBalance == 0)\n    {\n        return;\n    }\n\n    require(claimMessageMatchesSignature(\n        _targetAdress,\n        _claimAddrChecksum,\n        _pubKeyX,\n        _pubKeyY,\n        _v,\n        _r,\n        _s,\n        _bitcoinCompatibilityMode),\n      'Signature does not match for this claiming procedure.');\n\n    (uint256 nominator, uint256 denominator) = getCurrentDilutedClaimFactor();\n\n    // the nominator is 0 if the claim period passed.\n    if (nominator == 0) \n    {\n        return;\n    }\n\n    uint256 claimBalance = (currentBalance * nominator) / denominator;\n    \n    // remember that the funds are going to get claimed, hard protection about reentrancy attacks.\n    balances[_oldAddress] = 0;\n    _targetAdress.transfer(claimBalance);\n  }\n\n}",
  "sourcePath": "/home/sn/dmd/dmd-meta/dmdv4migration/contracts/contracts/ClaimContract.sol",
  "compiler": {
    "name": "solc",
    "version": "0.6.2+commit.bacdbe57.Emscripten.clang"
  },
  "schemaVersion": "3.3.2",
  "updatedAt": "2020-12-08T15:16:45.476Z",
  "devdoc": {
    "methods": {
      "ECDSAVerify(address,bytes32,bytes32,uint8,bytes32,bytes32)": {
        "details": "Validate the ECDSA parameters of signed message ECDSA public key associated with the specified Ethereum address",
        "params": {
          "_addressClaiming": "Address within signed message",
          "_publicKeyX": "X parameter of uncompressed ECDSA public key",
          "_publicKeyY": "Y parameter of uncompressed ECDSA public key",
          "_r": "r parameter of ECDSA signature",
          "_s": "s parameter of ECDSA signature",
          "_v": "v parameter of ECDSA signature"
        },
        "returns": {
          "_0": "Boolean on if the signature is valid"
        }
      },
      "PublicKeyToBitcoinAddress(bytes32,bytes32,uint8)": {
        "details": "returns the essential part of a Bitcoin-style address associated with an ECDSA public key",
        "params": {
          "a_nAddressType": "Whether DMD is Legacy or Segwit address and if it was compressed",
          "a_publicKeyX": "X coordinate of the ECDSA public key",
          "a_publicKeyY": "Y coordinate of the ECDSA public key"
        },
        "returns": {
          "_0": "Raw parts of the Bitcoin Style address"
        }
      },
      "PublicKeyToEthereumAddress(bytes32,bytes32)": {
        "details": "Convert an uncompressed ECDSA public key into an Ethereum address",
        "params": {
          "a_publicKeyX": "X parameter of uncompressed ECDSA public key",
          "a_publicKeyY": "Y parameter of uncompressed ECDSA public key"
        },
        "returns": {
          "_0": "Ethereum address generated from the ECDSA public key"
        }
      },
      "ValidateSignature(bytes32,uint8,bytes32,bytes32,address)": {
        "details": "Validate ECSDA signature was signed by the specified address",
        "params": {
          "_address": "Ethereum address matching the signature",
          "_hash": "Hash of signed data",
          "_r": "r parameter of ECDSA signature",
          "_s": "s parameter of ECDSA signature",
          "_v": "v parameter of ECDSA signature"
        },
        "returns": {
          "_0": "Boolean on if the signature is valid"
        }
      },
      "calcHash256(bytes)": {
        "details": "sha256(sha256(data))",
        "params": {
          "data": "Data to be hashed"
        },
        "returns": {
          "_0": "32-byte hash"
        }
      },
      "calculateAddressString(address,bool)": {
        "details": "calculates the address string representation of the signed address.",
        "params": {
          "_addr": "address",
          "_includeAddrChecksum": "bool. should the addressChecksum be used for this caluclation."
        },
        "returns": {
          "addrStr": "ethereum address(24 byte)"
        }
      },
      "createClaimMessage(address,bool)": {
        "details": "returns the hash for the provided claim target address.",
        "params": {
          "_claimAddrChecksum": "bool target address was signed using the Ethereum checksum (EIP-55)",
          "_claimToAddr": "address target address for the claim."
        },
        "returns": {
          "_0": "bytes32 Bitcoin hash of the claim message."
        }
      },
      "createClaimMessageDMD(address,bool)": {
        "details": "returns the hash for the provided claim target address.",
        "params": {
          "_claimAddrChecksum": "bool target address was signed using the Ethereum checksum (EIP-55)",
          "_claimToAddr": "address target address for the claim."
        },
        "returns": {
          "_0": "bytes32 Diamond hash of the claim message."
        }
      },
      "dilute1()": {
        "details": "dilutes the entitlement after a certain time passed away and sends it to the beneficor (reinsert pot)",
        "returns": {
          "_0": "amount of DMD that got send to the beneficor."
        }
      },
      "dilute2()": {
        "details": "dilutes the entitlement after a certain time passed away and sends it to the beneficor (reinsert pot)",
        "returns": {
          "_0": "amount of DMD that got send to the beneficor."
        }
      },
      "dilute3()": {
        "details": "dilutes the entitlement after a certain time passed away and sends it to the beneficor (reinsert pot)",
        "returns": {
          "_0": "amount of DMD that got send to the beneficor."
        }
      },
      "getEthAddressFromSignature(address,bool,uint8,bytes32,bytes32)": {
        "details": "returns the ethereum pseude address of a DMD signed message.",
        "params": {
          "_claimAddrChecksum": "bool target address was signed using the Ethereum checksum (EIP-55)",
          "_claimToAddr": "address target address for the claim.",
          "_r": "bytes32 r component of the signature.",
          "_s": "bytes32 s component of the signautre.",
          "_v": "uint8 v component of the signature."
        },
        "returns": {
          "_0": "address DMD pseudo address of the signer. (what would be the address if the same Private Key would have been used on an DMDv3 than in DMDv4)"
        }
      },
      "getHashForClaimMessage(address,bool,bool)": {
        "details": "returns the hash for the provided claim target address.",
        "params": {
          "_bitcoinCompatibility": "bool define if bitcoin compatibility hash function of diamond hash functions has to be used.",
          "_claimAddrChecksum": "bool target address was signed using the Ethereum checksum (EIP-55)",
          "_claimToAddr": "address target address for the claim."
        },
        "returns": {
          "_0": "bytes32 DMD style hash of the claim message."
        }
      },
      "pubKeyToEthAddress(bytes32,bytes32)": {
        "details": "PUBLIC FACING: Derive an Ethereum address from an ECDSA public key",
        "params": {
          "pubKeyX": "First  half of uncompressed ECDSA public key",
          "pubKeyY": "Second half of uncompressed ECDSA public key"
        },
        "returns": {
          "_0": "Derived Eth address"
        }
      }
    }
  },
  "userdoc": {
    "methods": {}
  }
}