{
  "contractName": "ClaimContract",
  "abi": [
    {
      "inputs": [
        {
          "internalType": "address payable",
          "name": "_lateClaimBeneficorAddress",
          "type": "address"
        }
      ],
      "stateMutability": "nonpayable",
      "type": "constructor"
    },
    {
      "inputs": [
        {
          "internalType": "uint256",
          "name": "",
          "type": "uint256"
        }
      ],
      "name": "allOldAdresses",
      "outputs": [
        {
          "internalType": "bytes20",
          "name": "",
          "type": "bytes20"
        }
      ],
      "stateMutability": "view",
      "type": "function"
    },
    {
      "inputs": [
        {
          "internalType": "bytes20",
          "name": "",
          "type": "bytes20"
        }
      ],
      "name": "balances",
      "outputs": [
        {
          "internalType": "uint256",
          "name": "",
          "type": "uint256"
        }
      ],
      "stateMutability": "view",
      "type": "function"
    },
    {
      "inputs": [],
      "name": "deploymentTimestamp",
      "outputs": [
        {
          "internalType": "uint256",
          "name": "",
          "type": "uint256"
        }
      ],
      "stateMutability": "view",
      "type": "function"
    },
    {
      "inputs": [
        {
          "internalType": "bytes20",
          "name": "",
          "type": "bytes20"
        }
      ],
      "name": "diluted",
      "outputs": [
        {
          "internalType": "uint256",
          "name": "",
          "type": "uint256"
        }
      ],
      "stateMutability": "view",
      "type": "function"
    },
    {
      "inputs": [],
      "name": "dilution_s1_75_executed",
      "outputs": [
        {
          "internalType": "bool",
          "name": "",
          "type": "bool"
        }
      ],
      "stateMutability": "view",
      "type": "function"
    },
    {
      "inputs": [],
      "name": "dilution_s2_50_executed",
      "outputs": [
        {
          "internalType": "bool",
          "name": "",
          "type": "bool"
        }
      ],
      "stateMutability": "view",
      "type": "function"
    },
    {
      "inputs": [],
      "name": "dilution_s3_0_executed",
      "outputs": [
        {
          "internalType": "bool",
          "name": "",
          "type": "bool"
        }
      ],
      "stateMutability": "view",
      "type": "function"
    },
    {
      "inputs": [],
      "name": "lateClaimBeneficorAddress",
      "outputs": [
        {
          "internalType": "address payable",
          "name": "",
          "type": "address"
        }
      ],
      "stateMutability": "view",
      "type": "function"
    },
    {
      "inputs": [
        {
          "internalType": "bytes32",
          "name": "hashValue",
          "type": "bytes32"
        },
        {
          "internalType": "bytes32",
          "name": "r",
          "type": "bytes32"
        },
        {
          "internalType": "bytes32",
          "name": "s",
          "type": "bytes32"
        },
        {
          "internalType": "uint8",
          "name": "v",
          "type": "uint8"
        }
      ],
      "name": "getPublicKeyFromBitcoinSignature",
      "outputs": [
        {
          "internalType": "address",
          "name": "",
          "type": "address"
        }
      ],
      "stateMutability": "pure",
      "type": "function"
    },
    {
      "inputs": [
        {
          "internalType": "bytes32",
          "name": "a_publicKeyX",
          "type": "bytes32"
        },
        {
          "internalType": "bytes32",
          "name": "a_publicKeyY",
          "type": "bytes32"
        },
        {
          "internalType": "enum ClaimContract.AddressType",
          "name": "a_nAddressType",
          "type": "uint8"
        }
      ],
      "name": "PublicKeyToBitcoinAddress",
      "outputs": [
        {
          "internalType": "bytes20",
          "name": "",
          "type": "bytes20"
        }
      ],
      "stateMutability": "pure",
      "type": "function"
    },
    {
      "inputs": [
        {
          "internalType": "bytes32",
          "name": "a_publicKeyX",
          "type": "bytes32"
        },
        {
          "internalType": "bytes32",
          "name": "a_publicKeyY",
          "type": "bytes32"
        }
      ],
      "name": "PublicKeyToEthereumAddress",
      "outputs": [
        {
          "internalType": "address",
          "name": "",
          "type": "address"
        }
      ],
      "stateMutability": "pure",
      "type": "function"
    },
    {
      "inputs": [
        {
          "internalType": "bytes32",
          "name": "_hash",
          "type": "bytes32"
        },
        {
          "internalType": "uint8",
          "name": "_v",
          "type": "uint8"
        },
        {
          "internalType": "bytes32",
          "name": "_r",
          "type": "bytes32"
        },
        {
          "internalType": "bytes32",
          "name": "_s",
          "type": "bytes32"
        },
        {
          "internalType": "address",
          "name": "_address",
          "type": "address"
        }
      ],
      "name": "ValidateSignature",
      "outputs": [
        {
          "internalType": "bool",
          "name": "",
          "type": "bool"
        }
      ],
      "stateMutability": "pure",
      "type": "function"
    },
    {
      "inputs": [
        {
          "internalType": "address",
          "name": "_addressClaiming",
          "type": "address"
        },
        {
          "internalType": "bytes32",
          "name": "_publicKeyX",
          "type": "bytes32"
        },
        {
          "internalType": "bytes32",
          "name": "_publicKeyY",
          "type": "bytes32"
        },
        {
          "internalType": "uint8",
          "name": "_v",
          "type": "uint8"
        },
        {
          "internalType": "bytes32",
          "name": "_r",
          "type": "bytes32"
        },
        {
          "internalType": "bytes32",
          "name": "_s",
          "type": "bytes32"
        }
      ],
      "name": "ECDSAVerify",
      "outputs": [
        {
          "internalType": "bool",
          "name": "",
          "type": "bool"
        }
      ],
      "stateMutability": "pure",
      "type": "function"
    },
    {
      "inputs": [
        {
          "internalType": "bytes32",
          "name": "_hash",
          "type": "bytes32"
        },
        {
          "internalType": "bytes32",
          "name": "_r",
          "type": "bytes32"
        },
        {
          "internalType": "bytes32",
          "name": "_s",
          "type": "bytes32"
        },
        {
          "internalType": "uint8",
          "name": "_v",
          "type": "uint8"
        }
      ],
      "name": "checkSignature",
      "outputs": [
        {
          "internalType": "address",
          "name": "",
          "type": "address"
        }
      ],
      "stateMutability": "pure",
      "type": "function"
    },
    {
      "inputs": [
        {
          "internalType": "bytes32",
          "name": "pubKeyX",
          "type": "bytes32"
        },
        {
          "internalType": "bytes32",
          "name": "pubKeyY",
          "type": "bytes32"
        }
      ],
      "name": "pubKeyToEthAddress",
      "outputs": [
        {
          "internalType": "address",
          "name": "",
          "type": "address"
        }
      ],
      "stateMutability": "pure",
      "type": "function"
    },
    {
      "inputs": [
        {
          "internalType": "bytes",
          "name": "data",
          "type": "bytes"
        }
      ],
      "name": "calcHash256",
      "outputs": [
        {
          "internalType": "bytes32",
          "name": "",
          "type": "bytes32"
        }
      ],
      "stateMutability": "pure",
      "type": "function"
    },
    {
      "inputs": [
        {
          "internalType": "address",
          "name": "_addr",
          "type": "address"
        },
        {
          "internalType": "bool",
          "name": "_includeAddrChecksum",
          "type": "bool"
        }
      ],
      "name": "calculateAddressString",
      "outputs": [
        {
          "internalType": "bytes",
          "name": "addrStr",
          "type": "bytes"
        }
      ],
      "stateMutability": "pure",
      "type": "function"
    },
    {
      "inputs": [
        {
          "internalType": "address",
          "name": "_claimToAddr",
          "type": "address"
        },
        {
          "internalType": "bool",
          "name": "_claimAddrChecksum",
          "type": "bool"
        }
      ],
      "name": "createClaimMessage",
      "outputs": [
        {
          "internalType": "bytes",
          "name": "",
          "type": "bytes"
        }
      ],
      "stateMutability": "pure",
      "type": "function"
    },
    {
      "inputs": [
        {
          "internalType": "address",
          "name": "_claimToAddr",
          "type": "address"
        },
        {
          "internalType": "bool",
          "name": "_claimAddrChecksum",
          "type": "bool"
        }
      ],
      "name": "getHashForClaimMessage",
      "outputs": [
        {
          "internalType": "bytes32",
          "name": "",
          "type": "bytes32"
        }
      ],
      "stateMutability": "pure",
      "type": "function"
    },
    {
      "inputs": [
        {
          "internalType": "address",
          "name": "_claimToAddr",
          "type": "address"
        },
        {
          "internalType": "bool",
          "name": "_claimAddrChecksum",
          "type": "bool"
        },
        {
          "internalType": "uint8",
          "name": "_v",
          "type": "uint8"
        },
        {
          "internalType": "bytes32",
          "name": "_r",
          "type": "bytes32"
        },
        {
          "internalType": "bytes32",
          "name": "_s",
          "type": "bytes32"
        }
      ],
      "name": "getEthAddressFromSignature",
      "outputs": [
        {
          "internalType": "address",
          "name": "",
          "type": "address"
        }
      ],
      "stateMutability": "pure",
      "type": "function"
    },
    {
      "inputs": [
        {
          "internalType": "address",
          "name": "_claimToAddr",
          "type": "address"
        },
        {
          "internalType": "bool",
          "name": "_claimAddrChecksum",
          "type": "bool"
        },
        {
          "internalType": "bytes32",
          "name": "_pubKeyX",
          "type": "bytes32"
        },
        {
          "internalType": "bytes32",
          "name": "_pubKeyY",
          "type": "bytes32"
        },
        {
          "internalType": "uint8",
          "name": "_v",
          "type": "uint8"
        },
        {
          "internalType": "bytes32",
          "name": "_r",
          "type": "bytes32"
        },
        {
          "internalType": "bytes32",
          "name": "_s",
          "type": "bytes32"
        }
      ],
      "name": "claimMessageMatchesSignature",
      "outputs": [
        {
          "internalType": "bool",
          "name": "",
          "type": "bool"
        }
      ],
      "stateMutability": "pure",
      "type": "function"
    },
    {
      "inputs": [],
      "name": "getDilutionTimestamp1",
      "outputs": [
        {
          "internalType": "uint256",
          "name": "",
          "type": "uint256"
        }
      ],
      "stateMutability": "view",
      "type": "function"
    },
    {
      "inputs": [],
      "name": "getDilutionTimestamp2",
      "outputs": [
        {
          "internalType": "uint256",
          "name": "",
          "type": "uint256"
        }
      ],
      "stateMutability": "view",
      "type": "function"
    },
    {
      "inputs": [],
      "name": "getDilutionTimestamp3",
      "outputs": [
        {
          "internalType": "uint256",
          "name": "",
          "type": "uint256"
        }
      ],
      "stateMutability": "view",
      "type": "function"
    },
    {
      "inputs": [],
      "name": "dilute1",
      "outputs": [
        {
          "internalType": "uint256",
          "name": "",
          "type": "uint256"
        }
      ],
      "stateMutability": "nonpayable",
      "type": "function"
    },
    {
      "inputs": [],
      "name": "dilute2",
      "outputs": [
        {
          "internalType": "uint256",
          "name": "",
          "type": "uint256"
        }
      ],
      "stateMutability": "nonpayable",
      "type": "function"
    },
    {
      "inputs": [],
      "name": "dilute3",
      "outputs": [
        {
          "internalType": "uint256",
          "name": "",
          "type": "uint256"
        }
      ],
      "stateMutability": "nonpayable",
      "type": "function"
    },
    {
      "inputs": [],
      "name": "getCurrentDilutedClaimFactor",
      "outputs": [
        {
          "internalType": "uint256",
          "name": "nominator",
          "type": "uint256"
        },
        {
          "internalType": "uint256",
          "name": "denominator",
          "type": "uint256"
        }
      ],
      "stateMutability": "view",
      "type": "function"
    },
    {
      "inputs": [
        {
          "internalType": "bytes20",
          "name": "oldAddress",
          "type": "bytes20"
        }
      ],
      "name": "addBalance",
      "outputs": [],
      "stateMutability": "payable",
      "type": "function"
    },
    {
      "inputs": [
        {
          "internalType": "bytes20",
          "name": "oldAddress",
          "type": "bytes20"
        },
        {
          "internalType": "address payable",
          "name": "targetAdress",
          "type": "address"
        }
      ],
      "name": "claim",
      "outputs": [],
      "stateMutability": "nonpayable",
      "type": "function"
    }
  ],
  "bytecode": "0x608060405234801561001057600080fd5b506040516122303803806122308339818101604052602081101561003357600080fd5b50514260045560058054600160a060020a031916600160a060020a039092169190911790556121c9806100676000396000f3fe6080604052600436106101ea576000357c0100000000000000000000000000000000000000000000000000000000900480637b99c36d11610114578063bfc12c05116100b2578063eaa2b1cd11610081578063eaa2b1cd146107d5578063eda0121f14610825578063f2113dc91461083a578063fa4ee75a14610873576101ea565b8063bfc12c05146106f0578063c48a5ba514610705578063e180dea914610761578063e581528a1461079c576101ea565b806392867f38116100ee57806392867f38146105c85780639365fe0b14610616578063a9880f321461062b578063b28297f8146106db576101ea565b80637b99c36d146104b857806384f0145e1461056b5780638ffaee3514610580576101ea565b806338b44e001161018c5780635b33bef31161015b5780635b33bef31461043a57806364e7c23a1461044f5780636a01acad146104645780637138220914610479576101ea565b806338b44e001461037f578063433cc269146103ad578063463bf9b0146103ec5780634e2ac9bf14610425576101ea565b80631cecc412116101c85780631cecc412146102b857806326b8ed32146103045780632e5b74581461035157806330c1a785146101ef576101ea565b806301f015e5146101ef5780630e6f41541461023b5780631b17d9a8146102a3575b600080fd5b3480156101fb57600080fd5b5061021f6004803603604081101561021257600080fd5b5080359060200135610888565b60408051600160a060020a039092168252519081900360200190f35b34801561024757600080fd5b5061028f600480360360c081101561025e57600080fd5b50600160a060020a038135169060208101359060408101359060ff6060820135169060808101359060a001356108b4565b604080519115158252519081900360200190f35b3480156102af57600080fd5b5061028f610a7b565b3480156102c457600080fd5b506102e2600480360360208110156102db57600080fd5b5035610a84565b604080516bffffffffffffffffffffffff199092168252519081900360200190f35b34801561031057600080fd5b5061033f6004803603604081101561032757600080fd5b50600160a060020a0381351690602001351515610ab1565b60408051918252519081900360200190f35b34801561035d57600080fd5b50610366610acc565b6040805192835260208301919091528051918290030190f35b6103ab6004803603602081101561039557600080fd5b50356bffffffffffffffffffffffff1916610b29565b005b3480156103b957600080fd5b5061021f600480360360808110156103d057600080fd5b508035906020810135906040810135906060013560ff16610c66565b3480156103f857600080fd5b5061033f6004803603602081101561040f57600080fd5b50356bffffffffffffffffffffffff1916610cd2565b34801561043157600080fd5b5061033f610ce4565b34801561044657600080fd5b5061033f610e5f565b34801561045b57600080fd5b5061028f610f48565b34801561047057600080fd5b5061033f610f56565b34801561048557600080fd5b5061021f6004803603608081101561049c57600080fd5b508035906020810135906040810135906060013560ff16610f61565b3480156104c457600080fd5b5061033f600480360360208110156104db57600080fd5b8101906020810181356401000000008111156104f657600080fd5b82018360208201111561050857600080fd5b8035906020019184600183028401116401000000008311171561052a57600080fd5b91908080601f016020809104026020016040519081016040528093929190818152602001838380828437600092019190915250929550611004945050505050565b34801561057757600080fd5b5061033f611135565b34801561058c57600080fd5b506103ab600480360360408110156105a357600080fd5b5080356bffffffffffffffffffffffff19169060200135600160a060020a0316611141565b3480156105d457600080fd5b5061028f600480360360a08110156105eb57600080fd5b50803590602081013560ff169060408101359060608101359060800135600160a060020a03166111fd565b34801561062257600080fd5b5061033f611285565b34801561063757600080fd5b506106666004803603604081101561064e57600080fd5b50600160a060020a038135169060200135151561137d565b6040805160208082528351818301528351919283929083019185019080838360005b838110156106a0578181015183820152602001610688565b50505050905090810190601f1680156106cd5780820380516001836020036101000a031916815260200191505b509250505060405180910390f35b3480156106e757600080fd5b5061033f6114cd565b3480156106fc57600080fd5b5061033f6114d8565b34801561071157600080fd5b5061028f600480360360e081101561072857600080fd5b50600160a060020a0381351690602081013515159060408101359060608101359060ff6080820135169060a08101359060c001356114de565b34801561076d57600080fd5b506106666004803603604081101561078457600080fd5b50600160a060020a03813516906020013515156115f5565b3480156107a857600080fd5b506102e2600480360360608110156107bf57600080fd5b508035906020810135906040013560ff166117bf565b3480156107e157600080fd5b5061021f600480360360a08110156107f857600080fd5b50600160a060020a0381351690602081013515159060ff6040820135169060608101359060800135611cce565b34801561083157600080fd5b5061021f611d53565b34801561084657600080fd5b5061033f6004803603602081101561085d57600080fd5b50356bffffffffffffffffffffffff1916611d62565b34801561087f57600080fd5b5061028f611d74565b604080516020808201949094528082019290925280518083038201815260609092019052805191012090565b600060606108c388600161137d565b90506000600280836040516020018082805190602001908083835b602083106108fd5780518252601f1990920191602091820191016108de565b6001836020036101000a0380198251168184511680821785525050505050509050019150506040516020818303038152906040526040518082805190602001908083835b602083106109605780518252601f199092019160209182019101610941565b51815160209384036101000a60001901801990921691161790526040519190930194509192505080830381855afa15801561099f573d6000803e3d6000fd5b5050506040513d60208110156109b457600080fd5b50516040805160208181019390935281518082038401815290820191829052805190928291908401908083835b60208310610a005780518252601f1990920191602091820191016109e1565b51815160209384036101000a60001901801990921691161790526040519190930194509192505080830381855afa158015610a3f573d6000803e3d6000fd5b5050506040513d6020811015610a5457600080fd5b50519050610a6e81878787610a698d8d610888565b6111fd565b9998505050505050505050565b60025460ff1681565b60038181548110610a9157fe5b6000918252602090912001546c0100000000000000000000000002905081565b6000610ac5610ac0848461137d565b611004565b9392505050565b600254600090819060ff16610ae657506001905080610b25565b600254610100900460ff16610b015750600390506004610b25565b60025462010000900460ff16610b1d5750600190506002610b25565b506000905060015b9091565b6bffffffffffffffffffffffff19811660009081526020819052604090205415610b875760405160e560020a62461bcd02815260040180806020018281038252603781526020018061215d6037913960400191505060405180910390fd5b6bffffffffffffffffffffffff19811660009081526001602052604090205415610be55760405160e560020a62461bcd02815260040180806020018281038252603881526020018061204d6038913960400191505060405180910390fd5b6bffffffffffffffffffffffff19811660009081526020819052604081203490556003805460018101825591527fc2575a0e9e593c00f959f8c92f12db2869c3395a3b0502d05e2516446f71f85b01805473ffffffffffffffffffffffffffffffffffffffff19166c01000000000000000000000000909204919091179055565b604080516000808252602080830180855288905260ff85168385015260608301879052608083018690529251909260019260a080820193601f1981019281900390910190855afa158015610cbe573d6000803e3d6000fd5b5050604051601f1901519695505050505050565b60016020526000908152604090205481565b6000610cee611135565b4211610d2e5760405160e560020a62461bcd0281526004018080602001828103825260458152602001806120856045913960600191505060405180910390fd5b60025460ff161515600114610d775760405160e560020a62461bcd0281526004018080602001828103825260468152602001806121176046913960600191505060405180910390fd5b60025460ff610100909104161515600114610dc65760405160e560020a62461bcd028152600401808060200182810382526046815260200180611f3a6046913960600191505060405180910390fd5b60025462010000900460ff1615610e115760405160e560020a62461bcd028152600401808060200182810382526021815260200180611fc56021913960400191505060405180910390fd5b6002805460ff19166001179055600554604051303191600160a060020a03169082156108fc029083906000818181858888f19350505050158015610e59573d6000803e3d6000fd5b50905090565b6000610e696114cd565b4211610ea95760405160e560020a62461bcd028152600401808060200182810382526045815260200180611f806045913960600191505060405180910390fd5b60025460ff1615610eee5760405160e560020a62461bcd028152600401808060200182810382526021815260200180611fe66021913960400191505060405180910390fd5b6002805460ff19166001179055303160006004825b600554604051929091049250600160a060020a03169082156108fc029083906000818181858888f19350505050158015610f41573d6000803e3d6000fd5b5091505090565b600254610100900460ff1681565b60045462f142800190565b600060048260ff161015610fa95760405160e560020a62461bcd02815260040180806020018281038252604d8152602001806120ca604d913960600191505060405180910390fd5b6040805160008152602080820180845288905260ff600319860116828401526060820187905260808201869052915160019260a0808401939192601f1981019281900390910190855afa158015610cbe573d6000803e3d6000fd5b6000600280836040518082805190602001908083835b602083106110395780518252601f19909201916020918201910161101a565b51815160209384036101000a60001901801990921691161790526040519190930194509192505080830381855afa158015611078573d6000803e3d6000fd5b5050506040513d602081101561108d57600080fd5b50516040805160208181019390935281518082038401815290820191829052805190928291908401908083835b602083106110d95780518252601f1990920191602091820191016110ba565b51815160209384036101000a60001901801990921691161790526040519190930194509192505080830381855afa158015611118573d6000803e3d6000fd5b5050506040513d602081101561112d57600080fd5b505192915050565b60045463096753000190565b6bffffffffffffffffffffffff1982166000908152602081905260409020548061116b57506111f9565b600080611176610acc565b91509150816000141561118b575050506111f9565b6000818385028161119857fe5b6bffffffffffffffffffffffff19881660009081526020819052604080822082905551929091049250600160a060020a0387169183156108fc0291849190818181858888f193505050501580156111f3573d6000803e3d6000fd5b50505050505b5050565b600081600160a060020a031660018787878760405160008152602001604052604051808581526020018460ff1660ff1681526020018381526020018281526020019450505050506020604051602081039080840390855afa158015611266573d6000803e3d6000fd5b50505060206040510351600160a060020a031614905095945050505050565b600061128f610f56565b42116112cf5760405160e560020a62461bcd0281526004018080602001828103825260458152602001806120856045913960600191505060405180910390fd5b60025460ff1615156001146113185760405160e560020a62461bcd0281526004018080602001828103825260468152602001806120076046913960600191505060405180910390fd5b600254610100900460ff16156113625760405160e560020a62461bcd028152600401808060200182810382526021815260200180611f196021913960400191505060405180910390fd5b6002805461ff00191661010017905530316000600382610f03565b6040805160208101909152600081526060908161139a85856115f5565b82516040517f180000000000000000000000000000000000000000000000000000000000000060208083019182527f426974636f696e205369676e6564204d6573736167653a0a00000000000000006021840181905260ff602a90950194851660f860020a0260398501528751959650601895909493889388939092603a90920191908501908083835b602083106114435780518252601f199092019160209182019101611424565b51815160209384036101000a600019018019909216911617905285519190930192850191508083835b6020831061148b5780518252601f19909201916020918201910161146c565b6001836020036101000a038019825116818451168082178552505050505050905001955050505050506040516020818303038152906040529250505092915050565b60045462794a000190565b60045481565b6000601b8460ff16101580156114f85750601e8460ff1611155b61154c576040805160e560020a62461bcd02815260206004820152600960248201527f7620696e76616c69640000000000000000000000000000000000000000000000604482015290519081900360640190fd5b60006115588787610888565b90506000611569610ac08b8b61137d565b905081600160a060020a031660018288888860405160008152602001604052604051808581526020018460ff1660ff1681526020018381526020018281526020019450505050506020604051602081039080840390855afa1580156115d2573d6000803e3d6000fd5b50505060206040510351600160a060020a03161492505050979650505050505050565b6040805160288082526060828101909352829190602082018180388339019050509050611644816bffffffffffffffffffffffff196c0100000000000000000000000087021660006014611d83565b82156116b557805160208201206000805b60148110156116b157600083826020811061166c57fe5b600185019460f860020a9290911a8202919091049150611694908690601060ff851604611e7f565b6116a8858480600101955083600f16611e7f565b50600101611655565b5050505b60408051602a80825260608201909252906020820181803883390190505091507f30000000000000000000000000000000000000000000000000000000000000008260008151811061170357fe5b6020010190600160f860020a031916908160001a9053507f78000000000000000000000000000000000000000000000000000000000000008260018151811061174857fe5b6020010190600160f860020a031916908160001a90535060005b60288110156117b75781818151811061177757fe5b602001015160f860020a900460f860020a0283826002018151811061179857fe5b6020010190600160f860020a031916908160001a905350600101611762565b505092915050565b6000808060018460038111156117d157fe5b14806117e8575060038460038111156117e657fe5b145b156119655760018516156117fd576003611800565b60025b9050600360028288604051602001808360ff1660ff1660f860020a028152600101828152602001925050506040516020818303038152906040526040518082805190602001908083835b602083106118695780518252601f19909201916020918201910161184a565b51815160209384036101000a60001901801990921691161790526040519190930194509192505080830381855afa1580156118a8573d6000803e3d6000fd5b5050506040513d60208110156118bd57600080fd5b50516040805160208181019390935281518082038401815290820191829052805190928291908401908083835b602083106119095780518252601f1990920191602091820191016118ea565b51815160209384036101000a60001901801990921691161790526040519190930194509192505080830381855afa158015611948573d6000803e3d6000fd5b505050604051516c01000000000000000000000000029150611ae3565b50604080517f0400000000000000000000000000000000000000000000000000000000000000602080830191909152602182018890526041808301889052835180840390910181526061909201928390528151600493600393600293909282918401908083835b602083106119eb5780518252601f1990920191602091820191016119cc565b51815160209384036101000a60001901801990921691161790526040519190930194509192505080830381855afa158015611a2a573d6000803e3d6000fd5b5050506040513d6020811015611a3f57600080fd5b50516040805160208181019390935281518082038401815290820191829052805190928291908401908083835b60208310611a8b5780518252601f199092019160209182019101611a6c565b51815160209384036101000a60001901801990921691161790526040519190930194509192505080830381855afa158015611aca573d6000803e3d6000fd5b505050604051516c010000000000000000000000000291505b6000846003811115611af157fe5b1480611b0857506001846003811115611b0657fe5b145b15611b1557509050610ac5565b6002846003811115611b2357fe5b1480611b3a57506003846003811115611b3857fe5b145b15611cc557604080517e140000000000000000000000000000000000000000000000000000000000006020808301919091526bffffffffffffffffffffffff198516602283015282516016818403018152603690920192839052815160039360029392909182918401908083835b60208310611bc75780518252601f199092019160209182019101611ba8565b51815160209384036101000a60001901801990921691161790526040519190930194509192505080830381855afa158015611c06573d6000803e3d6000fd5b5050506040513d6020811015611c1b57600080fd5b50516040805160208181019390935281518082038401815290820191829052805190928291908401908083835b60208310611c675780518252601f199092019160209182019101611c48565b51815160209384036101000a60001901801990921691161790526040519190930194509192505080830381855afa158015611ca6573d6000803e3d6000fd5b505050604051516c010000000000000000000000000292505050610ac5565b50509392505050565b600080611cde610ac0888861137d565b905060018186868660405160008152602001604052604051808581526020018460ff1660ff1681526020018381526020018281526020019450505050506020604051602081039080840390855afa158015611d3d573d6000803e3d6000fd5b5050604051601f19015198975050505050505050565b600554600160a060020a031681565b60006020819052908152604090205481565b60025462010000900460ff1681565b8160005b82811015611e77576000858260208110611d9d57fe5b60f860020a91901a81020490507f3031323334353637383961626364656600000000000000000000000000000000601060ff80841682900416908110611ddf57fe5b1a60f860020a02878480600101955081518110611df857fe5b6020010190600160f860020a031916908160001a9053507f3031323334353637383961626364656600000000000000000000000000000000600f821660108110611e3e57fe5b1a60f860020a02878480600101955081518110611e5757fe5b6020010190600160f860020a031916908160001a90535050600101611d87565b505050505050565b6000838381518110611e8d57fe5b602001015160f860020a900460f860020a0290507f610000000000000000000000000000000000000000000000000000000000000081600160f860020a03191610158015611edf575060088260ff1610155b15611f125780602060f860020a0218848481518110611efa57fe5b6020010190600160f860020a031916908160001a9053505b5050505056fe64696c75746532206576656e742064696420616c72656164792068617070656e2164696c757465332063616e2774206765742070726f63657373656420756e6c6573732064696c757465322068617320616c7265616479206265656e2070726f6365737365642e64696c757465312063616e206f6e6c79206765742063616c6c6564206166746572207468652074726573686f6c642074696d657374616d7020676f7420726561636865642e64696c75746533206576656e742064696420616c72656164792068617070656e2164696c75746531206576656e742064696420616c72656164792068617070656e2164696c757465322063616e2774206765742070726f63657373656420756e6c6573732064696c757465312068617320616c7265616479206265656e2070726f6365737365642e54686572652077617320616c726561647920612062616c616e636520646566696e656420666f722074686973206f6c64206164647265737364696c757465322063616e206f6e6c79206765742063616c6c6564206166746572207468652074726573686f6c642074696d657374616d7020676f7420726561636865642e426974636f696e2061646473206120636f6e7374616e74203420746f2074686520762076616c75652e2074686973207369676e6174757265207365656d7320746f20626520696e76616c69642e64696c757465332063616e2774206765742070726f63657373656420756e6c6573732064696c757465312068617320616c7265616479206265656e2070726f6365737365642e546865726520697320616c726561647920612062616c616e636520646566696e656420666f722074686973206f6c642061646472657373a264697066735822122032b7951ecc09b2edc66084f2e0be40d1e546e2ecbad149872018cea4ffc9fd1764736f6c63430006020033",
  "source": "pragma solidity >=0.6.2 <0.7.0;\n\ncontract ClaimContract {\n\n  enum AddressType { LegacyUncompressed, LegacyCompressed, SegwitUncompressed, SegwitCompressed }\n\n  bytes16 internal constant HEX_DIGITS = \"0123456789abcdef\";\n\n  /* Constants for preparing the claim message text */\n  uint8 internal constant ETH_ADDRESS_BYTE_LEN = 20;\n  uint8 internal constant ETH_ADDRESS_HEX_LEN = ETH_ADDRESS_BYTE_LEN * 2;\n  uint8 internal constant CLAIM_PARAM_HASH_BYTE_LEN = 12;\n  uint8 internal constant CLAIM_PARAM_HASH_HEX_LEN = CLAIM_PARAM_HASH_BYTE_LEN * 2;\n  uint8 internal constant BITCOIN_SIG_PREFIX_LEN = 24;\n  bytes24 internal constant BITCOIN_SIG_PREFIX_STR = \"Bitcoin Signed Message:\\n\";\n\n  uint constant YEAR_IN_SECONDS = 31536000;\n  uint constant LEAP_YEAR_IN_SECONDS = 31622400;\n  uint constant DAY_IN_SECONDS = 86400;\n\n\n  mapping (bytes20 => uint256)  public balances;\n  mapping (bytes20 => uint256)  public diluted;\n\n  // tracks if dilution for 75% was executed\n  bool public dilution_s1_75_executed;\n\n  // tracks if dilution for 50% was executed\n  bool public dilution_s2_50_executed;\n\n  // tracks if dilution for 0% was executed\n  bool public dilution_s3_0_executed;\n\n  bytes20[] public allOldAdresses;\n\n  uint public deploymentTimestamp;\n\n  address payable public lateClaimBeneficorAddress;\n  \n  //address owner;\n\n  constructor(address payable _lateClaimBeneficorAddress)\n  public \n  {\n    //balances[\"\"] = 1000000000000;\n    deploymentTimestamp = block.timestamp;\n    lateClaimBeneficorAddress = _lateClaimBeneficorAddress;\n  }\n\n\n  function getPublicKeyFromBitcoinSignature(bytes32 hashValue, bytes32 r, bytes32 s, uint8 v)\n  public\n  pure\n  returns(address)\n  {\n    require(v >= 4, 'Bitcoin adds a constant 4 to the v value. this signature seems to be invalid.');\n    //#1: decode bitcoin signature.\n    //# get R, S, V and Hash of Signature.\n    //# do ecrecover on it.\n    //return \"todo: implement this magic!\";\n\n    return ecrecover(\n        hashValue,\n        v - 4, //bitcoin signature use v that is +4 see reddit comment https://www.reddit.com/r/ethereum/comments/3gmbkx/how_do_i_verify_a_bitcoinsigned_message_in_an/ctzopoz\n        r,\n        s\n    );\n  }\n\n    /// @dev returns the essential part of a Bitcoin-style address associated with an ECDSA public key\n    /// @param a_publicKeyX X coordinate of the ECDSA public key\n    /// @param a_publicKeyY Y coordinate of the ECDSA public key\n    /// @param a_nAddressType Whether DMD is Legacy or Segwit address and if it was compressed\n    /// @return Raw parts of the Bitcoin Style address\n    function PublicKeyToBitcoinAddress(\n        bytes32 a_publicKeyX,\n        bytes32 a_publicKeyY,\n        AddressType a_nAddressType\n    ) public pure returns (bytes20)\n    {\n        bytes20 publicKey;\n        uint8 initialByte;\n        if(a_nAddressType == AddressType.LegacyCompressed || a_nAddressType == AddressType.SegwitCompressed)\n        {\n            //Hash the compressed format\n            initialByte = (uint256(a_publicKeyY) & 1) == 0 ? 0x02 : 0x03;\n            publicKey = ripemd160(abi.encodePacked(sha256(abi.encodePacked(initialByte, a_publicKeyX))));\n        }\n        else\n        {\n            //Hash the uncompressed format\n            initialByte = 0x04;\n            publicKey = ripemd160(abi.encodePacked(sha256(abi.encodePacked(initialByte, a_publicKeyX, a_publicKeyY))));\n        }\n\n        if(a_nAddressType == AddressType.LegacyUncompressed || a_nAddressType == AddressType.LegacyCompressed)\n        {\n            return publicKey;\n        }\n        else if(a_nAddressType == AddressType.SegwitUncompressed || a_nAddressType == AddressType.SegwitCompressed)\n        {\n            return ripemd160(abi.encodePacked(sha256(abi.encodePacked(hex\"0014\", publicKey))));\n        }\n    }\n\n\n    /// @dev Convert an uncompressed ECDSA public key into an Ethereum address\n    /// @param a_publicKeyX X parameter of uncompressed ECDSA public key\n    /// @param a_publicKeyY Y parameter of uncompressed ECDSA public key\n    /// @return Ethereum address generated from the ECDSA public key\n    function PublicKeyToEthereumAddress(\n        bytes32 a_publicKeyX,\n        bytes32 a_publicKeyY\n    ) public pure returns (address)\n    {\n        bytes32 hash = keccak256(abi.encodePacked(a_publicKeyX, a_publicKeyY));\n        return address(uint160(uint256((hash))));\n    }\n\n    /// @dev Validate ECSDA signature was signed by the specified address\n    /// @param _hash Hash of signed data\n    /// @param _v v parameter of ECDSA signature\n    /// @param _r r parameter of ECDSA signature\n    /// @param _s s parameter of ECDSA signature\n    /// @param _address Ethereum address matching the signature\n    /// @return Boolean on if the signature is valid\n    function ValidateSignature(\n        bytes32 _hash,\n        uint8 _v,\n        bytes32 _r,\n        bytes32 _s,\n        address _address\n    ) public pure returns (bool)\n    {\n        return ecrecover(\n            _hash,\n            _v,\n            _r,\n            _s\n        ) == _address;\n    }\n\n\n    /// @dev Validate the ECDSA parameters of signed message\n    /// ECDSA public key associated with the specified Ethereum address\n    /// @param _addressClaiming Address within signed message\n    /// @param _publicKeyX X parameter of uncompressed ECDSA public key\n    /// @param _publicKeyY Y parameter of uncompressed ECDSA public key\n    /// @param _v v parameter of ECDSA signature\n    /// @param _r r parameter of ECDSA signature\n    /// @param _s s parameter of ECDSA signature\n    /// @return Boolean on if the signature is valid\n    function ECDSAVerify(\n        address _addressClaiming,\n        bytes32 _publicKeyX,\n        bytes32 _publicKeyY,\n        uint8 _v,\n        bytes32 _r,\n        bytes32 _s\n    ) public pure returns (bool)\n    {\n        bytes memory addressAsHex = createClaimMessage(_addressClaiming, true);\n\n        bytes32 hHash = sha256(abi.encodePacked(sha256(abi.encodePacked(addressAsHex))));\n\n        return ValidateSignature(\n            hHash,\n            _v,\n            _r,\n            _s,\n            PublicKeyToEthereumAddress(_publicKeyX, _publicKeyY)\n        );\n    }\n\n  function checkSignature(bytes32 _hash, bytes32 _r, bytes32 _s, uint8 _v)\n  public\n  pure\n  returns(address)\n  {\n    return ecrecover(\n      _hash,\n      _v,\n      _r,\n      _s\n      );\n  }\n\n  /**\n    * @dev PUBLIC FACING: Derive an Ethereum address from an ECDSA public key\n    * @param pubKeyX First  half of uncompressed ECDSA public key\n    * @param pubKeyY Second half of uncompressed ECDSA public key\n    * @return Derived Eth address\n    */\n  function pubKeyToEthAddress(bytes32 pubKeyX, bytes32 pubKeyY)\n      public\n      pure\n      returns (address)\n  {\n      return address(uint160(uint256(keccak256(abi.encodePacked(pubKeyX, pubKeyY)))));\n  }\n\n  /**\n  * @dev sha256(sha256(data))\n  * @param data Data to be hashed\n  * @return 32-byte hash\n  */\n  function calcHash256(bytes memory data)\n      public\n      pure\n      returns (bytes32)\n  {\n      // NOTE: https://github.com/axic/ethereum-bsm/blob/master/bsm.sol\n      // maybe encodePacked is not required ?!\n      return sha256(abi.encodePacked(sha256(data)));\n  }\n\n      function _hexStringFromData(bytes memory hexStr, bytes32 data, uint256 startOffset, uint256 dataLen)\n        private\n        pure\n    {\n        uint256 offset = startOffset;\n\n\n\n        for (uint256 i = 0; i < dataLen; i++) {\n            uint8 b = uint8(data[i]);\n\n            hexStr[offset++] = HEX_DIGITS[b >> 4];\n            hexStr[offset++] = HEX_DIGITS[b & 0x0f];\n        }\n    }\n\n    function _addressStringChecksumChar(bytes memory addrStr, uint256 offset, uint8 hashNybble)\n    private\n    pure\n    {\n        bytes1 ch = addrStr[offset];\n\n        if (ch >= \"a\" && hashNybble >= 8) {\n            addrStr[offset] = ch ^ 0x20;\n        }\n    }\n\n  /**\n  * @dev calculates the address string representation of the signed address.\n  * @param _addr address\n  * @param _includeAddrChecksum bool. should the addressChecksum be used for this caluclation.\n  * @return addrStr ethereum address(24 byte)\n  */\n  function calculateAddressString(address _addr, bool _includeAddrChecksum)\n    public\n    pure\n    returns (bytes memory addrStr)\n  {\n      bytes memory tmp = new bytes(ETH_ADDRESS_HEX_LEN);\n      _hexStringFromData(tmp, bytes32(bytes20(_addr)), 0, ETH_ADDRESS_BYTE_LEN);\n\n      if (_includeAddrChecksum) {\n          bytes32 addrStrHash = keccak256(tmp);\n\n          uint256 offset = 0;\n\n          for (uint256 i = 0; i < ETH_ADDRESS_BYTE_LEN; i++) {\n              uint8 b = uint8(addrStrHash[i]);\n\n              _addressStringChecksumChar(tmp, offset++, b >> 4);\n              _addressStringChecksumChar(tmp, offset++, b & 0x0f);\n          }\n      }\n\n      // the correct checksum is now in the tmp variable.\n      // we extend this by the Ethereum usual prefix 0x\n\n      addrStr = new bytes(ETH_ADDRESS_HEX_LEN + 2);\n\n      addrStr[0] = '0';\n      addrStr[1] = 'x';\n\n      for (uint256 i = 0; i < ETH_ADDRESS_HEX_LEN; i++) {\n          addrStr[i+2] = tmp[i];\n      }\n\n      return addrStr;\n  }\n\n  /**\n  * @dev returns the hash for the provided claim target address.\n  * @param _claimToAddr address target address for the claim.\n  * @param _claimAddrChecksum bool target address was signed using the Ethereum checksum (EIP-55)\n  * @return bytes32 DMD style hash of the claim message.\n  */\n  function createClaimMessage(address _claimToAddr, bool _claimAddrChecksum)\n        public\n        pure\n        returns (bytes memory)\n    {\n        bytes memory prefixStr = \"\";\n\n        //TODO: pass this as an argument. evaluate in JS before includeAddrChecksum is used or not.\n        //now for testing, we assume Yes.\n\n        bytes memory addrStr = calculateAddressString(_claimToAddr, _claimAddrChecksum);\n\n        return abi.encodePacked(\n                BITCOIN_SIG_PREFIX_LEN,\n                BITCOIN_SIG_PREFIX_STR,\n                uint8(prefixStr.length) + ETH_ADDRESS_HEX_LEN + 2,\n                prefixStr,\n                addrStr\n            );\n    }\n\n  /**\n  * @dev returns the hash for the provided claim target address.\n  * @param _claimToAddr address target address for the claim.\n  * @param _claimAddrChecksum bool target address was signed using the Ethereum checksum (EIP-55)\n  * @return bytes32 DMD style hash of the claim message.\n  */\n  function getHashForClaimMessage(\n    address _claimToAddr,\n    bool  _claimAddrChecksum)\n    public\n    pure\n    returns (bytes32)\n  {\n    return calcHash256(\n          createClaimMessage(_claimToAddr, _claimAddrChecksum)\n      );\n  }\n\n  /**\n  * @dev returns the ethereum pseude address of a DMD signed message.\n  * @param _claimToAddr address target address for the claim.\n  * @param _claimAddrChecksum bool target address was signed using the Ethereum checksum (EIP-55)\n  * @param _v uint8 v component of the signature.\n  * @param _r bytes32 r component of the signature.\n  * @param _s bytes32 s component of the signautre.\n  * @return address DMD pseudo address of the signer. (what would be the address if the same Private Key would have been used on an DMDv3 than in DMDv4)\n  */\n  function getEthAddressFromSignature(\n    address _claimToAddr,\n    bool    _claimAddrChecksum,\n    uint8 _v,\n    bytes32 _r,\n    bytes32 _s\n  )\n  public\n  pure\n  returns (address)\n  {\n    //require(_v >= 27 && _v <= 30, \"v invalid\");\n\n     /* Create and hash the claim message text */\n      bytes32 messageHash = calcHash256(\n          createClaimMessage(_claimToAddr, _claimAddrChecksum)\n      );\n\n    return ecrecover(messageHash, _v, _r, _s);\n  }\n\n  function claimMessageMatchesSignature(\n    address _claimToAddr,\n    bool    _claimAddrChecksum,\n    bytes32 _pubKeyX,\n    bytes32 _pubKeyY,\n    uint8 _v,\n    bytes32 _r,\n    bytes32 _s\n  )\n    public\n    pure\n    returns (bool)\n  {\n      require(_v >= 27 && _v <= 30, \"v invalid\");\n\n      /*\n          ecrecover() returns an Eth address rather than a public key, so\n          we must do the same to compare.\n      */\n      address pubKeyEthAddr = pubKeyToEthAddress(_pubKeyX, _pubKeyY);\n\n      //we need to check if X and Y corresponds to R and S.\n\n      /* Create and hash the claim message text */\n      bytes32 messageHash = calcHash256(\n          createClaimMessage(_claimToAddr, _claimAddrChecksum)\n      );\n\n      /* Verify the public key */\n      return ecrecover(messageHash, _v, _r, _s) == pubKeyEthAddr;\n  }\n\n  function getDilutionTimestamp1()\n  public\n  view\n  returns (uint256)\n  {\n    return deploymentTimestamp + (DAY_IN_SECONDS * 2 * 31) + DAY_IN_SECONDS * 30;\n  }\n\n\n  function getDilutionTimestamp2()\n  public\n  view\n  returns (uint256)\n  {\n    return deploymentTimestamp + (DAY_IN_SECONDS * 3 * 31) + (DAY_IN_SECONDS * 3 * 30);\n  }\n\n\n  function getDilutionTimestamp3()\n  public\n  view\n  returns (uint256)\n  {\n    return deploymentTimestamp + (YEAR_IN_SECONDS * 4) + LEAP_YEAR_IN_SECONDS;\n  }\n\n   /**\n  * @dev dilutes the entitlement after a certain time passed away and sends it to the beneficor (reinsert pot)\n  * @return amount of DMD that got send to the beneficor.\n  */\n  function dilute1()\n  public\n  returns (uint)\n  {\n    require(block.timestamp > getDilutionTimestamp1(), \"dilute1 can only get called after the treshold timestamp got reached.\");\n    require(dilution_s1_75_executed == false, \"dilute1 event did already happen!\");\n\n    dilution_s1_75_executed = true;\n    // in dilute 1: after 3 months 25% of the total coins get diluted.\n\n    uint totalBalance = (payable(address(this))).balance;\n    uint dilutionBalance = totalBalance / 4;\n    lateClaimBeneficorAddress.transfer(dilutionBalance);\n    return dilutionBalance;\n  }\n\n  /**\n  * @dev dilutes the entitlement after a certain time passed away and sends it to the beneficor (reinsert pot)\n  * @return amount of DMD that got send to the beneficor.\n  */\n  function dilute2()\n  public\n  returns (uint)\n  {\n    require(block.timestamp > getDilutionTimestamp2(), \"dilute2 can only get called after the treshold timestamp got reached.\");\n    require(dilution_s1_75_executed == true, \"dilute2 can't get processed unless dilute1 has already been processed.\");\n    require(dilution_s2_50_executed == false, \"dilute2 event did already happen!\");\n\n    dilution_s2_50_executed = true;\n    // in dilute 1: after 3 months 25% of the total coins get diluted.\n\n    uint totalBalance = (payable(address(this))).balance;\n    \n    // during dilute2, \n    // 25% from dilute1 are already counted away from totalBalance.\n    // means 3/4 of the value is still there and we need to get it to 2/4.\n    // we can do this by dilluting another 1 / 3.\n\n    uint dilutionBalance = totalBalance / 3;\n    lateClaimBeneficorAddress.transfer(dilutionBalance);\n    return dilutionBalance;\n  }\n\n   /**\n  * @dev dilutes the entitlement after a certain time passed away and sends it to the beneficor (reinsert pot)\n  * @return amount of DMD that got send to the beneficor.\n  */\n  function dilute3()\n  public\n  returns (uint)\n  {\n    require(block.timestamp > getDilutionTimestamp3(), \"dilute2 can only get called after the treshold timestamp got reached.\");\n    require(dilution_s1_75_executed == true, \"dilute3 can't get processed unless dilute1 has already been processed.\");\n    require(dilution_s2_50_executed == true, \"dilute3 can't get processed unless dilute2 has already been processed.\");\n    require(dilution_s3_0_executed == false, \"dilute3 event did already happen!\");\n\n    dilution_s1_75_executed = true;\n    // in dilute 1: after 3 months 25% of the total coins get diluted.\n\n    uint totalBalance = (payable(address(this))).balance;\n    \n    // 50% got already diluted. this is the last phase, we dilute the rest.\n    lateClaimBeneficorAddress.transfer(totalBalance);\n    return totalBalance;\n  }\n\n  function getCurrentDilutedClaimFactor()\n  public\n  view\n  returns (uint256 nominator, uint256 denominator)\n  {\n      if (!dilution_s1_75_executed)\n      {\n        return (1, 1);\n      }\n      else if (!dilution_s2_50_executed)\n      {\n        return (3, 4);\n      }\n      else if (!dilution_s3_0_executed)\n      {\n        return (1, 2);\n      }\n      else\n      {\n        return (0, 1);\n      }\n  }\n\n//   function transferDilutedFundsToBeneficor()\n//   public\n//   {\n//   }\n\n  \n\n  function addBalance(bytes20 oldAddress)\n  payable\n  public\n  {\n    require(balances[oldAddress] == 0, \"There is already a balance defined for this old address\");\n    require(diluted[oldAddress] == 0, \"There was already a balance defined for this old address\");\n    balances[oldAddress] = msg.value;\n    allOldAdresses.push(oldAddress);\n  }\n\n  function claim(bytes20 oldAddress, address payable targetAdress)\n  public\n  {\n    //if already claimed, it just returns.\n    uint256 currentBalance = balances[oldAddress];\n    if ( currentBalance == 0)\n    {\n        return;\n    }\n\n    (uint256 nominator, uint256 denominator) = getCurrentDilutedClaimFactor();\n\n    // the nominator is 0 if the claim period passed.\n    if (nominator == 0) \n    {\n        return;\n    }\n\n    uint256 claimBalance = (currentBalance * nominator) / denominator;\n    \n    // remember that the funds are going to get claimed, hard protection about reentrancy attacks.\n    balances[oldAddress] = 0;\n    targetAdress.transfer(claimBalance);\n  }\n\n}",
  "sourcePath": "/home/sn/dmd/dmd-meta/dmdv4migration/contracts/contracts/ClaimContract.sol",
  "compiler": {
    "name": "solc",
    "version": "0.6.2+commit.bacdbe57.Emscripten.clang"
  },
  "schemaVersion": "3.3.1",
  "updatedAt": "2020-11-25T14:09:57.243Z",
  "devdoc": {
    "methods": {
      "ECDSAVerify(address,bytes32,bytes32,uint8,bytes32,bytes32)": {
        "details": "Validate the ECDSA parameters of signed message ECDSA public key associated with the specified Ethereum address",
        "params": {
          "_addressClaiming": "Address within signed message",
          "_publicKeyX": "X parameter of uncompressed ECDSA public key",
          "_publicKeyY": "Y parameter of uncompressed ECDSA public key",
          "_r": "r parameter of ECDSA signature",
          "_s": "s parameter of ECDSA signature",
          "_v": "v parameter of ECDSA signature"
        },
        "returns": {
          "_0": "Boolean on if the signature is valid"
        }
      },
      "PublicKeyToBitcoinAddress(bytes32,bytes32,uint8)": {
        "details": "returns the essential part of a Bitcoin-style address associated with an ECDSA public key",
        "params": {
          "a_nAddressType": "Whether DMD is Legacy or Segwit address and if it was compressed",
          "a_publicKeyX": "X coordinate of the ECDSA public key",
          "a_publicKeyY": "Y coordinate of the ECDSA public key"
        },
        "returns": {
          "_0": "Raw parts of the Bitcoin Style address"
        }
      },
      "PublicKeyToEthereumAddress(bytes32,bytes32)": {
        "details": "Convert an uncompressed ECDSA public key into an Ethereum address",
        "params": {
          "a_publicKeyX": "X parameter of uncompressed ECDSA public key",
          "a_publicKeyY": "Y parameter of uncompressed ECDSA public key"
        },
        "returns": {
          "_0": "Ethereum address generated from the ECDSA public key"
        }
      },
      "ValidateSignature(bytes32,uint8,bytes32,bytes32,address)": {
        "details": "Validate ECSDA signature was signed by the specified address",
        "params": {
          "_address": "Ethereum address matching the signature",
          "_hash": "Hash of signed data",
          "_r": "r parameter of ECDSA signature",
          "_s": "s parameter of ECDSA signature",
          "_v": "v parameter of ECDSA signature"
        },
        "returns": {
          "_0": "Boolean on if the signature is valid"
        }
      },
      "calcHash256(bytes)": {
        "details": "sha256(sha256(data))",
        "params": {
          "data": "Data to be hashed"
        },
        "returns": {
          "_0": "32-byte hash"
        }
      },
      "calculateAddressString(address,bool)": {
        "details": "calculates the address string representation of the signed address.",
        "params": {
          "_addr": "address",
          "_includeAddrChecksum": "bool. should the addressChecksum be used for this caluclation."
        },
        "returns": {
          "addrStr": "ethereum address(24 byte)"
        }
      },
      "createClaimMessage(address,bool)": {
        "details": "returns the hash for the provided claim target address.",
        "params": {
          "_claimAddrChecksum": "bool target address was signed using the Ethereum checksum (EIP-55)",
          "_claimToAddr": "address target address for the claim."
        },
        "returns": {
          "_0": "bytes32 DMD style hash of the claim message."
        }
      },
      "dilute1()": {
        "details": "dilutes the entitlement after a certain time passed away and sends it to the beneficor (reinsert pot)",
        "returns": {
          "_0": "amount of DMD that got send to the beneficor."
        }
      },
      "dilute2()": {
        "details": "dilutes the entitlement after a certain time passed away and sends it to the beneficor (reinsert pot)",
        "returns": {
          "_0": "amount of DMD that got send to the beneficor."
        }
      },
      "dilute3()": {
        "details": "dilutes the entitlement after a certain time passed away and sends it to the beneficor (reinsert pot)",
        "returns": {
          "_0": "amount of DMD that got send to the beneficor."
        }
      },
      "getEthAddressFromSignature(address,bool,uint8,bytes32,bytes32)": {
        "details": "returns the ethereum pseude address of a DMD signed message.",
        "params": {
          "_claimAddrChecksum": "bool target address was signed using the Ethereum checksum (EIP-55)",
          "_claimToAddr": "address target address for the claim.",
          "_r": "bytes32 r component of the signature.",
          "_s": "bytes32 s component of the signautre.",
          "_v": "uint8 v component of the signature."
        },
        "returns": {
          "_0": "address DMD pseudo address of the signer. (what would be the address if the same Private Key would have been used on an DMDv3 than in DMDv4)"
        }
      },
      "getHashForClaimMessage(address,bool)": {
        "details": "returns the hash for the provided claim target address.",
        "params": {
          "_claimAddrChecksum": "bool target address was signed using the Ethereum checksum (EIP-55)",
          "_claimToAddr": "address target address for the claim."
        },
        "returns": {
          "_0": "bytes32 DMD style hash of the claim message."
        }
      },
      "pubKeyToEthAddress(bytes32,bytes32)": {
        "details": "PUBLIC FACING: Derive an Ethereum address from an ECDSA public key",
        "params": {
          "pubKeyX": "First  half of uncompressed ECDSA public key",
          "pubKeyY": "Second half of uncompressed ECDSA public key"
        },
        "returns": {
          "_0": "Derived Eth address"
        }
      }
    }
  },
  "userdoc": {
    "methods": {}
  }
}