{
  "contractName": "EC",
  "abi": [
    {
      "inputs": [],
      "name": "a",
      "outputs": [
        {
          "internalType": "uint256",
          "name": "",
          "type": "uint256"
        }
      ],
      "stateMutability": "view",
      "type": "function"
    },
    {
      "inputs": [],
      "name": "b",
      "outputs": [
        {
          "internalType": "uint256",
          "name": "",
          "type": "uint256"
        }
      ],
      "stateMutability": "view",
      "type": "function"
    },
    {
      "inputs": [],
      "name": "gx",
      "outputs": [
        {
          "internalType": "uint256",
          "name": "",
          "type": "uint256"
        }
      ],
      "stateMutability": "view",
      "type": "function"
    },
    {
      "inputs": [],
      "name": "gy",
      "outputs": [
        {
          "internalType": "uint256",
          "name": "",
          "type": "uint256"
        }
      ],
      "stateMutability": "view",
      "type": "function"
    },
    {
      "inputs": [],
      "name": "n",
      "outputs": [
        {
          "internalType": "uint256",
          "name": "",
          "type": "uint256"
        }
      ],
      "stateMutability": "view",
      "type": "function"
    },
    {
      "inputs": [
        {
          "internalType": "uint256",
          "name": "x1",
          "type": "uint256"
        },
        {
          "internalType": "uint256",
          "name": "y1",
          "type": "uint256"
        },
        {
          "internalType": "uint256",
          "name": "x2",
          "type": "uint256"
        },
        {
          "internalType": "uint256",
          "name": "y2",
          "type": "uint256"
        }
      ],
      "name": "ecadd",
      "outputs": [
        {
          "internalType": "uint256",
          "name": "x3",
          "type": "uint256"
        },
        {
          "internalType": "uint256",
          "name": "y3",
          "type": "uint256"
        }
      ],
      "stateMutability": "pure",
      "type": "function"
    },
    {
      "inputs": [
        {
          "internalType": "uint256",
          "name": "x1",
          "type": "uint256"
        },
        {
          "internalType": "uint256",
          "name": "y1",
          "type": "uint256"
        },
        {
          "internalType": "uint256",
          "name": "scalar",
          "type": "uint256"
        }
      ],
      "name": "ecmul",
      "outputs": [
        {
          "internalType": "uint256",
          "name": "x2",
          "type": "uint256"
        },
        {
          "internalType": "uint256",
          "name": "y2",
          "type": "uint256"
        }
      ],
      "stateMutability": "pure",
      "type": "function"
    },
    {
      "inputs": [
        {
          "internalType": "uint256",
          "name": "x1",
          "type": "uint256"
        },
        {
          "internalType": "uint256",
          "name": "y1",
          "type": "uint256"
        },
        {
          "internalType": "uint256",
          "name": "scalar",
          "type": "uint256"
        },
        {
          "internalType": "uint256",
          "name": "qx",
          "type": "uint256"
        },
        {
          "internalType": "uint256",
          "name": "qy",
          "type": "uint256"
        }
      ],
      "name": "ecmulVerify",
      "outputs": [
        {
          "internalType": "bool",
          "name": "",
          "type": "bool"
        }
      ],
      "stateMutability": "pure",
      "type": "function"
    },
    {
      "inputs": [
        {
          "internalType": "uint256",
          "name": "privKey",
          "type": "uint256"
        }
      ],
      "name": "publicKey",
      "outputs": [
        {
          "internalType": "uint256",
          "name": "qx",
          "type": "uint256"
        },
        {
          "internalType": "uint256",
          "name": "qy",
          "type": "uint256"
        }
      ],
      "stateMutability": "pure",
      "type": "function"
    },
    {
      "inputs": [
        {
          "internalType": "uint256",
          "name": "privKey",
          "type": "uint256"
        },
        {
          "internalType": "uint256",
          "name": "x",
          "type": "uint256"
        },
        {
          "internalType": "uint256",
          "name": "y",
          "type": "uint256"
        }
      ],
      "name": "publicKeyVerify",
      "outputs": [
        {
          "internalType": "bool",
          "name": "",
          "type": "bool"
        }
      ],
      "stateMutability": "pure",
      "type": "function"
    },
    {
      "inputs": [
        {
          "internalType": "uint256",
          "name": "privKey",
          "type": "uint256"
        },
        {
          "internalType": "uint256",
          "name": "pubX",
          "type": "uint256"
        },
        {
          "internalType": "uint256",
          "name": "pubY",
          "type": "uint256"
        }
      ],
      "name": "deriveKey",
      "outputs": [
        {
          "internalType": "uint256",
          "name": "qx",
          "type": "uint256"
        },
        {
          "internalType": "uint256",
          "name": "qy",
          "type": "uint256"
        }
      ],
      "stateMutability": "pure",
      "type": "function"
    }
  ],
  "bytecode": "0x610811610026600b82828239805160001a60731461001957fe5b30600052607381538281f3fe73000000000000000000000000000000000000000030146080604052600436106100d0576000357c0100000000000000000000000000000000000000000000000000000000900480634df7e3d0116100985780634df7e3d01461015057806366ce10b7146101585780638081a1e7146101815780638940aebe146101c3578063bb8c256a146101e0578063e241c1d91461020f576100d0565b8063022079d9146100d557806306c91ce31461011e5780630dbe671f146101385780632d58c9a2146101405780632e52d60614610148575b600080fd5b61010a600480360360a08110156100eb57600080fd5b5080359060208101359060408101359060608101359060800135610238565b604080519115158252519081900360200190f35b61012661031e565b60408051918252519081900360200190f35b610126610342565b610126610347565b61012661036b565b610126610375565b61010a6004803603606081101561016e57600080fd5b508035906020810135906040013561037a565b6101aa6004803603606081101561019757600080fd5b50803590602081013590604001356103d1565b6040805192835260208301919091528051918290030190f35b6101aa600480360360208110156101d957600080fd5b5035610416565b6101aa600480360360808110156101f657600080fd5b508035906020810135906040810135906060013561046d565b6101aa6004803603606081101561022557600080fd5b50803590602081013590604001356104b6565b600070014551231950b75fc4402da1732fc9bebe19816001816002890661026057601b610263565b601c5b8a858061026c57fe5b8c8b09604080516000815260208082018084529690965260ff90941684820152606084019290925260808301525160a08083019392601f198301929081900390910190855afa1580156102c3573d6000803e3d6000fd5b505060408051601f1981015160208281018a905282840189905283518084038501815260609093019093528151919092012073ffffffffffffffffffffffffffffffffffffffff918216911614935050505095945050505050565b7f79be667ef9dcbbac55a06295ce870b07029bfcdb2dce28d959f2815b16f8179881565b600081565b7f483ada7726a3c4655da4fbfc0e1108a8fd17b448a68554199c47d08ffb10d4b881565b6401000003d01981565b600781565b60006103c97f79be667ef9dcbbac55a06295ce870b07029bfcdb2dce28d959f2815b16f817987f483ada7726a3c4655da4fbfc0e1108a8fd17b448a68554199c47d08ffb10d4b8868686610238565b949350505050565b60008060006103e384878760016104c4565b919450925090506103f381610545565b90506401000003d01981840992506401000003d019818309915050935093915050565b6000806104647f79be667ef9dcbbac55a06295ce870b07029bfcdb2dce28d959f2815b16f817987f483ada7726a3c4655da4fbfc0e1108a8fd17b448a68554199c47d08ffb10d4b8856103d1565b91509150915091565b60008060006104828787600188886001610599565b9194509250905061049281610545565b90506401000003d01981840992506401000003d01981830991505094509492505050565b60008060006103e386868660015b600080808686868684806001866104ed5750600098508897506001965061053b95505050505050565b861561052f5760018716156105125761050a838383898989610599565b919450925090505b600287049650610523868686610728565b919750955093506104ed565b91985096509450505050505b9450945094915050565b60008060016401000003d01984835b811561058e5781838161056357fe5b049050836401000003d019808684096401000003d01903870890955093509091818302900390610554565b509295945050505050565b60008080808080808c1580156105ad57508b155b156105c4578989899650965096505050505061071c565b891580156105d0575088155b156105e7578c8c8c9650965096505050505061071c565b898d1480156105f55750888c145b15610649576106068d8c8f8e61074a565b909450925061061984846003600161074a565b909450925061062c84846000600161076f565b909450925061063f8c8c6002600161074a565b909250905061066c565b61065589898e8e610795565b90945092506106668a898f8e610795565b90925090505b610678848484846107b7565b90945092506106898484818161074a565b909750915061069a87838f8e610795565b90975091506106ab87838c8b610795565b90975091506106bc8d8c8985610795565b90965090506106cd8682868661074a565b90965090506106de86828e8e610795565b9096509050818114610713576401000003d01981880996506401000003d01982870995506401000003d0198183099450610717565b8194505b505050505b96509650969350505050565b600080600061073b868686898989610599565b91989097509095509350505050565b6000806401000003d0198487096401000003d0195b8487099097909650945050505050565b6000806401000003d019808686096401000003d0195b888609086401000003d01961075f565b6000806401000003d0198086866401000003d01903096401000003d019610785565b6000806401000003d0198387096401000003d019858709909790965094505050505056fea2646970667358221220e24b6e718d875a881bc28c6e8fe35f45967a437a18f5de5da62efde70ac7f3bc64736f6c63430006020033",
  "source": "pragma solidity >0.6.0 < 0.7.0;\n\n\nlibrary EC {\n\n    uint256 constant public gx = 0x79BE667EF9DCBBAC55A06295CE870B07029BFCDB2DCE28D959F2815B16F81798;\n    uint256 constant public gy = 0x483ADA7726A3C4655DA4FBFC0E1108A8FD17B448A68554199C47D08FFB10D4B8;\n    uint256 constant public n = 0xFFFFFFFFFFFFFFFFFFFFFFFFFFFFFFFFFFFFFFFFFFFFFFFFFFFFFFFEFFFFFC2F;\n    uint256 constant public a = 0;\n    uint256 constant public b = 7;\n\n    function _jAdd(\n        uint256 x1, uint256 z1,\n        uint256 x2, uint256 z2)\n        internal\n        pure\n        returns(uint256 x3, uint256 z3)\n    {\n        (x3, z3) = (\n            addmod(\n                mulmod(z2, x1, n),\n                mulmod(x2, z1, n),\n                n\n            ),\n            mulmod(z1, z2, n)\n        );\n    }\n\n    function _jSub(\n        uint256 x1, uint256 z1,\n        uint256 x2, uint256 z2)\n        internal\n        pure\n        returns(uint256 x3, uint256 z3)\n    {\n        (x3, z3) = (\n            addmod(\n                mulmod(z2, x1, n),\n                mulmod(n - x2, z1, n),\n                n\n            ),\n            mulmod(z1, z2, n)\n        );\n    }\n\n    function _jMul(\n        uint256 x1, uint256 z1,\n        uint256 x2, uint256 z2)\n        internal\n        pure\n        returns(uint256 x3, uint256 z3)\n    {\n        (x3, z3) = (\n            mulmod(x1, x2, n),\n            mulmod(z1, z2, n)\n        );\n    }\n\n    function _jDiv(\n        uint256 x1, uint256 z1,\n        uint256 x2, uint256 z2)\n        internal\n        pure\n        returns(uint256 x3, uint256 z3)\n    {\n        (x3, z3) = (\n            mulmod(x1, z2, n),\n            mulmod(z1, x2, n)\n        );\n    }\n\n    function _inverse(uint256 val)\n        internal\n        pure\n        returns(uint256 invVal)\n    {\n        uint256 t = 0;\n        uint256 newT = 1;\n        uint256 r = n;\n        uint256 newR = val;\n        uint256 q;\n        while (newR != 0) {\n            q = r / newR;\n\n            (t, newT) = (newT, addmod(t, (n - mulmod(q, newT, n)), n));\n            (r, newR) = (newR, r - q * newR );\n        }\n\n        return t;\n    }\n\n    function _ecAdd(\n        uint256 x1, uint256 y1, uint256 z1,\n        uint256 x2, uint256 y2, uint256 z2)\n        internal\n        pure\n        returns(uint256 x3, uint256 y3, uint256 z3)\n    {\n        uint256 lx;\n        uint256 lz;\n        uint256 da;\n        uint256 db;\n\n        if (x1 == 0 && y1 == 0) {\n            return (x2, y2, z2);\n        }\n\n        if (x2 == 0 && y2 == 0) {\n            return (x1, y1, z1);\n        }\n\n        if (x1 == x2 && y1 == y2) {\n            (lx, lz) = _jMul(x1, z1, x1, z1);\n            (lx, lz) = _jMul(lx, lz, 3, 1);\n            (lx, lz) = _jAdd(lx, lz, a, 1);\n\n            (da,db) = _jMul(y1, z1, 2, 1);\n        } else {\n            (lx, lz) = _jSub(y2, z2, y1, z1);\n            (da, db) = _jSub(x2, z2, x1, z1);\n        }\n\n        (lx, lz) = _jDiv(lx, lz, da, db);\n\n        (x3, da) = _jMul(lx, lz, lx, lz);\n        (x3, da) = _jSub(x3, da, x1, z1);\n        (x3, da) = _jSub(x3, da, x2, z2);\n\n        (y3, db) = _jSub(x1, z1, x3, da);\n        (y3, db) = _jMul(y3, db, lx, lz);\n        (y3, db) = _jSub(y3, db, y1, z1);\n\n        if (da != db) {\n            x3 = mulmod(x3, db, n);\n            y3 = mulmod(y3, da, n);\n            z3 = mulmod(da, db, n);\n        } else {\n            z3 = da;\n        }\n    }\n\n    function _ecDouble(uint256 x1, uint256 y1, uint256 z1)\n    internal\n    pure\n    returns(uint256 x3, uint256 y3, uint256 z3)\n    {\n      (x3, y3, z3) = _ecAdd(x1, y1, z1, x1, y1, z1);\n    }\n\n    function _ecMul(uint256 d, uint256 x1, uint256 y1, uint256 z1)\n    internal\n    pure\n    returns(uint256 x3, uint256 y3, uint256 z3)\n    {\n        uint256 remaining = d;\n        uint256 px = x1;\n        uint256 py = y1;\n        uint256 pz = z1;\n        uint256 acx = 0;\n        uint256 acy = 0;\n        uint256 acz = 1;\n\n        if (d == 0) {\n            return (0, 0, 1);\n        }\n\n        while (remaining != 0) {\n            if ((remaining & 1) != 0) {\n                (acx,acy,acz) = _ecAdd(acx, acy, acz, px, py, pz);\n            }\n            remaining = remaining / 2;\n            (px, py, pz) = _ecDouble(px, py, pz);\n        }\n\n        (x3, y3, z3) = (acx, acy, acz);\n    }\n\n    function ecadd(\n        uint256 x1, uint256 y1,\n        uint256 x2, uint256 y2)\n        public\n        pure\n        returns(uint256 x3, uint256 y3)\n    {\n        uint256 z;\n        (x3, y3, z) = _ecAdd(x1, y1, 1, x2, y2, 1);\n        z = _inverse(z);\n        x3 = mulmod(x3, z, n);\n        y3 = mulmod(y3, z, n);\n    }\n\n    function ecmul(uint256 x1, uint256 y1, uint256 scalar) public pure\n        returns(uint256 x2, uint256 y2)\n    {\n        uint256 z;\n        (x2, y2, z) = _ecMul(scalar, x1, y1, 1);\n        z = _inverse(z);\n        x2 = mulmod(x2, z, n);\n        y2 = mulmod(y2, z, n);\n    }\n\n    //\n    // Based on the original idea of Vitalik Buterin:\n    // https://ethresear.ch/t/you-can-kinda-abuse-ecrecover-to-do-ecmul-in-secp256k1-today/2384/9\n    //\n    function ecmulVerify(uint256 x1, uint256 y1, uint256 scalar, uint256 qx, uint256 qy) public pure\n        returns(bool)\n    {\n        uint256 m = 0xFFFFFFFFFFFFFFFFFFFFFFFFFFFFFFFEBAAEDCE6AF48A03BBFD25E8CD0364141;\n        address signer = ecrecover(0, y1 % 2 != 0 ? 28 : 27, bytes32(x1), bytes32(mulmod(scalar, x1, m)));\n        address xyAddress = address(uint256(keccak256(abi.encodePacked(qx, qy))) & 0x00FFFFFFFFFFFFFFFFFFFFFFFFFFFFFFFFFFFFFFFF);\n        return xyAddress == signer;\n    }\n\n    function publicKey(uint256 privKey) public pure\n        returns(uint256 qx, uint256 qy)\n    {\n        return ecmul(gx, gy, privKey);\n    }\n\n    function publicKeyVerify(uint256 privKey, uint256 x, uint256 y) public pure\n        returns(bool)\n    {\n        return ecmulVerify(gx, gy, privKey, x, y);\n    }\n\n    function deriveKey(uint256 privKey, uint256 pubX, uint256 pubY) public pure\n        returns(uint256 qx, uint256 qy)\n    {\n        uint256 z;\n        (qx, qy, z) = _ecMul(privKey, pubX, pubY, 1);\n        z = _inverse(z);\n        qx = mulmod(qx, z, n);\n        qy = mulmod(qy, z, n);\n    }\n}",
  "sourcePath": "/home/sn/github/dmdv4migration/contracts/contracts/EC.sol",
  "compiler": {
    "name": "solc",
    "version": "0.6.2+commit.bacdbe57.Emscripten.clang"
  },
  "schemaVersion": "3.0.23",
  "updatedAt": "2020-06-25T10:15:00.595Z",
  "devdoc": {
    "methods": {}
  },
  "userdoc": {
    "methods": {}
  }
}